:020000040800F2
:1000000000040020390200083B0200083B020008FF
:100010003B0200083B0200083B0200083B020008CC
:100020003B0200083B0200083B020008214E00088A
:100030003B0200083B0200083B0200083B020008AC
:100040003B0200083B0200083B0200083B0200089C
:100050003B0200083B0200083B0200083B0200088C
:100060003B0200083B0200083B0200083B0200087C
:100070003B0200083B0200083B0200083B0200086C
:100080003B0200083B0200083B0200083B0200085C
:1000900041A500083B0200083B0200083B020008A3
:1000A0003B0200083B0200083B0200083B0200083C
:1000B00061A800083B0200083B0200083B02000860
:1000C0003B0200083B0200083B0200083B0200081C
:1000D0003B0200083B0200083B0200083B0200080C
:1000E0003B0200083B0200083B0200083B020008FC
:1000F0003B0200083B0200083B0200083B020008EC
:100100003B0200083B0200083B0200083B020008DB
:100110003B0200083B0200083B0200083B020008CB
:100120003B0200083B0200083B0200083B020008BB
:100130003B0200083B0200083B0200083B020008AB
:100140003B0200083B0200083B0200083B0200089B
:100150003B0200083B0200083B0200083B0200088B
:1001600072B6274880F30888264880F30988264815
:100170004EF60851CEF200010860022080F3148888
:10018000BFF36F8F0AF014FC0AF09AF94FF0553064
:100190001E491B4A91423CBF41F8040BFAE71C4937
:1001A000184A91423CBF41F8040BFAE719491A4A30
:1001B0001A4B9A423EBF51F8040B42F8040BF8E781
:1001C00000201749174A91423CBF41F8040BFAE757
:1001D0000AF0A6FB0AF0E4FB134C144DAC4203DA20
:1001E00054F8041B8847F9E708F022F9104C114D28
:1001F000AC4203DA54F8041B8847F9E70AF0C8BB9D
:10020000000400200008002000000008000000207A
:100210000004002074D5000800080020E80C00202D
:10022000E80C002090240020600100086001000814
:10023000600100086001000892E700F000F8FEE7A6
:100240002DE9F04FC1F80CD0C3689D46BDE8F08F92
:10025000002383F311882846A047002004F0F0FD16
:10026000FEE704F025FE00DFFEE70000032A70B47D
:1002700014D940EA0105AD0704460B4622D11D689A
:1002800026681946AE42204603F1040304F1040433
:1002900018D1043A032A20461946F0D8541E72B1E8
:1002A00002780B789A4208BF641806D00CE010F868
:1002B000012F11F8013F9A4206D1A142F7D1002047
:1002C00070BC7047541EEBE7D01A70BC704700BF7B
:1002D000844641EA000313F0030349D1403A23D393
:1002E0000B6803604B6843608B688360CB68C360B6
:1002F0000B6903614B6943618B698361CB69C3619E
:100300000B6A03624B6A43628B6A8362CB6AC36285
:100310000B6B03634B6B43638B6B8363CB6BC3636D
:1003200040304031403ADBD230320BD30B680360AF
:100330004B6843608B688360CB68C36010301031BA
:10034000103AF3D20C3205D351F8043B40F8043B89
:10035000043AF9D2043208D0D2071CBF11F8013B8D
:1003600000F8013B01D30B8803806046704700BF53
:10037000082A13D38B07B1D010F00303AED0C3F11A
:100380000403D21ADB071CBF11F8013B00F8013B44
:10039000A4D331F8023B20F8023B9FE7043AD9D3BB
:1003A000013A11F8013B00F8013BF9D20B780370D8
:1003B0004B7843708B78837060467047F0B4860743
:1003C00043D0541E002A3ED0CAB2034602E014F1C4
:1003D000FF3438D303F8012B9D07F8D1032C2BD918
:1003E000CDB245EA05250F2C45EA054516D9A4F1FD
:1003F00010073F0903F1200606EB071603F1100270
:1004000042E9045542E902551032B242F8D104F0F3
:100410000F040137032C03EB07130DD91E462246A8
:10042000043A032A46F8045BFAD8221F22F003029A
:100430000432134404F003042CB1C9B21C4403F881
:10044000011B9C42FBD1F0BC704714460346C5E734
:10045000C9B200F00303002943D07BB10378002B1D
:1004600067D099423CD0431C05E013F8012B002AC9
:100470005DD08A4234D09A071846F6D170B4046829
:1004800041EA012646EA064686EA0405A5F101335B
:10049000A4F1013223EA050322EA0402134313F014
:1004A000803F0FD150F8044F84EA0605A5F10132D0
:1004B000A4F1013322EA050223EA0403134313F0F3
:1004C000803FEFD0037843B1994202D106E08B42DE
:1004D00004D010F8013F002BF9D1184670BC7047CA
:1004E00070475BB10378002BFAD0431C03E002781D
:1004F0000133002AF4D099071846F8D10268A2F116
:10050000013323EA020313F0803F08D150F8042F8F
:10051000A2F1013323EA020313F0803FF6D00378FF
:10052000002BDDD010F8013F002BFBD170471046A7
:1005300070471846704700BF80EA010C1CF0030F9B
:1005400037D110F0030C20F0030021F0030150F824
:10055000042B08BF51F8043B0ED08CF0030C6FF055
:100560007F434FEACC0C23FA0CFC51F8043B42EADF
:100570000C0243EA0C0300BFA2F1013C9A4201BF06
:100580002CEA020C1CF0803F50F8042B51F8043B7D
:10059000F2D04FEA02604FEA1222012828BFB0EBE6
:1005A000036F08BF1B0AF4D003F0FF03000EC01A4C
:1005B000704710F0030F0AD010F8012B11F8013B1F
:1005C000012A28BF9A42F4D0A2EB030070474DF8ED
:1005D000045D50F8042B01F0030521F0030151F8EC
:1005E000043B022D26D04DD822F07F45B5EB132FCA
:1005F000A2F1013C2CEA020C0DD11CF0803C08BF9A
:1006000051F8043B0AD185EA0205B5EB036F0CD122
:1006100050F8042BE8E74FEA13235BE03CF07F4CF3
:1006200054D10B784FEA126554E04FEA126503F09B
:10063000FF034FE04FEA0245A2F1013C4FEA1545A6
:100640002CEA020CB5EB134F18D11CF0803C08BF0C
:1006500051F8043B07D185EA0205B5EB034F09D1F8
:1006600050F8042BE6E75FEA0C4C2FD10B884FEAD9
:1006700012452FE04FEA03434FEA12454FEA134376
:1006800028E000BF02F0FF05B5EB136FA2F1013CBB
:100690002CEA020C0DD11CF0803C08BF51F8043B41
:1006A0000AD185EA0205B5EB032F0AD150F8042BD5
:1006B000E8E74FEA13630DE012F0FF0F06D051F8A0
:1006C000043B4FEA122523F07F4303E04FF0000084
:1006D00020BC704705F0FF0203F0FF00012828BF8F
:1006E000904204BF2D0A1B0AF4D0A2EB000020BCEC
:1006F000704700BF002A3FD040EA010313F0030314
:10070000F0B425D1032A23D904680D68AC421FD167
:10071000043A33D0A4F1013525EA040414F0803FF3
:100720002FD1071D0D1D0DE057F8043B0E68A3F1F6
:100730000134B34224EA03040AD1043A1ED014F06F
:10074000803F1BD1032A2946384605F10405EBD822
:1007500003780C78013A9C420BD17AB114B90DE0C0
:1007600062B173B110F8013F11F8014F013AA34291
:10077000F6D0181BF0BC7047104670470020F0BC44
:1007800070471846F6E700BF40EA01039B0770B4C4
:100790002AD1032A28D90C460346214654F8046B73
:1007A000A6F1013525EA060515F0803F06D1043A89
:1007B000032A43F8046B2146EFD89AB10C78013A2A
:1007C0001C7001333CB16AB111F8014F013A03F8D2
:1007D000014B002CF7D12AB100211A4403F8011B68
:1007E0009342FBD170BC70470346E6E730B404780F
:1007F000DCB10D789DB1AC420FD00A4601E09C42BD
:100800000BD012F8013F002BF9D110F8014F002C4A
:10081000F0D11378002B08BF002030BC704710F8CF
:10082000014F0A46002CE5D1F3E72046F5E700BF6B
:1008300070B40478A4B106460D784DB1A5420AD033
:100840000A4601E0A34206D012F8013F002BF9D17D
:10085000801B70BC704710F8014F002CEDD1F7E7FA
:100860002046F6E700000000000000000000000045
:10087000202383F31188094B9A6822B100200023BA
:1008800083F311887047064A01209269916B936344
:10089000C3E90221002383F311887047380C00203C
:1008A00054120020000000000000000000000000C2
:1008B000202383F311880023034A9269506B53630A
:1008C00083F31188704700BF54120020000000001D
:1008D0004FF080435B6A091A1B1A89B29BB28B42A4
:1008E0000AD3012010B40549054C064B064A207076
:1008F00008701A6010BC704700207047F01C002080
:10090000901D0020EC1C0020BCA900080000000085
:1009100030B4202383F311880B4B4942D3E90045BF
:10092000281A0840821AA24207D3954205D35A607A
:10093000002383F3118830BC70470020002383F329
:10094000118830BC704700BFF01300200000000089
:1009500000200B4B0B4AD91D21F00701CB1AC3F124
:10096000780310B4DB0802F10C044B60516008609E
:10097000C2E9034410609060506110BC704700BF32
:10098000101D0020F41C00200000000000000000EA
:1009900000220421044BDA609A61C3E900339A60B3
:1009A000C3E90411704700BF140C002000000000D0
:1009B000FFF7EEBF00000000000000000000000094
:1009C0000020704700000000000000000000000050
:1009D00000210422024B1960D960C3E9012270474B
:1009E000800C00200000000000000000000000005B
:1009F00003681A1D02601B68184700BF0000000052
:100A0000016803460A46081D10B4186052F8084BE6
:100A100048681A60234610BC184700BF0000000059
:100A20000246036810B4191D586811601C6803F170
:100A30000C0111609968234610BC184700000000A3
:100A40000246036830B4D3E901011C1D14601C6820
:100A500003F110051560DA68234630BC184700BF63
:100A600070B4044603681D1DD3E90101DA682560EE
:100A70001D6803F114062660AC4670BC1B69604714
:100A8000002230B40E4B0F4903F1200401F1080598
:100A900003F130001960C3E9021103F140015D6008
:100AA000C3E9084430BCC3E90C00C3E910111A6162
:100AB0001A75C3E906229A629A639A64704700BF66
:100AC000980C002000120020000000000000000030
:100AD000002230B40E4B0F4903F1200401F1100540
:100AE00003F130001960C3E9021103F140015D60B8
:100AF000C3E9084430BCC3E90C00C3E910111A6112
:100B00001A75C3E906229A629A639A64704700BF15
:100B1000980C0020001200200000000000000000DF
:100B2000002130B4094B0A4A03F1180402F1100500
:100B300003F120005D60C3E9064430BC1A60C3E9DC
:100B40000222C3E90800196119757047580C00208A
:100B50002015002000000000000000000000000040
:100B6000FFF7DEBF000000000000000000000000F2
:100B7000FFF7D6BF000000000000000000000000EA
:100B80000022024B9A60C3E90033704750150020E1
:100B90000122024B9A60C3E9003370476C160020B3
:100BA000704700BF000000000000000000000000CF
:100BB0000022024B9A60C3E9003370476C16002094
:100BC00000224FF4A4700421024B1A60DA60C3E9DA
:100BD00001017047301500200000000000000000F7
:100BE00000200B4B0B4AD91D21F00701CB1AC3F58E
:100BF000CC6310B4DB0802F10C044B605160086058
:100C0000C2E9034410609060506110BC704700BF9F
:100C100080160020A014002000000000000000004A
:100C200008B5FFF745FE024A024B12601B6008BD83
:100C30000C0C0020100C0020000000000000000040
:100C4000FFF736BE000000000000000000000000BA
:100C5000FFF7F6BF000000000000000000000000E9
:100C6000FFF7EEBF000000000000000000000000E1
:100C7000FFF7E6BF000000000000000000000000D9
:100C8000FFF7DEBF000000000000000000000000D1
:100C90000020064A064B07499060C2E9002298608E
:100CA000C3E90033C1E90011704700BF380C0020D0
:100CB000480C0020040C0020000000000000000090
:100CC0000021044B044A9960C3E90033C2E90022C1
:100CD000704700BF380C0020040C0020000000000A
:100CE000FFF7EEBF00000000000000000000000061
:100CF0000022024B9A60C3E900337047380C002091
:100D00000021044A044B9160C2E900229960C3E9C2
:100D100000337047380C0020480C00200000000011
:100D2000FFF7E6BF00000000000000000000000028
:100D30000022024B9A60C3E900337047601600201E
:100D4000FFF7F6BF000000000000000000000000F8
:100D5000FFF7EEBF000000000000000000000000F0
:100D6000FFF7E6BF000000000000000000000000E8
:100D70000122024B9A60C3E90033704760160020DD
:100D80000022014B1A607047C01D002000000000C7
:100D900048B9012010B4054A054C064B207010706C
:100DA000196010BC70470020704700BFF01C002085
:100DB000901D0020EC1C002000000000000000003E
:100DC0000322014B1A607047941D002000000000B0
:100DD0004FF0804301201946044A10605A6A92B2CB
:100DE0004B6A9BB29A42FBD0704700BF941D002013
:100DF0000121074A2023116083F3118862B672B67D
:100E000083F3118862B6002383F3118862B67047BA
:100E1000941D002000000000000000000000000001
:100E200030B4202500240A4B03F1140053F8042B9E
:100E30004AB185F3118892F8211041F0040182F83B
:100E4000211084F311888342F0D130BC704700BF79
:100E5000AC1D0020000000000000000000000000A9
:100E600020B370B584B06D46114E2C4600E0144698
:100E70002246A6FB0013DB0803EB8301A0EB410035
:100E800000F13001C9B202F8011B1846002BEED167
:100E9000AA4209D9074E01E014F8011D3068036821
:100EA000DB689847A542F7D104B070BD704700BF1A
:100EB000CDCCCCCCE81C00200000000000000000DD
:100EC00028B9044B302118680368DB681847FFF71E
:100ED000C7BF00BFE81C00200000000000000000A9
:100EE000202383F31188064A064913688B4202D2F5
:100EF000591C18701160002383F31188704700BFDC
:100F0000A81D0020A81D0020000000000000000017
:100F100008B548694130C0B2FFF7E2FF002008BDC4
:100F200008B53020FFF7DCFF45F2AA5008BD00BF2E
:100F300010B50446C0B2FFF7D3FF204610BD00BF76
:100F400038B50D460446C0B2FFF7CAFFE8B2FFF756
:100F5000C7FF204638BD00BF0000000000000000B1
:100F600070B50E4615460446C0B2FFF7B9FFF0B2A1
:100F7000FFF7B6FFE8B2FFF7B3FF204670BD00BF32
:100F8000F8B50F4616461D460446C0B2FFF7A8FF47
:100F9000F8B2FFF7A5FFF0B2FFF7A2FFE8B2FFF744
:100FA0009FFF2046F8BD00BF0000000000000000C9
:100FB00008B55A20FFF794FF0122024B4AF655204C
:100FC0001A7008BD5C140020000000000000000042
:100FD0004320FFF785BF00BF0000000000000000B5
:100FE0004220FFF77DBF00BF0000000000000000AE
:100FF0004120FFF775BF00BF0000000000000000A7
:101000000078FFF76DBF00BF000000000000000087
:10101000FFF7F6BF00000000000000000000000025
:1010200070B5017889B10446094D28680368DB680A
:10103000984714F8011F0029F7D128680222BDE85B
:101040007040036803495B681847014DF5E700BF2E
:10105000E81C00208CAC000800000000000000002C
:10106000017859B138B50446054D28680368DB6836
:10107000984714F8011F0029F7D138BD704700BF09
:10108000E81C00200000000000000000000000003C
:10109000F0B40D4E0D4F421E35683B4603E013F889
:1010A000014B844207D19D4212F8010FF7D810B9C5
:1010B0003760F0BC70470120054C064A064B207093
:1010C00010701960F0BC7047A81D0020981D00200A
:1010D000901D0020F01C0020EC1C002000000000EF
:1010E000F8B5012307251E4600240D4A0D4F136055
:1010F00025FA04F3DB0706FA04F20ED557F824307C
:10110000204625EA020501349847002DF0D1BDE8BC
:10111000F84005490548FFF7BBBF0134E8E700BFC9
:10112000941D00200CAD000860C2000874C20008C5
:1011300070B54C24074D28682D210368DB6898475B
:10114000013CF8D128680222BDE8704003680249DA
:101150005B681847E81C00208CAC00080000000009
:10116000022906D0032906D00129064818BF00200D
:10117000704705487047032A9ABF044800EBC20035
:10118000002070478CD4000840D4000814D5000813
:10119000202383F311880D4B5B6813F4006302D1A5
:1011A00083F311887047EFF309834FF08072203B7F
:1011B000DA6183F30988064A11689269896892683E
:1011C00091428CBF034A044A9A61704700ED00E0E7
:1011D00054120020630200086602000800000000AC
:1011E000084B10B4D3E900424942101A0840A0420B
:1011F00004D3824202D3586010BC7047002010BC58
:10120000704700BFF0130020000000000000000045
:1012100008B52022034682F31188006828B10268CD
:101220001A60002383F3118808BDDA68002AF8D019
:10123000D3E901019047002383F3118808BD00BF63
:1012400001212DE9F041042220250020384E394BA0
:10125000394C316085F3118821682360196080F36F
:1012600011886168013A0B44F4D102230425DFF8A8
:10127000C880324F33604046FFF7CAFF003018BFC6
:1012800001203946FFF784FD00283BD1013DF2D112
:10129000032329483360FFF7BBFFB0FA80F02849E9
:1012A0004009FFF775FD68BB04222027214B3260FF
:1012B00003F1100087F311882268236043F8042BA0
:1012C00085F311889842F5D105230425DFF868805D
:1012D0001A4F33604046FFF79BFF003018BF0120D4
:1012E0003946FFF755FD68B9013DF3D10623124891
:1012F0003360FFF78DFFB0FA80F011494009FFF726
:1013000047FD08B1BDE8F081072104230D4A0A48D2
:1013100031602560C4E90133E260FFF779FFBDE881
:10132000F041B0FA80F008494009FFF731BD00BF35
:10133000941D002050160020800C0020A4B300084B
:10134000B0B30008C1090008C0B3000800000000E5
:10135000202383F31188044B00229B69596B0843B7
:10136000586382F311887047541200200000000077
:10137000202383F31188024602E08B4207D01A46ED
:1013800013688342F9D1002383F3118870470B68F7
:101390001360002383F31188704700BF0000000032
:1013A00002202DE9F047DFF8EC90364C8CB0C9F8FC
:1013B00000002460202686F31188012300254FF0C9
:1013C000FF31314A099323680CAF01939369CDE94A
:1013D0000A510893019B47F8143D276085F3118853
:1013E00086F3118823680DF13008926948F8283D8A
:1013F0000392CDE904050691C4F8008085F31188B5
:1014000086F3118820682149001B18BF0120FFF7CF
:10141000BFFC20B185F311880CB0BDE8F08782468F
:1014200080F31188032339462046C9F80030FFF7BE
:101430009FFF86F3118820681449001B18BF012004
:10144000FFF7A6FC054620B18AF311880CB0BDE871
:10145000F08780F31188042341462046C9F8003004
:10146000FFF786FF86F3118820680949001BB0FA50
:1014700080F04009FFF78CFC0028CBD180F3118865
:10148000CAE700BF0C0C00205412002034C2000830
:1014900040C20008941D0020000000000000000071
:1014A0000F4B104A5B688168526F5B1A9B1AC268C7
:1014B0002DE93008D0E904454168013214EB030BF3
:1014C000C0E90232026845F1000C8B4288BF4360DC
:1014D0009342C0E904BCBDE8300838BF03607047E0
:1014E000001000E054120020000000000000000086
:1014F000014B5B6883607047001000E00000000053
:10150000F0B4002102270125836846680469194A5E
:1015100043F82C6C43F86C4C06684469C06803F8C7
:10152000265C03F8271C03F8287C43F8382C124D5E
:1015300043F8684C43F8400C546943F80C0CA3F191
:101540006C0043F83C0C43F84C5CA3F1480043E9C1
:101550000511A3F12005A3F11C0143F8306C43F8F9
:10156000344C2061506143E90851F0BC43F8181C29
:10157000704700BF54120020510200080000000014
:10158000202383F3118890F82030072B0ED8DFE852
:1015900003F0280D0D2408040D08426A93680133F6
:1015A0009360D0E900231A600268536010B40022EF
:1015B0004FF0FF3481680D4B446280F820201B6897
:1015C0009A688A42FBD25A680021C0E90032106052
:1015D000586081F3118810BC70470022436A1A607A
:1015E000E4E7002383F31188704700BF5412002002
:1015F00001460022074B806881F820201B689A680A
:101600008242FBD25A680846C1E900321160596033
:10161000704700BF541200200000000000000000CE
:1016200038B5036898420CD004466FF001051A687B
:101630001846226054605D62FFF7DAFF2368A34218
:10164000F5D138BD000000000000000000000000DF
:10165000026890420AD010B4034600241168104674
:1016600019604B60546210BCFFF7C2BF704700BFE7
:101670000F4B1A7DAAB91A6970B5D3E900618C1BAA
:10168000B2EBA40F10D09D6801322C1D9C60A142CA
:101690002860084898BF9E601A61FFF7D9FF0020B4
:1016A00070BD6FF0010070474FF0FF3070BD00BF9C
:1016B000580C0020780C0020000000000000000002
:1016C00038B50F4B1A7DA2B9D3E9004519692A1B19
:1016D000B1EBA20F10D0DA680131043A944288BF0E
:1016E0002A1FDA60106007481961FFF7B1FF002078
:1016F00038BD6FF0010038BD4FF0FF3038BD00BF7E
:10170000580C0020780C00200000000000000000B1
:1017100038B50F4B1A7DA2B91A69AAB1DC685D68A9
:10172000211DA9422468D96028BF1968046002F10C
:10173000FF32084828BFD9601A61FFF789FF0020EF
:1017400038BD6FF0010038BD4FF0FF3038BD00BF2D
:10175000580C0020700C0020000000000000000069
:10176000074B1A689A4209D010B400241168104639
:101770004B601960546210BCFFF73ABF704700BF5E
:10178000040C002000000000000000000000000029
:101790000346426B90F8200011430A2859630AD08F
:1017A0000B2800D070475A6A8A43FBD100221846A2
:1017B0005A62FFF71DBF5A6A1142F7D1704700BF46
:1017C00070B50468A0420FD006460D46E3682B436F
:1017D000E36015B123691D4203D0D4E90101FFF78D
:1017E000D7FF2468A642F1D170BD00BF0000000001
:1017F000124A30B40468C36895698442AB6318D058
:101800000146E86B4BB11A68934203D0926890424C
:1018100038BF1046DB68002BF5D1A26B2368A860A7
:101820000B6020465960C1E90242A16330BCFFF75A
:10183000DFBE0023A36030BC704700BF54120020FD
:1018400083680133002B836000DD704710B40246CB
:10185000002403681968184611604A605C6210BC75
:10186000FFF7C6BE000000000000000000000000FE
:10187000D1E90823002A2EDB70B51D0700F1140200
:1018800013D49C0621D4C469C1E90242E160C1615C
:1018900003F0120343F001034B620C463030FFF7B4
:1018A000CFFF236A0133236270BD0023D1E90064B6
:1018B000012526600E687460046AC1E90224A160F3
:1018C0000162C1E904334D62E7E7046AC1E9022419
:1018D000A1600162DCE703F01A034B6201F118001A
:1018E000FFF7AEBF00000000000000000000000095
:1018F0001F4B30B4DA6982420FD0D0E900210024B6
:101900000A6002681C339A425160C46003D0816847
:1019100093680B44936030BC7047184600241168EC
:1019200040F81C1F81424860D4601AD04FF08044B8
:1019300095688A68188D53198B60626A121A92B280
:101940009342E8D9991A01290FD94FF6FF729342B1
:1019500028BF134630BC4FF0804203449BB2536310
:1019600070474FF08043DC60D5E7931CF2E700BF7F
:1019700054120020000000000000000000000000E1
:1019800070B44FF080442E4D646A0129C0E90323EE
:10199000A3B2EA692ED905F11C04A24238D02E8DDB
:1019A00094689B1B9BB2591817D31268091B946843
:1019B000A14204D91268091B94688C42FAD34FF0F3
:1019C000FF345368C0E90023186050608160936859
:1019D000591A91606C6270BC7047A142E8D24FF610
:1019E000FF73994294BF7618F6184FF08043B6B251
:1019F0005E63DDE705F11C018A424FF00201CED1A2
:101A00002B85C5E907000C46C0E9002281600BE088
:101A10004FF6FF748C4228BF0C462B85C5E90700A2
:101A2000C0E90022A4B281604FF080420020022170
:101A300023449BB2536370BC1061D160704700BFF8
:101A40005412002000000000000000000000000010
:101A5000EFF30583202383F3118870470000000013
:101A6000C20710B410D5264BD3E9001499423BD0DD
:101A70000022096801329942FBD18C4231D064685E
:101A8000013A9C42FBD162BB830712D51C4BDA6939
:101A900003F11C04A242196A2AD000231268013300
:101AA000A242FBD191421CD04968013BA142FBD12B
:101AB000BBB910F0040012D0114B0020D3E904216F
:101AC0009A4219D0126901309A42FBD1914208D052
:101AD000496901389942FBD1003018BF012010BC80
:101AE0007047012010BC70479C42CDD00022C6E751
:101AF000A142DED00023D7E79142E9D1EFE700BF52
:101B0000541200200000000000000000000000004F
:101B1000012070B5234D2024286084F31188FFF73D
:101B20009FFF002383F3118880F00100C0B21E499B
:101B3000FFF72EF900B170BD06460220286084F33D
:101B40001188FFF78DFF86F3118880F00100C0B285
:101B50001649FFF71DF906460028ECD103232B6038
:101B600084F311880420FFF77BFF86F3118880F04F
:101B70000100C0B20E49FFF70BF906460028DAD182
:101B800004232B6084F311880820FFF769FF86F394
:101B90001188BDE8704080F00100C0B20549FFF730
:101BA000F7B800BF941D0020BCBE0008D4BE0008DA
:101BB000F8BE000814BF000800000000000000008C
:101BC000FEE700BF00000000000000000000000071
:101BD00000EB8100C36830B45A69188A13681A4C44
:101BE000984228BF1846D060236D0D0103F1804351
:101BF00003F5C0439468EA582B44586088B102F159
:101C0000005202F54052520001384008131D03EB08
:101C1000800000E0043334F8025B984215601A46F5
:101C2000F8D130BC890001F1804101F5B8410B6861
:101C300023F4F04323F0400383F0300343F40043E4
:101C400043F080030B607047005C00400000000020
:101C500000EB8100C06882691368BBB1408A03440D
:101C6000013BB3FBF0F39381890001F1804101F561
:101C7000B8410B6823F4904323F0700383F440537E
:101C800043F4004343F080030B60704701239381CA
:101C9000EAE700BF000000000000000000000000B4
:101CA00000EB8103F0B4DE68336813F003035CD00B
:101CB000022B66D9032B58D14FF4C063324A7469A2
:101CC000126D0F0102F1804202F5C042BD1884B1CD
:101CD0004FF0000C348AC5F804C0D0F884C0013439
:101CE00024F001046444C0F8844043F0200347F822
:101CF00002C0B269C2B1748A3E2C04F1FF3237D9F6
:101D000042F01F020132214E521146EA822292B263
:101D1000EA60D0F88420013424F001041444C0F8AF
:101D2000844043F40053AA608A0002F1804202F525
:101D3000B84210684404106848BF43F4804340062A
:101D400048F2800047F6700448BF43F0400319434F
:101D500021F4784121F0F001014311601168234022
:101D60004B4003431360F0BC70474FF40073A5E78A
:101D700042F00102013202EBD272520202F47C42C2
:101D8000C6E700239AE700BF005C00400080FFFF29
:101D900000214368F0B4DB6880278B420CBF4FF40E
:101DA0001C464FF41E464025054B064C19655964E8
:101DB000DF641E64C0F88450C460F0BCFFF770BFDD
:101DC000005C0040A0AC0008000000000000000023
:101DD00090F86420152A15D8012340F641619340FC
:101DE0000B4270B5044625D113F480150BD0C3689F
:101DF0009B695B682BB9036F03B19847002384F894
:101E0000643070BD70479B02FBD50B22202380F805
:101E1000642083F31188C36802895B6942F0010280
:101E2000028129469D60C3E90055FFF7D1FE85F385
:101E3000118870BD48F280060D4943680A681D6824
:101E400022F4F04222F0400282F0100232430A6093
:101E50000B6823F4904323F0700383F480533343DF
:101E60000B600DB10621A847062384F8643070BDCD
:101E7000005C0040000000000000000000000000C6
:101E800038B590F864300446152B2AD8DFE803F003
:101E90000B29292929290B29292A3A5129292929B4
:101EA000292929290B0B48F28000304963680A6808
:101EB0001D6822F4F04222F0400282F01002024338
:101EC0000A600B6823F4904323F0700383F480537B
:101ED00003430B6015B106212046A847062384F86A
:101EE000643038BD90F87B1090F87A30C26E43EAC7
:101EF00001239A4206D2C3681B8AB2FBF3F503FBA7
:101F00001525EDB11422202384F8642083F3118871
:101F10000025E36862899B6942F0010262812046E4
:101F20009D60C3E900552946FFF792FE85F31188AD
:101F300038BD036F03B19847002384F8643038BD7F
:101F4000202383F31188C36802895B6942F0010290
:101F5000028129469D60C3E90055FFF739FE85F3EC
:101F600011880A2384F8643038BD00BF005C00404B
:101F700070B590F86430044613B1002380F86430E3
:101F8000BD4B04F174021B6D03F1804303F5C043A4
:101F900003EB01139B6803F1005303F540535B000F
:101FA00003F1100019680433834222F8021BF9D1AF
:101FB00063689B6863B32046984748B3E26E94F821
:101FC000743094F87B0094F87A1041EA0021914231
:101FD0002CBF1146E1661A0600F1A380002973D0D8
:101FE0001522202384F8642083F311880025D4E986
:101FF0001A61E36862899B6942F0010262812046AE
:1020000083E862002946FFF723FE85F3118870BD3F
:1020100094F8743013F0600518461ED048F2800022
:10202000954963680A681D6822F4F04222F0400274
:1020300082F0100202430A600B6823F4904323F0FD
:10204000700383F4805303430B6015B106212046CF
:10205000A847062384F8643070BD40F2023194F83A
:10206000756003F07F0242EA06228A4200F0228174
:1020700041D8022A00F0068140F2C380B2F5817F88
:1020800000F0C880B2F5407F00F09380B2F5807F09
:10209000C4D194F87630012BC0D1B4F87C30A56659
:1020A00023F00203C4E91B55A4F87C300AE0B2F522
:1020B000C06F80F08D80B2F5A06FAFD16F4BC4E9D7
:1020C0001A552367030645D40B22202384F8642085
:1020D00083F311880025E36822895B6942F00102DD
:1020E000228120469D60C3E900552946FFF770FD17
:1020F00085F3118870BD40F201618A42D7D9B2F5EB
:10210000106F3ED040F602418A4200F0AE80B2F538
:10211000006F83D1012204F17F01C4E91B25A16670
:102120004FE7B9B10922202384F8642083F3118892
:102130000025D4E91A61E36822895B6942F0010253
:102140002281204683E862002946FFF741FD85F39E
:10215000118870BD1422202384F8642083F3118831
:102160000025E36862899B6942F001026281204692
:102170009D60C3E900552946FFF76AFD85F3118884
:1021800070BD2378042B00F0C18094F876304BB1F9
:102190000421626884F87F302170136813B1022132
:1021A00020469847002394F87400C4E91A33236743
:1021B00088E794F87630012B7FF430AFB4F87C30A8
:1021C000A56643F00203C4E91B55A4F87C3079E707
:1021D00094F87910626894F87830566843EA0123DD
:1021E00094F8762094F877102046B04700283FF402
:1021F00015AFD0E900232567C4E91A3294F874308A
:10220000DFE67ABB022104F17C00C4E91B12A06660
:102210000A46D6E694F87630002B7FF4FFAE94F8A9
:10222000782012F00F0318D09B0003F1804303F5D0
:10223000B84312F0800F1A6840F0998002F44052BF
:10224000B2F5405F09D01A6822F4F04222F0400251
:1022500042F4204242F080021A600023C4E91A339B
:1022600023672FE7012A7FF4D9AE02220020044918
:10227000C4E91B20A166A4E6005C0040F12300082D
:1022800070D5000894F8781001F00F0011F0800F5D
:10229000464951F820102CD111F440513FF4BEAE04
:1022A000B1F5805F2BD1022500204149C4E91B50C4
:1022B000A16686E694F87630002B7FF4AFAE94F8F2
:1022C000782012F00F03C8D09B0003F1804303F580
:1022D000B84312F0800F1A685BD122F4904222F0CA
:1022E000700282F4805242F4004242F080021A608E
:1022F000B3E711F030013FF491AE1029D3D002259D
:1023000000202C49C4E91B50A1665AE6202383F320
:1023100011880122402648F2800021896389C4E99E
:102320000455C4E90655C4E9085511401340A56297
:1023300021816381C4F88460930003F1804303F535
:10234000B843196801320143082A19601860F3D1B3
:10235000002383F311880321626884F87F302170A1
:102360001368002B3FF411AF204698470DE702F0A9
:102370003002302A3FF471AF1A6822F4F04222F0A2
:10238000400282F0200242F4004242F080021A60D1
:1023900063E722F4F04222F0400282F0100242F49D
:1023A000004242F080021A6057E700BF005C004024
:1023B00018AD0008D0A900080000000000000000CF
:1023C000F0B50124002700EB810CDCF80CE0B0F83C
:1023D00008C0DEF814508C4044EA0C040481AA6062
:1023E000C5E90037BDE8F040FFF7F2BB0000000090
:1023F00090F87630426880F87E300649126843F0E3
:10240000800310B50446CB640AB101219047032331
:10241000237010BD005C00400000000000000000C0
:10242000704700BF00000000000000000000000036
:1024300090F87430024603F06003202B01D0002096
:10244000704790F87530202BF9D3212B07D807203F
:102450000021074BC2E91B01936601207047222B24
:10246000EDD100230120C2E91A331367704700BF82
:10247000300C002000000000000000000000000000
:102480000020704700000000000000000000000075
:10249000F8B5D0F88C140A681378042B01D0012009
:1024A000F8BD037A022BFAD101230C79558903FA7E
:1024B00004F42542F3D1D0E90746B44215D0231DD8
:1024C000EDD0012000244FF48077497902EB81069A
:1024D000F6688840B669054355811046B360C6E981
:1024E0000074FFF7B5FB2046F8BD80690028D6D1FF
:1024F000E5E700BF00000000000000000000000051
:10250000406BFFF7C5BF00BF0000000000000000E7
:10251000113138B550F8214094B1202383F311884C
:10252000D4F88C241368527903EB8203DB689B692F
:102530005D6835B92046FFF7ABFF002383F31188B0
:1025400038BD04216018FFF73BF9E369616A1D603B
:10255000A06AA26903448B42E36128BF236B02F1A6
:10256000010228BFE361A26104F10C00FFF770F8DB
:102570002046FFF78DFF002383F31188E0E700BFBB
:10258000D0E904239A4204D0184650F8043B0B606B
:102590007047C268002AF7D0002070470000000092
:1025A00010B5446B82B0D4F88C24136819780429D0
:1025B00001D002B010BD217A0229FAD1012110798F
:1025C0001A8901FA00F31342F3D101A904F144007E
:1025D000FFF7D6FFD4F88C34024619791868019BAE
:1025E000FFF7EEFEE5E700BF00000000000000007E
:1025F00010B5202382B083F311881F4CD4F88C24AB
:1026000013681978042904D0002383F3118802B0D9
:1026100010BD217A0229F7D1012110791A8901FA16
:1026200000F31342F0D1D4E915329342ECD1226D7C
:10263000002AE9D0E26E002AE6D0043AD21AE3D0AA
:102640001A60D4E9171003448B42636528BFA36E58
:10265000226D28BF63650023013A01A9074822655E
:10266000E366FFF78DFFD4F88C34024619791868B9
:10267000019BFFF7A5FEC7E7E80C00202C0D00200A
:102680002DE9F04100EB81039C6A82B0F4B10E4663
:102690000546202383F311880821201D05EB8607BA
:1026A000FFF78EF8FB6804F144085B691B6803BB05
:1026B000404601A9FFF764FF58B10246314628465B
:1026C000019BFFF77DFE002383F3118802B0BDE874
:1026D000F081FB685A691268002AF4D01B8A013B1A
:1026E0001340F0D1314605F174022846FFF768FE29
:1026F000E9E7A36D216E226D0B44E16DA3658B426A
:1027000028BFA36E02F1010228BFA36540462265DF
:10271000FEF79EFF404601A9FFF732FF0028CCD10B
:10272000D7E700BF0000000000000000000000002C
:1027300038B501254A4B4B4C4B481D60FEF790FCC9
:102740002846FEF78DFB2046FEF76AFC4748FEF759
:1027500087FC2846FEF784FB2046FEF761FC4448D0
:10276000FEF77EFC2846FEF77BFB2046FEF758FC72
:102770004048FEF775FC2846FEF772FB2046FEF740
:102780004FFC3D48FEF76CFC2846FEF769FB2046EF
:10279000FEF746FC3948FEF763FC2846FEF760FB6F
:1027A0002046FEF73DFC3648FEF75AFC2846FEF769
:1027B00057FB2046FEF734FC3248FEF751FC284612
:1027C000FEF74EFB2046FEF72BFC2F48FEF748FC99
:1027D0002846FEF745FB2046FEF722FC2B48FEF775
:1027E0003FFC0820FEF73CFB2046FEF719FC28487A
:1027F000FEF736FC2846FEF733FB2046FEF710FCBA
:102800002448FEF72DFC2846FEF72AFB2046FEF75B
:1028100007FC2148FEF724FC2846FEF721FB204652
:10282000FEF7FEFB1D48FEF71BFC2846FEF718FBD3
:102830002046FEF7F5FB1A48FEF712FC2846FEF785
:102840000FFB2046FEF7ECFB1648FEF709FC284676
:10285000FEF706FB2046BDE83840FEF7E1BB00BFAF
:10286000941D0020F4C700087CAE0008A8AE000844
:10287000D4AE000800AF00082CAF000858AF000825
:1028800084AF0008B0AF0008DCAF000808B0000853
:1028900034B0000860B000088CB00008B8B0000880
:1028A000E4B0000810B100080000000000000000C3
:1028B00038B50125184B19481D60194CFEF7B0FBBF
:1028C0001848FEF7CDFB2846FEF7CAFA2046FEF769
:1028D000A7FB1548FEF7C4FB1448FEF7A1FB1448FC
:1028E000FEF7BEFB2846FEF7BBFA2046FEF798FB34
:1028F0001048FEF7B5FB0220FEF7B2FA2046FEF7BD
:102900008FFB0D48FEF7ACFB0020FEF7D9FA2046FE
:10291000BDE83840FEF784BB941D002054AD00088C
:10292000F4C7000888AD0008B4AD0008E0AD0008A9
:10293000E8AD000814AE000840AE0008000000003A
:10294000012370B5324D334C33482B60FEF788FBC2
:102950007820FEF785FA2046FEF762FB02232F4817
:102960002B60FEF77DFB4420FEF77AFA2046FEF747
:1029700057FB032304262A482B60FEF771FB142023
:10298000FEF76EFA2046FEF74BFB26482E60FEF758
:1029900067FB0C20FEF764FA2046FEF741FB052397
:1029A00021482B60FEF75CFB1020FEF759FA204609
:1029B000FEF736FB06231D482B60FEF751FB08206F
:1029C000FEF74EFA2046FEF72BFB072318482B6034
:1029D000FEF746FB3046FEF743FA2046FEF720FBA3
:1029E000082314482B60FEF73BFB1420FEF738FA4F
:1029F0002046FEF715FB09230F482B60FEF730FB3E
:102A00002820FEF72DFA2046BDE87040FEF708BBEF
:102A1000941D002078C5000868C5000880C500081E
:102A200090C50008A0C50008B0C50008C0C50008D2
:102A3000D0C50008E0C50008F0C50008000000008F
:102A400038B50125924B934C93481D60FEF708FB67
:102A50001020FEF705FA2046FEF7E2FA8F48FEF74F
:102A6000FFFA4FF4FA60FEF7FBF92046FEF7D8FABA
:102A70008B48FEF7F5FA2020FEF7F2F92046FEF724
:102A8000CFFA8848FEF7ECFA2020FEF7E9F9204655
:102A9000FEF7C6FA8448FEF7E3FA0220FEF7E0F9F3
:102AA0002046FEF7BDFA8148FEF7DAFA0020FEF76D
:102AB00007FA2046FEF7B4FA7D48FEF7D1FA002067
:102AC000FEF7FEF92046FEF7ABFA7A48FEF7C8FAA1
:102AD0000020FEF7F5F92046FEF7A2FA7648FEF749
:102AE000BFFA2846FEF7BCF92046FEF799FA73486C
:102AF000FEF7B6FA2846FEF7B3F92046FEF790FA3D
:102B00006F48FEF7ADFA2846FEF7AAF92046FEF711
:102B100087FA6C48FEF7A4FA2846FEF7A1F920468A
:102B2000FEF77EFA6848FEF79BFA2846FEF798F90A
:102B30002046FEF775FA6548FEF792FA0020FEF788
:102B4000BFF92046FEF76CFA6148FEF789FA28467D
:102B5000FEF786F92046FEF763FA5E48FEF780FA34
:102B60000020FEF7ADF92046FEF75AFA5A48FEF764
:102B700077FA2846FEF774F92046FEF751FA5748CF
:102B8000FEF76EFA2846FEF76BF92046FEF748FA84
:102B90005348FEF765FA2846FEF762F92046FEF72D
:102BA0003FFA5048FEF75CFA2846FEF759F92046EE
:102BB000FEF736FA4C48FEF753FA2846FEF750F96E
:102BC0002046FEF72DFA4948FEF74AFA0020FEF7A4
:102BD00077F92046FEF724FA4548FEF741FA2846E1
:102BE000FEF73EF92046FEF71BFA4248FEF738FA98
:102BF0000020FEF765F92046FEF712FA3E48FEF780
:102C00002FFA0020FEF75CF92046FEF709FA3B4850
:102C1000FEF726FA0020FEF753F92046FEF700FAE9
:102C20003748FEF71DFA0020FEF74AF92046FEF766
:102C3000F7F93448FEF714FAFF20FEF711F92046A1
:102C4000FEF7EEF93048FEF70BFA8020FEF708F9A0
:102C50002046FEF7E5F92D48FEF702FA0020FEF7C0
:102C60002FF92046FEF7DCF92948FEF7F9F9002094
:102C7000FEF726F92046FEF7D3F92648FEF7F0F9CD
:102C80000020FEF71DF92046BDE83840FEF7C8B920
:102C9000941D0020F4C700082CB9000858B900089A
:102CA00084B90008B0B90008DCB9000808BA000807
:102CB00034BA000860BA00088CBA0008B8BA000834
:102CC000E4BA000810BB00083CBB000868BB000861
:102CD00094BB0008C0BB0008ECBB000818BC00088F
:102CE00044BC000870BC00089CBC0008C8BC0008BC
:102CF000F4BC000820BD00084CBD000878BD0008E9
:102D0000A4BD0008D0BD0008FCBD000828BE000816
:102D100054BE000880BE0008000000000000000053
:102D200038B50125184B19481D60194CFEF778F984
:102D30001848FEF795F92846FEF792F82046FEF768
:102D40006FF91548FEF78CF91448FEF769F9144835
:102D5000FEF786F90620FEF783F82046FEF760F9B5
:102D60001048FEF77DF92846FEF77AF82046FEF770
:102D700057F90D48FEF774F92846FEF771F820461A
:102D8000BDE83840FEF74CB9941D0020E0B80008BB
:102D9000F4C7000888AD0008B4AD000814B90008F5
:102DA000E8AD000814AE000840AE000800000000C6
:102DB00001221C4B10B51C481A60FEF751F91B4844
:102DC000FEF72EF91A48FEF74BF91A48FEF728F9D4
:102DD0001948FEF745F91948FEF722F91848FEF799
:102DE0003FF91848184CFEF71BF91848FEF738F958
:102DF0000420FEF735F82046FEF712F91448FEF7D6
:102E00002FF90820FEF72CF82046FEF709F91148A3
:102E1000FEF726F90820FEF723F82046BDE810400B
:102E2000FEF7FEB8941D002028B7000854B700082C
:102E30005CB7000888B7000894B70008C0B700085E
:102E400008B8000834B80008F4C700084CB80008F7
:102E500078B80008A4B800080000000000000000D6
:102E6000FFF7A6BF00000000000000000000000007
:102E7000536910B400EB8104E26023B100241C60AC
:102E80005C609C60DC60936923B100221A605A6028
:102E90009A60DA6010BCFEF703BF00BF00000000BC
:102EA00070B505291ED8DFE801F0031D1E03034F8E
:102EB000202383F311882C4C237D13B194F84C30DC
:102EC0006BB9012502212948FEF77AFC28482575AF
:102ED000FEF7A6FB274884F84C50FEF7A1FB002321
:102EE00083F3118870BD0646202383F311880025E3
:102EF0001D4C214A0121FFF7BBFF022130461F4A2A
:102F0000FFF7B6FF236B04F10C00C4E90733A5619A
:102F1000C4E90D55FEF784FBD4E9192304F14400FC
:102F20002265C4E915332575C4E91B55FEF778FB06
:102F3000201D012184F84C50FEF742FC2046FFF78B
:102F4000A7FA85F3118870BD202383F31188064CFE
:102F50000121201DFEF734FC0023237584F84C303A
:102F600083F3118870BD00BFE80C0020EC0C00203A
:102F7000F40C00202C0D0020C4AC0008E8AC0008C4
:102F800038B50D46E8B10446286011492046FDF7E2
:102F90004FFC215C044422290DD00D492046FDF749
:102FA00025FC286018B10023421C2A600370237896
:102FB00053B1204638BD01342046FDF749FA286058
:102FC000F0E70C68002CE0D10024204638BD00BF9B
:102FD00080B60008000000000000000000000000B3
:102FE0000EB42DE9F04F86B00FAB53F8044B0546F5
:102FF00002939B46002705E02B682846DB680137D3
:10300000144698472178621C00297FD02529F3D1E6
:1030100063782D2B03BFA378A21C012100212B2B49
:1030200005BF4FF0010C53784FF0000C6244302B79
:1030300003BF53784FF0300801324FF020082A2B9D
:103040004DD1DBF8006053780BF10400941C2E2B5B
:1030500004F1010E00F09F80002203F0DF09B9F1B6
:103060004C0F59D0A3F1440EBEF1340F00F2B781DA
:10307000DFE81EF06901B501B501B501B5016901CF
:10308000B501B501B501B501B5015401B500B501F2
:10309000B501B501B5015801B501B501B500B501DE
:1030A000B501B501B501B501B501B501B501B50170
:1030B000B5015C016901B501B501B501B501690151
:1030C000B501B501B501B501B5015401B500B501B2
:1030D000B5012701B5015801B501B501B500541C72
:1030E000A3B1A3F13002D2B2092A98BF002602D9B7
:1030F0008EE1092A5BD814F8013B06EB8606A3F1A2
:10310000300002EB4606C2B2002BF2D1384606B0C0
:10311000BDE8F04F03B070472378002BF6D0A3F141
:103120004404342C00F25A81DFE814F053015801B2
:1031300058015801580153015801580158015801CC
:103140005801F70058005801580158015801FB0078
:1031500058015801580058015801580158015801A8
:1031600058015801580158015801FF0053015801F6
:10317000580158015801530158015801580158018C
:103180005801F700580058015801CA005801FB00C7
:103190005801580158002378002BB7D02A2B08D1AA
:1031A0000268637804F1030E0430023455E7584690
:1031B0004DE7002206E019F8013C04EB4A02CE4636
:1031C000002BA3D0A3F13004E4B2092C0EF10109C5
:1031D00002EB820AEFD97446CE463EE774464FF0C2
:1031E000100E83460DF117005BF8042B00E05046EB
:1031F000B2FBFEFC0EFB1C2202F13003392BC8BFD0
:1032000002F137036246DBB200F8013C00F1FF3AFD
:10321000002AECD102460DF117000DF10C09A0EBCC
:103220000A0ECC460AEB0E0001E012F8013B824286
:103230000CF8013BF9D10EF1FF33A6EB0E0600931B
:10324000002E64DB002940F0D4807342002E00F091
:10325000CF8099F800102A682D29D26800F0A78045
:103260009A4601E02B68DA684146284690471AF1F1
:10327000010AF7D1009A5346002A3744FFF6C2AE3E
:103280001E46DDF800A02B680AF1FF3ADB6819F84A
:10329000011B28469847BAF1FF3FF4D1009B013744
:1032A0003B441F46002E3FF4ADAEB1462B6841466D
:1032B000DB6828469847B9F10109F7D13744A1E600
:1032C0007446D0F8009000F1040BB9F1000F00F043
:1032D000AF8099F80030CA46002A40F08F80002B5A
:1032E00000F0908047F6FE724B4601E0501C04D07F
:1032F00013F8010F013A0028F8D1A3EB0A03F61ADC
:10330000002E03F1FF3300934FF020089ADA009B60
:10331000002BFFF677AE0026B3E774464FF0080E99
:103320005FE774464FF00A0E5BE7744603680DF1E1
:10333000180909F80C3D0023013E00F1040B00932D
:103340004FF020087CE783465BF8042B002A62DB01
:10335000BCF1000F68D02B230DF10D0C8DF80C3053
:103360000DF10C090CF10B0A5046354BA3FB02E39F
:10337000DB089E4603EB8303A2EB43037246303324
:10338000DBB200F8013D002AEFD1AAEB0002624453
:1033900001E010F8013F0CF8013B9445F9D1ACEB8A
:1033A000090C0CF1FF33A6EB0C06009348E7B8F1CB
:1033B000300F7FF455AF284601939047009B2A6851
:1033C000013B0093019B0137D26809F101099A463C
:1033D0004AE7834674465BF8042BB7E774460DF161
:1033E000180909F80C3D0023013E8346009327E7A6
:1033F0001E46009B002BBFF644AF53E713B1013AC2
:103400007FF572AF4FF0FF334FF02008009317E7BE
:10341000584600261BE62D2352428DF80C300DF144
:103420000D0C0DF10C099DE70DF10C09CC4699E747
:10343000DFF810A0D146002A3FF454AFDFE700BF09
:10344000CDCCCCCC24AA0008000000000000000075
:10345000002918DC70B504460C4E0D4D05E03368AC
:103460004FF480625B6829469847236800219B6976
:103470002046984701300548F1D02046BDE870400D
:103480000449FFF7ADBD0449FFF7AABDE80C0020D1
:103490000008002070AC000880AC000800000000AC
:1034A000002903DD084A0949FFF79ABD202383F369
:1034B00011884FF080420023526A83F31188044937
:1034C00092B2FFF78DBD00BFC8AB0008D0AB0008BB
:1034D000DCAB00080000000000000000000000005D
:1034E000012903D0034A0449FFF77ABD1268034952
:1034F000FFF776BD2CAA0008D0AB00083CAA000854
:10350000002903DD194A1A49FFF76ABD10B50446C0
:1035100082B0184A1849FFF763FD184A1849204637
:10352000FFF75EFD174A18492046FFF759FD174A75
:1035300017492046FFF754FD164A17492046FFF762
:103540004FFD164A16492046FFF74AFD154A16490F
:103550002046FFF745FD154B20460093144A154BB6
:103560001549FFF73DFD02B010BD00BF44AA000899
:10357000D0AB000814B900084CAA0008C0B7000876
:1035800060AA000854B7000874AA000888B70008A9
:1035900088AA000834B800089CAA0008B0AA00084D
:1035A000DCAA0008F0AA000804AB000840AB000841
:1035B0001CAB000818AB000828AB00080000000096
:1035C00070B50C68A14212D00D46064602E0246890
:1035D000A5420CD008223146A018FDF78BF8002830
:1035E000F5D12CB1636820460133636070BD0024BF
:1035F000204670BD00000000000000000000000038
:10360000F8B50C680D46A1420646174603D10DE0F9
:103610002468A5420AD008223146A018FDF76AF8AE
:103620000028F5D114B104462046F8BD3846FDF710
:10363000EFFD044648B1082231461044FDF7A4F8D6
:1036400001222B68C4E900322C602046F8BD00BF7F
:1036500070B5202383F31188124A10689469836837
:10366000A1688B4203D2002383F3118870BD012629
:10367000002503685A60136080F82060906184F828
:10368000205000E01B689A689142FBD95A68214695
:10369000C4E9003214605C60FCF7D2FD002383F3C0
:1036A000118870BD541200200000000000000000CE
:1036B00038B50446084DFFF7CBFFFFF7C9FFFFF70A
:1036C000C7FFFFF7C5FF2368AA690433236092F898
:1036D00021305B07EFD538BD5412002000000000F8
:1036E000164B70B49E69856804464162B068854295
:1036F0000DD8002284F820201B689A689542FBD9D7
:103700005A68C4E9003214605C6070BC70470021E4
:103710001A4686F82010126891688842FBD301206F
:103720005168C6E900210E60566084F820003146D9
:1037300020469C6170BCFCF783BD00BF5412002082
:10374000F8B5202484F31188012400250227C0E95C
:10375000372300F1DC03194EC0F80C31184B194A1D
:10376000C0F8FC30736980F8224100F58074C0F81D
:103770000811C0F83C11A0F82071C0F81821C0F859
:10378000385100F59472C0F83451C0F81061C0F897
:103790001431C0F81C011C6100F59673C0F8282193
:1037A000C0F82C31C0F83031294620467461FFF74B
:1037B00097FF85F311882046F8BD00BF5412002002
:1037C0005102000804AA00080000000000000000E8
:1037D00008B5202383F31188064B1868984205D05A
:1037E0000268002153601A60FFF77AFF002383F319
:1037F000118808BD040C002000000000000000003B
:10380000F0B5144D87B0074628460E461446FDF71E
:10381000FFFCE0B16B68104A0344029300970190EB
:10382000039605940492202383F311886846FDF7DC
:1038300067FE0223056480F8213000210446FFF76B
:103840004FFF002383F31188204607B0F0BD0446E4
:10385000FAE700BF3015002011100008000000003A
:1038600008B5202383F3118883680133002B83601C
:1038700003DD002383F3118808BD0346006800219F
:1038800002681A605360FFF72BFF002383F311884F
:1038900008BD00BF000000000000000000000000A4
:1038A00010B5202383F31188FDF72AFE002104467A
:1038B000FFF716FF002383F31188204610BD00BFD9
:1038C00030B40125074B99691A6881F82000146803
:1038D0001046636082F820501C6030BC9A61FCF78F
:1038E000AFBC00BF54120020000000000000000028
:1038F0000B4A10B52023946983F31188636B33B9A5
:103900004FF0FF330A206362FFF7DAFF636B584220
:10391000184023EA00036363002383F3118810BD7A
:103920005412002000000000000000000000000011
:10393000094A10B52023946983F31188606B30B96C
:103940004FF0FF330A206362FFF7BAFF606B00237A
:10395000636383F3118810BD54120020000000003F
:103960000C4A10B52023946983F31188636B03F02C
:103970000502052A05D005230B206362FFF7A0FF8F
:10398000636B23F005036363002383F31188052031
:1039900010BD00BF54120020000000000000000015
:1039A000074A10B52023946983F311880320FFF799
:1039B00087FF636A002BF9D0002383F3118810BDC1
:1039C0005412002000000000000000000000000071
:1039D00030B54B1C87B012D005460C4C01A8A3692A
:1039E0000B4AFDF7CDFF2846FFF76AFF049B13B192
:1039F00001A8FDF77DFFA369586A07B030BDFFF746
:103A00005FFF024CA369586A07B030BD5412002012
:103A10008115000800000000000000000000000008
:103A2000202383F31188104B99684A1E002A9A605C
:103A300004DB0020002383F31188704780B10B4A18
:103A400010B592695C685362C2E900340146226095
:103A500005205A60FFF7BCFF002383F3118810BDD7
:103A600099604FF0FF30E5E7601600205412002007
:103A7000012070B5554D564C2860A269202383F370
:103A80001188536B33B983F311885249FDF780F9DC
:103A900080B170BD5842184023EA000353630023ED
:103AA00083F31188B0FA80F04A494009FDF770F9B4
:103AB0000028EED1A369202282F311885A6B002AD4
:103AC0006FD0586380F311884249FDF761F90028EF
:103AD000DFD1A369202282F311885A6B013264D0AE
:103AE00080F3118801203B49FDF752F90028D0D11D
:103AF0000223A6692B60202383F31188756B4DB9CF
:103B00004FF0FF33642173620A20FFF761FF002842
:103B10004FDB756B6842284025EA0005756300237A
:103B200083F31188B0FA80F040092A49FDF730F993
:103B30000028AED1A669202383F31188756B4DB997
:103B40004FF0FF33642173620A20FFF741FF002822
:103B500033DB756B0023736383F31188B5FA85F04B
:103B600040091C49FDF714F90546002891D1A469C4
:103B7000202383F31188636B013308D04FF0FF33A8
:103B8000642163620B20FFF723FF002819DB002369
:103B9000636383F311882846BDE870400D49FDF743
:103BA000F7B882F3118801208EE7586380F31188FB
:103BB00099E785F311880120B7E785F31188012083
:103BC000CFE785F311880125E5E700BF941D0020AC
:103BD000541200200CC30008000000000000000088
:103BE00010B52023044683F311888268531E002BEE
:103BF000836007DBE068B0B10368E360002383F310
:103C0000118810BD0846C1B10D4B05209B695C624F
:103C10006268C3E9004213606360FFF7D9FE0028C1
:103C2000E8D00020EAE7A369002BFAD0D4E9040128
:103C30009847002383F3118810BDA260DEE700BF20
:103C400054120020000000000000000000000000EE
:103C5000012208B5064BC82106481A60FFF7C0FFCD
:103C6000BDE80840B0FA80F003494009FDF790B87C
:103C7000941D0020140C0020B0B3000800000000C8
:103C800061B10246074B10B49B6944680420C3E944
:103C900000242360536010BCFFF79ABE4FF0FF3042
:103CA000704700BF54120020000000000000000018
:103CB00038B504460D4607E0237A83B929462046E5
:103CC000FFF7DEFF002809DBE368002BF4D00020BB
:103CD0002369E1691A1D0B44C4E90A2338BD6FF05A
:103CE000010038BD000000000000000000000000DE
:103CF0002DE9F04F83B004460F46904601934FF0F4
:103D0000200A8AF311884FF0000BA66AD946002ECC
:103D100040D0E26AA8EB0B05921B954228BF1546DE
:103D2000402D3ED907F14002D7F800C07D68B86841
:103D3000F96810379742C6F800C07560B060F1604E
:103D400006F11006F0D1A26A0BF1400B4032A262DC
:103D5000E16A914215D8E169226904391160E56987
:103D6000A1692A448A42226128BF626AE06828BFAA
:103D70002261226B0138E060C4F828900AB1204625
:103D8000904789F31188C34518D28AF31188A66A2F
:103D9000002EBED101992046FFF78AFF60B9A66ABE
:103DA000B7E72A4639463046FCF792FAA26AAB4496
:103DB0002A442F44A262CBE786F31188584603B009
:103DC000BDE8F08F000000000000000000000000CF
:103DD0004430FFF78DBF00BF00000000000000006E
:103DE00044304FF0FF33FFF783BF00BF00000000F7
:103DF00070B520230E46044683F31188856A05B307
:103E00002E70D4E90A3201339342A36215D3E269DA
:103E10002369043A1A60E268E069013AE26000222C
:103E2000A16903448B42236128BF636AA26228BF51
:103E30002361236B0BB120469847002080F3118843
:103E400070BD1146FFF734FF08B9A56AD8E785F3BE
:103E5000118870BD0000000000000000000000009C
:103E60004430FFF7C5BF00BF0000000000000000A5
:103E700044304FF0FF32FFF7BBBF00BF000000002F
:103E800038B504460D4607E0237A83B92946204613
:103E9000FFF7F6FE002809DBE368002BF4D00020D2
:103EA00063691A6804331A44C4E90A3238BD6FF0F2
:103EB000010038BD0000000000000000000000000C
:103EC0002DE9F04F044683B00E4617469A464FF050
:103ED000200989F311884FF0000BA36AD846002B04
:103EE00043D0E26AA7EB0B05D21A954228BF1546CC
:103EF000402D194642D9334601F14002D1F800E085
:103F0000D1F804C08D68C86810319142C3F800E050
:103F1000C3F804C09D60D86003F11003EED1A36A1A
:103F2000403640330BF1400BA362E26A9A4213D849
:103F3000D4E906216369E0680B449342636128BFBA
:103F4000636A00F1FF3028BF6361236BE060C4F84F
:103F500028800BB12046984788F31188BB4519D2B9
:103F600089F31188A36A002BBBD1514620460193E7
:103F7000FFF786FF019B58B9A36AB2E730462A468D
:103F8000FCF7A6F9A36AAB442B442E44A362CCE70A
:103F900083F31188584603B0BDE8F08F000000009D
:103FA0000C30FFF78DBF00BF0000000000000000D4
:103FB0000C304FF0FF33FFF783BF00BF000000005D
:103FC00070B52023044683F31188856AEDB115F896
:103FD000016BE26AA562954212D3D4E90610E26849
:103FE0006369013AE260002203448B42636128BFA7
:103FF000636AA26228BF6361236B0BB120469847B6
:10400000002383F31188304670BDFFF739FF064661
:1040100008B9A56ADBE785F31188F4E70000000022
:104020000C30FFF7CDBF00BF000000000000000013
:104030000C304FF0FF31FFF7C3BF00BF000000009E
:1040400008B50146202383F311880820FFF7C0FC40
:10405000002383F3118808BD000000000000000069
:1040600004252E4608B5074B074A9B69074C9A6101
:10407000C8206661FFF7E4FF2561C820FFF7E0FF75
:10408000A368F5E754120020B4A900080008014015
:1040900008B5C0B2FCF724FFBDE808401420FFF7C4
:1040A000CFBF00BF000000000000000000000000C3
:1040B000012370B54FF08045304E642033606C6A48
:1040C000FFF7BEFFA4B204F1670104F1640089B2F6
:1040D00080B2FCF7FDFB00B170BD022333606C6A57
:1040E000C820A4B2FFF7ACFF04F1CB0104F1C80073
:1040F00089B280B2FCF7ECFB0028EDD103233360DA
:104100006C6AC820A4B2FFF79BFF04F1CB0104F155
:10411000C80089B280B2FCF7DBFB0028DCD10423A5
:1041200033606C6A4FF4FA60A4B2FFF789FF04F2BF
:10413000D37104F5FA6089B280B2FCF7C9FB00289C
:10414000CAD1052333606C6A2023A4B204F164064B
:10415000B6B283F31188696A711A89B211B1082065
:10416000FFF736FC002383F3118804F16701304622
:10417000BDE8704089B2FCF7ABBB00BF941D0020C6
:1041800008B50120FFF75CFF202383F311884FF06F
:1041900080420023506A83F3118880B208BD00BFBB
:1041A0002DE9F84F0123DFF88CB00024CBF8003064
:1041B000FFF7E6FFA2464FF020098046184F194E40
:1041C000194D89F3118800233A4630460121FDF745
:1041D000D7FB3A46002342F210712846FDF7D0FB88
:1041E0003046FDF785FB2846FDF782FB8AF31188F0
:1041F0004FF080435B6A0134A3EB08039BB2B3F535
:10420000FA6FDED302230948CBF80030FCF728FF11
:104210006000FCF755FEBDE8F84F0548FCF700BF0D
:10422000A10B0008C41D0020D81D0020FCC40008FC
:104230000CC50008941D00200000000000000000D4
:104240002DE9F84F8846A84C2060A848FCF7E8FE06
:10425000D8F80030002B00F0E4812A21A44D20681A
:104260000368DB68984715F8011F0029F7D1D8F8D3
:104270000000FCF7D5FE9F48FCF7D2FE2A219E4D98
:1042800020680368DB68984715F8011F0029F7D1FB
:104290009A48FCF7C5FE2A21994D20680368DB681F
:1042A000984715F8011F0029F7D19648FCF7B8FE8A
:1042B0002A21954D20680368DB68984715F8011F8F
:1042C0000029F7D19148FCF7ABFE8A48FCF7A8FE1D
:1042D0002A218F4D20680368DB68984715F8011F75
:1042E0000029F7D18B4B8C488C4DC01AFCF7E8FDA8
:1042F0008B48FCF795FE2A2120680368DB68984705
:1043000015F8011F0029F7D1864B8748874DC01A41
:10431000FCF7D6FD8248FCF783FE2A21206803685B
:10432000DB68984715F8011F0029F7D12A25804B33
:104330008048814EC01AFCF7C3FD7948FCF770FE37
:10434000294620680368DB68984716F8011F002992
:10435000F7D10D46AB46794B79487A4EC01AFCF737
:10436000AFFD6F48FCF75CFE6048FCF759FE764BEA
:104370001D70D8F8043053F82B304FEA8B07002B10
:1043800000F02F814C2520683D210368DB689847A9
:10439000013DF8D120686D49036802225B689847A7
:1043A0003D216B4D20680368DB68984715F8011FB5
:1043B0000029F7D10BF1010B5846FCF781FD2021B4
:1043C000644D20680368DB68984715F8011F0029D1
:1043D000F7D1D8F80430DB591D68297839B1206845
:1043E0000368DB68984715F8011F0029F7D15A4880
:1043F000FCF716FE0025D8F804304FEA8509DA5993
:10440000526852F82520002AB5D0FCF791FE2D21E4
:10441000DFF850A120680368DB6898471AF8011F8D
:104420000029F7D15846FCF74BFD20682E21036880
:104430000135DB6898472846FCF742FD2021DFF86C
:1044400014A120680368DB6898471AF8011F002947
:10445000F7D1D8F80430DB595B6853F80930D3F84A
:1044600000A09AF8001039B120680368DB6898470B
:104470001AF8011F0029F7D13748FCF7D1FD4FF496
:10448000C870FFF7DDFD0022D8F80430DFF8D8A0AF
:10449000DB5932495B68316053F809908AF8002093
:1044A000D9F8043003B19847D9F80C309847D9F8B7
:1044B000083003B198479AF80030002B00F08D8047
:1044C0002D21DFF8A89020680368DB68984719F869
:1044D000011F0029F7D1224BDFF894901868FCF7F0
:1044E000EFFC202146E000BFE81C0020F4C70008D4
:1044F000F4D20008F0D30008FCD20008F4D300087E
:1045000010D30008B0AA000824D30008F0AA0008BD
:1045100038D3000860010008B4A900084CD3000893
:1045200078C50008B4A9000874D5000860D3000855
:1045300000080020E80C002074D30008E80C0020DC
:1045400090240020A81D0020F01C00208CAC000846
:1045500088D300089CD300080CD40008981D0020C4
:10456000941D0020A0D30008901D0020B0D30008A7
:10457000C8D3000820680368DB68984719F8011F52
:104580000029F7D13368294A934209D99146206816
:1045900019F8011B0368DB68984733689945F6D31F
:1045A0005D21DFF8B09020680368DB68984719F850
:1045B000011F0029F7D11E4BD3F8009099F8001085
:1045C00039B120680368DB68984719F8011F002992
:1045D000F7D11848FCF724FD0DE71748FCF720FD3C
:1045E00009E7FCF7A5FD1548FCF71AFD4621144D17
:1045F00020680368DB68984715F8011F0029F7D188
:10460000104B1B7833B91048FCF70AFD0D4B187896
:10461000BDE8F88F0D48FCF703FD0A4B1878BDE89C
:10462000F88F0B48FCF7FCFC25E600BF981D002026
:10463000EC1C002010D4000814D40008F4C70008B3
:10464000D0D30008F01C002020D4000828D4000893
:10465000E0D30008CCD300080000000000000000F8
:104660000149FFF7EDBD00BF40C700080000000092
:104670000149FFF7E5BD00BF50B60008000000008B
:1046800038B50B4CA1690A4652F82C3F934207D02B
:104690000D251C681846CC62626083F8205038BD36
:1046A0000E20FFF70DF9A169CB6A01F12C02EFE7AB
:1046B0005412002000000000000000000000000074
:1046C00070B52026002586F31188FFF7D9FF85F302
:1046D0001188446A86F311882146FFF701F885F3B3
:1046E0001188002CEFD170BD000000000000000018
:1046F0000E4B10B520229C6982F311886162026B17
:1047000000F12C01C4E90012146090F82020046329
:104710000E2A07D00C20FFF7D3F8606A002383F33A
:10472000118810BDFCF764FFF4E700BF54120020AD
:10473000F8B50546FFF724FD002407464FF08046F4
:1047400001212846FFF7D4FF736A0134DB1B9BB2BB
:10475000B3F5FA6FF4D328460021FFF7C9FF2046CE
:10476000F8BD00BF000000000000000000000000D5
:1047700010B504464121FFF7BBFF20464221FFF759
:10478000B7FF20464321FFF7B3FF2046BDE81040A6
:104790004421FFF7ADBF00BF000000000000000093
:1047A0000EB410B585B007AB53F8044B01AA02A9AB
:1047B000CDE901340392FFF79BFF05B0BDE810403F
:1047C00003B070470000000000000000000000007F
:1047D000F8B5384A83689569002B40D0A9689A6873
:1047E0000446914207D993F820209960062A3BD0CD
:1047F000072A15D042B32646234603E09968AA68E3
:1048000091422AD31B689C42F8D173680620C5E9FF
:1048100000631D6075606C62BDE8F840FFF750B83A
:104820001F6858685E6A07601F683246786002E059
:104830009068884234D312689642F9D17268C3E90D
:10484000006213607360D6E7D3E900121160184666
:104850001B685A60FCF7CCFECDE71E46D5E7AB6B74
:10486000C0E90253A863F8BD1F6858685E6A076014
:104870001F68B4463246786002E09068884216D3DA
:1048800012689642F9D1DCF80420A968C3E900C295
:104890001360CCF80430B3689A688A42A3D3AAE7BD
:1048A00016467268C3E9006213607360A3E794461A
:1048B000E9E700BF541200200000000000000000E3
:1048C00008B5202383F31188FFF782FF002383F3C9
:1048D000118808BD0000000000000000000000007A
:1048E000024610B5064C0520A3695A625168C3E917
:1048F00000210B605360FEF7E3FFA369586A10BD07
:104900005412002000000000000000000000000021
:104910002DE9F8430546202383F311883E4ED6E95E
:104920000032013B034052F8334002EBC302A24283
:1049300003D11DE02468A2421AD063699D42F9D1D7
:104940002369002BF6D1236A002B03F1FF3139DDF7
:10495000D4E90202636A9060A06823F00103C26098
:10496000C4E90813002383F311882046BDE8F883C7
:104970002A4F4FF00009A7F130081AE0346A616A43
:10498000D4E902308360A268236AD060013B21F041
:104990000102C4E90832CA061FD589F3118822230F
:1049A000214663624046336C01229847202383F3FB
:1049B0001188B36B013B002BB363DFDA3846FFF796
:1049C0008FFFDBE7216204F11800FFF789FF002366
:1049D00083F311882046BDE8F8838B0704D5D4E91A
:1049E00000231A60226853600027D6E900320A20AB
:1049F000013B2B4052F83310656102EBC305C4E95B
:104A00000015276160624C6042F83340002383F355
:104A100011882046BDE8F8831012002040120020C3
:104A200008B5202383F311888368013B002B836042
:104A300004DB0020002383F3118808BDFFF750FF3B
:104A4000002383F3118808BD00000000000000006F
:104A500001232DE9F041DFF87C800025C8F8003003
:104A6000FFF78EFB4FF080470646174C2046FFF7B6
:104A7000D7FF2046FEF7F4FE2046FFF7D1FF204681
:104A8000FEF7EEFE2046FFF7CBFF2046FEF7E8FEDE
:104A90002046FFF7C5FF2046FEF7E2FE7B6A0135A0
:104AA0009B1B9BB2B3F5FA6FE0D302230748C8F80B
:104AB0000030FCF7D5FAA800FCF702FABDE8F04197
:104AC0000348FCF7ADBA00BF6C160020FCC4000818
:104AD00028C50008941D0020000000000000000010
:104AE00038B5084CA36993F821305A0708D4064D0D
:104AF0002846FFF795FFA36993F821305B07F7D5A8
:104B000038BD00BF541200206C16002000000000C9
:104B100010B5044C2046FFF783FF2046BDE8104047
:104B2000FEF79EBE6016002000000000000000009E
:104B300010B504460348FFF773FF2078BDE8104026
:104B4000FCF7CEB960160020000000000000000055
:104B500038B5104B9C69A36A04F12805AB4260622A
:104B600007D01A681846A262FCF742FDA36AAB425E
:104B7000F7D194F8223043B994F821309B0704D13F
:104B8000D4E904231A61226953610F20BDE838403B
:104B9000FEF796BE54120020000000000000000046
:104BA0002DE9F04F8046DFF830920768D8F80410FE
:104BB000D9F81830794A9BB001919A617849384602
:104BC000FEF70EFA38467749FEF70AFADFF80CA22C
:104BD000D9F8183093F821305B0700F188800AAECD
:104BE000354651463846FEF7FBF9D8F800402368B1
:104BF0009B6801220DF10F012046984700286ED0D6
:104C00009DF80F10042966D008290DF1670212D013
:104C10007F2910D00D2922D01F292368E8D9954279
:104C2000E6D2DB68204698479DF80F30013505F83D
:104C3000013C2368DCE7B5422368D9D0DB68082152
:104C40002046984723682021DB6820469847236840
:104C50000821DB6820469847013D2368C8E74FF0EC
:104C6000000B4F492046FEF7BBF9304604A985F8F2
:104C700000B0FEF785F904A90646002005ADFEF751
:104C80007FF960B1BBF1040F1ED045F8040B04A9F5
:104C900000200BF1010BFEF773F90028F2D11AABDB
:104CA00003EB8B0343F8540C002E91D03E49304661
:104CB000FBF742FC40BBBBF1000F36D03A4A3B4900
:104CC0003846FEF78DF983E739493846FEF788F90B
:104CD000002309937CE720463649FEF781F93049E5
:104CE0003846FEF77DF938463349FEF779F9202337
:104CF00083F3118800213148FCF762FD0020FFF7A3
:104D000027FF1BB0BDE8F08F2D4D2E4802E055F86F
:104D1000080F58B33146FBF70FFC0028F7D16B683A
:104D200005AA59463846984752E727493846FEF7BC
:104D300057F9234C234A254D29463846FEF750F9AA
:104D400054F8082F002AF7D1019C54B1226842B1CF
:104D50001E4D29463846FEF743F954F8082F002A1D
:104D6000F7D10F493846FEF73BF931E7019D5DB1B8
:104D7000286818B908E055F8080F28B13146FBF744
:104D8000DBFB0028F7D1CAE7324611493846FEF767
:104D900027F910493846FEF723F919E788C70008B4
:104DA0008CAC000890C70008D0C70008D0AB000842
:104DB000B8C70008ACC70008B0C7000878160020C4
:104DC00000C8000880C70008D8C70008E8C7000866
:104DD000ECC70008F0C7000854120020A4C7000860
:104DE000002903DD084A0949FEF7FAB808B520236F
:104DF00083F3118806480021FCF7E2FCBDE8084077
:104E00000020FFF7A5BE00BF80C70008D0AB000898
:104E100078160020000000000000000000000000E4
:104E2000EFF30983203383F30988002383F3118888
:104E3000704700BF000000000000000000000000FC
:104E4000202383F31188FFF783BE00BF000000001A
:104E5000F8B5002320261D460E4F3B7086F31188BF
:104E6000FFF70EFC044685F31188436AD3E900205E
:104E70009047014686F311882046FEF731FC85F302
:104E800011883B78002BE9D0BDE8F84040F6A570CA
:104E9000FFF7D6BF5C1400200000000000000000F7
:104EA000FFF7CEBF0000000000000000000000007F
:104EB000012130B400250D4A1068946903685A60D6
:104EC00080F82010A1681360906184F8205000E001
:104ED0001B689A689142FBD35A682146C4E90032A4
:104EE00014605C6030BCFBF7ABB900BF541200200B
:104EF000044B1A689B6992689B689A4200D8704775
:104F0000FFF7D6BF54120020000000000000000090
:104F100070B5202383F31188846881600134002CEC
:104F20000CDC05466FF001066868013443686B606D
:104F30001D60FCF75DFB012C4662F5D1FFF7D8FF41
:104F4000002383F3118870BD000000000000000002
:104F50002DE9F8430123294C294E20463360FFF701
:104F60005FFD2025074685F31188A0682549B0FA22
:104F700080F04009FBF70CFF20B1002383F3118878
:104F8000BDE8F88380F31188B7FA87F01E4940091D
:104F9000FBF7FEFE07460028F2D14FF0020920463B
:104FA000C6F80090FEF75CFC85F31188A0681549EF
:104FB000A0F10100B0FA80F04009FBF7E9FE80465D
:104FC00010B187F31188DBE780F31188032349468A
:104FD00020463360FFF79CFF85F31188A0680949DC
:104FE000A0F10200B0FA80F04009FBF7D1FE10B941
:104FF00080F31188C4E788F31188C1E760160020A8
:10500000941D002074C0000888C000080000000043
:1050100000210148FFF77CBF60160020000000005F
:1050200038B5202383F31188154CA3680133002B76
:10503000A3601ADD013B002BA36006DBFFF758FFDE
:105040000020002383F3118838BD0E4A63689569F8
:105050000520C5E900431D606C626560FEF730FC09
:10506000686A002383F3118838BD206803685C6098
:105070002360FCF7BDFA0022A3684262DAE700BFB2
:105080006016002054120020000000000000000004
:1050900038B501241D4B1E4D9A691E4891680023A6
:1050A00021441D4A2C60FEF74BFB02231B4A1C4C7B
:1050B00010602B60FFF7B4FF20681A49001BB0FA9C
:1050C00080F04009FBF764FE00B138BDA0681649C6
:1050D000B0FA80F04009FBF75BFE0028F5D103230E
:1050E0002B60FFF79DFF20680E49001BB0FA80F08F
:1050F0004009FBF74DFE0028E7D1A0680A49B0FA45
:1051000080F0BDE838404009FBF742BE5412002051
:10511000941D002080160020114B0008AC1D0020BB
:1051200060160020F0C0000800C100080000000068
:1051300038B5202383F3118801220025094C236808
:1051400004F118002275C4E902332561FCF768FAFE
:1051500004F12000FCF764FAFFF7CAFE85F311881A
:1051600038BD00BF580C0020000000000000000007
:10517000FFF7DEBF0000000000000000000000009C
:10518000FFF7F6BF00000000000000000000000074
:10519000FFF7EEBF0000000000000000000000006C
:1051A000F8B507460E46202383F31188154C04F109
:1051B00018050BE02369D4E90021881AB3EBA00F8E
:1051C0000DD131462846FEF75BFD20B9237D002B2B
:1051D000F0D06FF00100002383F31188F8BDE06880
:1051E00001330438824288BF081FE0600760064828
:1051F0002361FCF72DFAFFF77BFE0020002383F3E9
:105200001188F8BD580C0020780C00200000000028
:105210002DE9F84F0825C94A00210127134604202B
:10522000C74CC84E2560C84D6260E56304F1240593
:10523000C4E9095504F13005C44AC4E90C55C4E970
:105240000511E76204F114072264266103F14002AC
:105250002762A063A060C3E9003308339342FAD108
:10526000B84BBB4903F1F00C0126002200E02B46AD
:1052700003F13C0503F118006545C3E902171E62FE
:10528000C3E90600CB60C3E90422C3E909621946F9
:10529000EDD102220025DFF8D8A2AE4BDFF8C082A4
:1052A000DFF8D092DFF898B2CAF80020E361284610
:1052B000FFF72EFB0646406A4146C0F34000FBF76D
:1052C00067FD002840F03881706A4946C0F3C0008D
:1052D000FBF75EFD0746002840F02E81202383F374
:1052E000118831465846FCF7C3FAFFF701FE87F3F1
:1052F00011880135082DDAD197499848FBF7C8FE87
:10530000002840F0198103230646954FDFF8689284
:10531000DFF82C82CAF800303046FFF7F9FA05466C
:10532000406A3946C0F34000FBF732FD002840F0E8
:105330000381686A4946C0F3C000FBF729FD0028D5
:1053400040F0FA806B6A024643F008036B6229461C
:10535000E36B4046984780F00100C0B28149FBF7FB
:1053600017FD002840F0E880686A3946C0F3400025
:10537000FBF70EFD7C49002840F0DE80686A80F073
:105380000800C0F3C000FBF703FD8346002840F08F
:10539000D380202383F3118829464046FCF768FA1E
:1053A000FFF7A6FD8BF311880136082EB4D16A49A8
:1053B0006E48FBF76DFE002840F0BE8004230546D2
:1053C000674FDFF8B491DFF87881CAF800302846DB
:1053D000FFF79EFA0646406A3946C0F34000FBF7E5
:1053E000D7FC002840F0A880706A4946C0F3C0008E
:1053F000FBF7CEFC002840F09F80736A314643F0F3
:10540000080373620122E36B4046984780F0010075
:10541000C0B25449FBF7BCFC002840F08D80284600
:10542000FFF776FA0646406A3946C0F34000FBF7BC
:10543000AFFC4D4900287FD1706A80F00800C0F3AE
:10544000C000FBF7A5FC8346002875D1202383F319
:10545000118831464046FCF70BFAFFF749FD8BF304
:1054600011880135082DB2D13B494048FBF710FEA9
:10547000002861D105230424394EDFF8EC80304F39
:10548000CAF800302046FFF743FA0546406A314625
:10549000C0F34000FBF77CFC00284DD16B6A41460D
:1054A00083F00803C3F3C000FBF772FC81460028B9
:1054B00042D1202383F3118829463846FCF7D8F9D6
:1054C000FFF716FD89F311880134082CDAD122493F
:1054D0002248FBF7DDFD78BB06230446DFF8809009
:1054E000DFF89480164FCAF800302046FFF710FA14
:1054F0000546406A4946C0F34000FBF749FCD8B96D
:10550000686A4146C0F3C000FBF742FC064698B902
:10551000202383F3118829463846FCF7A9F9FFF7C1
:10552000E7FC86F311880134042CDED1BDE8F84F86
:1055300009490A48FBF7ACBDBDE8F88F60140020AC
:10554000101200206015002081550008110F00087E
:10555000241200201416002058B30008F4C70008D5
:1055600034B300086CB300087CB3000888B30008AB
:10557000941D002040B3000880B300080000000024
:1055800070B50C4615464B69064603F16100C0B282
:10559000FBF7A6FC636A23F0080363625DB1202376
:1055A00083F3118821463046FCF762F9FFF7A0FC2F
:1055B000002383F31188002070BD00BF00000000AD
:1055C00038B5202585F3118800210B48FCF7F8F841
:1055D0000024FFF78DFC84F311886420FEF730FD72
:1055E00085F3118805482146FCF7EAF8FFF780FCAF
:1055F00084F3118838BD00BF0C0C0020100C002073
:1056000010B504466420FEF71BFD202383F31188A8
:1056100001212046FCF7BCF8FFF76AFC002383F366
:10562000118810BD00000000000000000000000014
:1056300010B54FF49670FEF703FD202383F3118815
:10564000064C2046FFF7C4F82046FCF7D1F8FFF7D8
:105650004FFC002383F3118810BD00BF480C0020CD
:105660002DE9F0410123002684B05F4F01AC3B607F
:105670000396CDE901444FF0200888F31188039880
:105680005A49B042CCBF00200120FBF781FB20B17A
:1056900086F3118804B0BDE8F081054680F31188D7
:1056A0000223014620463B60FFF732FC88F3118855
:1056B00003984E490028CCBF00200120FBF768FB6F
:1056C000064620B185F3118804B0BDE8F08180F36F
:1056D00011880325464A2346916946488968464A07
:1056E00001393D60FEF72CF80422444B3A60186003
:1056F0002046FFF795F9054688F3118803983B4942
:105700000028CCBF00200120FBF742FB0028BFD1BE
:1057100080F31188B5FA85F039494009FBF738FB69
:105720000028B7D105233B6088F31188039B002B29
:105730004EDDFFF7DDFB002585F311884FF02008D3
:1057400088F3118803982F49A842D4BF0020012074
:10575000FBF71EFB06460028B4D180F3118888F3BE
:10576000118803982849A0F10100B0FA80F040099F
:10577000FBF70EFB00288BD180F3118806233B60DA
:1057800088F31188039B002B26DDFFF7B1FB002671
:1057900086F31188202585F3118803981B49B042B0
:1057A000D4BF00200120FBF7F3FA044600287FF461
:1057B0006FAF80F3118885F3118803981249431E57
:1057C00058425841FBF7E4FA50B184F3118861E77D
:1057D0002046FCF735F8ACE72046FCF731F8D4E773
:1057E00080F3118856E700BF941D002024C10008F3
:1057F000541200208016002041580008AC1D0020E3
:1058000030C1000844C1000850C1000828C1000888
:1058100008B56420FEF714FC202383F311880448A4
:10582000FCF70EF8FFF764FB002383F3118808BD33
:1058300060160020000000000000000000000000D2
:1058400008B5202282F311888368002B05DDFFF75D
:105850004FFB002383F3118808BDFBF7F1FFFFF72F
:1058600047FB002383F3118808BD00BF0000000040
:1058700010B52023044683F31188094A13682BB11D
:105880000021184659621160FBF7B2FEFFF730FBAA
:10589000002383F311882078BDE81040FBF720BB7C
:1058A000C01D0020000000000000000000000000FB
:1058B0002DE9F04105460C4616464FF0200800271A
:1058C00088F31188EB6828462360EC60FBF7B8FF8B
:1058D000FFF70EFB87F311882B69013E1C44EFD1C3
:1058E000BDE8F081000000000000000000000000A2
:1058F000334801232DE9F0470646324F042232494E
:105900003B60FFF7D5FF0223B04604242F4D3B60D8
:1059100000214046FEF764F9003018BF01202946F7
:10592000FBF736FA002848D1013CF1D10323214688
:1059300023483B60FEF754F9B0FA80F0244940094F
:10594000FBF726FA002838D104234FF0200A1E4D19
:10595000DFF86C903B6005F110082B468AF3118844
:10596000F268484645F8042BF360FBF769FFFFF740
:10597000BFFA84F311884545EFD105230424104E66
:10598000124D3B6000213046FEF72AF9003018BF67
:1059900001202946FBF7FCF978B9013CF2D1062336
:1059A000214607483B60FEF71BF9BDE8F047B0FA17
:1059B00080F007494009FBF7EBB9BDE8F08700BF6D
:1059C000140C0020941D002050160020A4B30008E1
:1059D000B0B300080000000000000000000000005C
:1059E000F8B504460F461646202383F31188C518E0
:1059F00006E023696BB931462846FEF741F920B924
:105A0000237D002BF5D06FF00100002383F3118874
:105A1000F8BDE16860680A1D82420968E26028BF3B
:105A2000226803F1FF33396004F1180028BFE260F7
:105A30002361FBF70DFEFFF75BFA0020002383F3E1
:105A40001188F8BD00000000000000000000000008
:105A50002DE9F041114E82B0B04606F11C0711E06D
:105A6000019C2368BBB160689847202383F31188A9
:105A7000F36840462360F460FBF7E2FEFFF738FA74
:105A800085F311884FF0FF3201A93846FFF7A8FFD0
:105A900005460028E4D002B0BDE8F081DC14002007
:105AA000F8B504460F461646202383F3118800F10B
:105AB00018050BE02369D4E90012501AB3EBA00FCC
:105AC0000DD131462846FEF7DBF820B9237D002BA7
:105AD000F0D06FF00100002383F31188F8BDA568B2
