:020000041000EA
:1000000000B5324B212058609868022188439860DF
:10001000D860186158612E4B002199600221596106
:100020000121F02299502B49196001219960352056
:1000300000F044F80222904214D00621196600F024
:1000400034F8196E01211966002018661A6600F04E
:100050002CF8196E196E196E052000F02FF8012189
:100060000842F9D1002199601B49196000215960AB
:100070001A491B48016001219960EB211966A021F2
:10008000196600F012F800219960164914480160C1
:100090000121996001BC002800D000471248134993
:1000A000086003C880F30888084703B5996A0420EC
:1000B0000142FBD001200142F8D103BD02B5186610
:1000C0001866FFF7F2FF186E186E02BD00000240BE
:1000D000000000180000070000035F00212200005C
:1000E000F4000018222000A00001001008ED00E03C
:1000F00000000000000000000000000074B24E7A12
:1001000000200420F7010010C3010010C5010010F9
:10011000C1010010C1010010C1010010C101001097
:10012000C1010010C1010010C1010010F5570010FD
:10013000C1010010C10100104B580010955800106B
:10014000CD010010CD010010CD010010CD01001037
:10015000CD010010CD010010CD010010CD01001027
:10016000CD010010CD010010CD010010CD01001017
:10017000CD010010CD010010CD010010CD01001007
:10018000CD010010CD010010CD010010CD010010F7
:10019000CD010010CD010010CD010010CD010010E7
:1001A000CD010010CD010010CD010010CD010010D7
:1001B000CD010010CD010010CD010010CD010010C7
:1001C00000BE00BE00BE00BE00BE00BE00F04BF888
:1001D000103800BEF2EB8871A0790010C4790010CD
:1001E0003402001090A31AE700202149086006C8D5
:1001F00081F3088810471F48006800282FD10DA4FC
:100200000ECC002902D000F012F8F9E71A491B4A77
:10021000002000E001C19142FCD1194988471949E9
:1002200088471949884700BEFDE701C901C29A42C3
:10023000FBD37047C4790010C0000020CC0A002016
:10024000D08300100000042000000420D0830010A0
:1002500000100420001004200000000070470B482C
:1002600002F07AFD0047EFF30580C0B2704700004E
:1002700008ED00E0000000D0D00A00206C10002043
:10028000A9130010890300106513001057560000D1
:1002900006005250ABB36053F8780010060052507D
:1002A000861C030208790010060052505422A29DB9
:1002B0001079001005005250DE65F468D0830010FC
:1002C000F8B5C0460448054B10B5834203D0044B33
:1002D000002B00D0984710BDCC0A0020CC0A00208B
:1002E0000000000006480749091A8910CB0F591869
:1002F00010B5491003D0044B002B00D0984710BD17
:10030000CC0A0020CC0A00200000000010B5074CE9
:100310002378002B09D1FFF7D5FF054B002B02D026
:10032000044800E000BF0123237010BDD00B002063
:1003300000000000686B0010054B10B5002B03D0C7
:100340000449054800E000BFFFF7CCFF10BDC046E0
:1003500000000000D40B0020686B001070B519205D
:1003600000F040F8D0231B06802292045A62D02469
:1003700024068025AD046561642004F0FBFAA561C4
:10038000642004F0F7FAF2E700B583B003F0A6FDAD
:10039000802200230193013300930023520003497C
:1003A000034803F08FFF04F023F9FEE7686B0010A9
:1003B0005D03001010B58300084A944663441C682E
:1003C00040226240C02414408022520113431C602A
:1003D000C000034B9C466044416010BD04C0014016
:1003E0000040014010B501238340D02212069362E1
:1003F00093610521FFF7DEFF10BD0000EFF31080D1
:1004000072B6034B1B68002BFBD0BFF35F8F7047A6
:100410002C0100D0BFF35F8F024B00221A6080F3E3
:10042000108870472C0100D070B505000E00140034
:10043000FFF7E4FFF208AA181578072131400123DD
:100440008B402B4205D1DBB22B431370FFF7E2FF49
:1004500070BD3100200001F023F80000034B1B6841
:1004600002201840431E9841C0B2704700C00640A9
:10047000002307E0054A9A189200BFF35F8F00211E
:10048000116001331F2BF5D97047C046400000347E
:10049000054A1078431CDBB21370172B02D91300E6
:1004A00010221A707047C046B001002070B50500D8
:1004B0000C00062001F00AF9C000210002F0A0FCA7
:1004C000C60908D00E4B9E4217D87F231840013032
:1004D0003400460800E001246C62AE622C358023B3
:1004E0009B011D4300232B60062001F0EFF88000E4
:1004F000A101891902F084FC70BD0026014CEBE7D4
:10050000FEFF0000FFFF000000290AD180225200F8
:10051000054B9C466044434258414000034BC25245
:1005200070470A22F4E7C0460080FCBF140E00208A
:1005300070B505000C00062001F0C8F800282DD089
:10054000174B9D4227D08022D203164B1A60164BC0
:100550001A60164B9B6811009943FAD100212800BC
:10056000FFF7D2FF21002800FFF7A0FF2C002C345A
:10057000E96A60224A406E211140802252012243E2
:1005800011600B4B2B6380239B01234310221A60C5
:100590000323AB6470BD80221204D6E70020F9E784
:1005A0000080034000E0004000F0004000C0004038
:1005B0000103000070B505000C00080000F08CFB82
:1005C000200000F05DFC0849200000F09DFBFFF7D3
:1005D0005FFF064B9C466044800068602C75A40059
:1005E000034BE55070BDC046D108001040000034F8
:1005F000E40D002010B5002922D003681B7B99422E
:100600001ED8174B9C466144090183689C4661448F
:100610000C684968002A19D003681B7B9A4215D8D8
:1006200083680F488446624412019A181068536820
:10063000020001208B4201D80ED00020C0B210BDB4
:10064000084B094A3B21094800F090FE054B064A39
:100650003B21064800F08AFEA242EFD8EDE7C046F3
:10066000FFFFFF0F346D0010CC6B0010186E0010F0
:1006700010B500291FD0037B99421CD84B005B1892
:10068000033B0468A446634400291AD0002A1ED004
:10069000914222D0002A26D0047BA24223D80468AB
:1006A000500080180338201881701978002920D054
:1006B00041701A7010BD104B104A6921104800F0AB
:1006C00055FE104B104A70310D4800F04FFE0F4B95
:1006D0000D4A71210A4800F049FE0D4B0A4A722169
:1006E000074800F043FE044B044A6921044800F027
:1006F0003DFE1A70DEE7C046686D00108C6B00107E
:10070000846D0010D46D0010986B0010E06D001027
:10071000EC6D001070B506000D00140000290BD020
:10072000002A12D0806873689847002806D12A00F2
:1007300021003000FFF79CFF200070BD220029003F
:100740003000FFF795FF2C00F6E70C00F4E70000FF
:1007500070B5CE4600B583B00500009201930AAB98
:100760001C780BAB1B789946002C28D003685A7B69
:10077000944209D10123002B1BD1002C3DD1200034
:1007800003B004BC914670BD002C0CD01A7B94427F
:1007900009D81A6863001B19033BD3189B78002BF8
:1007A000E9D00123E7E73F4B3F4A69213F4800F08A
:1007B000DDFD3F4B3F4A65213F4800F0D7FD036810
:1007C0009C7B002CD9D012D01A7B94420FD86200A7
:1007D0001219033A19688C466244517899730029BA
:1007E00000D1D9730023937053701370C5E72D4B5C
:1007F0002D4A69212D4800F0B9FD002C3BD02B6813
:100800001B7B9C4237D82D4BE3181B01AA689446EA
:1008100063440099019A19605A60089A9A60099A8B
:10082000DA602E68002C2CD031D0337B9C422ED83D
:1008300063001B19033B32689446634400229A709C
:100840005A701A70717B22003000FFF763FF7073DB
:10085000844200D093E7287D009A019B00F09CFA27
:10086000061E02D04B46002B17D00C9B002B00D14C
:1008700085E71E7083E7124B124A3B210E4800F0B9
:1008800075FD114B114AA621084800F06FFD054B7C
:10089000054A6921054800F069FD2868210000F03B
:1008A000C7FCE2E7686D00108C6B0010846D0010CF
:1008B000206C0010EC6B0010186E0010FFFFFF0F93
:1008C000346D0010CC6B0010146E0010AC6B001077
:1008D000F0B5DE4657464E464546E0B58BB009902A
:1008E0008200BA4BD7583D00A3E0B94BB94A3F212B
:1008F000B94800F03BFDB94BB94A3B21B94800F07B
:1009000035FD002B02D1002A00D0BCE0002160465A
:1009100000F084FCA04219D13268736806920793F4
:10092000B3689946F3689A464B46002B14D0002CC6
:1009300018D02B681B7B9C4214D8631EEA68D35CDA
:1009400008931B02184328610020A4E0A64BA74A85
:100950008C21A44800F00AFDA54BA44A9021A1488F
:1009600000F004FD9D4BA34A40219E4800F0FEFC90
:1009700000239A46994600208DE02B69002B00D178
:10098000A9E043451CD1069A079B10001900921B51
:10099000BB41994202D804D1904202D9012252426D
:1009A000D317002B12DB0021049101310391029433
:1009B00051460191494600912800FFF7C9FE30E0F9
:1009C0008D4B8A4A9F21874800F0D0FC804B814A9A
:1009D0003F21814800F0CAFC002F02D1002E00D038
:1009E0007CE02A68002C00D1C7E0537B9C4200D0F9
:1009F000ACE00123002B00D0BFE0D37B002B00D064
:100A0000C1E0D473002C00D1D0E02B681B7B9C424A
:100A100000D9CBE0013CEB689C4664442378013369
:100A2000237000232B616A68BFF35F8F13608BF321
:100A3000108800F05DF9002900DA56E70023002451
:100A4000069307946A68EFF3108772B61368002B59
:100A5000FCD0BFF35F8F2B689C465C7B002C87D05B
:100A600000D148E71B7B9C4200D944E7634BE61862
:100A70003601AB689846464432687368121A8B4157
:100A8000002B00DC3DE732687368099800F084F9B8
:100A900000239A4699466B68BFF35F8F00221A6065
:100AA00087F310884B46002B00D185E0089B1B0282
:100AB0002343984651461800C84706000F006A684D
:100AC000EFF3108B72B61368002BFCD0BFF35F8F6F
:100AD000002F00DA51E7002F00DC7DE72B69002BA7
:100AE00000D17EE743451FD100F002F902000B1E42
:100AF00020DB0100180092197B41984202D804D1F2
:100B0000914202D901225242D317002B18DB002157
:100B1000049101310391029451460191494600919B
:100B20002800FFF715FE7CE7334B304AA2212D4801
:100B300000F01CFC264B274A3F21274800F016FCFA
:100B4000234B244A3F21244800F010FC002C0ED0F7
:100B5000137B9C420BD863001B19033B11688C4626
:100B600063449B78002B00D144E7012342E7244BE8
:100B7000244A6921244800F0F9FB244B244AF72138
:100B8000214800F0F3FB002B0AD0117B8B4207D8E1
:100B90005900CB18033B11688C4663445C7030E706
:100BA000174B184A6921184800F0E0FB0B4B114A1B
:100BB00040210C4800F0DAFB002800D039E70BB0E8
:100BC0003CBC90469946A246AB46F0BDE40D0020E1
:100BD000486C0010746B0010646C0010346D0010D1
:100BE000CC6B0010186E0010B06C0010046C00107C
:100BF000C86C0010D86B0010D46C0010FFFFFF0F02
:100C0000686D00108C6B0010846D0010106D00106A
:100C1000BC6B001010B50A4B5B68002B04D00A2196
:100C2000084800F04DF910BD054C2300064A10217C
:100C3000206800F011FA03212000FFF7BBFCEEE76B
:100C4000B4010020F80D0020F505001070B5EFF399
:100C500005833F2018401038EFF3108472B6194B0B
:100C60001B68002BFBD0BFF35F8F0123190081406D
:100C7000154A5163154A12781500C5402B4214D00D
:100C8000114B5D6A8300124E9B599D4206D383002F
:100C9000104D5B598A430D490A7007E00A4A031D4B
:100CA0009B0099589950002300E00023BFF35F8F09
:100CB000044A0021116084F31088002B00D098476B
:100CC00070BDC046280100D000400540120E002033
:100CD000FC0D0020600D002010B50100024A034801
:100CE000FFF7A2FB10BDC046706E0010100E002072
:100CF000044B596A00E01900024B986A5B6A9942FA
:100D0000F9D170470040054070B504000D00EFF3C5
:100D1000108672B61B4B1B68002BFBD0BFF35F8F96
:100D2000002D1CD0200000F049FD174B98420BD03D
:100D30001900200000F04AFD0121200000F036FDDE
:100D40000123A340114A1360A400114BE550BFF3E7
:100D50005F8F0C4B00221A6086F3108870BDA200D2
:100D60000B4B0021D1500122A2400A490B7893433A
:100D70000B700549200000F053FD0021200000F019
:100D800015FDE4E7280100D04D0C00103860054047
:100D9000600D0020120E0020F0B5DE4600B584B0D4
:100DA0000500140001921E000293FFF7A1FF0394B7
:100DB0008E422CD9EFF3108B72B6294B1B68002B97
:100DC000FBD0BFF35F8F274A17780124AC40E3B212
:100DD0003B431370244B5C632A1D92000199D15050
:100DE000AA002249029850501B6A23421BD11E4B75
:100DF0001B6C234211D00020BFF35F8F184B0022E1
:100E00001A608BF3108804B004BC9346F0BD8E4288
:100E100001D18442CED80120F5E7154B154AC121F6
:100E2000154800F0A3FAFFF763FF8E4214D802D1F1
:100E3000039B834210D80B4B1B78BB420ED00A4B4E
:100E40001C625C631F222A40012393400B4A1360FB
:100E5000044B1F700120CFE70020CDE70120CBE736
:100E6000280100D0120E002000400540FC0D00209B
:100E7000946E0010546E0010B86E001080E200E016
:100E800010B5EFF3108472B60A4B1B68002BFBD031
:100E9000BFF35F8F01238340074A136207490A7833
:100EA0009A430A70BFF35F8F024B00221A6084F3EB
:100EB000108810BD280100D000400540120E00200F
:100EC000024B9C4661448900016070474000003439
:100ED00010B50400FFF7DCFA01002000FFF7F0FF77
:100EE000FF232371BFF35F8F10BD10B50400FFF720
:100EF000CFFA01002000FFF7E3FFFF232371002357
:100F00006371BFF35F8F10BD10B500291FD0037B45
:100F100099421CD84B005B18033B0468A446634409
:100F200000291AD0002A1ED0914222D0002A26D0B1
:100F3000047BA24223D8046850008018033820188C
:100F400081701978002920D041701A7010BD104BA3
:100F5000104A6921104800F009FA104B104A70310C
:100F60000D4800F003FA0F4B0D4A71210A4800F0BA
:100F7000FDF90D4B0A4A7221074800F0F7F9044BBE
:100F8000044A6921044800F0F1F91A70DEE7C0460E
:100F9000686D00109C6F0010846D0010D46D0010FF
:100FA000A86F0010E06D0010EC6D001070B5060029
:100FB0000D00140000290BD0002A12D0806873683D
:100FC0009847002806D12A0021003000FFF79CFF37
:100FD000200070BD220029003000FFF795FF2C0093
:100FE000F6E70C00F4E7000010B50023437301336B
:100FF0008373037BC3730123027B9A4214D9002BB2
:101000000CD0027B934209D85A00D218033A0168E7
:101010008C4662440133DBB25370EDE70B4B0C4A54
:1010200069210C4800F0A2F9002A09D0924207D8A1
:10103000016853009A18033A8A180023537010BDB0
:10104000024B034A6921034800F090F9686D0010D3
:101050009C6F0010846D001010B5017342608360B6
:10106000FFF7C2FF10BD000070B50400002901D1D8
:10107000080070BD002934D0037B994231D84B0061
:101080005B18033B0268944663445A78002AEFD009
:101090002DD0037B9A422AD853009B18033B00684B
:1010A000844663445D7800205870002925D0237B56
:1010B000994222D84B005B18033B20688446634466
:1010C000002058702000FFF771FF06002900200063
:1010D000FFF7CAFF020031002000FFF767FF0100A1
:1010E000C6E7094B094A6921094800F03FF9064B58
:1010F000064A6921064800F039F9034B034A692181
:10110000034800F033F9C046686D00109C6F001072
:10111000846D001070B505000C001600002928D061
:101120002DD0037B99422AD84B005B18033B026801
:10113000944663445A78002A27D19A78002A2AD103
:101140001978FFF791FF0300002E03D0EA7B002AF5
:1011500027D1EC73002B37D1002C49D02B7B9C423C
:1011600046D82A6863001C19033C141900236370D5
:1011700070BD224B224A3821224800F0F7F8224B5A
:10118000224A6921224800F0F1F8224B1C4A3A21F8
:101190001C4800F0EBF8204B194A3B21194800F09D
:1011A000E5F8002A0AD0297B8A4207D851008A181C
:1011B000033A29688C4662445470CAE7124B134ABA
:1011C0006921134800F0D2F8002B0BD02A7B934200
:1011D00008D843001B18033B2A6894466344002246
:1011E0009A70B9E7084B094A6921094800F0BEF82E
:1011F000054B064A6921064800F0B8F81070001047
:10120000BC6F001018700010686D00109C6F00100B
:10121000846D0010547000107C70001070B50400D4
:101220000A00457B2900FFF775FF6073280070BD39
:1012300010B50400002966D0437B8B420ED00029F4
:1012400011D0037B99420ED84B005B18033B026818
:10125000D0188378002B0CD1002055E00121FFF736
:10126000DDFF012050E0294B294A6921294800F07F
:101270007DF8002B1FD0227B93421CD85A00D31834
:10128000033B2268D21813788B421AD0002B1BD054
:10129000227B934218D85A00D318033B2268D218F5
:1012A00053788B4216D0002BF0D11B4B1B4A672181
:1012B0001B4800F05BF8154B154A6921154800F0F2
:1012C00055F84378137007E0104B114A6921114813
:1012D00000F04CF843785370002383704370012270
:1012E0002000FFF717FF0200617B814205D020003C
:1012F000FFF75CFE6073012006E00A4B074A6D2190
:10130000074800F033F8002010BDC046686D00109B
:101310009C6F0010846D0010E86F0010D06F0010FB
:1013200018700010F06F001000BEFDE703000A4ABD
:101330001268002A08D0084A1068C318074A9A425F
:1013400006D3054A13607047034A05491160F2E766
:1013500001204042F7E7C046E00D002000000420D5
:101360006C10002010B5FFF7DFFF000010B582B051
:101370000C001900002A0CD0084B002A0BD0019257
:10138000009323000200064802F09CFD0120FFF7B5
:10139000CBFF044BF1E7034AF1E7C046A070001011
:1013A000B0700010AC70001070B52B4B2B4A1A6057
:1013B0002B4B2C4A1A602C4B9A682A4B9343FAD138
:1013C0002A4C01E008CC9847294B9C42FAD300F004
:1013D000FDF8234B274A1A60234B9B68DB43DB0154
:1013E000FAD1254B40229A675A671A67DA66234C6E
:1013F00009E0234B234A83212348FFF7B7FF20004E
:10140000FFF766FD0834214B9C4209D22368002B6C
:10141000F5D0012BEDD12000FFF767FD0834F2E78E
:101420001B4CA1681B4DC022280002F003FCA560E4
:10143000FEF719FF002800D000BEFFF719F800F0F2
:1014400041FBFFF7E7FB144C01E008CC9847134B36
:101450009C42FAD370BDC04600E00040BFCDFBFE09
:1014600000F00040FE7F3C0000C00040B80A0020B1
:10147000C80A0020FFFFFF0100F00140B00A002071
:1014800004710010E070001024710010B80A0020F0
:1014900000ED00E000000020C80A0020CC0A002077
:1014A0000FB400B583B0084802F0DAFC049B002BAF
:1014B00007D005A90191180002F0E2FC034802F0F0
:1014C000CFFC0120FFF730FFF0700010007100101A
:1014D000F0B5DE46574680B583B007000E00924651
:1014E0000A9A93424CD3190E01911B0218000093E3
:1014F0000A9A002301F0C6FC05007B00DB199C0062
:101500002D4B9C4664446368834200D260603B1F5D
:10151000DBB29B46012B39D9C0239B012343802298
:1015200012011A60BB00254A9958002905D050695C
:1015300001F066FC01300138FDD153465B012268A1
:101540005340E022134080225201224313605B4645
:10155000012B26D980239B012343802212011A608C
:1015600065602A0000230098019901F08BFCBF0000
:10157000124BF850012003B00CBC92469B46F0BDC4
:101580000F4B104A2D211048FFF7F0FE012EC3D15A
:10159000C0239B01234303221A60A368DB07FCD509
:1015A000CBE72168714003230B401360A36801223D
:1015B000B2401A42FAD0CDE700800040700D002002
:1015C0007C7100106C7100109071001030B583B008
:1015D0000C2000F011FBFEF741FF00280DD0002386
:1015E00004E099002D4A2E4888500133092BF8D980
:1015F0002A4B2C4A5A6203B030BD2B4B00229A670B
:1016000000F002FB294B01221A60274B5B6C012B77
:10161000FBD1274B03221A60234B9B6B012BFBD181
:10162000022400940533234A0121234800F058FA8C
:1016300000940523214A0121214800F051FA214B51
:101640000093002202210420FFF742FF1E4D009567
:101650002B00002201210520FFF73AFF104C0094D7
:101660002300002200210720FFF732FF009423000F
:10167000002200210820FFF72BFF0A4B00932300D4
:10168000002200210920FFF723FF00952B000022F4
:1016900000210620FFF71CFFADE7C046700D0020BB
:1016A000006CDC021BB70000008000403CB0004032
:1016B00030B00040002F68590080024000389C1C68
:1016C00000C00240001BB700405973078000014B67
:1016D000C0587047700D0020074B9B681030800089
:1016E0001950BFF35F8FBFF35F8F044B0021196068
:1016F00082F310887047C04600ED00E0240100D05E
:1017000010B5091A04394808090B05D14005400DE8
:10171000044B184380B210BD034B044A8B2104488C
:10172000FFF724FE00E0FFFFCC730010F4710010FF
:10173000DC73001010B5091A04394C08090B08D1E4
:101740004905490D064A11430180064B2343438056
:1017500010BD054B054A93210548FFF707FEC0461B
:1017600000F0FFFF00F8FFFFCC73001000720010C4
:10177000DC73001001238340034A10681840431EA5
:101780009841C0B27047C04600E100E0002902D194
:10179000034B18607047034B1860034B1860F9E760
:1017A00080E100E080E200E000E100E010B501230C
:1017B00083401800FFF7EAFF10BD0000024B9B6852
:1017C00010308000C058704700ED00E070B5040094
:1017D0000D00EFF3108672B60C4B1B68002BFBD08C
:1017E000BFF35F8F2000FFF7E9FF094B984201D05C
:1017F000A84205D1320029002000FFF76DFF70BD1F
:10180000044B054A6E210548FFF7B0FD240100D0C6
:10181000CD01001094730010D8710010DC7300101B
:10182000F0B5CE4600B584B001900D00EFF3108600
:1018300072B65A4B1B68002BFBD0BFF35F8F584B1F
:101840009A68019C1034A300D758564B9F4200D190
:101850009FE0AF4200D19EE00297534BFB1A2F2B23
:1018600008D9320039000198FFF736FF04B004BCF4
:101870009146F0BD0198FFF77DFF0390002101988C
:10188000FFF794FFBFF35F8FFEF7EDFC002801D058
:1018900084421AD10123029C9C4344492300424ABA
:1018A0009B1A5B415943090D4BB29C460023A1682A
:1018B000A94212D00622A256002A0DDB53009B1823
:1018C0009A002300384CA418F1E71E21384B394AFE
:1018D000FF313948FFF74AFD2300A94252D10622C1
:1018E000A2569146002A38DB52004A4491002E4B02
:1018F0005B189A68A260DA79E27106229A56A271A0
:101900009B795BB2002B12DABD200002A0804B460F
:101910005B004B449A00244B9B18284A117899711C
:101920004B46137003990198FFF740FF99E7201D7C
:101930001D4A8B181A1D9B88D90A1C2907D15905E5
:101940004915023149005118FFF7DAFEDEE71C4B5A
:101950001C4A99211848FFF709FD00280DD1002BDA
:1019600009D0FF229A71184A9A80144B1A78A271F2
:1019700062461A70D6E70B4FF7E7201D1349FFF7B1
:10198000D9FECFE7A921124B0A4A49000A48FFF7BE
:10199000EDFC044F65E7034F63E7C046240100D028
:1019A00000ED00E0CD010010DC010020AAAA00003B
:1019B0006873001028720010DC730010110E0020F4
:1019C0001C7300101872001000BDFFFF16020020EB
:1019D0008C730010F8B50400012606432D4BF31A52
:1019E0002F2B28D8FEF73FFC00282BD0EFF31087D1
:1019F00072B6294B1B68002BFBD0BFF35F8F274DBE
:101A000022002449521A524155432D0D6DB2244BE8
:101A10009B6880001B58B3421BD00023032B32D895
:101A20005A00D21891001B4A5218927952B2AA4217
:101A30001FD00133F2E778211A4B1B4AFF311B48B4
:101A4000FFF794FCBD211A4B174A49001748FFF7CE
:101A50008DFC134B9B68174A1A50174B1A78A271CA
:101A60001D70BFF35F8F0C4B00221A6087F3108844
:101A7000F8BD08495A00D618B0000818FF2686712C
:101A80000E4B8380E9E78C210D4B074AFF31074855
:101A9000FFF76CFCDC010020240100D0AAAA0000A2
:101AA00000ED00E0347300103C720010DC73001095
:101AB0005C730010CD010010110E002000BDFFFF6F
:101AC000E86F00100023044A03E004491160013369
:101AD0000432072BF9D9704700E400E08080808051
:101AE000F0B583B00400019117001E000C2001F036
:101AF00087F905004201121A93019B1ADB001B189B
:101B00009901380001F07CF90200103A98235B003B
:101B10009A4232D8731E062B35D8089B013B062B00
:101B200031D8089B9E4234D33F09AF4237D33304A8
:101B3000089A16031E432368002B36DB244B9C4275
:101B400042D080214901234B1960234B1960234A5D
:101B500092680B009343FAD1019B2360A060221D81
:101B6000C0239B01134321221A602268002AFCDA59
:101B7000E66008221A6003B0F0BD194B194A16211D
:101B80001948FFF7F3FB194B164A19211648FFF7BE
:101B9000EDFB174B134A1F211348FFF7E7FB154BCB
:101BA000104A22211048FFF7E1FB22683F2313402F
:101BB000019A9342C2D1A3681B051B0D8342BDD17C
:101BC000E368002EBAD1D6E780218901BBE7C04681
:101BD00000C0024000E0004000F0004000C00040B3
:101BE0002C74001020740010487400108C740010C5
:101BF000D8740010F074001080239B001843014B30
:101C0000D862704700800540064BAA2212011A6074
:101C10002F22DA60044B054A1A60024B5B68002BE6
:101C2000FBDA7047004002400060024000B0FA005A
:101C3000704710B5002802D00B684968984710BD5E
:101C4000002307E09A00D3185A004B1C03600B785E
:101C50009B18303B01680A78303AD2B2092AF1D990
:101C600018007047F0B5D6464F464646C0B582B01C
:101C700005000091904601930A9B99460B9C0C9E8F
:101C80000D9B9B0712D04E460C9B994618E0541CA6
:101C9000019B00992020A84701372200B742F6D3C4
:101CA00054460C964E460C9B994609E02700A246E6
:101CB000F4E7013C571C305D019B0099A8473A00AE
:101CC000002CF6D14E460D9B9B070AD5474605E0F2
:101CD000541C019B00992020A8472200D31BB3422B
:101CE000F6D3100002B01CBC90469946A246F0BD47
:101CF000F0B5CE46474680B587B0049205930E9E58
:101D00000F9C10AD2B789946129F139B149DAA0728
:101D10001CD4002B0CD0EA070AD54A46002A02D16F
:101D20000C322A4204D0013B02E030223255013409
:101D3000BC4205D21F2CF8D902E0302232550134C2
:101D4000EA0703D59C4201D21F2CF6D9EA0615D525
:101D50006A0505D4002C03D0BC421CD09C421AD08A
:101D6000119A102A23D0119A102A28D0119A022AE7
:101D70002DD01F2C02D83027375501341F2C2FD8D7
:101D80004A46002A29D16A0737D42A0728D52027AE
:101D90003755013424E0671E002F06D0119A102A0F
:101DA00001D03C00DCE7023CDAE73C00D8E7AA06B9
:101DB000D9D41F2CD7D8782737550134D9E7AA06AC
:101DC000D4D51F2CD2D8582737550134D1E71F2C32
:101DD000CFD8622737550134CBE72D27375501344B
:101DE0000395029301940096059B049AFFF73AFF2E
:101DF00007B00CBC90469946F0BD2B2737550134EF
:101E0000EEE7F0B5C64600B594B0089009910A9285
:101E10000B931AAB10CB1B7898461F9D002C01D159
:101E200010239D438027FF002F4016D0002C20D088
:101E3000002712E0AA061AD54121C918C9B20A39E9
:101E4000C9B27E1C0CABD9551C99200000F0D8FFFC
:101E5000041E0FD01F2E0DD837001C99200000F053
:101E6000CFFFCBB2092BE5D83033D9B2E9E76121F6
:101E7000E3E7002606951E9B05931D9B04931C9B80
:101E800003934346029301960CAB00930B9B0A9A73
:101E900009990898FFF72CFF14B004BC9046F0BDD8
:101EA000F0B5D6464F4680B599B00C900D910E9284
:101EB0000F93209C219D22AB1B789A46249B0A936A
:101EC000259B0B93289B994623002B4303D110336A
:101ED0004A469A4391468026F6004B461E4007D05C
:101EE00023002B4331D0002637004E4609941BE0D7
:101EF00037004E46099417E0B20621D54122D21888
:101F0000D2B20A3AD2B27C1C10ABDA550A9A0B9BB9
:101F10000998290000F0B6FF09900D000B0003435B
:101F200015D01F2C0ED827000A9A0B9B0998290060
:101F300000F0A8FFD3B2092BDED83033DAB2E2E7E3
:101F40006122DCE72700B14603E0002701E027001B
:101F5000B1464B460693279B0593269B04930A9B09
:101F6000039353460293019710AB00930F9B0E9A75
:101F70000D990C98FFF7BCFE19B00CBC91469A461F
:101F8000F0BD0000F0B5DE4657464646C0B592B0FB
:101F900008900691099207931A9C1B9D22002B0022
:101FA0002000290001F0FDF9002800D0EAE001221C
:101FB0005242D34B2000290001F0EEF9002800D056
:101FC000E0E001225242CF4B2000290001F0CEF97F
:101FD000002800D0D6E0002200232000290001F0D4
:101FE000C5F9002800D0E3E022002B000A920B93F1
:101FF0008023DB001E9A1A409246131E01D106333D
:102000001C930A980B9902000B000C920D9303008D
:102010000A00024300D1D3E00A00100D4005400D34
:10202000B94EB44660441203120B1E00B74B134363
:102030001F0001F0C9F9B64AB64B01F054F9B64A8F
:10204000B64B01F029F90C900D910022B44B3000F1
:10205000390001F018F9B34AB34B01F044F902001A
:102060000B000C980D9901F017F901F0C5F98046A5
:1020700001F0AAF9AD4AAE4B0C900D9101F033F985
:102080000022AC4B01F008F901F0B6F90700AA4AAA
:10209000AA4B0C980D9901F026F90C900D9138007F
:1020A00001F092F9A64AA74B01F01DF902000B00BE
:1020B0000C980D9901F0E7F802000B0010901191B7
:1020C00001F011F90E900F919F4BFB181B050D931A
:1020D00000230C93109E119F32003B00300039000A
:1020E00001F0DAF81090119132003B0000208021BD
:1020F000C90501F0C8F806000F000022934B0E98A6
:102100000F9901F0D2F80022914B01F0C5F80200BE
:102110000B000E980F9901F0C8F800228D4B01F0CA
:10212000BBF802000B000E980F9901F0BEF80200F8
:102130000B003000390001F0AFF802000B001098DE
:10214000119901F0B2F80022704B01F0A5F80C9A39
:102150000D9B01F0C8F806000F000C900D910A9A33
:102160000B9B01F019F900282CD001235B429C46FF
:10217000E0440022764B3000390001F096F80C90D4
:102180000D911FE01E9B04931D9B03931C9B0293C8
:1021900022002B0000920193079B099A0699089848
:1021A00000F002F912B01CBC90469A46A346F0BD5E
:1021B0000A9480231B069C46AC4463460B9317E7A6
:1021C0000023984643466333C62B22D804271E9B20
:1021D0001B052AD50C9A0D9B1900114311D05E4A9C
:1021E0005E4B0A980B9901F0CFF8002800D1BBE0B4
:1021F00000225B4B0A980B9901F0B8F8002800D137
:10220000B2E01C9B434506DD42469E1A731E1C939A
:1022100003E00527DBE700231C938023DB001E9AE5
:102220001A431E920027002398461D9B9F4200D30D
:10223000A6E0DB1B9B4602231E9A1A40924603D05F
:10224000002F01D000239B464346002B07D00C9A59
:102250000D9B0A980B9901F028F80A900B91002227
:1022600000232000290001F081F8002800D08AE036
:102270003C4B1E9A134004935B4603931C9B0293B2
:102280000A9B0B9C00930194079B099A0699089856
:1022900000F08AF8002F00D184E71E9B9B0600D433
:1022A0007DE04524451C079B020006992000089C00
:1022B000A0474046C21781185140C30F7A1E05201F
:1022C00005900492002203920A3202920193009137
:1022D000079B2A0006992000FFF793FD5346002B29
:1022E00000D15FE70200089D099C131B1D998B42DA
:1022F00057D2561C079B06992020A8473200F4E7C6
:10230000FFFFEF7FFFFFEFFF01FCFFFF0000F03F4B
:10231000FB799F501344D33FB3C8608B288AC63FD4
:102320000000F83F61436F63A787D23F71A379092B
:102330004F930A400000E03F1655B5BBB16B024019
:10234000EF39FAFE422EE63FFF03000000002C406A
:1023500000002440000018402D431CEBE2361A3FD9
:1023600080842E41FFF7FFFF1C9B002B00D15CE710
:102370005346002B00D158E71C9B013B1C9354E7AC
:1023800000239B4657E70A9C0B9D220029008020D2
:102390000006844661440B000A920B9368E76524AB
:1023A00080E71000FEE6C046F0B5D646474680B549
:1023B00097B00690079108920993209F1E9A1F9B41
:1023C0001000190000F0EDFF00282AD1012252422E
:1023D000BB4B1E981F9900F0C9FF002830D1012285
:1023E0005242B84B1E981F9900F0D6FF00283AD0F1
:1023F0000423229A134032D0B34A002B31D1032355
:10240000229903912199029101930092099B089AC4
:1024100007990698FFF726FC17B00CBC90469A4621
:10242000F0BD229B0393219B029303230193A74BAF
:102430000093099B089A07990698FFF713FCEBE7AE
:10244000229B0393219B029304230193A04B0093AF
:10245000099B089A07990698FFF704FCDCE79D4A58
:10246000CBE70423CCE700229B4B1E981F9900F07A
:1024700093FF002817D10022984B1E981F9900F057
:1024800075FF00280FD1002200231E981F9900F02D
:102490006DFF002817D100239A46229B5B0500D4CC
:1024A0007DE000261FE0229B0493219B039302976B
:1024B0001E9B1F9C00930194099B089A07990698FC
:1024C000FFF760FDA8E71E9A1F9B0020002100F087
:1024D000DAFE1E901F9101239A46DEE70EAB3022F2
:1024E0009A55013F01361F2E01D8092FF6D81E98A4
:1024F0001F9900F081FF040000F066FF02000B004E
:102500001E981F9900F0BFFEFA00754B9B181A68C1
:102510005B680C920D9300F0E6FE0A900B9100F0C0
:102520008FFF050000F04CFF02000B000A980B998A
:1025300000F0A9FE0A900B9100226A4B00F02CFFDC
:1025400000282ED00135280000F03AFF02000B00D1
:102550000C980D9900F010FF002801D001340025DF
:10256000002F2CD1200000F02FFF02000B001E983E
:102570001F9900F088FE00225A4B0A900B9100F040
:10258000F5FE002841D10022564B0A980B9900F025
:1025900003FF002839D1E30737D5013435E006279A
:1025A0007FE700224F4B0A980B9900F0DFFE0028CE
:1025B000D6D1002D01D0EB07D2D50135D0E70A9452
:1025C0001F2E10D8013F0A21280000F019FC741CAE
:1025D00030310EAB99550A21280000F011FC051E80
:1025E00025D02600ECE70A9C04E00EAA3021915584
:1025F0001F0001361F2E02D87B1E002FF5D11F2E83
:1026000003D80EAB2E229A5501361F2E14D80A215C
:10261000200000F0CDFB751C30310EAB99550A211E
:10262000200000F0C5FB041E05D02E00EDE7A046FB
:102630000A9C4646DEE72E000323229A1340012B14
:1026400016D01F2E06D85346002B28D00EAB2D22B5
:102650009A550136229B0393219B029301960EAB60
:102660000093099B089A07990698FFF7FBFAD3E6AF
:10267000219B002B0DD05346002B02D10C3313426B
:1026800007D0219B013B219303E00EAB30229A55EA
:102690000136219B9E42D4D21F2EF6D9D1E7229B30
:1026A0005B0704D50EAB2B229A550136D2E7229B4D
:1026B0001B07CFD50EAB20229A550136CAE7C0467C
:1026C000FFFFEFFFFFFFEF7FEC760010F8760010C2
:1026D000FC760010F476001065CDCD4165CDCDC1FE
:1026E000087700100000E03FF0B5DE4657464E4642
:1026F0004546E0B595B006000B91150013930029EF
:1027000000D1FCE20027139B1878002800D1F8E2E2
:10271000252809D07C1C2B003A000B99B047139B4D
:10272000013313932700EEE70133139300241DE0D8
:102730000B00303BDBB2092B37D92A293AD00023D2
:102740009A46139B1A782E2A44D000230C93139A8E
:102750001378683BD9B2122900D980E08B00D049A8
:10276000CB589F4601231C4301321392139A1178D0
:102770000B00203BD8B21028DAD88300C948C358D0
:102780009F4602231C4301321392EFE704231C43AC
:1027900001321392EAE708231C4301321392E5E762
:1027A00010231C4301321392E0E713A8FFF748FA05
:1027B0008246C6E71E9B1A1D1E921B68002B04DB77
:1027C0009A46139B01331393BBE7022214435B42E7
:1027D0009A46F6E78022D20014435A1C13925A7884
:1027E0001300303BDBB2092B04D92A2A07D000237F
:1027F0000C93ACE713A8FFF723FA0C90A7E71E9BF6
:102800001A1D1E921B68002B04DB0C93139B0133D3
:1028100013939CE70023F8E780235B002343511CBC
:10282000139152786C2A01D01C0018E0C0239B0041
:102830001C430131139112E080232343511C139157
:102840005278682A01D01C0009E0C0231C430131E2
:10285000139104E080235B001C4301321392139B0D
:1028600018780300253BDAB2532A00D93DE29300E1
:102870008D4AD3589F4680239B001C4301321392FC
:10288000EDE780235B001C4301321392E7E77828D1
:102890000AD058283BD06F283CD062283DD0102366
:1028A0009C43063B9C4601E010239C46582837D0A9
:1028B000692803D0642801D00C229443630501D514
:1028C0000122944369282ED064282CD0A30500D57A
:1028D000A5E0E30500D5BFE0630600D4D2E01E9A70
:1028E000111D1E911168FF220A400594534604935E
:1028F0000C9B0393634602930023019300922B00E9
:102900003A000B993000FFF77CFA07002BE0102308
:102910009C46CBE708239C46C8E702239C46C5E7B4
:1029200020221443C4E7A30521D4E30551D4630650
:1029300068D51E9A111D1E911168FF220A40D317F7
:10294000D1185940D20F0594534604930C9B03931E
:1029500063460293019200912B003A000B993000DC
:10296000FFF74FFA0700139B01331393CBE61E9B2F
:10297000DA1D07218A43110008311E91116853683E
:102980009846DB1710931193109A119B1000484042
:102990000E901900404641400F910E980F99801AF1
:1029A00099410E900F914346DA0F089453460793CE
:1029B0000C9B0693634604930023059302920090B8
:1029C00001912B003A000B993000FFF769FA0700DC
:1029D000C9E71E9A111D1E911268D317D1185940CC
:1029E000D20F0594534604930C9B039363460293C2
:1029F000019200912B003A000B993000FFF701FA89
:102A00000700B0E7230605D51E9A111D1E9100236D
:102A1000D25E94E71E9A111D1E9112688FE71E9BCD
:102A2000DA1D07218A43110008311E91536812688C
:102A30000092019300220894534607930C9B06933F
:102A400063460493059202922B003A000B993000E2
:102A5000FFF726FA070086E71E9A111D1E911368DC
:102A600000930594534604930C9B0393634602938F
:102A7000002301932B003A000B993000FFF7C1F9B6
:102A8000070070E7230606D51E9A111D1E911268D5
:102A90001204120C29E71E9A111D1E91126824E7D8
:102AA0000C750010587500109C75001046281AD03F
:102AB0001E9B0733072293431A0008321E921A689E
:102AC0005B68009201930494534603930C9B02931A
:102AD0002B003A000B993000FFF766FC0700139BB0
:102AE000013313930FE620231C43E1E7672801D04D
:102AF000472802D180231B011C43452801D04728C9
:102B000001D120231C431E9B0733072293431A0045
:102B100008321E921A685B6800920193049453462F
:102B200003930C9B02932B003A000B993000FFF7A4
:102B300029FA0700139B01331393E4E50223234092
:102B4000994622D0012398461E9B1A1D1E927C1C7A
:102B500018782B003A000B99B0474B46002B1AD13E
:102B6000139B013313932700CDE5571C0C9B0B9946
:102B70002020A84723003A005C1C9E42F5D8B246AC
:102B80001700A0462E000C9DDEE701233A000C95AD
:102B900035005646F0E7220043460C953500564670
:102BA00006E0571C0C9B0B992020A84723003A00F5
:102BB0005C1C9E42F5D814002E000C9DD0E71E9B95
:102BC0001A1D1E921B689B460C9B002B21D10122D3
:102BD00052425B4601E001330A001978002902D015
:102BE000511E002AF7D15A469B1A98468023DB00D3
:102BF0002340994603D00C9B984500D99846022360
:102C00002340129307D03A005C4637004E460D959C
:102C10001FE00C9ADDE73A004346370056460D9513
:102C200006E0551C0D9B0B992020B84723002A0075
:102C30005C1C9E42F5D8B2463E00A0465C4637007A
:102C40004E4606E00C930134551C0D9B0B99B8477A
:102C50002A002078002805D0002EF4D00C994B1EB5
:102C60000029EFD13E0017000D9D129B002B03D1D0
:102C7000139B0133139346E543460C9535005646A6
:102C800006E0571C0C9B0B992020A84723003A0014
:102C90005C1C9E42F5D817002E000C9DE8E721230E
:102CA00023431E9A111D1E9112680092059308235A
:102CB00004930C9B039310230293002301932B0096
:102CC0003A000B993000FFF79CF80700139B013383
:102CD000139318E57C1C2B003A000B992520B04774
:102CE000139B0133139327000DE57C1C2B003A0046
:102CF0000B99B047139B01331393270003E5094E4B
:102D000000E5AF420CD36A1E2B000B990020B047A0
:102D1000380015B03CBC90469946A246AB46F0BD83
:102D20003A00F1E7311C001000B585B00290039124
:102D30000121009313004A4202A90248FFF7D4FC84
:102D400005B000BD331C001001480421014B184799
:102D500030020020792D001010B5010018231B88C7
:102D600014221088984710BD10B5010018231B8845
:102D700016221088984710BDF0B5C64600B507006A
:102D80000E0000250123984600E00135B5420AD225
:102D9000AC003C192068FFF7DFFF20600028F4D169
:102DA00000239846F1E7404604BC9046F0BD000081
:102DB000124A936F9B0815D29066D166002905D000
:102DC000FFE7FFE7FFE7516F106F704704B5802101
:102DD0000906C2175140002800D0C84303F0ACFEDA
:102DE000002104BDF0B5146E556E576F166FFFF7D6
:102DF000E3FF1466556657671667F0BD000000D004
:102E0000114A936F9B0813D210665166002905D0B2
:102E1000FFE7FFE7FFE7516F106F704704B5002829
:102E200001D00020C04303F087FE002104BDC0464E
:102E3000F0B5146E556E576F166FFFF7E5FF146609
:102E4000556657671667F0BD000000D094464E4A9D
:102E5000926F9208624601D230E0C046F0B54A4E09
:102E6000B56F6D08FCD3346E756E776F366F00F0FA
:102E700025F89446444A14665566576716676246B5
:102E8000F0BDC0469446404A926F9208624601D215
:102E900058E0C046F0B53C4EB56F6D08FCD3346EBB
:102EA000756E776F366F00F04DF89446364A1466AB
:102EB0005566576716676246F0BDC046002B24DB97
:102EC00011D000293EDA00B5C943404200D101319A
:102ED00000F038F8C943404200D10131DB4352428F
:102EE00000D1013300BD002AEBD1002801D1002917
:102EF00005D00020C90FC90701D1C043410800B562
:102F000003F012FE0022002300BD00B500290ADBF9
:102F1000DB43524200D1013300F014F8C943404270
:102F200000D1013100BDC943404200D10131DB4332
:102F3000524200D1013300F005F8DB43524200D188
:102F4000013300BD002923D1002B18D1002A0CD059
:102F5000BC460D4F38667A6600210023FFE7FFE785
:102F6000FFE77A6F386F67467047002801D007483F
:102F7000010000B503F0D8FD0022002300BD0200CF
:102F80000B00002000217047000000D0FFFFFFFF72
:102F9000002B00D0BFE0130C28D1002AE7D080B46A
:102FA000114F39667A66FFE7FFE730B4040C7B6F98
:102FB000396F1B0423433B667A66FFE7FFE7FFE7B1
:102FC000C04684B27B6F3D6F1B0423433B667A6629
:102FD000FFE7FFE7C04600232C042D0C7A6F386F03
:102FE00000196941B0BC7047000000D0F0B59446AC
:102FF0000025140E01D112020835140F01D112015F
:103000000435940F01D192000235D40F01D1520042
:103010000135D40B0134254F7C66254C3C660E0CE3
:1030200093B2FFE7FFE7FFE73C6F6643360C770399
:10303000BE467343DF0B5B04C01AB941130C7343E4
:10304000DB18C91ACE086643360CB64493B27343F4
:103050001F0F1B01C01AB941130C73431F0B1B0533
:10306000C01AB941860D8F023E436643360C092DC6
:1030700024DB520A7243801A7703460A6643360CF1
:1030800016235B1BDE40DF40BF1964466643821B8C
:103090007046043506330100D940A840C01900D35A
:1030A0000131A24206D20023F0BD0000000000D092
:1030B000FFFFFFFF121B0130F3D3F1E709277F1B4E
:1030C000FE406446A2B27243801A00D20139220C3B
:1030D0007243130C1204821A99410B007046043596
:1030E00013370100F940A840801900D30131002BAB
:1030F00002D1A2420AD2F0BD013000D30131121B2D
:10310000FAD2013BF8D1A24200D2F0BD013000D387
:103110000131121BF7E7F0B51C0C00D080E00CB4B5
:1031200000251C0A04D11B02160E33431202083577
:103130001C0B04D11B01160F3343120104359C0BE9
:1031400004D19B00960F334392000235DC0B02D171
:1031500092185B4101351C00971864410134464FB9
:103160007C66464C3C660E0CFFE7FFE7FFE7C04677
:103170003C6F6643360C7703BE4697B27743C01B5D
:1031800000D20139C01B00D201399FB27743C91B5D
:10319000C91B170C77437E04FF0B801BB941CE0877
:1031A0006643360C0C2D33DBB644120B1F053A4335
:1031B0001B0B97B27743C01B00D201399FB27743F4
:1031C000C91B170C77433E043F0C801BB941860D89
:1031D0008F023E43664329277F1BFE400C3D774606
:1031E000AF40BF1930BCA2B2ABB272437343801A76
:1031F0009941220C7243130C1204801A9941020067
:103200000B000137001BA941F9D2781E0021F0BD47
:103210000C277F1BFE4077467F0BAF40FF19E0E78E
:1032200000245D1C07D0144F7D663966FFE7FFE779
:10323000FFE7FFE73C6F95B29EB265436643401BD4
:10324000B141150C1E0C6543664336042F0C3E43FA
:103250002D04401BB141994204D202000B00200012
:103260000021F0BD01D19042F7D3801A9941013479
:103270009942F2D3F6E70000000000D0FFFFFFFF05
:1032800048404140484018B41B4B5B68FC460193E2
:1032900008BD04DF5B35001018B4174B1B68FC46F3
:1032A000019308BD00DF653500109446134A926F04
:1032B000920809D2624618B40F4BDB68FC460193B2
:1032C00008BD0CDF1D3800100C4AF0B5146E556EA9
:1032D000576F166F6246FFF7EEFF084A1466556691
:1032E00057671667F0BD18B4034B9B68FC46019303
:1032F00008BD08DFC1360010180E0020000000D005
:10330000FFB550404240504059404B40594000E0CA
:10331000FFB5154F4C00640D03D0BC4204D10C0323
:1033200014D80020090D09055C00640D03D0BC42CF
:1033300004D11C030AD800221B0D1B0501264B409B
:1033400009D44B4003D58B4200D18242FFBD994244
:10335000FCD19042FFBD0B43DB1803431343F5D070
:10336000C9434918FFBD0000FF07000000B5FFF783
:10337000CFFF804100BDC04600B5FFF7C9FF01D9AE
:10338000002000BD012000BD00B5FFF7B9FF01D945
:10339000002000BD012000BD00B5FFF7B1FF804156
:1033A00000BD012040054A00121804D85A00121826
:1033B00001D80020704701207047002070470000AE
:1033C0000021002805D17047C1174840401AFAD0A3
:1033D000C90713B5064B1B6898470CBC441CA24098
:1033E0001005120B0349091B09051943114310BDB0
:1033F000F40D00201F04000010B54C00620D802366
:10340000D218DB00D21A5B057E2A10DD9E3A13DA51
:10341000CC170903490819435242D14064000134D2
:103420001532202A05DAD0400843604310BD002041
:1034300010BD0846604310BDC80FC018013810BD4C
:1034400018B4044B5B6AFC46019308BD24DFCD39F8
:1034500000100000180E002070B513231C78012CFA
:1034600014D0012C14DC022C02DC1F4A1F4B9A647E
:103470001F48FFF771FC1F4B186070BD99001A4878
:103480001A4A885001331F2BF8D9EAE70023FAE7DC
:103490001948FFF769FC05001848FFF765FC02387A
:1034A00003789B007F2B19DD802229000F4800F054
:1034B000C1FB022CD7D1124B1A88B5231B029A42AA
:1034C00009D1104B1A88104B9A4204D10F4B1A881D
:1034D0000F4B9A42C7D00020FDF7E2FF0D4B0E4A7A
:1034E00032210E48FDF742FF21350010180E002052
:1034F0004C330000F40D00205344000053460000FC
:1035000054380000D8380000494600009C380000BC
:10351000594600005877001004780010B877001062
:1035200007B56046002800D100BE01880A0A0230B3
:10353000DF2AFAD1C9B2820804D302884088000485
:10354000104300E00068024A5050039007BD00009D
:10355000180E00200FB403BC0CBCF0B50124E40726
:10356000634000E0F0B50C0DCF0F661E3605891BD9
:10357000640503D3C943404200D30131640D03D035
:10358000661CF60A07D0E41B00207F00791C89071F
:103590008912803C24031D0DDF0F6E1E36059B1B18
:1035A0006D0503D3DB43524200D301336D0D03D0CD
:1035B0006E1CF60A07D0ED1B00227F007B1C9B07C8
:1035C0009B12803D2D032F1B661B58D4A446202E32
:1035D00046DA20371400BC401D00BD40F2403341A4
:1035E0002A4380185941CB0F05D0C943C04300225C
:1035F00064425041514162464D0D28D10D0D07D115
:1036000000281FD0241940414941013A0D0DF9D03D
:10361000640006D3013000D30131002C01D14008F1
:103620004000013A0BD4941CE40A04D11205114461
:10363000DB071944F0BDD907204B194300E0D90737
:103640000020F0BD0029DDD1002CDBD1F0BD01321E
:10365000C6074008CD0728434908002EE1D0D9E726
:103660003C2E29DA203E40371400BC4000D0012413
:10367000F24014431A00BB401C43D317ACE7AC46DE
:10368000202F08DA20360400B4400D00B540F84081
:1036900039412843A5E73C2F0CDA203F403604008F
:1036A000B44000D00124F84004430800B1400C436A
:1036B000C117EAE710001900002494E70000F07F2A
:1036C000F0B50C0D661E3605891BE60A6405640D0F
:1036D00002D0651CED0A04D0002001210905803CC0
:1036E0002403A4461C0D671E3F05DB1BE70A640587
:1036F000640D02D0651CED0A04D0002201231B05D5
:10370000803C24037740644497B484B296B27443F7
:10371000070C7E43150C6F4380B26843361802D302
:10372000012000043F183004350C00197D41844607
:1037300088B29AB250430C0C62431F0C7C438EB289
:103740007E43921902D301263604A4191604170CDD
:103750003618674101BC81B29AB25143040C6243EE
:103760001B0C5C4380B25843121802D301200004A2
:1037700024181004130C401863412D185E410020DA
:10378000474106BC88B293B258430C0C6343120CF9
:10379000544389B251435B1802D3012109046418D0
:1037A00019041A0C091862416D185641002047414E
:1037B00018BCF902720D1143F0026A0D1043ED02BC
:1037C0000A0D03D16D1940414941013B124E9B1B2B
:1037D0007600B3420ED26D0007D30130002671414E
:1037E0006646354301D1400840001B05C918E4076F
:1037F0002144F0BD0BDA013306D1013004D101318F
:103800004F0D01D04908F2E7E1070020F0BD013675
:1038100031050020EBE70000FF030000F0B51C0DB0
:10382000671E3F05DB1BE70A6405640D02D0661CBA
:10383000F60A04D0002201231B05803C2403D02576
:103840002D060026F6432E661E096E66CE0FF6196B
:10385000B44649004F0D02D07E1CF60A03D000206A
:103860000021403F3F033E1BB600B444013F7F05AB
:10387000C91B49082E6F013676089C02950D254319
:103880007543ED137543AD1301356D10F603761BCB
:103890000CB4CC02450D2C43A2B2B3B25A43270C50
:1038A0007B43350C6F43A4B26C431B1902D3012434
:1038B00024043F191C041D0CA4187D4124196D41DA
:1038C000009A91B2ACB26143170C7C432B0C5F435E
:1038D00092B25A43A41802D301221204BF18220440
:1038E000230C52187B41019C6C431B19520ED901C9
:1038F0000A434401A01A81B2B2B2514303145A439D
:10390000360C734387B27743D617D21900277E410E
:1039100036049B191704160C7F185E417316ED18B8
:10392000F301002680337541A90F06D16400690AAE
:10393000E8055B0A184309D22FE00422944480333F
:103940007541A90AA8059B0A184326D3404149415D
:103950002404009A019B0D005543641B4343E41A61
:1039600095B286B27543170C7E43030C5F4392B247
:103970005A43B61802D301221204BF183204330C82
:1039800052197B4152429C41002C02D4002201304A
:1039900051414008CA071043490802B06246D707A0
:1039A0009210084BD218084B9A4203D2120589187C
:1039B000C919F0BD0020002A01DC3900F0BD013337
:1039C0001905F5E7FD030000FE070000002200B521
:1039D000203200F004F8080000BD000000220B15A2
:1039E0000AD410B5944600F031F81414013400DA0A
:1039F0000021CB17144C204700200021704762445F
:103A0000343A0CD40C2A07DA040091409040524218
:103A10002032D440214310BDD843D94310BD2032B9
:103A200007D40C469440524220321141D0402043EA
:103A300010BD0800C917203203D452422032104171
:103A400010BD1800190010BDFF3900100A0DCC0F71
:103A5000531E1B05C91A520503D3C943404200D364
:103A60000131520D03D0531CDB0A07D0121B00207A
:103A70006400611C89078912803A1203014BD21A33
:103A800070470000FF03000051434343C9188C46B0
:103A9000110C83B24B4310B4040C614392B280B258
:103AA000504362431C041B0C001910BC5941130401
:103AB000120CC018514161447047000070B51323C7
:103AC0001D782A48FFF750F90400012D11D0012D6F
:103AD00009DDA31E1B789B007F2B40DD8022210087
:103AE000234800F0A7F82348FFF736F9224B186067
:103AF00070BD542201001E4800F09CF81F4B1A882C
:103B00001F4B9A421CD1A7239B011A881D4B9A4236
:103B100016D11D4B1A881D4B9A4211D11C4B1A8885
:103B200094239B019A420BD11A4B1A881A4B9A4242
:103B300006D11A4B1A681A4B9A4201D1152307E095
:103B40001848FDF7ADFC99001748094A8850013321
:103B50001F2BF8D9144A064B1A62DA61B7E7134BE8
:103B6000134A42211348FDF701FCC04653460000AA
:103B7000180F00204C330000F40D0020EE29000047
:103B8000C40F0000C20D0000962B0000C0B500005D
:103B9000182B0000CC2A000010B50000FC2C0000FF
:103BA00051ED8764AC700010B93B0010187800101C
:103BB000987800104C78001007B56046002800D1B6
:103BC00000BE01880A0A0230DF2AFAD1C9B282088F
:103BD00004D3028840880004104300E00068024AD1
:103BE0005050039007BD0000180F002010B50400CE
:103BF00002F040FB002804D00419034B9C4200D87B
:103C000010BD0248FDF74CFC00000420AC78001009
:103C100010B502F039FB10BD01480421014B1847D3
:103C200040020020792D0010014B1B68184700004E
:103C300040020020014B5B68184700004002002052
:103C400010B50C00036811002000984710BD00005B
:103C5000F8B506000D001700437C002B23D1036844
:103C6000110028009847F8BD337C10E00221174866
:103C700033689847601C0134BC4217DA002CF3DD2E
:103C80002B19013B1B780D3B5A425341DBB22A5D95
:103C90000A2AF0D1002BEED1A042E7DA211A281827
:103CA00033689847E2E700240020E5E7B84203DAEA
:103CB000391A281833689847002FD4DDED19013DD3
:103CC0002B780D3B5A4253413374CCE71C790010DA
:103CD00070B505000368002B16D00C4B1C6805E07E
:103CE000291D2A682000FFF7B3FFE468002C09D0E3
:103CF0002368002BF9D0064B1B68002BF0D0A342A1
:103D0000F3D1EDE700232B6070BDC046D80D002035
:103D1000DC0D002070B505000C000B68802B05D071
:103D200023685A1C2260E418257170BD0800FFF753
:103D3000CFFFF5E710B582B0D0231B0600241C5737
:103D400001A9074802F000FF002806D1019B9C4210
:103D500003D0034802F000FF012002B010BDC046AE
:103D6000B00A002010B5024802F0D6FE10BDC046D1
:103D7000B00A0020F0B5C64600B584B001900D0031
:103D800016001C00FFF7D6FF80466B1C05D0002CE8
:103D900008D0194F194B1C6814E0019802F04CFD33
:103DA0000500F4E7164FF5E72A0001992000B8470F
:103DB000002E06D002ABD91D0A230B700122200071
:103DC000B847E468002C09D02368002BF9D00D4BCC
:103DD0001B68002BE8D0A342F3D1E5E74346002B54
:103DE00006D1681E8541E8B204B004BC9046F0BD1F
:103DF000FFF7B8FFF5E7C046413C0010D80D0020A2
:103E0000513C0010DC0D00200C4B1A681300002BF5
:103E10000BD0834202D01A00DB68F8E7002903D1F7
:103E2000DB68D3600023C36070470029FCD0002A00
:103E300001D0D060F8E7014B1860F5E7D80D0020FD
:103E400010B5064B1C6800E0E468002C04D06368E1
:103E5000002BF9D09847F7E710BDC046D80D0020D9
:103E600070B5050002F0E8FC040000230122010007
:103E70002800FFF77FFFFFF7E3FF200070BD000081
:103E800070B5A2B004000E00FFF754FF05008422B5
:103E9000002101A8FFF7C8FE3300220001A908484D
:103EA000FEF742FF040001A8FFF712FFFFF7C8FF6B
:103EB000002D02D1200022B070BDFFF753FFF9E7BB
:103EC000153D00100FB400B583B004A901C90191DC
:103ED000FFF7D6FF03B008BC04B0184710B500F0D8
:103EE0007FF810BDF0B583B0002606E06B469C1D40
:103EF00025700025002D1DD001368E4222DA124B8E
:103F00001A68855D114BD3185C4263415B00104C0D
:103F10001B5FAB42EAD16B46DC1D0D2323700027EB
:103F2000002FE3D193699B06FCD4237813600137FB
:103F30000134F5E793699B06FCD4237813600135BF
:103F40000134D7E703B0F0BD0C0E00200080FCBFA9
:103F5000140E0020F0B583B0070000200BE0461CD3
:103F6000381800246B46DD1D002C0FD06B4607333C
:103F70001B7803703000884204DA094B1A68936991
:103F8000DB06ECD5002809D003B0F0BD9369DB0651
:103F9000FCD413682B7001340135E5E70338F3E7EF
:103FA0000C0E002070B515001C000B4B1860FCF7C0
:103FB000BFFA002D0ADA002C03DB02212000FCF7F7
:103FC000F9F901210548FFF71FFF70BD0221280004
:103FD000FCF7F0F9EFE7C0460C0E0020500200207D
:103FE00010B5064B1B78064B1B78E12101230022FC
:103FF00049020448FFF7D6FF10BDC046BC79001047
:10400000C079001000400340084B42699A4201D039
:1040100000207047826A14339A4203D0002A03D0EA
:104020000020F6E70020F4E70120F2E7EC0B002087
:10403000074B9B6A1B68002B05D0054B9A6AD26818
:104040001268DA627047024B01225242DA62F9E7E3
:10405000EC0B002010B50400006B01F087FB200082
:1040600001F084FB10BDF0B583B000900193089C73
:104070000A9E1C4B9C4662449200336B9C466244F1
:1040800007239A43170000290FD000230F2B09D8CC
:10409000C8180578F218343215700278002A01D059
:1040A0000133F3E743230022F254042C00D9042403
:1040B000F462301D01F03DFC3000183001F039FC95
:1040C000366105231C1BB4617662019A00993800A1
:1040D00001F080FB3060099B002B00D01E6003B014
:1040E000F0BDC046FFFFFF3FF8B5002408E01248CE
:1040F000A3001B199A003030801801F00FFC013426
:10410000042CF4D90D4C27001437380001F006FCBC
:1041100026002836300001F001FC074D280014303D
:1041200001F0FCFB20003C3001F0F8FB280001F01E
:10413000F5FBAF622665F8BDEC0B00206C0C00208F
:1041400070B5040001F064FB284B5A6D01325A65CA
:104150009B6D002B0CD0254BDB6D002B0DD1234B21
:104160009B6DDB6AE26A934207D8204B9C6504E0B2
:104170001E4B9C655B6D012B31D01C4B1A6E0132BE
:104180001A66E26A5B6E9A4201D9184B5A66184B5E
:10419000910089188A009A18526BA2609168E160B8
:1041A0009068211D41609160E16A180030308A00FA
:1041B0005618B5002E00401960619819006B013047
:1041C0009B19186301F030FB084BDB6D002B05D009
:1041D000064B9B6DDA6AE36A9A4203D370BDFFF720
:1041E00083FFCAE701F008FBF8E7C0466C0C00202B
:1041F000EC0B002070B512E001F00AFB0A4CA36C36
:10420000DD68281D01F0BCFB636D013B6365A36E97
:10421000013BA36601F008FB2800FFF71BFF024BE0
:104220009B6E002BE8D170BD6C0C002010B5FFF721
:10423000E1FF034B1B6B012BF9D901F0DDFAF6E727
:10424000EC0B002070B504000D001C4BDE6E986D69
:10425000043001F095FB631C12D03419174B9B6D91
:104260005C60A64223D8164DA86A144B996D0431A0
:1042700001F06EFBEB6AA3421FD9114BDC621CE01C
:10428000002DEAD00E4A51680C4B986D8160986DF4
:104290008C68C460986D8C6804306060986D0430E0
:1042A00088609B6D5A6113680133136005E0034B0E
:1042B000186D996D043101F04BFB70BD6C0C002042
:1042C000EC0B0020F0B587B00490059114001F009E
:1042D000900001F03FFA061E22D0682001F03AFA61
:1042E000051E19D068220021FFF79EFC2E63002DC9
:1042F00019D00023039302950D9B01930C9B00930F
:104300003B00220005990498FFF7ADFE2800FFF757
:1043100017FF012007B0F0BD300001F027FAE6E7F3
:1043200001204042F6E701204042F3E770B5040067
:1043300001F06EFA002C29D0251D280001F020FB89
:10434000A36A002B03D02000183001F019FB174B93
:104350001A6E01321A669B6DA3421AD0134A536D2E
:10436000013B5365FFF764FE01F05EFA0F4B9B6D56
:10437000A34202D02000FFF76DFE0C4BDB6D002B3B
:1043800003D00A4B9B6DA3420DD070BD074B9C6DB3
:10439000D2E7064E30003C30290001F0CDFAB36E72
:1043A0000133B366E0E701F027FAEEE76C0C00207A
:1043B00010B5040001F02CFA002C04D0E46A01F0DE
:1043C00033FA200010BD014B9C6DF7E76C0C002008
:1043D00010B5040001F032FA002C04D0E46A01F0B8
:1043E00031FA200010BD014B9C6DF7E76C0C0020EA
:1043F000F8B504000D00042900D9042501F008FADD
:10440000002C0ED0E26A954225D00DD92A4B9B6D27
:10441000A34223D0284B9B6DDB6AAB4220D90026F8
:1044200007E0254B9C6DEDE7234B9B6DA34219D014
:104430000026E562A369002B02DB05235D1BA56155
:104440001E4B91008A18910030335B1862699A42C2
:104450000AD0002E2DD101F0E7F9F8BD0026E8E7DB
:104460000126E6E70126E4E7251D280001F088FA89
:10447000E26A114B5B6E9A4201D90F4B5A660F4BA1
:10448000910089188A009A18526BA2609168E160C5
:1044900091684D609560E16A180030308A005718C5
:1044A000BD00401960615819006B01305B19186339
:1044B000CFE701F0A1F9CEE76C0C0020EC0B002057
:1044C00070B504001E4B9B6D83420AD0002808D0B3
:1044D00001F09EF92000FFF797FD002802D101F0BE
:1044E000A3F970BD251D280001F04AFAE26A144BB9
:1044F0005B6E9A4201D9124B5A66124B9100891891
:104500008A009A18526BA2609168E16091684D60D0
:104510009560E16A180030308A005618B5002E0008
:10452000401960619819006B01309B191863E26AA9
:10453000034B9B6DDB6A9A42D1D301F05DF9CEE764
:104540006C0C0020EC0B0020F0B583B0040001F0EF
:1045500075F901902000FFF757FD00283CD0224B51
:104560001B6F002B30D1204B9B6DDB6AE26A9A42B5
:1045700028D31D4B01225A670126271D380001F060
:10458000FFF9E26A184B5B6E9A4201D9164B5A66E4
:10459000164B910089188A009A18526BA260916894
:1045A000E16091684F609760E16A180030308A00DE
:1045B0005518AF00C0196061D819006B0130DB19C4
:1045C00018630AE00026D8E72100183107481430A4
:1045D00001F0B2F9002600E00026019801F032F95E
:1045E000300003B0F0BDC0466C0C0020EC0B002086
:1045F00000B583B0104B78330193002300938022E1
:104600000E490F48FFF75EFE012805D0012806D0AD
:104610000C4B1B6803B000BD00F0E3FFF6E772B679
:10462000094B01225242DA62034B0232DA65002260
:10463000DA6601F055F9EBE76C0C002060790010A8
:104640002D42001064020020EC0B002010B572B661
:10465000024B0022DA6501F0CEF810BD6C0C002090
:10466000024A136F013313677047C0466C0C002079
:10467000014BD86E7047C0466C0C0020014BD86EC1
:104680007047C0466C0C0020014B586D7047C04607
:104690006C0C0020002801D034307047014B986D1D
:1046A000FAE7C0466C0C0020F0B583B04A4B1B6F94
:1046B000002B00D086E0484BDD6E0135DD66002D15
:1046C0000CD0464BDB6AAB4213D900230193424B1B
:1046D0005B6F002B7CD00123019379E03F4A916A04
:1046E000186D90621965DA6F0132DA67FFF7A0FC86
:1046F000E7E70023019338E0384B01225242DA62A7
:10470000E5E7364BDA62E2E7D968516044E0002120
:104710009962116801391160D96A2F4A526E91422B
:1047200001D92D4A51662D4A8C006418A1005118F8
:10473000496B99608868D8608C6866608E60DC6AB6
:1047400016003036A100081987003800F6195E619E
:104750001618366B013612181663DA6A1E4B9B6DFB
:10476000DB6A9A4201D3012301931C4B9B6A1B68AD
:10477000002BC1D0194B9B6ADB68DB685A689542F5
:10478000BFD35A699968D8688860D96898684860C2
:104790001E1D5168B142B7D000215961116801391D
:1047A00011609A6A002AB7D0D969186A8860196AB4
:1047B000D86948601900183150688842A7D1196A31
:1047C0005160A4E7064A1368013313600023019384
:1047D000019803B0F0BDC0466C0C0020EC0B00202B
:1047E000EC0C002070B501F013F8474B1A6F013A3A
:1047F0001A671B6F002B00D080E0434B5B6D002BD2
:1048000053D00023414A5269002A56D03F4B1B6ABD
:10481000DB689A6AD969186A8860196AD869486039
:10482000190018315068884241D0002199621168FE
:10483000013911605A699968D8688860D9689868A0
:1048400048601C1D5168A14234D000215961116893
:1048500001391160D96A2C4A526E914201D92A4A13
:1048600051662A4A8800401881005118496B9960A6
:104870008868D860886844608C60D86A14003034D6
:1048800081000E18B5002E0064195C619419246B28
:104890000134921914631C4A926DD26AD96A91420A
:1048A000B0D3194A01215167ACE7002427E0196A07
:1048B0005160BAE7D9685160C7E7002B01D0FFF714
:1048C000B7FB134B1C68002C08D10F4B5B6F002B00
:1048D00010D1002413E0013C002C07D0FFF7E4FEC8
:1048E0000028F8D0084B01225A67F4E7084B002251
:1048F0001A60EAE700F080FF012400E0002400F0E5
:1049000093FF200070BDC0466C0C0020EC0B002013
:10491000EC0C002070B505000C00FFF7A1FE144B55
:10492000D86E2B681C1983420BD9A34202D82C6085
:10493000002410E0A04202D32C6000240BE02C6085
:1049400004E0A34201D8A0420BD22C60201A00211F
:10495000FFF778FC0124FFF745FF002804D0200072
:1049600070BD2C600024F6E700F046FFF7E7C04674
:104970006C0C002010B5041E09D0FFF771FE002159
:104980002000FFF75FFCFFF72DFF002801D100F0AA
:1049900033FF10BD10B50400FFF762FE00F038FFD2
:1049A000044B18680019186000F03EFFFFF71AFF6B
:1049B00010BDC046EC0C002010B51B4B1B6F002B2C
:1049C00004D1194B00225A675B6E04E0164B01229A
:1049D0005A6722E0013B9A00D2189100134A5218FC
:1049E000126B002AF6D0114A9900CC18A0001018BA
:1049F000446B646844633032C91888000100083091
:104A0000121894420AD09A00D2189100074A5218FC
:104A1000526BD168044A9165536610BD6068034AC1
:104A200052185063EFE7C0466C0C0020EC0B0020DE
:104A300070B5040000F0ECFE002C10D0251D2800FD
:104A400000F09EFFA36A002B03D02000183000F076
:104A500097FF29001D4800F06FFF002303E01C4B67
:104A60009C6DEBE70133022B09DCE218643212780B
:104A7000012AF7D1E218643200211170F2E700F048
:104A8000D3FE134BDB6D002B04D1114B9B6DA34266
:104A900007D070BD00F0BCFEFFF7CAFA00F0C4FEFC
:104AA000F3E70B4BDB6D002B08D1084B1A68084B62
:104AB0005B6D9A4205D0FFF77FFFEAE700F09CFEAE
:104AC000E7E7034B00229A65E3E7C046EC0B0020C2
:104AD0006C0C002010B50C00044B996D183100F0DF
:104AE00037FF01212000FFF7ADFB10BD6C0C00204B
:104AF00070B50E4B9D6D802424062143A961416849
:104B00009C6DE1619C6D8D6825629C6D8D6818348B
:104B10006C609C6D18348C609B6D986203680133E7
:104B2000036001211000FFF78DFB70BD6C0C0020AD
:104B300070B50D0044680D4B996DCC61996DA668F8
:104B40000E62996DA668183171609E6D1836A66068
:104B50009B6D9862036801330360002A01D0012530
:104B60006D4211002800FFF76DFB70BD6C0C00203A
:104B700070B5C368DB689A6AD969186A8860196A6F
:104B8000D8694860180018305168814244D000212B
:104B900099621168013911602B4A126F002A41D1C4
:104BA0005A699968D8688860D968986848601C1DF7
:104BB0005168A14233D00021596111680139116057
:104BC000D96A214A526E914201D91F4A51661F4A41
:104BD0008800401881005118496B99608868D86036
:104BE000886844608C60D86A1400303481000E18E4
:104BF000B5002E0064195C619419246B013492197C
:104C00001463DA6A104B9B6DDB6A9A4219D90E4B1A
:104C100001225A67012070BD196A5160B7E7D9684F
:104C20005160C8E7094A9169D9618C681C628C6837
:104C300060608860110014319962516901315161DD
:104C4000DFE70020E7E7C0466C0C0020EC0B0020FB
:104C500070B580231B0619430160C368026941686F
:104C600084688C60816844684C60516881423FD0A0
:104C7000002101611168013911605A699968D86889
:104C80008860D968986848601C1D5168A14232D07C
:104C900000215961116801391160D96A174A526EB1
:104CA000914201D9154A5166154A88004018810081
:104CB0005118496B99608868D860886844608C6036
:104CC000D86A1400303481000E18B5002E00641923
:104CD0005C619419246B013492191463DA6A074BEE
:104CE0009B6DDB6A9A4202D9044B01225A6770BD60
:104CF00081685160BCE7D9685160C9E76C0C00203D
:104D0000EC0B002010B5040000F082FD034BDA6FBD
:104D10002260DB6E636000F087FD10BD6C0C00202C
:104D2000024BDA6F0260DB6E436070476C0C002050
:104D3000F8B504000D0000F06BFD124BDA6E6168EF
:104D4000501A2B685E1C1AD00E4EF66F2768B742B9
:104D500001D0914208D983420AD800232B60012454
:104D600000F062FD2000F8BD00232B600124F7E76E
:104D70001B1A2B602000FFF7D3FF0024F0E700246C
:104D8000EEE7C0466C0C0020014B01225A677047C9
:104D90006C0C0020042905DC002804D010318900A7
:104DA00041184A607047014B986DF7E76C0C002082
:104DB000042909DC002804D0103189004118486812
:104DC0007047024B986DF7E70020F9E76C0C002064
:104DD000014B986D7047C0466C0C0020064BDB6D94
:104DE000002B07D0044B1B6F002B01D0002002E0EA
:104DF000022000E0012070476C0C0020044A936DF3
:104E00009869936DD96A926D05235B1A9361704717
:104E10006C0C002070B504000D00160000F0F8FCCA
:104E20001E4B9A6D230016339B009B58002B07D115
:104E30001A4B9B6D1B19643301221A70002E1ED170
:104E400000F0F2FC00F0E4FC144B9A6D23001633E2
:104E50009B009E58002E08D0002D17D10F4B996D46
:104E6000721E230016339B005A500C4B986D00198C
:104E700064300023037000F0D7FC300070BD0121C6
:104E80003000FFF7DFF900F0B7FCD9E7034B9A6D6C
:104E9000230016339B0000219950E6E76C0C00209C
:104EA000F8B504000E0015001F0000F0B1FC234B04
:104EB0009B6D1B1964331B78022B0FD01F49886D23
:104EC000230016339B001A58B2431A508B6D1B19DE
:104ED000643301221A70069B002B1ED100F0A4FC43
:104EE00000F096FC002F06D0144B9A6D2300163369
:104EF0009B009B583B60114B9B6D1B1964331B78C7
:104F0000022B11D000250D4B9B6D1C19643400231E
:104F1000237000F089FC2800F8BD01211800FFF77C
:104F200091F900F069FCD9E7044B996D2300163321
:104F30009B005A58AA435A500125E4E76C0C002004
:104F4000F8B504000D0016001F0000F061FC069B80
:104F5000002B05D02B0016339B001B59069A1360BB
:104F6000631964331A78D2B202211970022F19D052
:104F70000AD9032F1DD0042F20D1022A20D01635A4
:104F8000AD002E51012507E0012F17D11635AD00D8
:104F90002B591E432E510125012A13D000F044FC49
:104FA0002800F8BD1635AD002B5901332B510125D2
:104FB000F2E71635AD002E510125EDE70125EBE7AF
:104FC0000025E9E76369A268E1689160E268A16889
:104FD0005160201D5A6882422ED0002262611A68F8
:104FE000013A1A60E26A164B5B6E9A4201D9144B81
:104FF0005A66144B910089188A009A18526BA26065
:105000009168E160916848609060E16A1800303012
:105010008A005718BE00370080196061D819006BEC
:105020000130DB191863E26A054B9B6DDB6A9A421B
:10503000B4D900F0E1FBB1E7E2685A60CDE7C046C1
:105040006C0C0020EC0B0020F8B504000D001600DD
:105050001F0000F0F3FB069B002B05D02B0016333E
:105060009B001B59069A1360631964331A78D2B2F5
:1050700002211970022F19D00AD9032F1DD0042F35
:1050800020D1022A20D01635AD002E51012507E08F
:10509000012F17D11635AD002B591E432E51012576
:1050A000012A13D000F0CEFB2800F8BD1635AD0064
:1050B0002B5901332B510125F2E71635AD002E5146
:1050C0000125EDE70125EBE70025E9E72D4B1B6FF7
:1050D000002B45D16369A268E1689160E268A1682C
:1050E0005160261D5A68B24237D0002262611A68A8
:1050F000013A1A60E26A234B5B6E9A4201D9214B56
:105100005A66214B910089188A009A18526BA26046
:105110009168E16091684E609660E16A1E003036E9
:105120008A005718BF00BC46F61966616646674696
:105130009E19366B0136DB191E63E26A114B9B6DBB
:10514000DB6A9A42AED9079B002B02D00123079A53
:1051500013600C4B01225A67A4E7E2685A60C4E767
:10516000094B9A69E26191682162966821001831C1
:10517000716091601A001432A2625A6901325A6158
:10518000DBE7C0466C0C0020EC0B0020F8B50600F5
:105190000C00150000F052FB331964331A78022119
:1051A00019701634A400A3590133A351012A02D067
:1051B00000F048FBF8BD2C4B1B6F002B43D17369EB
:1051C000B268F1689160F268B1685160341D5A6844
:1051D000A24235D0002272611A68013A1A60F26A5E
:1051E000214B5B6E9A4201D91F4B5A661F4B9100AF
:1051F00089188A009A18526BB2609168F1609168C0
:105200004C609460F16A1C0030348A005718BF006B
:10521000BC46E4197461644667461C19246B01346A
:10522000DB191C63F26A104B9B6DDB6A9A42BFD993
:10523000002D01D001232B600B4B01225A67B7E7E9
:10524000F2685A60C6E7094B9A69F2619168316267
:10525000946831001831616091601A001432B262B2
:105260005A6901325A61DDE76C0C0020EC0B00201A
:1052700070B504000D0000280BD000F0C9FA6319C6
:1052800064331B78022B07D0002400F0CDFA2000F5
:1052900070BD044B9C6DF0E76419643400232370E7
:1052A0000124F2E76C0C002070B505000C0016001C
:1052B00000280CD000F0ACFA2100163189004C59BE
:1052C0004B59B3434B5100F0AFFA200070BD014B76
:1052D0009D6DEFE76C0C0020074B1A681368002BDC
:1052E00006D101330360002B04D1D36818687047DE
:1052F0000023F7E70020FAE7F00C002010B541602A
:10530000006191420CD8D21A83699A4201D30120DC
:1053100010E0011D094B586800F01AFB002009E05D
:105320009A4201D2994206D2011D044B186800F03E
:105330000FFB002010BD0120FCE7C046F00C002050
:1053400070B504000D00160005E0A3699C46654495
:105350002000236A9847A36959192B0032002000C6
:10536000FFF7CCFF0028F0D170BD70B505000E002E
:105370000C4B1B68DB68DC68201D00F001FB24235C
:10538000E35C5A0707D4012293432332A354236AD0
:105390002000984770BD320029002000FFF7D0FFA1
:1053A000F5E7C046F00C002010B505E0DB68186892
:1053B00001214942FFF7D9FF044B1B681A68002AF4
:1053C000F4D1024A51681160536010BDF00C002006
:1053D00070B50500FFF74CF90400074B9B6883424A
:1053E00005D800232B60044B9C60200070BDFFF7A4
:1053F000DBFF01232B60F6E7F00C002070B582B0D4
:1054000004000D00FFF72CF901A8FFF7E1FF0600EB
:10541000019B002B23D1002D01D1A04213D2002DDE
:1054200005D0104B5B681B68002B13D10125A11B15
:105430000C4BD8682A0000F0F5FEFFF7D3F90028DE
:105440000AD002B070BDFFF7CDF931002000FFF7A0
:105450008CFFF6E70025EAE700F0CEF9F1E7FFF769
:10546000C1F9EEE7F00C002030B585B0334BD868B9
:10547000002201A900F0AAFC00285CD0019B002BAF
:10548000F4DB039C6369002B02D0201D00F078FA46
:105490006846FFF79DFF0500019B092BE6D89B009E
:1054A000274AD3589F462422A35C01210B43A354CF
:1054B000029BA269944663441900029B02002000EB
:1054C000FFF71CFF0028D1D02423E35C5A0707D440
:1054D000012293432332A354236A20009847C5E74F
:1054E000029BA2699446634419002A002000FFF73A
:1054F00027FFF1E72422A35C01218B43A354B5E7E6
:105500002422A35C01210B43A3540299A161091831
:10551000030002002000FFF7F1FEA7E72423E35C6D
:105520009A0704D5012293432332A3549EE7200017
:1055300000F01CF99AE705B030BDC046F00C002021
:105540006879001000B583B001A8FFF7C5FE019986
:10555000FFF754FFFFF788FFF6E770B500F058F942
:105560000F4BDB68002B02D000F05EF970BD0C4CD5
:1055700026001036300000F0D1F92500243528002F
:1055800000F0CCF92660656000220C210A2000F0B2
:10559000FBFAE0600028E7D0024900F0F2FDE3E703
:1055A000F00C002090790010F0B5C64600B580469A
:1055B0000F0015001E00079CFFF7CFFF4346236036
:1055C000A761E661069B2362201D00F0B2F9002D61
:1055D00004D02422A35C04210B43A35404BC9046B2
:1055E000F0BD00B583B0FFF7B8FF094BDB68002BB7
:1055F0000CD0074B38330193032300930023802200
:1056000004490548FEF75EFE03B000BD0020FBE73D
:10561000F00C00209879001045550010F0B585B0C9
:1056200003900D0016001F00282000F093F8041EC0
:105630000BD024230022C25401900A9B00933B000C
:10564000320029000398FFF7AFFF200005B0F0BD3E
:1056500030B585B01D00134BDC68002C20D00191C3
:1056600002920390052913DCFFF7B8FB022807D04C
:105670000C4BD8680023002201A900F0B4FA0DE019
:10568000084BD8680023089A01A900F0ACFA05E09D
:1056900000232A0001A9200000F01EFB05B030BD48
:1056A0000020FBE7F00C0020014B986B7047C046D0
:1056B000F00C00208069704770B504000D0000F008
:1056C000A7F8002D07D12422A35C04218B43A35407
:1056D00000F0AAF870BD2422A35C04210B43A3545C
:1056E000F6E710B5040000F093F82423E35C5B07B1
:1056F00004D5012400F098F8200010BD0024F9E73B
:1057000010B5FFF7EEFF10BD4068704700687047A6
:1057100010B5040000F07CF82423E35CDB0704D51B
:10572000012400F081F8200010BD0024F9E710B535
:10573000040000F06DF8E46900F076F8200010BD78
:1057400070B504000D0000F063F8E56100F06CF83E
:1057500070BDC04610B50400FEF782FF2000FEF7C2
:1057600045FA0400FFF73EF8200010BD10B5041EF6
:1057700006D0FEF775FF2000FEF74AFAFFF732F871
:1057800010BD00000000000000000000000000004C
:1057900082B00023019372B6019B002BFCD002B0B3
:1057A00070470B4A13681868203080F3098802207C
:1057B00080F31488BFF36F8F3FBCAE4608BC04BCB7
:1057C00062B61847C046C046C046C046C046C0463E
:1057D000C40C002010B5031F802464041C60043B2B
:1057E0001960043B02491960143B1A60403810BD2F
:1057F0009157001070477047044B802252051A6081
:10580000BFF34F8FBFF36F8F7047C04604ED00E0CA
:1058100072B6044A136801331360BFF34F8FBFF3AE
:105820006F8F704768020020034A1368013B1360C2
:10583000002B00D162B6704768020020EFF31080A1
:1058400072B6704780F310887047EFF30980104BF1
:105850001A6820381060F0C044464D4656465F46F0
:10586000F0C008B572B6FFF7A7F862B60CBC1168B5
:1058700008681030F0C8A046A946B246BB4680F37F
:1058800009882038F0C81847C046C046C046C04600
:10589000C40C002010B5FFF7D1FF0400FEF704FF91
:1058A000002803D0034B802252051A602000FFF726
:1058B000C9FF10BD04ED00E0054B00221A60054948
:1058C0000A60054A0549116007221A607047C04600
:1058D00010E000E018E000E014E000E04F4B14009E
:1058E00010B50C4B1968FF2212040A431A6019689C
:1058F000FF2212060A431A60FFF7DEFF064B002262
:105900001A60FFF74EFFFFF757F8FFF741FF00203F
:1059100010BDC04620ED00E06802002003000833FF
:105920004360012252428260C3600361002303602E
:10593000704700230361704743684B609A688A6030
:105940009A68516099600861036801330360704789
:1059500030B50C68631C02D00200083202E0026914
:1059600004E01A0053681D68A542FAD953684B60D9
:1059700099608A605160086103680133036030BD3B
:1059800003694268816891608268416851605A6821
:10599000824206D0002202611A68013A1A60186831
:1059A000704782685A60F5E710B50400FFF730FFD2
:1059B000A26BE36B9A4204D00024FFF735FF20006E
:1059C00010BD0124F9E710B50400FFF721FFA36B18
:1059D000002B04D00024FFF727FF200010BD012476
:1059E000F9E770B504001600856B026C002A20D020
:1059F000002E0DD14068FEF71DF96368226C9446B5
:105A000063446360A268934213D32368636010E029
:105A1000C068FEF70FF9236C5A42E3689B18E360F5
:105A200021688B4203D2A3689C466244E260022E46
:105A300003D00135A563002070BD002DF9D0013DD4
:105A4000F7E710B50C00026C002A0BD0C3689B1856
:105A5000C36081688B4201D30368C360C1682000C2
:105A6000FEF7E8F810BD70B50500FFF7D1FE45233D
:105A7000EC5C64B203E0FFF787F9013C64B2002CF0
:105A800009DD6B6A002B06D028002430FFF770F880
:105A90000028F2D0EFE74523FF22EA54FFF7C4FEC7
:105AA000FFF7B6FE4423EC5C64B203E0FFF76CF949
:105AB000013C64B2002C09DD2B69002B06D02800C4
:105AC0001030FFF755F80028F2D0EFE74423FF220B
:105AD000EA54FFF7A9FE70BD70B504000D00002860
