:020000040800F2
:1000000000500020310400084D0100085101000893
:1000100055010008590100085D01000800000000BA
:100020000000000000000000000000006101000866
:100030006501000800000000690100086D0100086A
:10004000790400087904000879040008790400089C
:10005000790400087904000879040008790400088C
:10006000790400087904000879040008790400087C
:10007000790400087904000879040008790400086C
:10008000790400087904000879040008790400085C
:10009000790400087904000879040008790400084C
:1000A000790400087904000879040008790400083C
:1000B000790400087904000879040008790400082C
:1000C000790400087904000879040008790400081C
:1000D000790400087904000879040008790400080C
:1000E0007904000879040008790400080000000081
:1000F0000000000000000000000000000000000000
:0C01000000000000000000005FF808F1A3
:10010C0010B5054C237833B9044B13B10448AFF345
:10011C0000800123237010BD440400200000000067
:10012C008004000808B5034B1BB103490348AFF327
:10013C00008008BD00000000480400208004000876
:10014C00704700BFFEE700BFFEE700BFFEE700BF41
:10015C00FEE700BF704700BF704700BF704700BF8D
:10016C00704700BF30B400244FF41F053A4B3B4995
:10017C00186882B040F00100186058681A460140B7
:10018C005960196821F0847121F480311960196863
:10019C0021F480211960596821F4FE0159609D6099
:1001AC0000940194196841F48031196003E0009BBC
:1001BC00B3F5A06F09D0136803F400330193009BCF
:1001CC0001330093019B002BF1D0234B1B6813F4DC
:1001DC00003318BF01230193019B012B06D04FF074
:1001EC0000621F4B9A6002B030BC70471D491A4B1D
:1001FC0008681A4640F010000860086820F00300F8
:10020C000860086840F00200086059685960596835
:10021C005960596841F480615960596821F47C1126
:10022C005960596841F4E8115960196841F08071BE
:10023C00196013689B01FCD55368074923F003032D
:10024C005360536843F0020353604B6803F00C0394
:10025C00082BFAD1C3E700BF001002400000FFF8E2
:10026C0000ED00E000200240114A536803F00C033B
:10027C00082B0ED153685168C3F38343C90303F1B0
:10028C00020310D5526892030DD40A4A02FB03F301
:10029C0000E0084B064A08495268C2F303128A5C14
:1002AC00D3400B617047054A02FB03F3F2E700BF32
:1002BC000010024000127A000000002000093D00EE
:1002CC0070B50D4E0D4D761BB61006D000240134C2
:1002DC0055F8043B9847A642F9D1094E094D00F058
:1002EC00C9F8761BB61006D00024013455F8043B2F
:1002FC009847A642F9D170BD9C0400089C040008E4
:10030C00A40400089C040008024B13B1024800F03E
:10031C0005B87047000000003503000800230146B3
:10032C001A46184600F01EB838B50A4C0A4D641B24
:10033C00A4100AD004F18043013B05EB8305013C7A
:10034C0055F804399847002CF9D1BDE8384000F035
:10035C0097B800BFA8040008A4040008704700BFA9
:10036C00704700BF2DE9F8432B4D06462868984688
:10037C000F469146FFF7F2FF284B1C68D4F8483122
:10038C00002B3DD05A681F2A0DDC02F1010C16BB64
:10039C000232C3F804C0286843F82270FFF7E0FF6C
:1003AC000020BDE8F8831E4B7BB34FF4C870AFF34D
:1003BC000080034648B30020D4F848114FF0010CDC
:1003CC00C3E900100246C4F84831C3F88801C3F8E9
:1003DC008C01002EDCD0012103EB8204C4F8889040
:1003EC00D3F8880191400843022EC3F88801C4F861
:1003FC000881CDD1D3F88C010143C3F88C11C7E728
:10040C0004F5A673C4F84831BCE72868FFF7A8FFC9
:10041C004FF0FF30C5E700BF4004002098040008EF
:10042C0000000000002103E00B4B5B5843500431EB
:10043C000A480B4B42189A42F6D30A4A02E00023B0
:10044C0042F8043B084B9A42F9D3FFF78BFEFFF7B7
:10045C0037FF00F00DF87047A804000800000020DA
:10046C00440400204404002084040020FEE7000023
:10047C0000207047F8B500BFF8BC08BC9E4670471A
:0C048C00F8B500BFF8BC08BC9E467047E5
:040498001800002028
:08049C001503000831010008FE
:0404A4000D0100083E
:1004A800000000000000000001020304060708091C
:1004B80000A24A040000000000000000040300201D
:1004C8006C030020D403002000000000000000009E
:1004D8000000000000000000000000000000000014
:1004E8000000000000000000000000000000000004
:1004F80000000000000000000000000000000000F4
:1005080000000000000000000000000000000000E3
:1005180000000000000000000000000000000000D3
:1005280000000000000000000000000000000000C3
:1005380000000000000000000000000000000000B3
:1005480000000000000000000000000000000000A3
:100558000000000000000000000000000000000093
:1005680001000000000000000E33CDAB34126DE630
:10057800ECDE05000B000000000000000000000099
:100588000000000000000000000000000000000063
:100598000000000000000000000000000000000053
:1005A8000000000000000000000000000000000043
:1005B8000000000000000000000000000000000033
:0408E8006004002088
:0400000508000431BA
:00000001FF
