:020000040800F2
:100000000000022011190008C5090008C7090008EE
:10001000C9090008CB090008CD090008000000004C
:10002000000000000000000000000000CF090008F0
:10003000D109000800000000ED0200089502000848
:1000400061190008611900086119000861190008A8
:100050006119000861190008611900086119000898
:100060006119000861190008611900086119000888
:100070006119000861190008611900086119000878
:1000800061190008611900086119000800000000EA
:1000900000000000000000000000000061190008DE
:1000A0006119000861190008611900086119000848
:1000B0006119000861190008611900086119000838
:1000C0006119000861190008611900086119000828
:1000D000611900086119000861190008000000009A
:1000E000611900086119000861190008000000008A
:1000F000000000000000000000000000611900087E
:100100000000000061190008D50900086119000805
:1001100000000000000000000000000000000000DF
:1001200061190008611900086119000861190008C7
:10013000611900080000000000000000000000003D
:10014000000000000000000000000000611900082D
:100150006119000861190008611900086119000897
:10016000611900086119000800000000000000008B
:10017000000000000000000000000000000000007F
:1001800000000000611900080000000000000000ED
:08019000611900086119000863
:1001A0000348044B834202D0034B03B11847704706
:1001B0000C0000200C00002000000000054806494B
:1001C000091A891001EBD171491002D0034B03B118
:1001D000184770470C0000200C00002000000000B1
:1001E00010B5064C237843B9FFF7DAFF044B13B17F
:1001F0000448AFF300800123237010BD0C000020E1
:10020000000000006419000808B5044B1BB1044944
:100210000448AFF30080BDE80840CFE700000000CD
:100220001000002064190008000000000000000019
:1002300072B61D481D4901F1040101604FF0E02034
:100240001B49C0F8081D1B481949096801601A4874
:10025000016841F0010101604FF0E0204EF65F219E
:1002600041614FF0070101614FF00001C0F8181D16
:100270004FF07F41C0F81C1D1049C0F8201D704789
:10028000FFF7FEBFFFF7FEBFFFF7FEBF01B5BDE8FA
:100290000140704701B500F073F8BDE801407047B8
:1002A000FFF7FEBFFFF7FEBF8C000020C00C002050
:1002B000000000083C010020001000E00000FF40AA
:1002C0004FF000002A4A1060EFF3148020F0040081
:1002D00080F3148862B64FF080504FF0E021C1F8EF
:1002E000040DBFF34F8FBFF36F8FFEE72148224A03
:1002F0004FF00003016891B10360EFF3098C2CE922
:10030000F00F1EF0100F01D12CED108A1B4C4CF891
:1003100004ED2568C1F808C00DB18D61236072B687
:100320001168B1B1016062B64F68144C8D6907F174
:1003300001074F602560D1F808C05CF804EB1EF09F
:10034000100F01D1BCEC108ABCE8F00F8CF30988C7
:10035000704772B61168016009B962B6F9E74FF0EB
:1003600000674FF0E028C8F8047D62B6DCE770470C
:10037000400100204401002048010020DC01002051
:100380002249086800F101000860214B1A683AB15F
:10039000A2F101021A601AB91E4B4FF00100186059
:1003A0001D490868026822B11C4B4FF001021A6017
:1003B00008E000F104001A4B1A68904201D1194B71
:1003C00018680860134B1A6812B914490868D0B14C
:1003D0002DE901401149086808B101F06FFA0D4B91
:1003E0001A6872B101F03AFA0F48016849B90F482A
:1003F00001680F4A13680F484FF08052994200D0AD
:100400000260BDE80140BFF34F8F7047B80600207F
:10041000DC010020B406002054010020D801002097
:10042000E4010020A002002040010020440100203F
:100430004801002004ED00E070B50D4E0D4D761B17
:10044000B61006D00024013455F8043B9847A64264
:10045000F9D1094E094D761B01F084FAB61006D089
:100460000024013455F8043B9847A642F9D170BDE9
:100470009C1900089C190008A01900089C19000884
:10048000F0B4860743D0541E002A3ED0CAB20346B9
:1004900002E014F1FF3438D303F8012B9D07F8D1A3
:1004A000032C2BD9CDB245EA05250F2C45EA05458D
:1004B00016D9A4F110073F0903F1200606EB071631
:1004C00003F1100242E9045542E902551032B242EA
:1004D000F8D104F00F040137032C03EB07130DD9F7
:1004E0001E462246043A032A46F8045BFAD8221F25
:1004F00022F003020432134404F003042CB1C9B205
:100500001C4403F8011B9C42FBD1F0BC704714460D
:100510000346C5E753B94AB9002908BF00281CBFE4
:100520004FF0FF314FF0FF3000F072B9ADF1080C21
:100530006DE904CE00F006F8DDF804E0DDE9022301
:1005400004B070472DE9F047089E04468846002B0A
:100550004BD18A42154667D9B2FA82F24AB1C2F14A
:10056000200701FA02F320FA07F7954047EA03084B
:1005700094404FEA154E230CB8FBFEF71FFA85FC9A
:100580000EFB178843EA084307FB0CF1994209D98F
:10059000EB1807F1FF3080F01B81994240F218817F
:1005A000023F2B445B1AA4B2B3FBFEF00EFB1033E8
:1005B00044EA034400FB0CFCA44509D92C1900F1C2
:1005C000FF3380F00781A44540F2048102382C44B7
:1005D00040EA0740A4EB0C0400271EB1D4400023DE
:1005E000C6E900433946BDE8F0878B4209D9002EA1
:1005F00000F0EB800027C6E9000138463946BDE827
:10060000F087B3FA83F7002F47D18B4202D382429F
:1006100000F2FA80841A61EB030301209846002E51
:10062000E0D0C6E90048DDE702B9FFDEB2FA82F2A7
:10063000002A40F08F80491B4FEA154E1FFA85F8BB
:100640000127B1FBFEFC230C0EFB1C1143EA014306
:1006500008FB0CF1994207D9EB180CF1FF3002D2DC
:10066000994200F2CD808446591AA3B2B1FBFEF044
:100670000EFB101443EA044408FB00F8A04507D918
:100680002C1900F1FF3302D2A04500F2B6801846C3
:10069000A4EB080440EA0C409FE7C7F1200CBB40E4
:1006A00022FA0CFE4EEA030E01FA07F420FA0CF5CA
:1006B00021FA0CF34FEA1E482543B3FBF8F92C0C42
:1006C00008FB19331FFA8EFA44EA034309FB0AF4C4
:1006D0009C4202FA07F200FA07F10BD91EEB030362
:1006E00009F1FF3080F087809C4240F28480A9F1BC
:1006F000020973441B1BADB2B3FBF8F008FB1033C7
:1007000045EA034400FB0AFAA24508D91EEB04049B
:1007100000F1FF336BD2A24569D90238744440EA34
:100720000940A0FB0289A4EB0A044C45C2464B4693
:1007300054D351D0002E69D0B1EB0A0564EB030409
:1007400004FA0CFCFD40FC404CEA0505C6E90054E7
:10075000002747E7C2F1200320FA03F7954001FA8A
:1007600002F021FA03F34FEA154E3843010CB3FBB4
:10077000FEF71FFA85F80EFB173341EA034107FB2A
:1007800008F38B4204FA02F407D9691807F1FF3C19
:100790002FD28B422DD9023F2944CB1A81B2B3FB11
:1007A000FEF00EFB103341EA034100FB08F38B42DD
:1007B00007D9691800F1FF3C17D28B4215D90238CE
:1007C0002944C91A40EA07473BE73746304609E75C
:1007D0000746E7E61846FBE64145ABD2B8EB020A0E
:1007E00069EB0E0201381346A4E76046E9E71846B4
:1007F00095E76746D1E781467CE702382C4447E716
:10080000ACF1020C2B442FE7384608E73746E9E6FF
:10081000704700BF08B50268034B9A4200D008BD7C
:1008200000F052FFFBE700BF000C004072B6FEE78D
:1008300000B595B03022002108A8FFF721FE002363
:100840000393049305930693079301931E4A116C37
:1008500041F080511164126C02F080520192019AB1
:1008600002931A4A116841F440411160126802F47F
:1008700040420292029A0222089201210B91102119
:100880000C910E920F9308231093642311931292EC
:100890000423139308A800F07FFA88B90F23039369
:1008A00002230493002305934FF48052069207938A
:1008B000032103A800F0D8FC20B915B05DF804FBB3
:1008C000FFF7B4FFFFF7B2FF0038024000700040AE
:1008D00008B500F0DFFEFFF7ABFF00F011F8074CA2
:1008E00001222021204600F07BFE0122202120460B
:1008F00000F076FE642000F0F9FEF0E70000024010
:1009000030B58BB00024059406940794089409949C
:100910000194294B1A6B42F004021A631A6B02F01D
:1009200004020192019A02941A6B42F080021A6347
:100930001A6B02F080020292029A03941A6B42F040
:1009400001021A631A6B02F001020392039A0494E3
:100950001A6B42F002021A631B6B03F0020304934A
:10096000049B164D22462021284600F039FE4FF404
:10097000005305934FF404130693079405A91048F8
:1009800000F056FD0C2305930223069307940323DE
:1009900008930723099305A9284600F049FD202361
:1009A0000593012306930794089405A9284600F0AF
:1009B0003FFD0BB030BD00BF0038024000000240D8
:1009C00000080240FEE7FEE7FEE7FEE7FEE77047AD
:1009D0007047000008B5024800F0A4F808BD00BF49
:1009E0002800002000B583B0002100910C4B5A6C08
:1009F00042F480425A645A6C02F480420092009A97
:100A000001911A6C42F080521A641B6C03F08053FF
:100A10000193019B072000F0E9FD03B05DF804FBA2
:100A20000038024010B588B000220146322000F0A4
:100A3000EFFD322000F020FE00240194144B1A6CCC
:100A400042F008021A641B6C03F008030193019B37
:100A500002A903A800F0CEFC00F0BCFC43000D4846
:100A6000A0FB03239B0C013B0B480C4A026040F2A5
:100A7000E732C26043600461846000F05FF910B146
:100A8000012008B010BD044800F00CF8F9E700BFE1
:100A90000038024083DE1B4328000020000C004089
:100AA0007047000090F83D30DBB2012B01D00120EF
:100AB0007047022380F83D300268D36843F0010399
:100AC000D3600368144A934218D0B3F1804F15D015
:100AD000A2F57C42934211D002F5806293420DD080
:100AE00002F58062934209D002F59A32934205D012
:100AF0001A6842F001021A60002070479A6802F0FA
:100B00000702062A05D01A6842F001021A60002086
:100B100070470020704700BF0000014070477047D9
:100B20007047704710B5044603681A6912F0020F47
:100B300011D0DA6812F0020F0DD06FF002021A61C4
:100B40000123037703689B6913F0030F70D0FFF74D
:100B5000E6FF0023237723681A6912F0040F12D0EE
:100B6000DA6812F0040F0ED06FF004021A6102234B
:100B7000237723689B6913F4407F5FD02046FFF7FB
:100B8000CEFF0023237723681A6912F0080F12D0D2
:100B9000DA6812F0080F0ED06FF008021A61042311
:100BA00023772368DB6913F0030F4ED02046FFF74D
:100BB000B6FF0023237723681A6912F0100F12D0B2
:100BC000DA6812F0100F0ED06FF010021A610823CD
:100BD00023772368DB6913F4407F3DD02046FFF77D
:100BE0009EFF0023237723681A6912F0010F03D0B8
:100BF000DA6812F0010F36D123681A6912F0800FFB
:100C000003D0DA6812F0800F34D123681A6912F029
:100C1000400F03D0DA6812F0400F32D123681A690E
:100C200012F0200F03D0DA6812F0200F30D110BD7F
:100C3000FFF774FF2046FFF773FF8AE72046FFF7B0
:100C40006DFF2046FFF76CFF9BE72046FFF766FF2E
:100C50002046FFF765FFACE72046FFF75FFF204621
:100C6000FFF75EFFBDE76FF001021A612046FFF754
:100C7000D1FDC1E76FF080021A61204600F08AF8CA
:100C8000C3E76FF040021A612046FFF74AFFC5E74D
:100C90006FF020021A61204600F07BF8C7E70000E1
:100CA0000368254A90420ED0B0F1804F0BD0A2F5D8
:100CB0007C42904207D002F58062904203D002F558
:100CC0008062904203D123F070034A6813431A4AAA
:100CD00090421AD0B0F1804F17D0A2F57C429042DA
:100CE00013D002F5806290420FD002F580629042EC
:100CF0000BD002F59A32904207D002F58062904202
:100D000003D002F58062904203D123F44073CA6895
:100D1000134323F080034A69134303608B68C36263
:100D20000B688362044B984202D0012343617047F1
:100D30000B690363F9E700BF0000014038B310B549
:100D4000044690F83D30EBB1022384F83D30211D7C
:100D50002068FFF7A5FF012384F8463084F83E3071
:100D600084F83F3084F8403084F8413084F84230D1
:100D700084F8433084F8443084F8453084F83D30BA
:100D8000002010BD80F83C30FFF78AFEDCE7012030
:100D90007047704770470000002800F0E98170B587
:100DA00082B00446036813F0010F3BD0A74B9B6849
:100DB00003F00C03042B2CD0A44B9B6803F00C0312
:100DC000082B21D06368B3F5803F4FD0B3F5A02F37
:100DD00052D09E4B1A6822F480321A601A6822F4AC
:100DE00080221A606368002B50D000F079FC054621
:100DF000964B1B6813F4003F14D100F071FC401BAC
:100E00006428F5D90320B8E1904B5B6813F4800F98
:100E1000D8D08E4B1B6813F4003F03D06368002BBF
:100E200000F0A881236813F0020F55D0874B9B6810
:100E300013F00C0F3ED0854B9B6803F00C03082B7E
:100E400033D0E368002B68D0814B01221A6000F098
:100E500047FC05467D4B1B6813F0020F54D100F090
:100E60003FFC401B0228F5D9032086E1774A13682E
:100E700043F480331360B5E7744B1A6842F4802260
:100E80001A601A6842F480321A60ABE700F028FC5E
:100E900005466E4B1B6813F4003FC3D000F020FCE6
:100EA000401B6428F5D9032067E1684B5B6813F4A5
:100EB000800FC6D1654B1B6813F0020F04D0E368A6
:100EC000012B01D0012058E1604A136823F0F80398
:100ED000216943EAC1031360236813F0080F40D06F
:100EE000636963B35B4B01221A6000F0F9FB0546AE
:100EF000564B5B6F13F0020F33D100F0F1FB401B38
:100F00000228F5D9032038E1504A136823F0F8038A
:100F1000216943EAC1031360DEE74D4B00221A60EA
:100F200000F0DEFB0546494B1B6813F0020FD3D0DF
:100F300000F0D6FB401B0228F5D903201DE1454BEC
:100F400000221A6000F0CCFB0546404B5B6F13F0AB
:100F5000020F06D000F0C4FB401B0228F5D9032085
:100F60000BE1236813F0040F79D0384B1B6C13F09E
:100F7000805F33D100230193344B1A6C42F08052CE
:100F80001A641B6C03F080530193019B0125324BC3
:100F90001B6813F4807F23D0A368012B34D0052B6A
:100FA00038D02A4B1A6F22F001021A671A6F22F00A
:100FB00004021A67A368002B36D000F091FB0646A6
:100FC000224B1B6F13F0020F48D100F089FB801BEE
:100FD00041F288339842F3D90320CEE00025D6E7CA
:100FE0001D4A136843F48073136000F079FB0646D2
:100FF000194B1B6813F4807FCED100F071FB801B6E
:101000000228F5D90320B8E0104A136F43F001031A
:101010001367CFE70D4B1A6F42F004021A671A6F7D
:1010200042F001021A67C5E700F05AFB0646074B7B
:101030001B6F13F0020F11D000F052FB801B41F226
:1010400088339842F3D9032097E000BF003802406C
:1010500000004742800E474200700040EDB9A3698E
:10106000002B00F08980484A926802F00C02082A9E
:1010700051D0022B17D0454B00221A6000F030FBF4
:101080000446414B1B6813F0007F42D000F028FB60
:10109000001B0228F5D903206FE03B4A136C23F0B4
:1010A00080531364DBE7394B00221A6000F018FB11
:1010B0000546354B1B6813F0007F06D000F010FB8F
:1010C000401B0228F5D9032057E0E369226A134345
:1010D000626A43EA8213A26A5208013A43EA02436F
:1010E000E26A43EA0263284A5360284B01221A60ED
:1010F00000F0F6FA0446244B1B6813F0007F06D17B
:1011000000F0EEFA001B0228F5D9032035E000209C
:1011100033E0002031E0012B31D01B4B5B6803F43E
:101120008001E269914201D0012026E003F03F02F4
:10113000216A8A4201D001201FE0616A47F6C0722D
:101140001A40B2EB811F01D0012016E003F44031B8
:10115000A26A5208013AB1EB024F01D001200CE023
:1011600003F07063E26AB3EB026F0AD0012004E07F
:1011700001207047012000E0002002B070BD012076
:10118000FBE70020F9E700BF00380240600047425B
:10119000324B9B6803F00C03042B5CD0082B01D06E
:1011A0002F4870472DE9F04B2C4B5A6802F03F0254
:1011B0005B6813F4800F2BD0284B5B68C3F3881354
:1011C0001E4600275C010025E41A65EB0705A9010E
:1011D00041EA9461A001001B61EB0501CB0043EAE9
:1011E0005073C400A01943EB07014B0243EAD053EC
:1011F0004402204619460023FFF78CF9174B5B6821
:10120000C3F3014301335B00B0FBF3F0BDE8F08BA7
:10121000124B5B68C3F388131E4600275C01002550
:10122000E41A65EB0705A90141EA9461A001001BDE
:1012300061EB0501CB0043EA5073C400A01943EBF6
:1012400007018B0243EA905384022046194600238B
:10125000FFF760F9D2E70348704700BF003802404B
:101260000024F40000127A00002800F09E8070B57F
:101270000446504B1B6803F007038B4209D2CBB2E4
:101280004C4A1370136803F007038B4201D001200E
:1012900070BD236813F0020F17D013F0040F04D0B1
:1012A000454A936843F4E0539360236813F0080FB2
:1012B00004D0414A936843F4604393603E4A936884
:1012C00023F0F003A068034393600D46236813F0F6
:1012D000010F32D06368012B21D09A1E012A25D933
:1012E000354A126812F0020F61D033498A6822F041
:1012F000030213438B6000F0F3F906462E4B9B6804
:1013000003F00C036268B3EB820F16D000F0E8F92B
:10131000801B41F288339842F0D90320B8E7264A6F
:10132000126812F4003FE0D10120B1E7224A1268AE
:1013300012F0007FD9D10120AAE71E4B1B6803F0F1
:101340000703AB4209D9EAB21A4B1A701B6803F0C3
:101350000703AB4201D001209AE7236813F0040F82
:1013600006D0154A936823F4E053E1680B43936079
:10137000236813F0080F07D00F4A936823F46043E3
:10138000216943EAC1039360FFF702FF0A4B9B68A0
:10139000C3F30313094AD35CD840094B1860094BC7
:1013A0001868FFF73FFB002072E70120704701201B
:1013B0006EE700BF003C0240003802407C19000884
:1013C0000800002004000020014B1868704700BF8F
:1013D0000800002008B5FFF7F7FF044B9B68C3F334
:1013E0008223034AD35CD84008BD00BF00380240C6
:1013F0008C1900080F2303600B4B9A6802F003025C
:1014000042609A6802F0F00282609A6802F4E05248
:10141000C2609B68DB0803F4E0530361034B1B6865
:1014200003F007030B60704700380240003C0240A5
:1014300000230F2B00F2CA80F0B482B05DE0866812
:101440005F000324BC4026EA0406CC68BC40344359
:101450008460466826EA02064C68C4F300129A408B
:101460003243426056E0DC08083450F8247003F040
:10147000070296000F22B24027EA02070A69B2402B
:101480003A4340F8242059E0042200E00022B24010
:101490003A4302344E4E46F824204E4A1468EA433A
:1014A00002EA04064F6817F4803F01D045EA0406BB
:1014B000484C2660646802EA04064F6817F4003F4F
:1014C00001D045EA0406434C6660A46802EA0406BB
:1014D0004F6817F4801F01D045EA04063D4CA66012
:1014E000E46822404E6816F4001F01D045EA040269
:1014F000384CE26001330F2B65D801229A400C680A
:1015000004EA0205AA42F5D14C6804F00304013C48
:10151000012C94D94A6802F00302032A09D0C46856
:101520005E000322B24024EA02048A68B2402243E9
:10153000C2604A6802F00302022A94D004685E0086
:101540000322B24024EA02044A6802F00302B240D5
:10155000224302604A6812F4403FCBD0002201923D
:101560001D4A546C44F480445464526C02F480422A
:101570000192019A9C08A61C154A52F8267003F0A5
:10158000030296000F22B24027EA0207134A904254
:101590003FF47CAF02F5806290420ED002F580628B
:1015A00090420CD002F5806290420AD002F580622F
:1015B00090423FF469AF072269E7012267E7022200
:1015C00065E7032263E702B0F0BC7047704700BFD5
:1015D00000380140003C0140003802400000024059
:1015E00012B909048161704781617047074AD36865
:1015F00023F4E0631B041B0C000200F4E0601843BA
:1016000040F0BF6040F40030D060704700ED00E073
:1016100030B4174BDB68C3F30223C3F10704042C77
:1016200028BF04241D1D062D18D9033B4FF0FF359C
:1016300005FA04F421EA0401994005FA03F322EAC9
:101640000303194300280BDB0901C9B200F1604014
:1016500000F5614080F8001330BC70470023E5E7D7
:1016600000F00F000901C9B2024B1954F4E700BFA2
:1016700000ED00E014ED00E0002807DB00F01F02A1
:10168000400901239340024A42F82030704700BFCE
:1016900000E100E008B50B4B1A6842F400721A60D2
:1016A0001A6842F480621A601A6842F480721A6002
:1016B0000320FFF79BFF0020FFF7B4F9FFF792F933
:1016C000002008BD003C0240034A1168034B1B7810
:1016D0000B441360704700BF700000200000002022
:1016E000014B1868704700BF7000002038B50446F1
:1016F000FFF7F6FF0546B4F1FF3F02D0044B1B781D
:101700001C44FFF7EDFF401BA042FAD338BD00BFD9
:1017100000000020034AD2F8883043F47003C2F876
:101720008830704700ED00E038B50446EFF31085CF
:1017300072B6436EDBB14C3000F0D2F83F4A13680A
:10174000013B1360A36B002B69D1236B002B4ED0A0
:10175000636B002B47D12363E26A394B53F8223085
:1017600043B15A6A14625C62626223623FE0002302
:10177000C364E3E7324B43F82240246264620123EE
:1017800003FA02F12F4803680B4303602E4B1B68DA
:1017900093422CD92C4B1A602C4B1B6803B3D96B8A
:1017A000914224D9DA6A914206D0012303FA02F267
:1017B00027490B6813430B60244B1C6085F310888A
:1017C0001E4B1B6853BB234B4FF080521A60EFF344
:1017D00005831BBBEFF3108362B683F310881DE013
:1017E0001A4B1C6003E000236363032323631A4B3B
:1017F0001B6885F31088154A12689A420ED00F4B69
:101800001B685BB9134B4FF080521A60EFF30583EE
:1018100023B9EFF3108362B683F3108838BD236BCE
:10182000012BE4D0022BE2D0636B13B9A3632363D3
:10183000DDE70023636303232363D8E7400100202F
:10184000A80000202C0100204C01002048010020AD
:101850005001002004ED00E044010020114B1B6802
:10186000EFF3108272B610490020086063B1196B63
:1018700051B9D96999610D480160196A994203D03B
:10188000D86ADB6B984202D082F310887047084B0D
:1018900043F820100749096853F82110064B1960D6
:1018A000F2E700BF44010020B4060020DC01002064
:1018B000A80000204C0100204801002008B5EFF3EB
:1018C000108172B6044A13680133136081F31088E3
:1018D0000248FFF729FF08BD40010020E801002071
:1018E000836953B10269904208D0416951610A612C
:1018F0001968814208D00023836170471A688242C8
:10190000F9D100221A60F6E793611A60F3E700004C
:10191000DFF834D00D480E490E4A002302E0D458B7
:10192000C4500433C4188C42F9D30B4A0B4C002327
:1019300001E013600432A242FBD3FFF7EBFEFEF797
:101940007BFDFEF7C5FF704700000220000000206D
:101950000C000020A41900080C000020BC06002088
:10196000FEE70000F8B500BFF8BC08BC9E46704713
:0C197000F8B500BFF8BC08BC9E467047EC
:10197C000000000000000000010203040607080933
:08198C00000000000102030449
:08199400B0EBFF7F0100000031
:04199C000902000834
:0419A000E101000859
:0C19A40001000000100000000024F4000E
:0400000508001911C5
:00000001FF
