:020000040800F2
:100000000000022089220008610A0008630A000833
:10001000650A0008670A0008690A00080000000075
:100020000000000000000000000000006B0A000853
:100030006D0A0008000000002D030008950200086A
:10004000D9220008D9220008D9220008D9220008A4
:10005000D9220008D9220008D9220008D922000894
:10006000D9220008D9220008D9220008D922000884
:10007000D9220008D9220008D9220008D922000874
:10008000D9220008D9220008D92200080000000067
:10009000000000000000000000000000D92200085D
:1000A000D9220008D9220008D9220008D922000844
:1000B000D9220008D9220008D9220008D922000834
:1000C000D9220008D9220008D9220008D922000824
:1000D000D9220008D9220008D92200080000000017
:1000E000D9220008D9220008D92200080000000007
:1000F000000000000000000000000000D9220008FD
:1001000000000000D9220008710A0008D922000866
:1001100000000000000000000000000000000000DF
:10012000D9220008D9220008D9220008D9220008C3
:10013000D9220008000000000000000000000000BC
:10014000000000000000000000000000D9220008AC
:10015000D9220008D9220008D9220008D922000893
:10016000D9220008D9220008000000000000000089
:10017000000000000000000000000000000000007F
:1001800000000000D922000800000000000000006C
:08019000D9220008D922000861
:1001A0000348044B834202D0034B03B11847704706
:1001B0001000002010000020000000000548064943
:1001C000091A891001EBD171491002D0034B03B118
:1001D00018477047100000201000002000000000A9
:1001E00010B5064C237843B9FFF7DAFF044B13B17F
:1001F0000448AFF300800123237010BD10000020DD
:1002000000000000DC22000808B5044B1BB10449C3
:100210000448AFF30080BDE80840CFE700000000CD
:1002200014000020DC220008000000000000000094
:1002300072B61D481D4901F1040101604FF0E02034
:100240001B49C0F8081D1B481949096801601A4874
:10025000016841F0010101604FF0E0204EF65F219E
:1002600041614FF0070101614FF00001C0F8181D16
:100270004FF07F41C0F81C1D1049C0F8201D704789
:10028000FFF7FEBFFFF7FEBFFFF7FEBF01B5BDE8FA
:100290000140704701B500F093F8BDE80140704798
:1002A000FFF7FEBFFFF7FEBF48010020780D0020DA
:1002B00000000008F8010020001000E00000FF40EE
:1002C000026922F00702A2F144026FF002031360F8
:1002D0004FF0000353609360D360136153619361E7
:1002E000D361136253629362D362136353634FF01B
:1002F000FF339363D1634FF0807313648260704760
:100300004FF000002A4A1060EFF3148020F0040040
:1003100080F3148862B64FF080504FF0E021C1F8AE
:10032000040DBFF34F8FBFF36F8FFEE72148224AC2
:100330004FF00003016891B10360EFF3098C2CE9E1
:10034000F00F1EF0100F01D12CED108A1B4C4CF851
:1003500004ED2568C1F808C00DB18D61236072B647
:100360001168B1B1016062B64F68144C8D6907F134
:1003700001074F602560D1F808C05CF804EB1EF05F
:10038000100F01D1BCEC108ABCE8F00F8CF3098887
:10039000704772B61168016009B962B6F9E74FF0AB
:1003A00000674FF0E028C8F8047D62B6DCE77047CC
:1003B000FC0100200002002004020020980200201E
:1003C0002249086800F101000860214B1A683AB11F
:1003D000A2F101021A601AB91E4B4FF00100186019
:1003E0001D490868026822B11C4B4FF001021A60D7
:1003F00008E000F104001A4B1A68904201D1194B31
:1004000018680860134B1A6812B914490868D0B10B
:100410002DE901401149086808B101F049FD0D4B73
:100420001A6872B101F0FAFC0F48016849B90F4827
:1004300001680F4A13680F484FF08052994200D06C
:100440000260BDE80140BFF34F8F70477407002082
:100450009802002070070020100200209402002063
:10046000A00200205C030020FC010020000200200C
:100470000402002004ED00E070B50D4E0D4D761B1A
:10048000B61006D00024013455F8043B9847A64224
:10049000F9D1094E094D761B01F020FFB61006D0A8
:1004A0000024013455F8043B9847A642F9D170BDA9
:1004B00034230008342300083823000834230008BC
:1004C000F0B4860743D0541E002A3ED0CAB2034679
:1004D00002E014F1FF3438D303F8012B9D07F8D163
:1004E000032C2BD9CDB245EA05250F2C45EA05454D
:1004F00016D9A4F110073F0903F1200606EB0716F1
:1005000003F1100242E9045542E902551032B242A9
:10051000F8D104F00F040137032C03EB07130DD9B6
:100520001E462246043A032A46F8045BFAD8221FE4
:1005300022F003020432134404F003042CB1C9B2C4
:100540001C4403F8011B9C42FBD1F0BC70471446CD
:100550000346C5E753B94AB9002908BF00281CBFA4
:100560004FF0FF314FF0FF3000F072B9ADF1080CE1
:100570006DE904CE00F006F8DDF804E0DDE90223C1
:1005800004B070472DE9F047089E04468846002BCA
:100590004BD18A42154667D9B2FA82F24AB1C2F10A
:1005A000200701FA02F320FA07F7954047EA03080B
:1005B00094404FEA154E230CB8FBFEF71FFA85FC5A
:1005C0000EFB178843EA084307FB0CF1994209D94F
:1005D000EB1807F1FF3080F01B81994240F218813F
:1005E000023F2B445B1AA4B2B3FBFEF00EFB1033A8
:1005F00044EA034400FB0CFCA44509D92C1900F182
:10060000FF3380F00781A44540F2048102382C4476
:1006100040EA0740A4EB0C0400271EB1D44000239D
:10062000C6E900433946BDE8F0878B4209D9002E60
:1006300000F0EB800027C6E9000138463946BDE8E6
:10064000F087B3FA83F7002F47D18B4202D382425F
:1006500000F2FA80841A61EB030301209846002E11
:10066000E0D0C6E90048DDE702B9FFDEB2FA82F267
:10067000002A40F08F80491B4FEA154E1FFA85F87B
:100680000127B1FBFEFC230C0EFB1C1143EA0143C6
:1006900008FB0CF1994207D9EB180CF1FF3002D29C
:1006A000994200F2CD808446591AA3B2B1FBFEF004
:1006B0000EFB101443EA044408FB00F8A04507D9D8
:1006C0002C1900F1FF3302D2A04500F2B680184683
:1006D000A4EB080440EA0C409FE7C7F1200CBB40A4
:1006E00022FA0CFE4EEA030E01FA07F420FA0CF58A
:1006F00021FA0CF34FEA1E482543B3FBF8F92C0C02
:1007000008FB19331FFA8EFA44EA034309FB0AF483
:100710009C4202FA07F200FA07F10BD91EEB030321
:1007200009F1FF3080F087809C4240F28480A9F17B
:10073000020973441B1BADB2B3FBF8F008FB103386
:1007400045EA034400FB0AFAA24508D91EEB04045B
:1007500000F1FF336BD2A24569D90238744440EAF4
:100760000940A0FB0289A4EB0A044C45C2464B4653
:1007700054D351D0002E69D0B1EB0A0564EB0304C9
:1007800004FA0CFCFD40FC404CEA0505C6E90054A7
:10079000002747E7C2F1200320FA03F7954001FA4A
:1007A00002F021FA03F34FEA154E3843010CB3FB74
:1007B000FEF71FFA85F80EFB173341EA034107FBEA
:1007C00008F38B4204FA02F407D9691807F1FF3CD9
:1007D0002FD28B422DD9023F2944CB1A81B2B3FBD1
:1007E000FEF00EFB103341EA034100FB08F38B429D
:1007F00007D9691800F1FF3C17D28B4215D902388E
:100800002944C91A40EA07473BE73746304609E71B
:100810000746E7E61846FBE64145ABD2B8EB020ACD
:1008200069EB0E0201381346A4E76046E9E7184673
:1008300095E76746D1E781467CE702382C4447E7D5
:10084000ACF1020C2B442FE7384608E73746E9E6BF
:10085000704700BF08B50B4A1368013313600A4C98
:1008600000222021204600F009FF642001F0FCF85E
:1008700001222021204600F001FF642001F0F4F85D
:10088000E9E700BF2C0000200000024000B589B05D
:10089000B4230693012305930023049303230393B6
:1008A00002934FF480630193009041F23423044A91
:1008B0000449054801F046FC09B05DF804FB00BF9F
:1008C00055080008F42200083000002008B502682E
:1008D000034B9A4200D008BD00F044FFFBE700BF85
:1008E000000C004072B6FEE700B595B03022002142
:1008F00008A8FFF7E5FD00230393049305930693EF
:10090000079301931E4A116C41F080511164126CDF
:1009100002F080520192019A02931A4A116841F43E
:1009200040411160126802F440420292029A02228F
:10093000089201210B9110210C910E920F93082324
:1009400010936423119312920423139308A800F0C8
:1009500071FA88B90F2303930223049300230593AC
:100960004FF4805206920793032103A800F0CAFCBB
:1009700020B915B05DF804FBFFF7B4FFFFF7B2FF35
:10098000003802400070004008B500F0D1FEFFF7CB
:10099000ABFF00F003F800F039FFFEE730B58BB095
:1009A0000024059406940794089409940194294B13
:1009B0001A6B42F004021A631A6B02F004020192ED
:1009C000019A02941A6B42F080021A631A6B02F0C9
:1009D00080020292029A03941A6B42F001021A6397
:1009E0001A6B02F001020392039A04941A6B42F00C
:1009F00002021A631B6B03F002030493049B164D5F
:100A000022462021284600F039FE4FF4005305937A
:100A10004FF404130693079405A9104800F056FDFF
:100A20000C230593022306930794032308930723BB
:100A3000099305A9284600F049FD202305930123C9
:100A400006930794089405A9284600F03FFD0BB0D3
:100A500030BD00BF003802400000024000080240E4
:100A6000FEE7FEE7FEE7FEE7FEE77047704700009F
:100A700008B5024800F0A4F808BD00BFE40000205B
:100A800000B583B0002100910C4B5A6C42F48042B7
:100A90005A645A6C02F480420092009A01911A6CD6
:100AA00042F080521A641B6C03F080530193019B47
:100AB000072000F0E9FD03B05DF804FB00380240B8
:100AC00010B588B000220146322000F0EFFD322040
:100AD00000F020FE00240194144B1A6C42F008022E
:100AE0001A641B6C03F008030193019B02A903A87D
:100AF00000F0CEFC00F0BCFC43000D48A0FB03233B
:100B00009B0C013B0B480C4A026040F2E732C2608A
:100B100043600461846000F05FF910B1012008B007
:100B200010BD044800F00CF8F9E700BF003802409F
:100B300083DE1B43E4000020000C004070470000EF
:100B400090F83D30DBB2012B01D001207047022329
:100B500080F83D300268D36843F00103D360036836
:100B6000144A934218D0B3F1804F15D0A2F57C42BD
:100B7000934211D002F5806293420DD002F580625B
:100B8000934209D002F59A32934205D01A6842F096
:100B900001021A60002070479A6802F00702062AD4
:100BA00005D01A6842F001021A6000207047002048
:100BB000704700BF000001407047704770477047A2
:100BC00010B5044603681A6912F0020F11D0DA68F2
:100BD00012F0020F0DD06FF002021A6101230377A9
:100BE00003689B6913F0030F70D0FFF7E6FF002343
:100BF000237723681A6912F0040F12D0DA6812F012
:100C0000040F0ED06FF004021A61022323772368C9
:100C10009B6913F4407F5FD02046FFF7CEFF00238F
:100C2000237723681A6912F0080F12D0DA6812F0DD
:100C3000080F0ED06FF008021A610423237723688F
:100C4000DB6913F0030F4ED02046FFF7B6FF0023F9
:100C5000237723681A6912F0100F12D0DA6812F0A5
:100C6000100F0ED06FF010021A610823237723684B
:100C7000DB6913F4407F3DD02046FFF79EFF002341
:100C8000237723681A6912F0010F03D0DA6812F093
:100C9000010F36D123681A6912F0800F03D0DA6889
:100CA00012F0800F34D123681A6912F0400F03D07C
:100CB000DA6812F0400F32D123681A6912F0200F5F
:100CC00003D0DA6812F0200F30D110BDFFF774FFA7
:100CD0002046FFF773FF8AE72046FFF76DFF2046A7
:100CE000FFF76CFF9BE72046FFF766FF2046FFF704
:100CF00065FFACE72046FFF75FFF2046FFF75EFF8A
:100D0000BDE76FF001021A612046FFF7DFFDC1E782
:100D10006FF080021A61204600F08AF8C3E76FF096
:100D200040021A612046FFF74AFFC5E76FF0200234
:100D30001A61204600F07BF8C7E700000368254AE7
:100D400090420ED0B0F1804F0BD0A2F57C42904281
:100D500007D002F58062904203D002F58062904293
:100D600003D123F070034A6813431A4A90421AD001
:100D7000B0F1804F17D0A2F57C42904213D002F51B
:100D8000806290420FD002F5806290420BD002F553
:100D90009A32904207D002F58062904203D002F569
:100DA0008062904203D123F44073CA68134323F056
:100DB00080034A69134303608B68C3620B688362D4
:100DC000044B984202D00123436170470B690363CF
:100DD000F9E700BF0000014038B310B5044690F8B1
:100DE0003D30EBB1022384F83D30211D2068FFF730
:100DF000A5FF012384F8463084F83E3084F83F3064
:100E000084F8403084F8413084F8423084F843302C
:100E100084F8443084F8453084F83D30002010BD1B
:100E200080F83C30FFF78AFEDCE70120704770470E
:100E300070470000002800F0E98170B582B00446D8
:100E4000036813F0010F3BD0A74B9B6803F00C0322
:100E5000042B2CD0A44B9B6803F00C03082B21D04F
:100E60006368B3F5803F4FD0B3F5A02F52D09E4BAF
:100E70001A6822F480321A601A6822F480221A60FA
:100E80006368002B50D000F079FC0546964B1B6838
:100E900013F4003F14D100F071FC401B6428F5D915
:100EA0000320B8E1904B5B6813F4800FD8D08E4BD1
:100EB0001B6813F4003F03D06368002B00F0A88187
:100EC000236813F0020F55D0874B9B6813F00C0F6B
:100ED0003ED0854B9B6803F00C03082B33D0E368AE
:100EE000002B68D0814B01221A6000F047FC0546B8
:100EF0007D4B1B6813F0020F54D100F03FFC401BE8
:100F00000228F5D9032086E1774A136843F4803339
:100F10001360B5E7744B1A6842F480221A601A68AD
:100F200042F480321A60ABE700F028FC05466E4BB5
:100F30001B6813F4003FC3D000F020FC401B642862
:100F4000F5D9032067E1684B5B6813F4800FC6D1C5
:100F5000654B1B6813F0020F04D0E368012B01D02E
:100F6000012058E1604A136823F0F803216943EA3D
:100F7000C1031360236813F0080F40D0636963B3A3
:100F80005B4B01221A6000F0F9FB0546564B5B6F84
:100F900013F0020F33D100F0F1FB401B0228F5D90A
:100FA000032038E1504A136823F0F803216943EA2B
:100FB000C1031360DEE74D4B00221A6000F0DEFB38
:100FC0000546494B1B6813F0020FD3D000F0D6FB47
:100FD000401B0228F5D903201DE1454B00221A6071
:100FE00000F0CCFB0546404B5B6F13F0020F06D0C0
:100FF00000F0C4FB401B0228F5D903200BE1236855
:1010000013F0040F79D0384B1B6C13F0805F33D191
:1010100000230193344B1A6C42F080521A641B6C0B
:1010200003F080530193019B0125324B1B6813F49D
:10103000807F23D0A368012B34D0052B38D02A4BD6
:101040001A6F22F001021A671A6F22F004021A675F
:10105000A368002B36D000F091FB0646224B1B6F95
:1010600013F0020F48D100F089FB801B41F2883356
:101070009842F3D90320CEE00025D6E71D4A136835
:1010800043F48073136000F079FB0646194B1B682C
:1010900013F4807FCED100F071FB801B0228F5D9BC
:1010A0000320B8E0104A136F43F001031367CFE742
:1010B0000D4B1A6F42F004021A671A6F42F00102D8
:1010C0001A67C5E700F05AFB0646074B1B6F13F083
:1010D000020F11D000F052FB801B41F2883398427E
:1010E000F3D9032097E000BF0038024000004742D8
:1010F000800E474200700040EDB9A369002B00F05C
:101100008980484A926802F00C02082A51D0022BCA
:1011100017D0454B00221A6000F030FB0446414BCB
:101120001B6813F0007F42D000F028FB001B022850
:10113000F5D903206FE03B4A136C23F0805313640E
:10114000DBE7394B00221A6000F018FB0546354BEF
:101150001B6813F0007F06D000F010FB401B022834
:10116000F5D9032057E0E369226A1343626A43EA30
:101170008213A26A5208013A43EA0243E26A43EA4E
:101180000263284A5360284B01221A6000F0F6FAE5
:101190000446244B1B6813F0007F06D100F0EEFAE2
:1011A000001B0228F5D9032035E0002033E00020A1
:1011B00031E0012B31D01B4B5B6803F48001E26905
:1011C000914201D0012026E003F03F02216A8A42C9
:1011D00001D001201FE0616A47F6C0721A40B2EBED
:1011E000811F01D0012016E003F44031A26A5208A9
:1011F000013AB1EB024F01D001200CE003F0706323
:10120000E26AB3EB026F0AD0012004E001207047CC
:10121000012000E0002002B070BD0120FBE70020AB
:10122000F9E700BF0038024060004742324B9B683C
:1012300003F00C03042B5CD0082B01D02F4870471F
:101240002DE9F04B2C4B5A6802F03F025B6813F417
:10125000800F2BD0284B5B68C3F388131E460027F2
:101260005C010025E41A65EB0705A90141EA9461D8
:10127000A001001B61EB0501CB0043EA5073C400E1
:10128000A01943EB07014B0243EAD0534402204626
:1012900019460023FFF75EF9174B5B68C3F3014360
:1012A00001335B00B0FBF3F0BDE8F08B124B5B68E1
:1012B000C3F388131E4600275C010025E41A65EB82
:1012C0000705A90141EA9461A001001B61EB05013A
:1012D000CB0043EA5073C400A01943EB07018B0213
:1012E00043EA90538402204619460023FFF732F95F
:1012F000D2E70348704700BF003802400024F400E2
:1013000000127A00002800F09E8070B50446504B11
:101310001B6803F007038B4209D2CBB24C4A13700F
:10132000136803F007038B4201D0012070BD2368CE
:1013300013F0020F17D013F0040F04D0454A93683E
:1013400043F4E0539360236813F0080F04D0414A3C
:10135000936843F4604393603E4A936823F0F0033C
:10136000A068034393600D46236813F0010F32D049
:101370006368012B21D09A1E012A25D9354A1268AB
:1013800012F0020F61D033498A6822F0030213433E
:101390008B6000F0F3F906462E4B9B6803F00C03BC
:1013A0006268B3EB820F16D000F0E8F9801B41F2BF
:1013B00088339842F0D90320B8E7264A126812F41D
:1013C000003FE0D10120B1E7224A126812F0007F0D
:1013D000D9D10120AAE71E4B1B6803F00703AB42DB
:1013E00009D9EAB21A4B1A701B6803F00703AB4223
:1013F00001D001209AE7236813F0040F06D0154AA4
:10140000936823F4E053E1680B439360236813F07F
:10141000080F07D00F4A936823F46043216943EA19
:10142000C1039360FFF702FF0A4B9B68C3F30313EA
:10143000094AD35CD840094B1860094B1868FFF77C
:101440003FFB002072E70120704701206EE700BFDC
:10145000003C024000380240002300080800002041
:1014600004000020014B1868704700BF08000020EE
:1014700008B5FFF7F7FF044B9B68C3F38223034AC9
:10148000D35CD84008BD00BF0038024010230008DC
:101490000F2303600B4B9A6802F0030242609A68C4
:1014A00002F0F00282609A6802F4E052C2609B6827
:1014B000DB0803F4E0530361034B1B6803F00703ED
:1014C0000B60704700380240003C024000230F2BA5
:1014D00000F2CA80F0B482B05DE086685F00032449
:1014E000BC4026EA0406CC68BC40344384604668AD
:1014F00026EA02064C68C4F300129A403243426066
:1015000056E0DC08083450F8247003F00702960017
:101510000F22B24027EA02070A69B2403A4340F874
:10152000242059E0042200E00022B2403A43023471
:101530004E4E46F824204E4A1468EA4302EA040656
:101540004F6817F4803F01D045EA0406484C2660F6
:10155000646802EA04064F6817F4003F01D045EAC8
:101560000406434C6660A46802EA04064F6817F458
:10157000801F01D045EA04063D4CA660E468224085
:101580004E6816F4001F01D045EA0402384CE260B0
:1015900001330F2B65D801229A400C6804EA02053A
:1015A000AA42F5D14C6804F00304013C012C94D903
:1015B0004A6802F00302032A09D0C4685E000322CD
:1015C000B24024EA02048A68B2402243C2604A68F8
:1015D00002F00302022A94D004685E000322B240A3
:1015E00024EA02044A6802F00302B2402243026085
:1015F0004A6812F4403FCBD0002201921D4A546C3D
:1016000044F480445464526C02F480420192019A82
:101610009C08A61C154A52F8267003F00302960097
:101620000F22B24027EA0207134A90423FF47CAFF0
:1016300002F5806290420ED002F5806290420CD09A
:1016400002F5806290420AD002F5806290423FF437
:1016500069AF072269E7012267E7022265E70322F3
:1016600063E702B0F0BC7047704700BF003801402C
:10167000003C0140003802400000024012B9090459
:101680008161704781617047074AD36823F4E06342
:101690001B041B0C000200F4E060184340F0BF6024
:1016A00040F40030D060704700ED00E030B4174BDC
:1016B000DB68C3F30223C3F10704042C28BF04240E
:1016C0001D1D062D18D9033B4FF0FF3505FA04F414
:1016D00021EA0401994005FA03F322EA03031943BE
:1016E00000280BDB0901C9B200F1604000F5614040
:1016F00080F8001330BC70470023E5E700F00F00CE
:101700000901C9B2024B1954F4E700BF00ED00E033
:1017100014ED00E0002807DB00F01F024009012360
:101720009340024A42F82030704700BF00E100E0D9
:1017300008B50B4B1A6842F400721A601A6842F43A
:1017400080621A601A6842F480721A600320FFF700
:101750009BFF0020FFF7B4F9FFF792F9002008BDC6
:10176000003C0240034A1168034B1B780B44136092
:10177000704700BF2C01002000000020014B1868BA
:10178000704700BF2C010020034AD2F8883043F490
:101790007003C2F88830704700ED00E008B500F033
:1017A000F3F800F097FB00230C4A13600C4A136017
:1017B0000C4A13600C4A13600C4A13600C4A136005
:1017C0000C4A13600C4A13600C4A13600C4A1360F5
:1017D0000C4A13600C4A136008BD00BF4001002092
:1017E000500100205C0100203C010020300100205D
:1017F00054010020580100204C0100204401002029
:1018000060010020380100203401002010B50F4B8A
:101810001B6813F10F3F0BD00C4B4FF0F0321A60E6
:10182000FEF706FDFFF7BAFF094A1368013313609C
:10183000064C4FF0F0332360064B1868FFF726F88C
:1018400000232360FEF75CFD10BD00BF0C000020EC
:10185000FC010020480100202DE9F84F04468B468A
:10186000924699460A9D0B9EDDF830800E9F3246C7
:10187000EF212846FEF724FEB42200212046FEF781
:101880001FFEC4F828B0C4F844A0C4F84890E5602E
:101890006661C4F82C80C4F89480A761E7612023B6
:1018A000C4F89C30013E354425610D9BE363C4F8C8
:1018B0009830032323632C4B6365A4652B49204692
:1018C000FEF7FEFCEFF3108172B6294B2360294B23
:1018D0001B68FBB9284B1C60C4F88840C4F88C40D6
:1018E000244A136801331360244A136801331360D8
:1018F0000F9B012B27D1EFF30582214B1B6813436C
:10190000B3F1F03F13D31F4B1D68D5B1EE6BEB6AFB
:10191000EB630EE0184B1B68D3F88C20C3F88C40A7
:10192000C2F88840C4F88C20C4F88830D8E7002674
:10193000354681F31088204600F0F8F885B1EE6353
:101940000EE00026F5E781F31088EFF3108172B600
:101950000A4A1368013B136081F3108800F0C8F84D
:101960000020BDE8F88F00BF7D1E0008F5190008B3
:1019700044524854F4010020EC010020FC010020F6
:101980000C0000200402002010B500240E4B1C6047
:101990000E4B1C600E4B1C600E4B1C600E4B20222D
:1019A0001A60802221460D48FEF78AFD0C4B1C6010
:1019B0000C4B1C600C4B1C600C4B1C600C4A1368DD
:1019C00043F08073136010BD000200200402002069
:1019D000E80100200C020020080200206401002021
:1019E000EC010020F4010020FC010020E4010020B3
:1019F000F001002038B5194B1C68EFF3108272B665
:101A0000D4F8AC3082F3108813B1002120469847F7
:101A1000636CA06C9847124B1B680BB1204698472B
:101A2000EFF3108172B6D4F8AC5001232363A363A3
:101A30000023E3640B4A13680133136081F31088B9
:101A4000EFF3148323F0040383F3148815B1012109
:101A50002046A847204600F003F938BD00020020C8
:101A6000E4010020FC01002010B5EFF3108272B6F3
:101A70001B4B1C6804B3EFF305831A4909680B4339
:101A80001ED1194B9C421FD010B3184B1B6813BBBF
:101A9000042323630123A3630023C4F88430E06498
:101AA00012490B6801330B6082F31088204600F066
:101AB000D7F8D4F8840006E082F31088132002E0FF
:101AC00082F31088132010BD82F310881320FAE7E8
:101AD00082F31088F7E782F310881320F3E700BF42
:101AE000000200200C000020A4020020FC010020C5
:101AF0000A4B1B688BB90A4B1A680A4B1B689A423F
:101B00000BD0094B4FF080521A60EFF3058323B9D5
:101B1000EFF3108362B683F310887047FC01002056
:101B2000000200200402002004ED00E038B5044665
:101B3000EFF3108572B6436EDBB14C3000F05CFA07
:101B40003F4A1368013B1360A36B002B69D1236BE1
:101B5000002B4ED0636B002B47D12363E26A394BD5
:101B600053F8223043B15A6A14625C6262622362A3
:101B70003FE00023C364E3E7324B43F82240246292
:101B80006462012303FA02F12F4803680B430360E8
:101B90002E4B1B6893422CD92C4B1A602C4B1B6884
:101BA00003B3D96B914224D9DA6A914206D001235A
:101BB00003FA02F227490B6813430B60244B1C60A5
:101BC00085F310881E4B1B6853BB234B4FF080528C
:101BD0001A60EFF305831BBBEFF3108362B683F348
:101BE00010881DE01A4B1C6003E00023636303238D
:101BF00023631A4B1B6885F31088154A12689A42B2
:101C00000ED00F4B1B685BB9134B4FF080521A601C
:101C1000EFF3058323B9EFF3108362B683F31088E3
:101C200038BD236B012BE4D0022BE2D0636B13B9D8
:101C3000A3632363DDE70023636303232363D8E700
:101C4000FC01002064010020E801002008020020BF
:101C5000040200200C02002004ED00E0000200203D
:101C600070B50446644B1D68EFF3108672B685426A
:101C70001CD0624A1368013B1360A36B012B22D076
:101C800086F310885E4B1B68AB420ED05B4B1B6823
:101C90005BB95C4B4FF080521A60EFF3058323B9B8
:101CA000EFF3108362B683F3108870BDC36C13B179
:101CB000B3F1FF3F03D1E269534B1A60D9E74C30CF
:101CC00000F06EF9F7E70023A363E26A236A9C42FF
:101CD0005BD0616A59620B624C4951F82210A142F3
:101CE00044D0474B1B68A342CAD1494B1A68474BA3
:101CF00053F82220424B1A60464B1B6813B33F4BEC
:101D00001A6801321A6086F31088EFF3108672B6F3
:101D10001A68013A1A603F4B1A6892FAA2F3B3FAB2
:101D200083F33A4951F82310CC6B39480068844258
:101D300008D833480160012101FA03F322EA0302C3
:101D4000344B1A6086F310882C4B1B68002BACD1E7
:101D50002C4B4FF080521A60EFF30583002BA4D177
:101D6000EFF3108362B683F310889EE7274941F8AA
:101D70002230284B1B68002BB3D0012101FA02F25C
:101D800023EA0203234A1360ABE7204B002143F808
:101D90002210012303FA02F21F490B68D2431340B9
:101DA0000B601C49096811B10A401A490A60DBB985
:101DB000174B20221A60124B00221A6086F31088FB
:101DC0000E4B1B68002B7FF470AF0E4B4FF0805210
:101DD0001A60EFF30583002B7FF467AFEFF31083F6
:101DE00062B683F3108860E793FAA3F3B3FA83F340
:101DF000074A136075E700BF00020020FC010020C5
:101E00000402002004ED00E098020020640100209C
:101E1000080200200C020020E8010020114B1B6882
:101E2000EFF3108272B610490020086063B1196B9D
:101E300051B9D96999610D480160196A994203D075
:101E4000D86ADB6B984202D082F310887047084B47
:101E500043F820100749096853F82110064B196010
:101E6000F2E700BF00020020700700209802002067
:101E700064010020080200200402002008B5EFF3EE
:101E8000108272B6036B042B07D0836ED0F8B010AB
:101E900082F3108803B1984708BD04490B680133E9
:101EA0000B6082F31088FFF741FEF5E7FC0100208C
:101EB00008B5EFF3108172B6044A1368013313605A
:101EC00081F310880248FFF731FE08BDFC010020B5
:101ED000A402002030B587B000241E4B1C601E4BAE
:101EE0001C601E4B1C601E4B1C601E4B1C601E4D5C
:101EF000802221462846FEF7E3FA1C4B1D601C4B4E
:101F00001D6080351B4B1D601B4B1C4A1A601C4B0F
:101F10004FF480621A601B4B1C60174B1968184BFA
:101F20001868184B1B6800220592049203930293D1
:101F300001900091144B154A15491648FFF78CFC87
:101F40000028EAD10023144A1360144A136007B032
:101F500030BD00BF740700209802002070070020E9
:101F60009402002058030020140200205C0300208B
:101F700010020020A0020020680700206803002053
:101F8000640300209C0200204D4954412920000890
:101F900018230008A4020020600300206C07002022
:101FA000036823B1B3F1FF3F01D0826902B17047EA
:101FB000202B15D8013B0D4A126802EB83030C4A13
:101FC00012689A4203D89B1A0A4A126813441A6884
:101FD00042B1516908615061026141618361E6E784
:101FE0001F23E8E7006140611860F7E71002002056
:101FF000A00200205C030020836953B10269904273
:1020000008D0416951610A611968814208D00023F2
:10201000836170471A688242F9D100221A60F6E79C
:1020200093611A60F3E700003E4B984279D170B596
:1020300082B000254AE03C4B1A683C4B1A6059E0DC
:1020400001912BE0A368E56861682160002930D028
:10205000C4F818D02461009435490C6082F31088CC
:102060000BB128469847EFF3108672B6304B00222A
:102070001A60009BA3421FD086F31088EFF31082F2
:1020800072B6019CECB12369002100919C42D7D02B
:10209000616959610B6101A9996101932368202B42
:1020A000D0D9203B2360C4F818D0246100940023C9
:1020B000D2E70021A161CFE7A2612046FFF770FFC0
:1020C000DAE71C4B1B68F3B182F31088EFF3108141
:1020D00072B6164B1A68136801930BB101A8986188
:1020E00000231360114A136804331360124A126804
:1020F0009342A0D00F4B00221A6081F31088EFF3B7
:10210000108272B6BDE70D48032303630123836386
:102110000B490B6801330B6082F31088FFF7A0FDB9
:10212000D4E770474D4954415C0300201002002061
:102130005803002094020020A0020020A4020020E6
:10214000FC0100202DE9F04387B00E9F002879D0D4
:10215000984686461498B42876D1EFF3108572B667
:10216000434C20680130206085F3108841480468A2
:102170000F9B03F1FF3CBC440025284602E0D4F845
:10218000884001353C4E3668AE4212D9744510D0B5
:1021900078B9E668BE4204D82369BB4201D9012060
:1021A00000276645EBD826696645E8D90120002757
:1021B000E5E7754616468946EFF3108172B62C4A5C
:1021C0001368013B136081F31088FFF791FCAC4268
:1021D0003ED0002F3ED0002E3ED00F9BC72B3DD9C6
:1021E000109B1F2B3CD8119A93423BD3139B012B7E
:1021F0003AD8224B1A68224B9A4221D00020EFF3A2
:102200000583204A1268134307D0EFF305821D4B64
:102210001B681343B3F1F03F28D3B0B9139B059368
:10222000129B0493119B0393109B02930F9B0193AA
:1022300000974346324649462846FFF70DFB04E027
:102240001320DCE70E2000E00E2007B0BDE8F0838D
:102250000E20FAE70320F8E70320F6E70520F4E76D
:102260000F20F2E71820F0E71020EEE71320ECE74C
:10227000FC010020EC010020F401002000020020FD
:10228000A40200200C000020DFF834D00D480E49D5
:102290000E4A002302E0D458C4500433C4188C42C0
:1022A000F9D30B4A0B4C002301E013600432A24225
:1022B000FBD3FFF769FAFEF7DFF8FEF765FB70471F
:1022C0000000022000000020100000203C23000835
:1022D0001000002078070020FEE70000F8B500BFDE
:1022E000F8BC08BC9E467047F8B500BFF8BC08BCF7
:0422F0009E4670474F
:1022F4004D7920546872656164000000000000009C
:1023040000000000010203040607080900000000A1
:102314000102030453797374656D2054696D657209
:08232400205468726561640039
:08232C0058E2FF7F01000000F0
:042334000902000892
:04233800E1010008B7
:10233C0001000000100000000024F400F0F0F0F0A8
:040000050800228944
:00000001FF
