:100000000C9434000C943E000C943E000C943E0082
:100010000C943E000C943E000C943E000C943E0068
:100020000C943E000C943E000C943E000C943E0058
:100030000C943E000C943E000C943E000C943E0048
:100040000C943E000C943E000C943E000C943E0038
:100050000C943E000C943E000C943E000C943E0028
:100060000C943E000C943E0011241FBECFEFD8E04C
:10007000DEBFCDBF0E9441000C9459000C940000DB
:1000800008958FEF8AB981E08BB92FEF34E39CE0BC
:10009000215030409040E1F700C000001BB82FEF26
:1000A00034E39CE0215030409040E1F700C0000074
:0600B000EBCFF894FFCF36
:00000001FF
