:100000000C9434000C943E000C943E000C943E0082
:100010000C943E000C943E000C943E000C943E0068
:100020000C943E000C943E000C943E000C943E0058
:100030000C943E000C943E000C943E000C943E0048
:100040000C943E000C943E000C943E000C943E0038
:100050000C943E000C943E000C943E000C943E0028
:100060000C943E000C943E0011241FBECFEFD8E04C
:10007000DEBFCDBF0E9440000C9458000C940000DD
:100080008FEF8AB981E08BB92FEF34E39CE02150E8
:1000900030409040E1F700C000001BB82FEF34E380
:1000A0009CE0215030409040E1F700C00000EBCFD1
:0400B000F894FFCFF2
:00000001FF
