:020000040800F2
:100000000000012085180008CD180008150300081D
:10001000CD180008CD180008CD1800080000000019
:10002000000000000000000000000000CD180008E3
:10003000CD180008000000009B0200088D04000895
:10004000CD180008CD180008CD180008CD180008FC
:10005000CD180008CD180008CD180008CD180008EC
:10006000CD180008CD180008CD180008CD180008DC
:10007000CD180008CD180008CD180008CD180008CC
:10008000CD180008CD180008CD180008CD180008BC
:10009000CD180008CD180008CD180008CD180008AC
:1000A000CD180008CD180008CD180008CD1800089C
:1000B000CD180008CD180008CD180008CD1800088C
:1000C000CD180008CD180008CD180008CD1800087C
:1000D000CD180008CD180008CD180008CD1800086C
:1000E000CD180008CD180008CD180008CD1800085C
:1000F000CD180008CD180008CD180008CD1800084C
:10010000CD180008CD180008CD180008CD1800083B
:10011000CD180008CD180008CD180008CD1800082B
:10012000CD180008CD180008CD180008CD1800081B
:1001300000000000000000000000000000000000BF
:1001400000000000000000000000000000000000AF
:10015000000000000000000000000000000000009F
:10016000000000000000000000000000000000008F
:10017000000000000000000000000000000000007F
:10018000000000000000000000000000000000006F
:10019000000000000000000000000000000000005F
:1001A000000000000000000000000000000000004F
:1001B000000000000000000000000000000000003F
:1001C000000000000000000000000000000000002F
:1001D000000000000000000000000000000000001F
:0401E0005FF8E0F1F3
:1001E4000348044B834202D0034B03B118477047C2
:1001F4004400002044000020000000000548064997
:10020400091A891001EBD171491002D0034B03B1D3
:1002140018477047440000204400002000000000FC
:1002240010B5064C237843B9FFF7DAFF044B13B13A
:100234000448AFF300800123237010BD4800002060
:1002440000000000D018000808B5044B1BB1044995
:100254000448AFF30080BDE80840CFE70000000089
:100264004C000020D0180008EFF3108072B67047DD
:1002740080F310887047354A1368012B04D04FF07F
:1002840001031360324A1060324A116032484FF061
:10029400805101607047EFF3108272B62B480168F9
:1002A40091B14FF0000101602948016829B1EFF3D1
:1002B400098121E9F00F006801602649096809688D
:1002C400B1E8F00F81F3098882F310884EF0040E30
:1002D4007047204908601E494FF0000008601B4920
:1002E4004FF0010008601D481D49D0F8002041EA84
:1002F4000201016018484FF08051016019480068FC
:10030400006800BF80F3088861B662B6704700BF1A
:10031400EFF308801EF0040F01D0EFF3098020E909
:10032400F00F40F804ED1EF0040F02D080F30988AA
:1003340001E080F3088800B500F044FA5DF804EBAE
:100344004EF0040E7047EFF305807047040300205D
:1003540000030020FC02002004ED00E020ED00E09A
:100364000000FFFF08ED00E070B50D4E0D4D761B4B
:10037400B61006D00024013455F8043B9847A64231
:10038400F9D1094E094D01F0A1FA761BB61006D039
:100394000024013455F8043B9847A642F9D170BDB6
:1003A400081C0008081C00080C1C0008081C000895
:1003B40030B587B0002402940394049405940E4B42
:1003C4009A6942F004029A619B6903F00403019361
:1003D400019B0A4D22460421284600F0C7F9042354
:1003E40002930123039304940223059302A928464C
:1003F40000F0C2F807B030BD001002400008014010
:1004040008B50A4C01220421204600F0AFF94FF44C
:10041400FA7001F081F800220421204600F0A6F9C8
:100424004FF4FA7001F078F8EBE700BF00080140E0
:1004340008B5FFF7BDFF08BD0138B0F1807F0DD2CC
:10044400074B186003F60F53FF221A700020A3F61F
:100454000B531860083B07221A607047012070474D
:1004640014E000E008B500F03DF8054B1868054BB2
:10047400A3FB00308009FFF7DFFF00F063FA08BD3B
:1004840000000020D34D621008B500F0D9FA00F046
:100494001DFA00F0E3FA08BD0F4B1A6842F001029E
:1004A4001A6059680D4A0A405A601A6822F0847228
:1004B40022F480321A601A6822F480221A605A6880
:1004C40022F4FE025A604FF41F029A60044B4FF06C
:1004D40000629A60704700BF001002400000FFF8FD
:1004E40000ED00E01F4B5B6803F00C03042B14D0F9
:1004F400082B16D01BB11C4B1C4A1A6002E01A4B85
:100504001A4A1A60174B5B68C3F30313184AD15C89
:10051400154A1368CB4013607047134B134A1A6093
:10052400F0E7104A53685268C3F38343023312F46A
:10053400803F0AD00B4A526812F4003F0BD00D4A98
:1005440002FB03F3084A1360DCE70A4A02FB03F3E5
:10055400054A1360D6E7054A02FB03F3024A136017
:10056400D0E700BF001002400000002000127A0013
:10057400E818000800093D00F0B482B000263246B5
:10058400ABE0002D63D0012D00D1CE68FF2B72D8D3
:100594008446FF2B72D89500DCF800400F27AF404B
:1005A40024EA070406FA05F52C43CCF800404C680D
:1005B40014F0805F00F09080664CA56945F0010559
:1005C400A561A46904F001040194019C9508AF1C81
:1005D400614C54F827C002F00304A7000F24BC4068
:1005E4002CEA040C5D4CA0424ED004F58064A04279
:1005F40000F08C8004F58064A04200F0898004F54A
:100604008064A04200F0868004F58064A04200F07B
:10061400838004F58064A04234D0062435E0504F32
:10062400BD4214D00BD94F4FBD4210D007F58037CF
:10063400BD420CD0A7F58017BD42A7D107E0A7F5AE
:100644008017BD4203D007F58037BD429ED18D6827
:100654007DB1012D08D04461082697E7CE6808369D
:1006640094E7CE680C3691E7046108268EE70026ED
:100674008CE704268AE700F1040C8AE7A2F1080556
:10068400AD0089E7052400E00024BC4044EA0C04E2
:100694000235314F47F825404C6814F4803F3DD073
:1006A400314D2C681C432C604C6814F4003F3BD043
:1006B4002D4D6C681C436C604C6814F4801F39D059
:1006C400294DAC681C43AC604C6814F4001F37D04F
:1006D400254DEC682343EB6001320B6833FA02F4D6
:1006E40034D00124944023409C42F5D14D68122D0E
:1006F400B7D094D8022DB1D07FF643AF032DB6D036
:10070400112D7FF443AFCE6804363FE70124BCE7E4
:100714000224BAE70324B8E70424B6E7124D2C6890
:1007240024EA03042C60BFE70F4D6C6824EA030439
:100734006C60C1E70C4DAC6824EA0304AC60C3E709
:10074400094DEC6824EA0303EB60C5E702B0F0BC92
:10075400704700BF00100240000001400008014043
:1007640000002110000031100004014012B90904F6
:10077400016170470161704770B40646043222F08B
:100784000705A5F14000002203E00D4C40F822408B
:1007940001320F2AF9D945F8201C002245F81C2CF7
:1007A40045F8182C45F8142C45F8102C45F80C3C49
:1007B40045F8086C4FF0807345F8043C70BC7047F2
:1007C400EFBEADDE10B504462A4B1B6813B1984743
:1007D40000284ED0216C284800F0DAFB616A2748D3
:1007E40000F0D6FBA16A264800F0D2FBE16A254856
:1007F40000F0CEFB216B244800F0CAFB616823485B
:1008040000F0C6FBA168224800F0C2FBE168214861
:1008140000F0BEFB2169204800F0BAFB61691F4863
:1008240000F0B6FBA1691E4800F0B2FBE1691D4867
:1008340000F0AEFB216A1C4800F0AAFB616B1B4868
:1008440000F0A6FBA16B1A4800F0A2FBE16B19486B
:1008540000F09EFB236813F0040F06D000F0DCFDCB
:100864000146154800F094FBFEE7144800F090FBA5
:10087400FAE710BD64000020F81800080819000801
:100884001819000828190008381900084819000820
:100894005819000868190008781900088819000810
:1008A40098190008A8190008B8190008C819000800
:1008B400D8190008E8190008F8190008181A0008DF
:1008C400014B1868704700BF6800002008B5094A4A
:1008D40013680133136000F09FFD036C013B036454
:1008E40013B100F04FFF08BDC36B036400F09AFD21
:1008F400F7E700BF68000020002817DB10B40D499B
:1009040081FB0032C317C3EBA2134FF47A7202FBCC
:1009140003F4031B02FB03F303F2E73381FB03211C
:10092400D817C0EBA110204410BC70474FF0FF3023
:10093400704700BFD34D62100020704700207047FD
:100944000020704710B5044C02E054F8043B98476B
:10095400024B9C42F9D310BDFC1B0008001C00088C
:1009640010B5044C02E054F8043B9847024B9C42F7
:10097400F9D310BD001C0008041C000808B5FFF7DB
:10098400EFFFFFF73DFD08BD10B584B00A4C1423FA
:100994000393022302934FF480730193074B009354
:1009A4000023074A0749204600F01BFD204600F0BB
:1009B400DDFD04B010BD00BF08030020700000205E
:1009C40081090008341A000808B5FFF731FDFFF764
:1009D4004BFCFFF747FD00F0F1FA00F041FF00F097
:1009E40085FBFFF7D1FF00F049FF00F00BF800F0A2
:1009F400A3FB002008BD08B5FFF7E6FF002008BDF3
:100A0400FEE7000010B584B0094C202303930723AC
:100A1400029380230193074B00930023064A07495E
:100A2400204600F0DEFC204600F0A0FD04B010BD1E
:100A340070010020E8010020050A00083C1A0008A3
:100A440008B5FFF711FC044A13780133DBB21370C5
:100A5400FFF70EFC08BD00BF8003002008B5FFF7B8
:100A640003FC044A1378013BDBB21370FFF700FC6C
:100A740008BD00BF800300202DE9F04784B00D9E1F
:100A84000E9F17F0400F19D0DFF8508117F0100FA8
:100A940001D027F0010717F0010F12D04FF0300CEE
:100AA40017F0020F14D0002A0EDB17F0040F26D122
:100AB40017F0080F26D14FF0000E0BE0DFF820816D
:100AC400E4E74FF0200CEBE752424FF02D0E01E02B
:100AD4004FF0000EA2BB30238DF800300124B44245
:100AE40030DC35460C9A521B17F0110F36D1BEF18B
:100AF400000F02D0002A00DD013A134626E04FF031
:100B04002B0EE7E74FF0200EE4E7334DA5FB0295EB
:100B1400ED08AA4605EB85054FEA4509A2EB09094C
:100B2400524618F8099004AD254405F8109C013488
:100B3400002AD4D00A2BE8D002F00F091209F0E7FA
:100B44000024F5E72546CDE7013013465A1E002B55
:100B540004DD8842F8D220230370F5E7BEF1000FCC
:100B640005D0884201D280F800E0013A013017F044
:100B7400100F03D013460BE001301A46531E002A0F
:100B840006DD8842F8D280F800C0F5E7013015464A
:100B94006A1EA54206DD8842F8D230250570F5E7C5
:100BA40001301446621E002C0ADD4EB18842F7D291
:100BB40004AC144414F8104C0470F1E701301346EB
:100BC4005A1E002B04DD8842F8D220230370F5E777
:100BD40004B0BDE8F08700BFCDCCCCCC441B0008EA
:100BE400E81B000810B4032A20D9CCB210F0030F7C
:100BF4001ED144EA042444EA0444034605E01C608C
:100C04005C609C60DC60103A10330F2AF7D802E075
:100C14001C60043A0433032AFAD802E01970013341
:100C24002246541E002AF9D110BC70470346F8E747
:100C34000346F6E79AB130B4134604464D1C621CD1
:100C44000978217039B114462946013BF6D104E0F4
:100C5400002111700132013BFAD130BC704770475A
:100C64002DE9F04186B00746884614460593461898
:100C740003D36FEA00084FF0FF36384601E0013035
:100C840001342378002B00F07181252B03D0B0426E
:100C9400F5D20370F3E7002102E041F0100114469D
:100CA400621C63782D2BF8D02B2B08D0202B09D075
:100CB400232B0AD0302B0BD141F00101EFE741F097
:100CC4000401ECE741F00801E9E741F02001E6E71F
:100CD400A3F13005092D20D92A2B20D04FF0FF3560
:100CE40013782E2B26D04FF0FF3C92F800E0BEF193
:100CF400680F4BD0BEF16C0F48D014464FF0000E75
:100D040045E005EB85056B0001321D19303D147873
:100D1400A4F13003092BF4D9E2E70025F7E7A21C7C
:100D2400059B1C1D05941D68002DD9DA6D4241F008
:100D34001001D5E7541C5378A3F1300CBCF1090F12
:100D44001AD92A2B1BD022464FF0000CCDE70CEB0E
:100D54008C0C4FEA4C03013403EB020CACF1300C65
:100D64002278A2F13003092BF1D92246BCF1000FFD
:100D7400BBDA4FF0000CB8E74FF0000CF0E702329A
:100D8400059B1C1D0594D3F800C0EFE7541C237881
:100D9400253B532B00F2AE80DFE803F09CACACACF7
:100DA400ACACACACACACACACACACACACACACACAC7F
:100DB400ACACACACACACACACACACACACACACACAC6F
:100DC400ACACACACACACACACACACACACACACACA467
:100DD400ACACACACACACACACACAC2AA8ACACACACD5
:100DE400A8ACACACACACA288ACAC49ACBBACACBDB4
:100DF40011F0100F09D0059B1A1D05921B78B04203
:100E040000D20370013009E00130013D002DF2DD14
:100E1400B042F9D220230370F6E70130013D002DE2
:100E24007FF72EAFB042F8D220230370F5E7059B7D
:100E34001A1D05921A680AB1002302E0524AFBE720
:100E44000133AB4204D012F803E0BEF1000FF7D136
:100E5400BCF1000F02DD634500DD634611F0100FA5
:100E640003D000210EE001300D46691EAB4204DAC6
:100E7400B042F8D220250570F5E70D46F1E70130C0
:100E840001320131994208DAB042F8D292F800C036
:100E940080F800C0F3E7013015466A1EAB42BFF686
:100EA400EFAEB042F7D220210170F4E7B5F1FF3F75
:100EB4000CD0059B1A1D05921A680291CDF804C046
:100EC400009510233146FFF7D7FDD9E641F0010123
:100ED4000825EEE7B04201D2252303700130CFE6A6
:100EE400082319E041F04001102315E041F002010C
:100EF4000A2311E0B04201D225230370421C237857
:100F040023B1B24200D243700230B9E6013C10462C
:100F1400B6E60A2300E01023BEF16C0F10D0BEF138
:100F2400680F14D0059A02F1040ECDF814E012688B
:100F34000291CDF804C000953146FFF79DFD9FE670
:100F4400059A02F1040ECDF814E01268F0E7059A50
:100F540002F1040ECDF814E0D2F800E01FFA8EF28C
:100F640011F0020FE4D00FFA8EF2E1E7B8F1000FAE
:100F740004D0B04206D3002306F8013CC01B06B0DF
:100F8400BDE8F0810370F9E7E01B0008704700003A
:100F94000FB410B582B004AB53F8042B0193064C84
:100FA4007F212046FFF75CFE2046FFF7EFFF02B0EB
:100FB400BDE8104004B070476802002000B583B05B
:100FC4000948FFF7E5FF0948FFF7E2FF084B0093E4
:100FD4000523012203210748FFF7DAFF0648FFF73C
:100FE400D7FF03B05DF804FB581B0008641B00081E
:100FF400A81B0008881B0008B41B0008E8B110F007
:10100400FF020AD110F47F4F0BD110F47F0F0ED1E1
:10101400030E0A4AD05C19307047084B985C0130C3
:101024007047C0F30723054AD05C09307047C0F30A
:101034000743024AD05C113070477047441A0008D5
:101044000023032B09DC1A0105498A5C824201D082
:101054000133F6E701EB031070470020704700BF2F
:10106400040000202DE9F04106460F46904608464C
:10107400FFF7E6FF054600F0FFF86B6800E01B6829
:101084002C1D9C42FBD100F003F967F07F073772F7
:10109400082241463046FFF7CDFDFFF7E5F806F19B
:1010A4000C036A6853606A68F2606B603461FFF72E
:1010B400DFF8BDE8F08110B5044600230372FFF7A2
:1010C400D3F804F10C03E268216951602269E168F4
:1010D40011602361E360FFF7CBF810BD90F908308D
:1010E400002B01DB002070470120704700230C4ACD
:1010F400138006E00B4901EBC302526041F8332030
:101104000133072BF6DD084B07221A700023074A28
:101114001360074A1360074B5B601B60704700BF96
:10112400EC02002084030020C4030020E802002015
:10113400C8030020CC03002008B5084B1868FFF74B
:101144005DFF0138064B53F83000A0F11402054B43
:101154001A600830FFF7BDF808BD00BFC8030020BF
:1011640084030020E802002038B5FFF77DF8044628
:10117400154BB3F90030CBB9144B1868FFF73EFF99
:101184000138134B53F83010A1F11402114B1B68B2
:1011940093420BD0104D28700E4802600F4A12780B
:1011A40042B1083103F11C00FFF765F82046FFF750
:1011B4005FF838BD083103F11C00FFF75CF82046E6
:1011C400FFF756F8F5E700BFEC020020C803002043
:1011D40084030020E8020020C403002080030020D0
:1011E40010B50446FFF740F894F9343023F00F03A8
:1011F40043F0010384F8343094F83520094B03EBB1
:10120400C20304F1140259680A605968A1615A6062
:101214006361A16B044A13680B431360FFF728F85A
:1012240010BD00BF84030020C803002010B504468D
:10123400FFF71AF804F114036269A1695160A26905
:1012440061691160A361636194F83520084B03EB75
:10125400C20153F83230994202D0FFF709F810BDA9
:10126400A16B044A136823EA01031360F5E700BF86
:1012740084030020C803002008B5FEF7F5FF034AE5
:10128400138801331380FEF7F3FF08BDEC0200203E
:1012940008B5FEF7E9FF0B4A1388013B1BB2138024
:1012A400002B02DDFEF7E4FF08BD134600221A807E
:1012B400FEF7DEFF044B1B68002BF5D0FFF754FF4D
:1012C400F2E700BFEC020020E802002038B5044633
:1012D400FEF7CAFF0546236F0BB120469847284600
:1012E400FEF7C6FF38BD000038B5144B1C68FEF786
:1012F400BBFF05462046FFF7E9FF2046FFF796FFB0
:10130400042384F8343004F1440000F06FF92046DB
:10131400FFF7E4FE01280DD004F11402084B19680C
:101324004A6061611A60A361FFF71EFF2846FEF759
:101334009FFF38BD2046FFF7BEFEF5E7E802002018
:10134400CC030020F0B583B00446089809999DF8B1
:1013540028500B9E04F11407A7616761226263623F
:10136400A062E1620A462321FFF73CFCA16AE36A1A
:101374001A1F104B0A44616A206AFFF7FDF9E06105
:1013840084F8365084F835500025A563E663266456
:10139400256384F8345025676567019500952346D5
:1013A400054A214604F1440000F00CF9284603B034
:1013B400F0BD00BFED120008C113000810B56FF0B6
:1013C4000102026300F11402416984694C6081697D
:1013D40044690C6082614261FFF702FFFFF7C4FEBB
:1013E40010BDF0B585B005460C4616461F460A46A4
:1013F4000121FFF737FE0D9B03939DF830300293D4
:101404000B9B01930A9B00933B4632462146284698
:10141400FFF798FF05B0F0BD014B1868704700BF97
:10142400E802002010B5FEF71FFF144B1B6893F869
:10143400342002F00F02012A03D15A6999698A42C1
:1014440003D1FEF715FF002010BD03F11404516011
:101454009A69596911609C615C6193F83510084A76
:1014640002EBC10251680C605168996154605A6181
:10147400FEF7FEFEFFF778FEE5E700BFE802002076
:101484008403002038B590F8343003F00F03012BA7
:1014940017D10446FEF7E8FE05462046FFF7C6FED0
:1014A40094F9343023F00F0343F0020384F834300A
:1014B40004F1440000F018F92846FEF7D9FE002094
:1014C40038BD4FF0FF30FBE7F0B583B002AD45F80F
:1014D400040DFEF7C9FE07460E4B1C682046FFF7B5
:1014E400D1FF04F144062A460021304600F020F9D9
:1014F400304600F09BF83846FEF7BAFEFFF734FE9C
:10150400236B13F1020F02D0002003B0F0BD0023BF
:101514002363F9E7E802002008B5FFF7EDF9FFF7C8
:10152400D3FF08BD38B590F8343003F00F03022B15
:1015340019D10446FEF798FE054604F114036269C6
:10154400A1695160A26961691160A361636104F1D9
:10155400440000F0C9F82846FEF78AFE2046FFF74B
:101564003FFE002038BD4FF0FF30FBE708B590F890
:10157400361080F8351001228A408263022280F8F6
:101584003420FFF7CFFFFFF747FF08B1FFF7ECFD6B
:10159400002008BD10B49DF8044024F001044472F6
:1015A400C16102620022826243621346002B01DDA4
:1015B40010BC70479A1C00EBC202111D916051606F
:1015C4000133F3E770B582B0044615461E460A4659
:1015D4000A21FFF747FD9DF81C300093069B324615
:1015E40029462046FFF7D6FF02B070BD70B5044609
:1015F400FEF73AFE0022002A0ADD637A23F0010393
:101604006372FEF735FE2046FFF755FD002070BDDE
:10161400931C04EBC303191D5D689E686E609D688E
:101624005E682E60996059600132E4E770B582B05B
:101634000446FEF719FE05460022002A23DD637ADC
:1016440023F001036372FFF73BF9636A1844A06255
:10165400224B0193002149B3214A136801331360DB
:10166400019B04F1140219684A60196861611A60E7
:10167400A361637A43F0010363722846FEF7F8FD21
:10168400002002B070BD931C04EBC303191D5868FD
:101694009E68466098685E68066099605960013289
:1016A400CBE702AB03EB810343F8042C02AB03EB5F
:1016B400810353F8046CCB00084A1A4452689642DA
:1016C40009D032681433D31A9B6A9842E9D01B1AA2
:1016D400044EB342E5D80131BDE700BFF402002057
:1016E400F0020020FEFFFF7F437A13F0010F1CD0AD
:1016F40070B50446FEF7B8FD0022002A07DD637AC0
:1017040023F001036372FEF7B3FD002070BD931C48
:1017140004EBC303191D5D689E686E609D685E6876
:101724002E60996059600132E7E74FF0FF3070474F
:1017340070B505460C461646FEF796FD042C06D8F1
:10174400DFE804F009030C1116006B6A3360FEF73E
:101754008FFD002070BD33686B62F8E76B7A23F06D
:1017640002036B72F3E76B7A43F002036B72EEE7EA
:101774006B7A13F0010F02D100233360E7E70123F2
:101784003360E4E72DE9F04182B0CDF804D0CDF820
:1017940000D0FFF795F80746FEF766FD05462E4B89
:1017A4001C689C4205D12846FEF762FD02B0BDE8E4
:1017B400F081A4F114066369FF1A284B9F42F2D802
:1017C4000021002930DD14F80B3C13F0020F03D183
:1017D40023F0010304F80B3C009B5C6023600DF1D3
:1017E400080848F8084DC4F80480A368E0689847DE
:1017F400FFF766F80746009B4345D0D0236862682C
:101804005A60636822681A606460246014F80B3CB0
:1018140003F00302032AC2D123F0010304F80B3CB2
:101824003046FFF703FFBAE7A4F114028B1CDB0078
:101834001A440432234453F8100C53F80C7C4760C8
:1018440053F80C0C53F8107C076043F80C2C43F845
:10185400102C0131B5E700BFF4020020FEFFFF7F2A
:10186400002303B17047044901EBC302526041F8FD
:1018740033200133F5E700BFF40200207047000075
:101884000C480D490D4A002302E0D458C4500433D7
:10189400C4188C42F9D30A4A0A4C002301E01360AD
:1018A4000432A242FBD3FEF7F7FDFEF75DFDFFF71E
:1018B400A2F870470000002044000020101C00081B
:1018C40048000020D4030020FEE70000F8B500BF64
:1018D400F8BC08BC9E467047F8B500BFF8BC08BC0D
:0418E4009E46704765
:1018E80000000000000000000102030406070809C8
:1018F8007073723A203078253038780A000000007A
:101908007230303A203078253038780A00000000EC
:101918007230313A203078253038780A00000000DB
:101928007230323A203078253038780A00000000CA
:101938007230333A203078253038780A00000000B9
:101948007230343A203078253038780A00000000A8
:101958007230353A203078253038780A0000000097
:101968007230363A203078253038780A0000000086
:101978007230373A203078253038780A0000000075
:101988007230383A203078253038780A0000000064
:101998007230393A203078253038780A0000000053
:1019A8007231303A203078253038780A000000004B
:1019B8007231313A203078253038780A000000003A
:1019C8007231323A203078253038780A0000000029
:1019D800206C723A203078253038780A00000000F0
:1019E8002070633A203078253038780A00000000EB
:1019F80068617264206661756C74206F6E2074680B
:101A0800726561643A2025730D0A0D0A0000000012
:101A180068617264206661756C74206F6E206861FD
:101A28006E646C65720D0A0D0A0000006D61696EC6
:101A3800000000007469646C65000000000001008B
:101A4800020001000300010002000100040001007F
:101A5800020001000300010002000100050001006E
:101A6800020001000300010002000100040001005F
:101A7800020001000300010002000100060001004D
:101A8800020001000300010002000100040001003F
:101A9800020001000300010002000100050001002E
:101AA800020001000300010002000100040001001F
:101AB800020001000300010002000100070001000C
:101AC80002000100030001000200010004000100FF
:101AD80002000100030001000200010005000100EE
:101AE80002000100030001000200010004000100DF
:101AF80002000100030001000200010006000100CD
:101B080002000100030001000200010004000100BE
:101B180002000100030001000200010005000100AD
:101B2800020001000300010002000100040001009E
:101B380002000100030001000200010030313233CD
:101B480034353637383941424344454600000000B1
:101B58000A205C207C202F0A000000002D2052540F
:101B6800202D2020202020546872656164204F7049
:101B780065726174696E672053797374656D0A00C4
:101B8800202F207C205C202020202025642E256406
:101B98002E2564206275696C642025730A00000094
:101BA8004A756C20313220323032320020323030E7
:101BB80036202D203230323020436F7079726967B9
:101BC80068742062792072742D746872656164206B
:101BD8007465616D0A000000284E554C4C290000C0
:101BE800303132333435363738396162636465668B
:041BF80000000000E9
:041BFC003D09000897
:041C0000410900088E
:041C04004509000886
:041C08004D02000881
:041C0C0025020008A5
:101C10000024F4000100000008000020080000205B
:101C200078000000020000001800002018000020CA
:101C300020000000050000002800002028000020EF
:101C4000300000000A0000003800002038000020AA
:041C50002C00000064
:040000050800188552
:00000001FF
