:020000041000EA
:1000000000B5324B212058609868022188439860DF
:10001000D860186158612E4B002199600221596106
:100020000121F02299502B49196001219960352056
:1000300000F044F80222904214D00621196600F024
:1000400034F8196E01211966002018661A6600F04E
:100050002CF8196E196E196E052000F02FF8012189
:100060000842F9D1002199601B49196000215960AB
:100070001A491B48016001219960EB211966A021F2
:10008000196600F012F800219960164914480160C1
:100090000121996001BC002800D000471248134993
:1000A000086003C880F30888084703B5996A0420EC
:1000B0000142FBD001200142F8D103BD02B5186610
:1000C0001866FFF7F2FF186E186E02BD00000240BE
:1000D000000000180000070000035F00212200005C
:1000E000F4000018222000A00001001008ED00E03C
:1000F00000000000000000000000000074B24E7A12
:1001000000200420F7010010C3010010C5010010F9
:10011000C1010010C1010010C1010010C101001097
:10012000C1010010C1010010C1010010C701001081
:10013000C1010010C1010010C9010010CB01001065
:10014000CD010010CD010010CD010010CD01001037
:10015000CD010010CD010010CD010010CD01001027
:10016000CD010010CD010010CD010010CD01001017
:10017000CD010010CD010010CD010010CD01001007
:10018000CD010010CD010010CD010010CD010010F7
:10019000CD010010CD010010CD010010CD010010E7
:1001A000CD010010CD010010CD010010CD010010D7
:1001B000CD010010CD010010CD010010CD010010C7
:1001C00000BE00BE00BE00BE00BE00BE00F04BF888
:1001D000103800BEF2EB8871B8850010D885001089
:1001E0003402001090A31AE700202149086006C8D5
:1001F00081F3088810471F48006800282FD10DA4FC
:100200000ECC002902D000F012F8F9E71A491B4A77
:10021000002000E001C19142FCD1194988471949E9
:1002200088471949884700BEFDE701C901C29A42C3
:10023000FBD37047D8850010C000002000050020C7
:10024000188A00100000042000000420188A001002
:1002500000100420001004200000000070470B482C
:1002600002F0E0FF0047EFF30580C0B270470000E6
:1002700008ED00E0000000D0000500207C12002006
:10028000A51700105D0300106117001057560000FD
:1002900006005250ABB36053707E001006005250FF
:1002A000861C0302807E0010060052505422A29D3C
:1002B000887E001005005250DE65F468188A001030
:1002C000F8B5C0460448054B10B5834203D0044B33
:1002D000002B00D0984710BD00050020000500202D
:1002E0000000000006480749091A8910CB0F591869
:1002F00010B5491003D0044B002B00D0984710BD17
:1003000000050020000500200000000010B5074C8B
:100310002378002B09D1FFF7D5FF054B002B02D026
:10032000044800E000BF0123237010BD0806002030
:1003300000000000D86F0010054B10B5002B03D053
:100340000449054800E000BFFFF7CCFF10BDC046E0
:10035000000000000C060020D86F001070B51920B6
:1003600000F034F8D0231B06802292045A6204F075
:1003700005F8094803F0C4FFD0252D068026B604F1
:100380006E61FA24A400200000F008FEAE61200097
:1003900000F004FEEDE7C046D86F001010B58300F2
:1003A000084A944663441C6840226240C0241440BA
:1003B0008022520113431C60C000034B9C466044E2
:1003C000416010BD04C001400040014010B5012350
:1003D0008340D0221206936293610521FFF7DEFF6E
:1003E00010BD0000EFF3108072B6034B1B68002BAA
:1003F000FBD0BFF35F8F70472C0100D0BFF35F8F3E
:10040000024B00221A6080F3108870472C0100D044
:1004100070B505000E001400FFF7E4FFF208AA18FB
:1004200015780721314001238B402B4205D1DBB2E7
:100430002B431370FFF7E2FF70BD3100200001F085
:100440002DFAF0B583B00700019114001E00FFF7EC
:10045000C9FFB4420ED8E208BA1815780721214026
:1004600001238B402B4201D00134F2E7DBB22B4356
:10047000137001E001246442FFF7C0FF002C02DB8F
:10048000200003B0F0BD019B002BF9D0089801F0CB
:1004900005FA0000034B1B6802201840431E9841D8
:1004A000C0B2704700C00640002307E0054A9A1812
:1004B0009200BFF35F8F0021116001331F2BF5D92C
:1004C0007047C04640000034054A1078431CDBB238
:1004D0001370172B02D9130010221A707047C046F0
:1004E0000804002000B583B00100044B00931F23D3
:1004F00018220348FFF7A5FF03B000BDE46F00100A
:10050000C80A002070B505000C00080000F0D6FDF8
:10051000200000F0BBFE0849200000F0FBFDFFF7C3
:10052000D3FF064B9C466044800068602C75A40095
:10053000034BE55070BDC046510800104000003428
:100540006C0F00200A4B1A68EFF3108172B6136823
:10055000002BFCD0BFF35F8F054B1B68BFF35F8F91
:1005600000221A6081F3108840BF002000217047EC
:10057000880F002010B5002922D003681B7B994208
:100580001ED8174B9C466144090183689C46614410
:100590000C684968002A19D003681B7B9A4215D859
:1005A00083680F488446624412019A1810685368A1
:1005B000020001208B4201D80ED00020C0B210BD35
:1005C000084B094A3B21094801F0CEF8054B064A81
:1005D0003B21064801F0C8F8A242EFD8EDE7C0463B
:1005E000FFFFFF0F187200105870001020730010EA
:1005F00010B500291FD0037B99421CD84B005B1813
:10060000033B0468A446634400291AD0002A1ED084
:10061000914222D0002A26D0047BA24223D804682B
:10062000500080180338201881701978002920D0D4
:1006300041701A7010BD104B104A6921104801F02A
:1006400093F8104B104A70310D4801F08DF80F4BA4
:100650000D4A71210A4801F087F80D4B0A4A7221B0
:10066000074801F081F8044B044A6921044801F06D
:100670007BF81A70DEE7C046707200101870001028
:100680008C720010DC72001024700010E8720010F0
:10069000F472001070B506000D00140000290BD094
:1006A000002A12D0806873689847002806D12A0073
:1006B00021003000FFF79CFF200070BD22002900C0
:1006C0003000FFF795FF2C00F6E70C00F4E7000080
:1006D00070B5CE4600B583B00500009201930AAB19
:1006E0001C780BAB1B789946002C28D003685A7BEA
:1006F000944209D10123002B1BD1002C3DD12000B5
:1007000003B004BC914670BD002C0CD01A7B9442FF
:1007100009D81A6863001B19033BD3189B78002B78
:10072000E9D00123E7E73F4B3F4A69213F4801F009
:100730001BF83F4B3F4A65213F4801F015F803681D
:100740009C7B002CD9D012D01A7B94420FD8620027
:100750001219033A19688C4662445178997300293A
:1007600000D1D9730023937053701370C5E72D4BDC
:100770002D4A69212D4800F0F7FF002C3BD02B6853
:100780001B7B9C4237D82D4BE3181B01AA6894466B
:1007900063440099019A19605A60089A9A60099A0C
:1007A000DA602E68002C2CD031D0337B9C422ED8BE
:1007B00063001B19033B32689446634400229A701D
:1007C0005A701A70717B22003000FFF763FF70735C
:1007D000844200D093E7287D009A019B00F0E2FC60
:1007E000061E02D04B46002B17D00C9B002B00D1CD
:1007F00085E71E7083E7124B124A3B210E4800F03A
:10080000B3FF114B114AA621084800F0ADFF054B7C
:10081000054A6921054800F0A7FF2868210000F07B
:1008200021FFE2E770720010187000108C72001047
:10083000DC7000109070001020730010FFFFFF0F9D
:1008400018720010587000101C73001038700010DF
:10085000F0B5DE4657464E464546E0B58BB00990AA
:100860008200BA4BD7583D00A3E0B94BB94A3F21AB
:10087000B94800F079FFB94BB94A3B21B94800F0BB
:1008800073FF002B02D1002A00D0BCE0002160469B
:1008900000F0DEFEA04219D1326873680692079319
:1008A000B3689946F3689A464B46002B14D0002C47
:1008B00018D02B681B7B9C4214D8631EEA68D35C5B
:1008C00008931B02184328610020A4E0A64BA74A06
:1008D0008C21A44800F048FFA54BA44A9021A148D0
:1008E00000F042FF9D4BA34A40219E4800F03CFF90
:1008F00000239A46994600208DE02B69002B00D1F9
:10090000A9E043451CD1069A079B10001900921BD1
:10091000BB41994202D804D1904202D901225242ED
:10092000D317002B12DB00210491013103910294B3
:1009300051460191494600912800FFF7C9FE30E079
:100940008D4B8A4A9F21874800F00EFF804B814AD9
:100950003F21814800F008FF002F02D1002E00D077
:100960007CE02A68002C00D1C7E0537B9C4200D079
:10097000ACE00123002B00D0BFE0D37B002B00D0E4
:10098000C1E0D473002C00D1D0E02B681B7B9C42CB
:1009900000D9CBE0013CEB689C46644423780133EA
:1009A000237000232B616A68BFF35F8F13608BF3A2
:1009B000108800F08FFB002900DA56E7002300249E
:1009C000069307946A68EFF3108772B61368002BDA
:1009D000FCD0BFF35F8F2B689C465C7B002C87D0DC
:1009E00000D148E71B7B9C4200D944E7634BE618E3
:1009F0003601AB689846464432687368121A8B41D8
:100A0000002B00DC3DE732687368099800F0CAFBF0
:100A100000239A4699466B68BFF35F8F00221A60E5
:100A200087F310884B46002B00D185E0089B1B0202
:100A30002343984651461800C84706000F006A68CD
:100A4000EFF3108B72B61368002BFCD0BFF35F8FEF
:100A5000002F00DA51E7002F00DC7DE72B69002B27
:100A600000D17EE743451FD100F034FB02000B1E8E
:100A700020DB0100180092197B41984202D804D172
:100A8000914202D901225242D317002B18DB0021D8
:100A9000049101310391029451460191494600911C
:100AA0002800FFF715FE7CE7334B304AA2212D4882
:100AB00000F05AFE264B274A3F21274800F054FEFB
:100AC000234B244A3F21244800F04EFE002C0ED038
:100AD000137B9C420BD863001B19033B11688C46A7
:100AE00063449B78002B00D144E7012342E7244B69
:100AF000244A6921244800F037FE244B244AF72178
:100B0000214800F031FE002B0AD0117B8B4207D820
:100B10005900CB18033B11688C4663445C7030E786
:100B2000174B184A6921184800F01EFE0B4B114A5A
:100B300040210C4800F018FE002800D039E70BB027
:100B40003CBC90469946A246AB46F0BD6C0F0020D7
:100B50000471001000700010207100101872001055
:100B600058700010207300106C710010A8700010F5
:100B7000847100106470001090710010FFFFFF0F6F
:100B800070720010187000108C720010CC71001080
:100B90004870001010B50A4B5B68002B04D00A2186
:100BA000084800F093FB10BD054C2300064A1021B5
:100BB000206800F06BFC03212000FFF7A3FCEEE7A8
:100BC0000C040020880F00207505001010B5064B9E
:100BD0005B68002B01D0044810BD044B044A5C2123
:100BE000044800F0C1FDC0460C0400204C72001007
:100BF0007870001020730010F0B5DE4657464E4660
:100C00004546E0B589B0804616001F00129B994604
:100C100014AB1B789A461F236B4400221A7033E0F2
:100C200000280AD042461268127B904205D8421E24
:100C30004146C9688A5C934646E0434B434A40219B
:100C4000434800F091FD32003B00361BAF41BB42F0
:100C500002D804D1B24202D901267642F717002FFA
:100C600012DA3C4B3C4A3F213C4800F07DFD394BB9
:100C7000394A3F21394800F077FD01246442E517E5
:100C8000002D4EDB26002F0043465B68EFF31085F6
:100C900072B61C6862425441E4B2002CF9D1BFF331
:100CA0005F8F1F236B440493002303930293139BD2
:100CB00001934B46009332003B004046FFF708FD8E
:100CC000031EADD10022934641464968BFF35F8FB2
:100CD00000220A6085F31088002B28D01F236B4464
:100CE0001B78002B02D15A4614020443002B20D05B
:100CF0005346002B1DD013992000C84704000D0057
:100D000003000B431DD000299DDB00F0E3F900290F
:100D1000ADDB24184D41A942AFD8B1D1A042AFD923
:100D2000ABE70C4B0C4A3F210C4800F01DFD0124A1
:100D30006442200009B03CBC90469946A246AB46AE
:100D4000F0BD0024F5E7C046187200106470001072
:100D5000207300100471001000700010207100104A
:100D600070B504004268EFF3108572B61368002B6B
:100D7000FCD0BFF35F8FCAB22668737B9A421BD147
:100D8000012000284AD023698B422DD0090AC9B21C
:100D9000002A30D023681B7B9A422CD8531EE0686F
:100DA000C35C8B422DD000206368BFF35F8F0022AD
:100DB0001A6085F3108870BD002A0DD0337B9A42EB
:100DC0000AD853009B18033B3068844663449B78E1
:100DD000002B07D10020D4E7134B144A6921144893
:100DE00000F0C2FC0120CCE78521124B124A4900D9
:100DF000124800F0B9FC124B124A40210F4800F093
:100E0000B3FC1100300000F02DFC0028CCD11221E1
:100E10000D4B094AFF31094800F0A6FC23698B42BB
:100E2000C2D100232361BFE7707200101870001058
:100E30008C720010F0710010C4700010207300104C
:100E4000187200106470001014720010F0B587B0B2
:100E500006000F00FFF707FA00282AD10624644293
:100E6000E517A4197D41BD4202D803D1B44201D98E
:100E700000240025002D1FDB0494059500F02AF9BD
:100E800000291FDB241A8D41002D21DDFFF79EFE76
:100E9000002302930193254B0093049A059BFFF7CF
:100EA000ABFE002831DA3000390000F01FF907B03E
:100EB000F0BD1F4800F0F2FC1E4B1F4A3F211F48A7
:100EC00000F052FC1B4B1C4A3F211C4800F04CFC1C
:100ED000002DE8D1002CD9D1E5E7002300E0002364
:100EE000002BE0D1164B1A68EFF3108172B613682D
:100EF000002BFCD0BFF35F8F114B1B68BFF35F8FDC
:100F000000221A6081F3108820BF0499059A0D4BC6
:100F10005B6A9A42E3D80B48806A884203D29A42BD
:100F2000DBD00123DCE70123DAE7C04645050010EA
:100F30005C7300100471001000700010207100102C
:100F4000880F00200040054070B504000D0000F03F
:100F5000C1F8002910DB02000B00001969418B4227
:100F600002D804D1824202D901204042C11700298F
:100F700008DBFFF76BFF70BD054B064A3F210648B3
:100F800000F0F2FB024B034A3F21034800F0ECFB68
:100F900004710010007000102071001010B5FA22CA
:100FA00092000023002102F0D5FFFFF7CDFF10BD16
:100FB00070B584B005000C00FFF708FE0023029313
:100FC0000193194B00932A002300FFF715FE061E1C
:100FD00012DC164B5B6A9C4209D8144A926AAA42F8
:100FE00008D29C4201D0012002E0002000E0002055
:100FF00004B070BD0120FBE720BFFFF7E7FD310023
:10100000FFF7AEFE094B5B6A9C4209D8074A926A19
:10101000AA4207D29C4201D00120E9E70020E7E77D
:101020000020E5E70120E3E745050010004005400A
:1010300070B5EFF305833F2018401038EFF31084AC
:1010400072B6194B1B68002BFBD0BFF35F8F0123D7
:1010500019008140154A5163154A12781500C540A0
:101060002B4214D0114B5D6A8300124E9B599D4256
:1010700006D38300104D5B598A430D490A7007E07F
:101080000A4A031D9B0099589950002300E0002351
:10109000BFF35F8F044A0021116084F31088002B96
:1010A00000D0984770BDC046280100D000400540E0
:1010B000BB0F0020940F0020B809002010B50100DC
:1010C000024A0348FFF7A4F910BDC046C8730010D8
:1010D000B80F0020044B596A00E01900024B986ACF
:1010E0005B6A9942F9D1704700400540084B5B6A42
:1010F00001E0074B5B6A8B42FBD301E0044B5B6A68
:101100008B4203D1024B9B6A8342F7D37047C046A0
:101110000040054070B504000D00EFF3108672B674
:101120001B4B1B68002BFBD0BFF35F8F002D1CD027
:10113000200000F043FD174B98420BD0190020000F
:1011400000F044FD0121200000F028FD0123A34010
:10115000114A1360A400114BE550BFF35F8F0C4B95
:1011600000221A6086F3108870BDA2000B4B00218C
:10117000D1500122A2400A490B7893430B700549D4
:10118000200000F04DFD0021200000F007FDE4E705
:10119000280100D03110001038600540B809002047
:1011A000BB0F0020F0B5DE4600B584B0050014008A
:1011B00001921E000293FFF78DFF03948E422CD9FB
:1011C000EFF3108B72B6294B1B68002BFBD0BFF3DB
:1011D0005F8F274A17780124AC40E3B23B4313707A
:1011E000244B5C632A1D92000199D150AA00224928
:1011F000029850501B6A23421BD11E4B1B6C23428A
:1012000011D00020BFF35F8F184B00221A608BF3C0
:10121000108804B004BC9346F0BD8E4201D18442D4
:10122000CED80120F5E7154B154AC121154800F02D
:101230009BFAFFF74FFF8E4214D802D1039B8342E3
:1012400010D80B4B1B78BB420ED00A4B1C625C6360
:101250001F222A40012393400B4A1360044B1F7046
:101260000120CFE70020CDE70120CBE7280100D007
:10127000BB0F002000400540940F0020EC730010CD
:10128000AC7300101074001080E200E010B5EFF3B2
:10129000108472B60A4B1B68002BFBD0BFF35F8F24
:1012A00001238340074A136207490A789A430A7068
:1012B000BFF35F8F024B00221A6084F3108810BDC9
:1012C000280100D000400540BB0F0020024B9C4687
:1012D00061448900016070474000003410B504008B
:1012E000FFF7F2F801002000FFF7F0FFFF23237162
:1012F000BFF35F8F10BD10B50400FFF7E5F80100E4
:101300002000FFF7E3FFFF23237100236371BFF386
:101310005F8F10BD034B9C46614489000160BFF3A1
:101320005F8F70474000003410B504000120FFF7C4
:10133000D9F801002000FFF7EDFF10BD10B500291E
:101340001FD0037B99421CD84B005B18033B0468F9
:10135000A446634400291AD0002A1ED0914222D00C
:10136000002A26D0047BA24223D8046850008018AB
:101370000338201881701978002920D041701A7024
:1013800010BD104B104A6921104800F0EDF9104BC8
:10139000104A70310D4800F0E7F90F4B0D4A7121EA
:1013A0000A4800F0E1F90D4B0A4A7221074800F0A3
:1013B000DBF9044B044A6921044800F0D5F91A709E
:1013C000DEE7C04670720010247500108C720010A9
:1013D000DC72001030750010E8720010F47200101A
:1013E00070B506000D00140000290BD0002A12D0A1
:1013F000806873689847002806D12A0021003000D1
:10140000FFF79CFF200070BD220029003000FFF78D
:1014100095FF2C00F6E70C00F4E7000010B5002360
:10142000437301338373037BC3730123027B9A42AB
:1014300014D9002B0CD0027B934209D85A00D21841
:10144000033A01688C4662440133DBB25370EDE726
:101450000B4B0C4A69210C4800F086F9002A09D090
:10146000924207D8016853009A18033A8A18002359
:10147000537010BD024B034A6921034800F074F910
:1014800070720010247500108C72001010B501737A
:1014900042608360FFF7C2FF10BD000070B504001A
:1014A000002901D1080070BD002934D0037B994286
:1014B00031D84B005B18033B0268944663445A786A
:1014C000002AEFD02DD0037B9A422AD853009B18D4
:1014D000033B0068844663445D780020587000290F
:1014E00025D0237B994222D84B005B18033B206810
:1014F00084466344002058702000FFF771FF060007
:1015000029002000FFF7CAFF020031002000FFF78A
:1015100067FF0100C6E7094B094A6921094800F045
:1015200023F9064B064A6921064800F01DF9034BD2
:10153000034A6921034800F017F9C0467072001091
:10154000247500108C72001070B505000C00160098
:10155000002928D02DD0037B99422AD84B005B1854
:10156000033B0268944663445A78002A27D19A784C
:10157000002A2AD11978FFF791FF0300002E03D02B
:10158000EA7B002A27D1EC73002B37D1002C49D0FD
:101590002B7B9C4246D82A6863001C19033C141913
:1015A0000023637070BD224B224A3821224800F08C
:1015B000DBF8224B224A6921224800F0D5F8224B61
:1015C0001C4A3A211C4800F0CFF8204B194A3B2115
:1015D000194800F0C9F8002A0AD0297B8A4207D8A6
:1015E00051008A18033A29688C4662445470CAE74D
:1015F000124B134A6921134800F0B6F8002B0BD0A8
:101600002A7B934208D843001B18033B2A68944660
:10161000634400229A70B9E7084B094A69210948D6
:1016200000F0A2F8054B064A6921064800F09CF834
:101630009875001044750010A075001070720010AD
:10164000247500108C720010DC75001004760010F8
:1016500070B504000A00457B2900FFF775FF607331
:10166000280070BD10B50400002966D0437B8B4272
:101670000ED0002911D0037B99420ED84B005B1885
:10168000033B0268D0188378002B0CD1002055E072
:101690000121FFF7DDFF012050E0294B294A692194
:1016A000294800F061F8002B1FD0227B93421CD800
:1016B0005A00D318033B2268D21813788B421AD0F1
:1016C000002B1BD0227B934218D85A00D318033B1F
:1016D0002268D21853788B4216D0002BF0D11B4BC6
:1016E0001B4A67211B4800F03FF8154B154A69213A
:1016F000154800F039F84378137007E0104B114A91
:101700006921114800F030F843785370002383704A
:10171000437001222000FFF717FF0200617B814226
:1017200005D02000FFF75CFE6073012006E00A4B45
:10173000074A6D21074800F017F8002010BDC04689
:1017400070720010247500108C72001070750010FB
:1017500058750010A07500107875001000BEFDE7E8
:1017600010B5FFF7FBFF000010B582B00C001900A8
:10177000002A0CD0084B002A0BD0019200932300C2
:101780000200064802F0EEFD0120FFF7E7FF044BE0
:10179000F1E7034AF1E7C0462876001038760010DA
:1017A0003476001070B52B4B2B4A1A602B4B2C4A09
:1017B0001A602C4B9A682A4B9343FAD12A4C01E0C9
:1017C00008CC9847294B9C42FAD300F0FDF8234BF4
:1017D000274A1A60234B9B68DB43DB01FAD1254B78
:1017E00040229A675A671A67DA66234C09E0234B4E
:1017F000234A83212348FFF7B7FF2000FFF76EFD40
:101800000834214B9C4209D22368002BF5D0012BD0
:10181000EDD12000FFF76FFD0834F2E71B4CA16803
:101820001B4DC022280002F055FCA560FEF71BFDF1
:10183000002800D000BEFEF737FE00F043FBFFF7A4
:10184000A9F9144C01E008CC9847134B9C42FAD3F9
:1018500070BDC04600E00040BFCDFBFE00F0004080
:10186000FE7F3C0000C00040E8040020F804002097
:10187000FFFFFF0100F00140E00400208C76001023
:1018800068760010AC760010E804002000ED00E05F
:1018900000000020F8040020000500200FB400B56F
:1018A00083B0084802F02CFD049B002B07D005A94B
:1018B0000191180002F034FD034802F021FD0120DF
:1018C000FFF74CFF7876001088760010F0B5DE4602
:1018D000574680B583B007000E0092460A9A93429D
:1018E0004CD3190E01911B02180000930A9A002391
:1018F00001F02EFD05007B00DB199C002D4B9C4662
:1019000064446368834200D260603B1FDBB29B4645
:10191000012B39D9C0239B012343802212011A6075
:10192000BB00254A9958002905D0506901F0CEFC2A
:1019300001300138FDD153465B0122685340E0225B
:10194000134080225201224313605B46012B26D9AB
:1019500080239B012343802212011A6065602A00C4
:1019600000230098019901F0F3FCBF00124BF850DE
:10197000012003B00CBC92469B46F0BD0F4B104AB1
:101980002D211048FFF7F0FE012EC3D1C0239B018B
:10199000234303221A60A368DB07FCD5CBE7216849
:1019A000714003230B401360A3680122B2401A4226
:1019B000FAD0CDE700800040CC0A00200477001068
:1019C000F47600101877001030B583B00C2000F0CA
:1019D00013FBFEF75FFD00280DD0002304E0990003
:1019E0002D4A2E4888500133092BF8D92A4B2C4A0E
:1019F0005A6203B030BD2B4B00229A6700F06AFB9D
:101A0000294B01221A60274B5B6C012BFBD1274B22
:101A100003221A60234B9B6B012BFBD10224009401
:101A20000533234A0121234800F05AFA0094052384
:101A3000214A0121214800F053FA214B0093002252
:101A400002210420FFF742FF1E4D00952B000022CB
:101A500001210520FFF73AFF104C009423000022DB
:101A600000210720FFF732FF00942300002200210D
:101A70000820FFF72BFF0A4B0093230000220021D0
:101A80000920FFF723FF00952B00002200210620EC
:101A9000FFF71CFFADE7C046CC0A0020006CDC025B
:101AA0001BB70000008000403CB0004030B0004058
:101AB000002F68590080024000389C1C00C0024082
:101AC000001BB70040597307074B9B68103080001C
:101AD0001950BFF35F8FBFF35F8F044B0021196074
:101AE00082F310887047C04600ED00E0240100D06A
:101AF00010B5091A04394808090B05D14005400DF5
:101B0000044B184380B210BD034B044A8B21044898
:101B1000FFF72AFE00E0FFFF547900107C770010E9
:101B20006479001010B5091A04394C08090B08D162
:101B30004905490D064A11430180064B2343438062
:101B400010BD054B054A93210548FFF70DFEC04621
:101B500000F0FFFF00F8FFFF5479001088770010B5
:101B60006479001001238340034A10681840431E23
:101B70009841C0B27047C04600E100E0002902D1A0
:101B8000034B18607047034B1860034B1860F9E76C
:101B900080E100E080E200E000E100E010B5012318
:101BA00083401800FFF7EAFF10BD000001238340C7
:101BB000014A13607047C04600E200E0024B9B6898
:101BC00010308000C058704700ED00E070B5040090
:101BD0000D00EFF3108672B60C4B1B68002BFBD088
:101BE000BFF35F8F2000FFF7E9FF094B984201D058
:101BF000A84205D1320029002000FFF765FF70BD23
:101C0000044B054A6E210548FFF7AEFD240100D0C4
:101C1000CD0100101C79001060770010647900106D
:101C2000F0B5CE4600B584B001900D00EFF31086FC
:101C300072B65A4B1B68002BFBD0BFF35F8F584B1B
:101C40009A68019C1034A300D758564B9F4200D18C
:101C50009FE0AF4200D19EE00297534BFB1A2F2B1F
:101C600008D9320039000198FFF72EFF04B004BCF8
:101C70009146F0BD0198FFF775FF03900021019890
:101C8000FFF78CFFBFF35F8FFEF7EDFA002801D05E
:101C900084421AD10123029C9C4344492300424AB6
:101CA0009B1A5B415943090D4BB29C460023A16826
:101CB000A94212D00622A256002A0DDB53009B181F
:101CC0009A002300384CA418F1E71E21384B394AFA
:101CD000FF313948FFF748FD2300A94252D10622BF
:101CE000A2569146002A38DB52004A4491002E4BFE
:101CF0005B189A68A260DA79E27106229A56A2719C
:101D00009B795BB2002B12DABD200002A0804B460B
:101D10005B004B449A00244B9B18284A1178997118
:101D20004B46137003990198FFF738FF99E7201D80
:101D30001D4A8B181A1D9B88D90A1C2907D15905E1
:101D40004915023149005118FFF7D2FEDEE71C4B5E
:101D50001C4A99211848FFF707FD00280DD1002BD8
:101D600009D0FF229A71184A9A80144B1A78A271EE
:101D700062461A70D6E70B4FF7E7201D1349FFF7AD
:101D8000D1FECFE7A921124B0A4A49000A48FFF7C2
:101D9000EBFC044F65E7034F63E7C046240100D026
:101DA00000ED00E0CD01001034040020AAAA0000DC
:101DB000F0780010B077001064790010B90F00209F
:101DC000A4780010A077001000BDFFFF6E04002073
:101DD00014790010F8B50400012606432D4BF31AC0
:101DE0002F2B28D8FEF73FFA00282BD0EFF31087CF
:101DF00072B6294B1B68002BFBD0BFF35F8F274DBA
:101E000022002449521A524155432D0D6DB2244BE4
:101E10009B6880001B58B3421BD00023032B32D891
:101E20005A00D21891001B4A5218927952B2AA4213
:101E30001FD00133F2E778211A4B1B4AFF311B48B0
:101E4000FFF792FCBD211A4B174A49001748FFF7CC
:101E50008BFC134B9B68174A1A50174B1A78A271C8
:101E60001D70BFF35F8F0C4B00221A6087F3108840
:101E7000F8BD08495A00D618B0000818FF26867128
:101E80000E4B8380E9E78C210D4B074AFF31074851
:101E9000FFF76AFC34040020240100D0AAAA000045
:101EA00000ED00E0BC780010C477001064790010E9
:101EB000E4780010CD010010B90F002000BDFFFF35
:101EC000707500100023044A03E0044911600133D7
:101ED0000432072BF9D9704700E400E0808080804D
:101EE000F0B583B00400019117001E000C2001F032
:101EF000EDF905004201121A93019B1ADB001B1831
:101F00009901380001F0E2F90200103A98235B00D1
:101F10009A4232D8731E062B35D8089B013B062BFC
:101F200031D8089B9E4234D33F09AF4237D33304A4
:101F3000089A16031E432368002B36DB244B9C4271
:101F400042D080214901234B1960234B1960234A59
:101F500092680B009343FAD1019B2360A060221D7D
:101F6000C0239B01134321221A602268002AFCDA55
:101F7000E66008221A6003B0F0BD194B194A162119
:101F80001948FFF7F1FB194B164A19211648FFF7BC
:101F9000EBFB174B134A1F211348FFF7E5FB154BCB
:101FA000104A22211048FFF7DFFB22683F2313402D
:101FB000019A9342C2D1A3681B051B0D8342BDD178
:101FC000E368002EBAD1D6E780218901BBE7C0467D
:101FD00000C0024000E0004000F0004000C00040AF
:101FE000B4790010A8790010D0790010147A00108C
:101FF000607A0010787A001080239B001843014B10
:10200000D862704700800540024B1A68024B5A6044
:102010007047C046640F00200080054010B5164B85
:102020008022D2051A60154B154A1A60002918D073
:10203000144BE022D2041A60002817D043011B1A67
:102040009B0018180301104A1360104A934201D9EB
:102050000D4B1A60FFF7D8FF0A4B8022D2051A6099
:1020600010BD054BE022D2041A60E5E7054B802243
:1020700012061A60F4E7C04600B00540082001408F
:10208000FCFF010000A00540640F0020FFFFFF00DF
:1020900010B50C4B8024E4051C60002807D10A4BC6
:1020A0000021D96100211000FFF7B8FF10BD012306
:1020B0000343054C0548E0610548584020626162D1
:1020C000A362EFE700B0054000800540D3C007B031
:1020D0002D3FF84F064BAA2212011A602F22DA6018
:1020E000044B054A1A60024B5B68002BFBDA704711
:1020F000004002400060024000B0FA00704710B596
:10210000002802D00B684968984710BD002307E0FB
:102110009A00D3185A004B1C03600B789B18303B75
:1021200001680A78303AD2B2092AF1D9180070470A
:10213000F0B5D6464F464646C0B582B00500009180
:10214000904601930A9B99460B9C0C9E0D9B9B0706
:1021500012D04E460C9B994618E0541C019B0099E6
:102160002020A84701372200B742F6D354460C96E8
:102170004E460C9B994609E02700A246F4E7013C35
:10218000571C305D019B0099A8473A00002CF6D1FE
:102190004E460D9B9B070AD5474605E0541C019B04
:1021A00000992020A8472200D31BB342F6D3100089
:1021B00002B01CBC90469946A246F0BDF0B5CE4692
:1021C000474680B587B0049205930E9E0F9C10ADD4
:1021D0002B789946129F139B149DAA071CD4002BA1
:1021E0000CD0EA070AD54A46002A02D10C322A420C
:1021F00004D0013B02E0302232550134BC4205D20A
:102200001F2CF8D902E0302232550134EA0703D5F9
:102210009C4201D21F2CF6D9EA0615D56A0505D4D1
:10222000002C03D0BC421CD09C421AD0119A102A18
:1022300023D0119A102A28D0119A022A2DD01F2CAF
:1022400002D83027375501341F2C2FD84A46002A90
:1022500029D16A0737D42A0728D5202737550134D2
:1022600024E0671E002F06D0119A102A01D03C00EE
:10227000DCE7023CDAE73C00D8E7AA06D9D41F2CF9
:10228000D7D8782737550134D9E7AA06D4D51F2CDB
:10229000D2D8582737550134D1E71F2CCFD8622721
:1022A00037550134CBE72D27375501340395029379
:1022B00001940096059B049AFFF73AFF07B00CBC07
:1022C00090469946F0BD2B2737550134EEE7F0B51F
:1022D000C64600B594B0089009910A920B931AABC8
:1022E00010CB1B7898461F9D002C01D110239D43D5
:1022F0008027FF002F4016D0002C20D0002712E0AE
:10230000AA061AD54121C918C9B20A39C9B27E1C18
:102310000CABD9551C99200000F0D8FF041E0FD03B
:102320001F2E0DD837001C99200000F0CFFFCBB234
:10233000092BE5D83033D9B2E9E76121E3E700267C
:1023400006951E9B05931D9B04931C9B039343467C
:10235000029301960CAB00930B9B0A9A099908987B
:10236000FFF72CFF14B004BC9046F0BDF0B5D64684
:102370004F4680B599B00C900D910E920F93209C12
:10238000219D22AB1B789A46249B0A93259B0B9395
:10239000289B994623002B4303D110334A469A4386
:1023A00091468026F6004B461E4007D023002B4363
:1023B00031D0002637004E4609941BE037004E46C8
:1023C000099417E0B20621D54122D218D2B20A3AB6
:1023D000D2B27C1C10ABDA550A9A0B9B09982900E3
:1023E00000F0B6FF09900D000B00034315D01F2C21
:1023F0000ED827000A9A0B9B0998290000F0A8FF25
:10240000D3B2092BDED83033DAB2E2E76122DCE75F
:102410002700B14603E0002701E02700B1464B4604
:102420000693279B0593269B04930A9B039353468D
:102430000293019710AB00930F9B0E9A0D990C9885
:10244000FFF7BCFE19B00CBC91469A46F0BD0000E7
:10245000F0B5DE4657464646C0B592B008900691A4
:10246000099207931A9C1B9D22002B002000290033
:1024700001F0FDF9002800D0EAE001225242D34BDE
:102480002000290001F0EEF9002800D0E0E0012250
:102490005242CF4B2000290001F0CEF9002800D095
:1024A000D6E0002200232000290001F0C5F9002811
:1024B00000D0E3E022002B000A920B938023DB0084
:1024C0001E9A1A409246131E01D106331C930A9895
:1024D0000B9902000B000C920D9303000A000243BB
:1024E00000D1D3E00A00100D4005400DB94EB446AE
:1024F00060441203120B1E00B74B13431F0001F080
:10250000C9F9B64AB64B01F054F9B64AB64B01F0D8
:1025100029F90C900D910022B44B3000390001F0E4
:1025200018F9B34AB34B01F044F902000B000C98C0
:102530000D9901F017F901F0C5F9804601F0AAF9EB
:10254000AD4AAE4B0C900D9101F033F90022AC4B2B
:1025500001F008F901F0B6F90700AA4AAA4B0C9855
:102560000D9901F026F90C900D91380001F092F9C7
:10257000A64AA74B01F01DF902000B000C980D991B
:1025800001F0E7F802000B001090119101F011F931
:102590000E900F919F4BFB181B050D9300230C937E
:1025A000109E119F32003B003000390001F0DAF834
:1025B0001090119132003B0000208021C90501F0EC
:1025C000C8F806000F000022934B0E980F9901F0F7
:1025D000D2F80022914B01F0C5F802000B000E98D2
:1025E0000F9901F0C8F800228D4B01F0BBF80200F2
:1025F0000B000E980F9901F0BEF802000B0030009E
:10260000390001F0AFF802000B001098119901F0A9
:10261000B2F80022704B01F0A5F80C9A0D9B01F066
:10262000C8F806000F000C900D910A9A0B9B01F060
:1026300019F900282CD001235B429C46E04400227B
:10264000764B3000390001F096F80C900D911FE0A8
:102650001E9B04931D9B03931C9B029322002B0043
:1026600000920193079B099A0699089800F002F9D5
:1026700012B01CBC90469A46A346F0BD0A94802333
:102680001B069C46AC4463460B9317E70023984611
:1026900043466333C62B22D804271E9B1B052AD52D
:1026A0000C9A0D9B1900114311D05E4A5E4B0A989B
:1026B0000B9901F0CFF8002800D1BBE000225B4B62
:1026C0000A980B9901F0B8F8002800D1B2E01C9BE1
:1026D000434506DD42469E1A731E1C9303E0052700
:1026E000DBE700231C938023DB001E9A1A431E9213
:1026F0000027002398461D9B9F4200D3A6E0DB1BCA
:102700009B4602231E9A1A40924603D0002F01D006
:1027100000239B464346002B07D00C9A0D9B0A983A
:102720000B9901F028F80A900B9100220023200059
:10273000290001F081F8002800D08AE03C4B1E9A65
:10274000134004935B4603931C9B02930A9B0B9CD0
:1027500000930194079B099A0699089800F08AF85B
:10276000002F00D184E71E9B9B0600D47DE045240A
:10277000451C079B020006992000089CA047404684
:10278000C21781185140C30F7A1E0520059004928C
:10279000002203920A32029201930091079B2A00C1
:1027A00006992000FFF793FD5346002B00D15FE709
:1027B0000200089D099C131B1D998B4257D2561C81
:1027C000079B06992020A8473200F4E7FFFFEF7F20
:1027D000FFFFEFFF01FCFFFF0000F03FFB799F5080
:1027E0001344D33FB3C8608B288AC63F0000F83F2C
:1027F00061436F63A787D23F71A379094F930A4062
:102800000000E03F1655B5BBB16B0240EF39FAFE50
:10281000422EE63FFF03000000002C400000244051
:10282000000018402D431CEBE2361A3F80842E41F5
:10283000FFF7FFFF1C9B002B00D15CE75346002BEA
:1028400000D158E71C9B013B1C9354E700239B4697
:1028500057E70A9C0B9D2200290080200006844631
:1028600061440B000A920B9368E7652480E710002F
:10287000FEE6C046F0B5D646474680B597B006900E
:10288000079108920993209F1E9A1F9B1000190020
:1028900000F0EDFF00282AD101225242BB4B1E98C6
:1028A0001F9900F0C9FF002830D101225242B84BD5
:1028B0001E981F9900F0D6FF00283AD00423229AD0
:1028C000134032D0B34A002B31D103232299039114
:1028D0002199029101930092099B089A0799069801
:1028E000FFF726FC17B00CBC90469A46F0BD229B21
:1028F0000393219B029303230193A74B0093099B0E
:10290000089A07990698FFF713FCEBE7229B0393BD
:10291000219B029304230193A04B0093099B089AE7
:1029200007990698FFF704FCDCE79D4ACBE70423F0
:10293000CCE700229B4B1E981F9900F093FF0028C4
:1029400017D10022984B1E981F9900F075FF0028A0
:102950000FD1002200231E981F9900F06DFF002860
:1029600017D100239A46229B5B0500D47DE0002608
:102970001FE0229B0493219B039302971E9B1F9CA5
:1029800000930194099B089A07990698FFF760FD48
:10299000A8E71E9A1F9B0020002100F0DAFE1E907F
:1029A0001F9101239A46DEE70EAB30229A55013F74
:1029B00001361F2E01D8092FF6D81E981F9900F056
:1029C00081FF040000F066FF02000B001E981F99B3
:1029D00000F0BFFEFA00754B9B181A685B680C92FA
:1029E0000D9300F0E6FE0A900B9100F08FFF0500BA
:1029F00000F04CFF02000B000A980B9900F0A9FEB2
:102A00000A900B9100226A4B00F02CFF00282ED078
:102A10000135280000F03AFF02000B000C980D99D8
:102A200000F010FF002801D001340025002F2CD128
:102A3000200000F02FFF02000B001E981F9900F0ED
:102A400088FE00225A4B0A900B9100F0F5FE0028F8
:102A500041D10022564B0A980B9900F003FF002841
:102A600039D1E30737D5013435E006277FE7002267
:102A70004F4B0A980B9900F0DFFE0028D6D1002DAD
:102A800001D0EB07D2D50135D0E70A941F2E10D81C
:102A9000013F0A21280000F019FC741C30310EABF4
:102AA00099550A21280000F011FC051E25D02600AA
:102AB000ECE70A9C04E00EAA302191551F00013674
:102AC0001F2E02D87B1E002FF5D11F2E03D80EAB70
:102AD0002E229A5501361F2E14D80A21200000F00C
:102AE000CDFB751C30310EAB99550A21200000F04A
:102AF000C5FB041E05D02E00EDE7A0460A9C464605
:102B0000DEE72E000323229A1340012B16D01F2E3E
:102B100006D85346002B28D00EAB2D229A550136ED
:102B2000229B0393219B029301960EAB0093099B7A
:102B3000089A07990698FFF7FBFAD3E6219B002B2A
:102B40000DD05346002B02D10C33134207D0219BEA
:102B5000013B219303E00EAB30229A550136219BB5
:102B60009E42D4D21F2EF6D9D1E7229B5B0704D513
:102B70000EAB2B229A550136D2E7229B1B07CFD5ED
:102B80000EAB20229A550136CAE7C046FFFFEFFF81
:102B9000FFFFEF7F747C0010807C0010847C0010AD
:102BA0007C7C001065CDCD4165CDCDC1907C001001
:102BB0000000E03FF0B5DE4657464E464546E0B5DC
:102BC00095B006000B9115001393002900D1FCE28B
:102BD0000027139B1878002800D1F8E2252809D097
:102BE0007C1C2B003A000B99B047139B01331393C5
:102BF0002700EEE70133139300241DE00B00303B68
:102C0000DBB2092B37D92A293AD000239A46139BE5
:102C10001A782E2A44D000230C93139A1378683B19
:102C2000D9B2122900D980E08B00D049CB589F46F9
:102C300001231C4301321392139A11780B00203B9D
:102C4000D8B21028DAD88300C948C3589F46022357
:102C50001C4301321392EFE704231C430132139209
:102C6000EAE708231C4301321392E5E710231C43D3
:102C700001321392E0E713A8FFF748FA8246C6E74D
:102C80001E9B1A1D1E921B68002B04DB9A46139B89
:102C900001331393BBE7022214435B429A46F6E7E3
:102CA0008022D20014435A1C13925A781300303BEE
:102CB000DBB2092B04D92A2A07D000230C93ACE7F6
:102CC00013A8FFF723FA0C90A7E71E9B1A1D1E926C
:102CD0001B68002B04DB0C93139B013313939CE7BD
:102CE0000023F8E780235B002343511C13915278A3
:102CF0006C2A01D01C0018E0C0239B001C4301314A
:102D0000139112E080232343511C13915278682AB7
:102D100001D01C0009E0C0231C430131139104E0E1
:102D200080235B001C4301321392139B187803002D
:102D3000253BDAB2532A00D93DE293008D4AD3589D
:102D40009F4680239B001C4301321392EDE78023B2
:102D50005B001C4301321392E7E778280AD0582819
:102D60003BD06F283CD062283DD010239C43063BCB
:102D70009C4601E010239C46582837D0692803D090
:102D8000642801D00C229443630501D501229443A9
:102D900069282ED064282CD0A30500D5A5E0E30532
:102DA00000D5BFE0630600D4D2E01E9A111D1E912B
:102DB0001168FF220A400594534604930C9B039329
:102DC000634602930023019300922B003A000B9973
:102DD0003000FFF77CFA07002BE010239C46CBE77E
:102DE00008239C46C8E702239C46C5E720221443DB
:102DF000C4E7A30521D4E30551D4630668D51E9A20
:102E0000111D1E911168FF220A40D317D118594095
:102E1000D20F0594534604930C9B0393634602938D
:102E2000019200912B003A000B993000FFF74FFA06
:102E30000700139B01331393CBE61E9BDA1D07217A
:102E40008A43110008311E91116853689846DB17B8
:102E500010931193109A119B100048400E90190086
:102E6000404641400F910E980F99801A99410E905B
:102E70000F914346DA0F0894534607930C9B069331
:102E800063460493002305930292009001912B0066
:102E90003A000B993000FFF769FA0700C9E71E9A5C
:102EA000111D1E911268D317D1185940D20F0594E5
:102EB000534604930C9B0393634602930192009143
:102EC0002B003A000B993000FFF701FA0700B0E73A
:102ED000230605D51E9A111D1E910023D25E94E78C
:102EE0001E9A111D1E9112688FE71E9BDA1D072185
:102EF0008A43110008311E915368126800920193B1
:102F000000220894534607930C9B06936346049350
:102F1000059202922B003A000B993000FFF726FA37
:102F2000070086E71E9A111D1E91136800930594F1
:102F3000534604930C9B039363460293002301932F
:102F40002B003A000B993000FFF7C1F9070070E73A
:102F5000230606D51E9A111D1E9112681204120C2A
:102F600029E71E9A111D1E91126824E7947A001019
:102F7000E07A0010247B001046281AD01E9B0733ED
:102F8000072293431A0008321E921A685B68009267
:102F900001930494534603930C9B02932B003A0035
:102FA0000B993000FFF766FC0700139B0133139366
:102FB0000FE620231C43E1E7672801D0472802D110
:102FC00080231B011C43452801D0472801D1202321
:102FD0001C431E9B0733072293431A0008321E929C
:102FE0001A685B68009201930494534603930C9B08
:102FF00002932B003A000B993000FFF729FA0700E3
:10300000139B01331393E4E502232340994622D016
:10301000012398461E9B1A1D1E927C1C18782B00BB
:103020003A000B99B0474B46002B1AD1139B013342
:1030300013932700CDE5571C0C9B0B992020A84724
:1030400023003A005C1C9E42F5D8B2461700A04609
:103050002E000C9DDEE701233A000C953500564604
:10306000F0E7220043460C953500564606E0571C13
:103070000C9B0B992020A84723003A005C1C9E4221
:10308000F5D814002E000C9DD0E71E9B1A1D1E9231
:103090001B689B460C9B002B21D1012252425B46B0
:1030A00001E001330A001978002902D0511E002ADC
:1030B000F7D15A469B1A98468023DB002340994655
:1030C00003D00C9B984500D99846022323401293C5
:1030D00007D03A005C4637004E460D951FE00C9A2B
:1030E000DDE73A004346370056460D9506E0551C8D
:1030F0000D9B0B992020B84723002A005C1C9E42A0
:10310000F5D8B2463E00A0465C4637004E4606E083
:103110000C930134551C0D9B0B99B8472A0020785D
:10312000002805D0002EF4D00C994B1E0029EFD1B9
:103130003E0017000D9D129B002B03D1139B013302
:10314000139346E543460C953500564606E0571C5A
:103150000C9B0B992020A84723003A005C1C9E4240
:10316000F5D817002E000C9DE8E7212323431E9A73
:10317000111D1E91126800920593082304930C9B65
:10318000039310230293002301932B003A000B9921
:103190003000FFF79CF80700139B0133139318E5E9
:1031A0007C1C2B003A000B992520B047139B013360
:1031B000139327000DE57C1C2B003A000B99B047B8
:1031C000139B01331393270003E5094E00E5AF423B
:1031D0000CD36A1E2B000B990020B047380015B0A5
:1031E0003CBC90469946A246AB46F0BD3A00F1E79A
:1031F000FD20001000B585B00290039101210093DD
:1032000013004A4202A90248FFF7D4FC05B000BDF2
:10321000FF20001001480421014B184780040020C2
:103220004532001010B5010018231B8814221088A5
:10323000984710BD10B5010018231B88162210886E
:10324000984710BDF0B5C64600B507000E00002532
:103250000123984600E00135B5420AD2AC003C1982
:103260002068FFF7DFFF20600028F4D10023984694
:10327000F1E7404604BC9046F0BD0000124A936F4F
:103280009B0815D29066D166002905D0FFE7FFE7BD
:10329000FFE7516F106F704704B580210906C21710
:1032A0005140002800D0C84303F076FE002104BD41
:1032B000F0B5146E556E576F166FFFF7E3FF146687
:1032C000556657671667F0BD000000D0114A936F2E
:1032D0009B0813D210665166002905D0FFE7FFE76F
:1032E000FFE7516F106F704704B5002801D0002030
:1032F000C04303F051FE002104BDC046F0B5146E7A
:10330000556E576F166FFFF7E5FF146655665767E2
:103310001667F0BD000000D094464E4A926F9208A6
:10332000624601D230E0C046F0B54A4EB56F6D0836
:10333000FCD3346E756E776F366F00F025F89446C7
:10334000444A14665566576716676246F0BDC04624
:103350009446404A926F9208624601D258E0C046B5
:10336000F0B53C4EB56F6D08FCD3346E756E776F5B
:10337000366F00F04DF89446364A14665566576726
:1033800016676246F0BDC046002B24DB11D0002931
:103390003EDA00B5C943404200D1013100F038F8AF
:1033A000C943404200D10131DB43524200D10133D5
:1033B00000BD002AEBD1002801D1002905D0002052
:1033C000C90FC90701D1C043410800B503F0DCFDB6
:1033D0000022002300BD00B500290ADBDB43524276
:1033E00000D1013300F014F8C943404200D101314B
:1033F00000BDC943404200D10131DB43524200D1FC
:10340000013300F005F8DB43524200D1013300BD27
:10341000002923D1002B18D1002A0CD0BC460D4F17
:1034200038667A6600210023FFE7FFE7FFE77A6F3F
:10343000386F67467047002801D00748010000B583
:1034400003F0A2FD0022002300BD02000B000020BB
:1034500000217047000000D0FFFFFFFF002B00D0CD
:10346000BFE0130C28D1002AE7D080B4114F396691
:103470007A66FFE7FFE730B4040C7B6F396F1B04FB
:1034800023433B667A66FFE7FFE7FFE7C04684B267
:103490007B6F3D6F1B0423433B667A66FFE7FFE7C4
:1034A000C04600232C042D0C7A6F386F0019694137
:1034B000B0BC7047000000D0F0B594460025140E53
:1034C00001D112020835140F01D112010435940FF5
:1034D00001D192000235D40F01D152000135D40B35
:1034E0000134254F7C66254C3C660E0C93B2FFE7F9
:1034F000FFE7FFE73C6F6643360C7703BE46734336
:10350000DF0B5B04C01AB941130C7343DB18C91AF3
:10351000CE086643360CB64493B273431F0F1B01AB
:10352000C01AB941130C73431F0B1B05C01AB941D4
:10353000860D8F023E436643360C092D24DB520A6A
:103540007243801A7703460A6643360C16235B1BC8
:10355000DE40DF40BF1964466643821B7046043577
:1035600006330100D940A840C01900D30131A2425E
:1035700006D20023F0BD0000000000D0FFFFFFFFD7
:10358000121B0130F3D3F1E709277F1BFE4064468D
:10359000A2B27243801A00D20139220C7243130C7A
:1035A0001204821A99410B0070460435133701004A
:1035B000F940A840801900D30131002B02D1A2426A
:1035C0000AD2F0BD013000D30131121BFAD2013B07
:1035D000F8D1A24200D2F0BD013000D30131121B5C
:1035E000F7E7F0B51C0C00D080E00CB400251C0AF5
:1035F00004D11B02160E3343120208351C0B04D1F2
:103600001B01160F3343120104359C0B04D19B00A0
:10361000960F334392000235DC0B02D192185B41C6
:1036200001351C00971864410134464F7C66464CB6
:103630003C660E0CFFE7FFE7FFE7C0463C6F6643C2
:10364000360C7703BE4697B27743C01B00D20139D0
:10365000C01B00D201399FB27743C91BC91B170C8D
:1036600077437E04FF0B801BB941CE086643360CBE
:103670000C2D33DBB644120B1F053A431B0B97B2DC
:103680007743C01B00D201399FB27743C91B170C87
:1036900077433E043F0C801BB941860D8F023E43A9
:1036A000664329277F1BFE400C3D7746AF40BF197C
:1036B00030BCA2B2ABB272437343801A9941220C60
:1036C0007243130C1204801A994102000B00013757
:1036D000001BA941F9D2781E0021F0BD0C277F1BE9
:1036E000FE4077467F0BAF40FF19E0E700245D1CEA
:1036F00007D0144F7D663966FFE7FFE7FFE7FFE776
:103700003C6F95B29EB265436643401BB141150CB8
:103710001E0C6543664336042F0C3E432D04401BAC
:10372000B141994204D202000B0020000021F0BDFB
:1037300001D19042F7D3801A994101349942F2D3D2
:10374000F6E70000000000D0FFFFFFFF48404140C7
:10375000484018B41B4B5B68FC46019308BD04DF6E
:10376000273A001018B4174B1B68FC46019308BD9C
:1037700000DF313A00109446134A926F920809D242
:10378000624618B40F4BDB68FC46019308BD0CDFA2
:10379000E93C00100C4AF0B5146E556E576F166F69
:1037A0006246FFF7EEFF084A1466556657671667CC
:1037B000F0BD18B4034B9B68FC46019308BD08DFBD
:1037C0008D3B0010BC0F0020000000D0FFB5504022
:1037D0004240504059404B40594000E0FFB5154F22
:1037E0004C00640D03D0BC4204D10C0314D800205B
:1037F000090D09055C00640D03D0BC4204D11C0313
:103800000AD800221B0D1B0501264B4009D44B4052
:1038100003D58B4200D18242FFBD9942FCD1904238
:10382000FFBD0B43DB1803431343F5D0C9434918CD
:10383000FFBD0000FF07000000B5FFF7CFFF80418C
:1038400000BDC04600B5FFF7C9FF01D9002000BD8B
:10385000012000BD00B5FFF7B9FF01D9002000BD70
:10386000012000BD00B5FFF7B1FF804100BD012080
:1038700040054A00121804D85A00121801D8002036
:103880007047012070470020704700000021002889
:1038900005D17047C1174840401AFAD0C90713B57F
:1038A000064B1B6898470CBC441CA2401005120B29
:1038B0000349091B09051943114310BD840F00205A
:1038C0001F04000010B54C00620D8023D218DB00ED
:1038D000D21A5B057E2A10DD9E3A13DACC17090353
:1038E000490819435242D140640001341532202A5C
:1038F00005DAD0400843604310BD002010BD0846E3
:10390000604310BDC80FC018013810BD18B4044B77
:103910005B6AFC46019308BD24DF993E001000005D
:10392000BC0F002070B513231C78012C14D0012C7F
:1039300014DC022C02DC1F4A1F4B9A641F48FFF75D
:1039400071FC1F4B186070BD99001A481A4A8850C4
:1039500001331F2BF8D9EAE70023FAE71948FFF7EC
:1039600069FC05001848FFF765FC023803789B00E6
:103970007F2B19DD802229000F4800F0ABFB022CC1
:10398000D7D1124B1A88B5231B029A4209D1104B8A
:103990001A88104B9A4204D10F4B1A880F4B9A4247
:1039A000C7D00020FDF77AFF0D4B0E4A32210E489A
:1039B000FDF7DAFEED390010BC0F00204C3300009B
:1039C000840F002053440000534600005438000088
:1039D000D8380000494600009C38000059460000D5
:1039E000E07C00108C7D0010407D001007B5604623
:1039F000002800D100BE01880A0A0230DF2AFAD16D
:103A0000C9B2820804D3028840880004104300E051
:103A10000068024A5050039007BD0000BC0F002010
:103A20000FB403BC0CBCF0B50124E407634000E014
:103A3000F0B50C0DCF0F661E3605891B640503D348
:103A4000C943404200D30131640D03D0661CF60A1D
:103A500007D0E41B00207F00791C89078912803C75
:103A600024031D0DDF0F6E1E36059B1B6D0503D352
:103A7000DB43524200D301336D0D03D06E1CF60AB6
:103A800007D0ED1B00227F007B1C9B079B12803D13
:103A90002D032F1B661B58D4A446202E46DA203750
:103AA0001400BC401D00BD40F24033412A43801841
:103AB0005941CB0F05D0C943C04300226442504155
:103AC000514162464D0D28D10D0D07D100281FD060
:103AD000241940414941013A0D0DF9D0640006D343
:103AE000013000D30131002C01D140084000013ADF
:103AF0000BD4941CE40A04D112051144DB071944C9
:103B0000F0BDD907204B194300E0D9070020F0BDD4
:103B10000029DDD1002CDBD1F0BD0132C607400801
:103B2000CD0728434908002EE1D0D9E73C2E29DAF9
:103B3000203E40371400BC4000D00124F240144322
:103B40001A00BB401C43D317ACE7AC46202F08DA61
:103B500020360400B4400D00B540F84039412843F8
:103B6000A5E73C2F0CDA203F40360400B44000D0DB
:103B70000124F84004430800B1400C43C117EAE7B0
:103B800010001900002494E70000F07FF0B50C0D40
:103B9000661E3605891BE60A6405640D02D0651CA5
:103BA000ED0A04D0002001210905803C2403A4462D
:103BB0001C0D671E3F05DB1BE70A6405640D02D080
:103BC000651CED0A04D0002201231B05803C240360
:103BD0007740644497B484B296B27443070C7E4332
:103BE000150C6F4380B26843361802D301200004DD
:103BF0003F183004350C00197D41844688B29AB2D2
:103C000050430C0C62431F0C7C438EB27E439219CE
:103C100002D301263604A4191604170C361867417E
:103C200001BC81B29AB25143040C62431B0C5C4349
:103C300080B25843121802D3012000042418100443
:103C4000130C401863412D185E410020474106BC0B
:103C500088B293B258430C0C6343120C544389B29C
:103C600051435B1802D301210904641819041A0C8A
:103C7000091862416D1856410020474118BCF902ED
:103C8000720D1143F0026A0D1043ED020A0D03D1CB
:103C90006D1940414941013B124E9B1B7600B342D6
:103CA0000ED26D0007D301300026714166463543C0
:103CB00001D1400840001B05C918E4072144F0BDAC
:103CC0000BDA013306D1013004D101314F0D01D09F
:103CD0004908F2E7E1070020F0BD01363105002078
:103CE000EBE70000FF030000F0B51C0D671E3F0569
:103CF000DB1BE70A6405640D02D0661CF60A04D0DB
:103D0000002201231B05803C2403D0252D0600261C
:103D1000F6432E661E096E66CE0FF619B4464900AC
:103D20004F0D02D07E1CF60A03D000200021403F38
:103D30003F033E1BB600B444013F7F05C91B490841
:103D40002E6F013676089C02950D25437543ED13C1
:103D50007543AD1301356D10F603761B0CB4CC0220
:103D6000450D2C43A2B2B3B25A43270C7B43350C0A
:103D70006F43A4B26C431B1902D3012424043F19DE
:103D80001C041D0CA4187D4124196D41009A91B2A8
:103D9000ACB26143170C7C432B0C5F4392B25A4385
:103DA000A41802D301221204BF182204230C5218B3
:103DB0007B41019C6C431B19520ED9010A434401FB
:103DC000A01A81B2B2B2514303145A43360C734362
:103DD00087B27743D617D21900277E4136049B1944
:103DE0001704160C7F185E417316ED18F3010026B8
:103DF00080337541A90F06D16400690AE8055B0AA2
:103E0000184309D22FE00422944480337541A90A53
:103E1000A8059B0A184326D3404149412404009A2F
:103E2000019B0D005543641B4343E41A95B286B2CF
:103E30007543170C7E43030C5F4392B25A43B61886
:103E400002D301221204BF183204330C52197B41F1
:103E500052429C41002C02D40022013051414008C2
:103E6000CA071043490802B06246D7079210084BB0
:103E7000D218084B9A4203D212058918C919F0BD0D
:103E80000020002A01DC3900F0BD01331905F5E7F7
:103E9000FD030000FE070000002200B5203200F004
:103EA00004F8080000BD000000220B150AD410B56C
:103EB000944600F031F81414013400DA0021CB17D5
:103EC000144C20470020002170476244343A0CD43F
:103ED0000C2A07DA04009140904052422032D4402C
:103EE000214310BDD843D94310BD203207D40C461E
:103EF0009440524220321141D040204310BD08006E
:103F0000C917203203D452422032104110BD18008C
:103F1000190010BDCB3E00100A0DCC0F531E1B051F
:103F2000C91A520503D3C943404200D30131520D8F
:103F300003D0531CDB0A07D0121B00206400611C55
:103F400089078912803A1203014BD21A7047000088
:103F5000FF03000051434343C9188C46110C83B240
:103F60004B4310B4040C614392B280B2504362439D
:103F70001C041B0C001910BC59411304120CC0186E
:103F8000514161447047000070B513231D782A48E1
:103F9000FFF750F90400012D11D0012D09DDA31EFA
:103FA0001B789B007F2B40DD80222100234800F0FE
:103FB00091F82348FFF736F9224B186070BD542260
:103FC00001001E4800F086F81F4B1A881F4B9A42CA
:103FD0001CD1A7239B011A881D4B9A4216D11D4B59
:103FE0001A881D4B9A4211D11C4B1A8894239B01AD
:103FF0009A420BD11A4B1A881A4B9A4206D11A4B85
:104000001A681A4B9A4201D1152307E01848FDF7A8
:1040100045FC99001748094A885001331F2BF8D9ED
:10402000144A064B1A62DA61B7E7134B134A42216E
:104030001348FDF799FBC04653460000BC10002012
:104040004C330000840F0020EE290000C40F000054
:10405000C20D0000962B0000C0B50000182B000018
:10406000CC2A000010B50000FC2C000051ED876444
:104070003476001085400010A07D0010207E0010D6
:10408000D47D001007B56046002800D100BE01882D
:104090000A0A0230DF2AFAD1C9B2820804D30288A0
:1040A00040880004104300E00068024A505003902A
:1040B00007BD0000BC10002001480421014B184737
:1040C0009004002045320010014B1B681847000087
:1040D00090040020014B5B6818470000900400200A
:1040E00010B50C00036811002000984710BD0000B7
:1040F000F8B506000D001700437C002B23D10368A0
:10410000110028009847F8BD337C10E002211748C1
:1041100033689847601C0134BC4217DA002CF3DD89
:104120002B19013B1B780D3B5A425341DBB22A5DF0
:104130000A2AF0D1002BEED1A042E7DA211A281882
:1041400033689847E2E700240020E5E7B84203DA45
:10415000391A281833689847002FD4DDED19013D2E
:104160002B780D3B5A4253413374CCE7947E0010B8
:1041700070B505000368002B16D00C4B1C6805E0D9
:10418000291D2A682000FFF7B3FFE468002C09D03E
:104190002368002BF9D0064B1B68002BF0D0A342FC
:1041A000F3D1EDE700232B6070BDC0465C0B00200F
:1041B000600B002070B505000C000B68802B05D04B
:1041C00023685A1C2260E418257170BD0800FFF7AF
:1041D000CFFFF5E710B582B0D0231B0600241C5793
:1041E00001A9074802F0E0FE002806D1019B9C428D
:1041F00003D0034802F0E8FE012002B010BDC04623
:10420000E004002010B5024802F0B6FE10BDC04622
:10421000E0040020F0B5C64600B584B001900D0062
:1042200016001C00FFF7D6FF80466B1C05D0002C43
:1042300008D0194F194B1C6814E0019802F05EFE7B
:104240000500F4E7164FF5E72A0001992000B8476A
:10425000002E06D002ABD91D0A230B7001222000CC
:10426000B847E468002C09D02368002BF9D00D4B27
:104270001B68002BE8D0A342F3D1E5E74346002BAF
:1042800006D1681E8541E8B204B004BC9046F0BD7A
:10429000FFF7B8FFF5E7C046E14000105C0B0020D7
:1042A000F1400010600B00200C4B1A681300002B2B
:1042B0000BD0834202D01A00DB68F8E7002903D153
:1042C000DB68D3600023C36070470029FCD0002A5C
:1042D00001D0D060F8E7014B1860F5E75C0B0020D7
:1042E00010B5064B1C6800E0E468002C04D063683D
:1042F000002BF9D09847F7E710BDC0465C0B0020B3
:1043000070B5050002F0FAFD04000023012201004F
:104310002800FFF77FFFFFF7E3FF200070BD0000DC
:1043200070B5A2B004000E00FFF754FF0500842210
:10433000002101A8FFF7C8FE3300220001A90848A8
:10434000FEF758FF040001A8FFF712FFFFF7C8FFB0
:10435000002D02D1200022B070BDFFF753FFF9E716
:10436000B54100100FB400B583B004A901C9019193
:10437000FFF7D6FF03B008BC04B0184710B500F033
:1043800035F910BD70470000014B00221A707047CC
:10439000BA0F00204B79FF2B01D0002070478B799A
:1043A000002B0DD1CB79012B01D00020F6E7082A94
:1043B00001D80020F2E78A78024B1A700920EDE755
:1043C0000020EBE7BA0F00200120704770B50029EC
:1043D0002BD1117953791B020B43154909788B4274
:1043E00001D0002022E05378012B03D0022B15D0FE
:1043F00000201BE09178D3781B020B43DA0503D52C
:104400005A0A0125954000E000257F241C400948F8
:10441000FEF708FF030021002800984764220021CE
:104420000020FDF735FE012000E0012070BDC046F0
:10443000BA0F002055420000012303700048704766
:10444000987E001010B50B784A7812021A438B78C8
:104450001B041A43CB781B0613439622D2009342C7
:1044600000D010BD0348FEF7DDFE03000021080068
:104470009847C0465542000030B583B004000D0097
:1044800001A9184802F090FD002808D1D0231B068E
:104490001B68019A9A4221D0124802F095FD002033
:1044A00001F01EFE002807D1032464420D4802F0EB
:1044B00063FD200003B030BD002001F033FE002872
:1044C00002D103246442F1E72A002100002001F018
:1044D00037FE041EEAD103246442E7E70324644262
:1044E000E7E7C0468C0F002010B50021054802F018
:1044F0005BFD002800D110BD01F088FB014802F0EF
:104500003BFDF8E78C0F0020F0B5C64600B582B041
:1045100080460D0001A92E4802F046FD002808D172
:10452000D0231B061B68019A9A420FD0284802F03C
:104530004BFD002001F0D4FD002847D1254B002081
:10454000002118605960224802F016FD02B004BC38
:104550009046F0BD01F05AFB002001F005FE00205E
:1045600001F0BEFD0028EED0002001F07FFE002803
:104570001DD0AC42E7DA2E1B002001F077FE864208
:1045800000DC30000028E5D0434619190200002065
:1045900001F050FE060001F039FB002001F0E4FDBF
:1045A000A419FCF797FD0B4B18605960E1E7FCF785
:1045B00091FD084B1E685F68074A002392197B41F2
:1045C0009942C0D8D5D19042D3D9BCE70024D0E7D6
:1045D0008C0F00200006002020A1070010B51F202E
:1045E000FDF7E4FAFA208000002110BD70B584B018
:1045F000234B1B7802F076F822491F20FDF7E6FADC
:1046000001211F20FDF7CAFA1F48FCF767FEFCF7DF
:10461000DDFA0400FCF75EFD002920DBFA2292009F
:10462000002312184B41994202D804D1904202D97A
:1046300001225242D317002B17DB012102910021E6
:104640000191124900912000FCF7D6FA0400631E84
:104650009C41E4B200280ED1200004B070BD0C4B88
:104660000C4A3F210C48FDF77FF8094B094A3F21CE
:104670000948FDF779F801210848FFF715FEEBE737
:10468000D4850010E94400108C0F0020DD45001097
:1046900004710010BC7E001020710010A0040020E6
:1046A00000487047687F001000487047147F001072
:1046B00010B50400144B1B78002B0DD0002C10D12A
:1046C000124B134A5A80012301335B00C02292002F
:1046D00013430E48038010BD11210B4802F0BEFBAE
:1046E000ECE7052C0ED8A4000A4BE4580023122B4B
:1046F000EAD8E25C002AE7D001335900034842526D
:10470000DBB2F4E70020E6E7A40F0020340B002022
:10471000090400007C7F00107F230340C209580079
:1047200080184001014BC0187047C046640B002040
:1047300010B582B001AB00221A7080325A7000248A
:1047400006E001AB185DFFF7E7FF0123C3700134FA
:10475000012CF6D902B010BD10B5838B3F333F2238
:104760009343022915D0124C2268C260D3182360EB
:104770009C0610D10F4C6240634080246401A34228
:104780000FD88906114380231B061943436819601B
:1047900010BD5B00E7E7084B084A54210848FCF7C6
:1047A000E3FF084B054A56210548FCF7DDFFC046EC
:1047B000680F002000001050F47F0010947F00105C
:1047C000248000107C800010F8B505000E00140055
:1047D000FFF7A2FF7F232B40EF0985707A427A41D1
:1047E00042700022C27086838477012F15D0DA00D0
:1047F00012498C4662448260826800211160002B5D
:1048000011D0012F13D0013BDB000D4A94466344C5
:1048100043602100FFF7A0FFF8BDDA0009498C468C
:1048200062448260E8E74360074BC360F4E7013B02
:10483000DB00064A944663444360EAE78400105074
:104840000C00105080001050000110500800105053
:1048500010B5002308E00133DA00002108481150A8
:10486000844662445160DBB20E2BF4D9F0229200F0
:1048700000210448FFF728FC034B044A1A6010BDCE
:1048800000001050A40B0020680F00208001105081
:10489000F0B5CE46474680B583B01D4B9F6D0024D2
:1048A000012603E0B74376000134E4B2002F29D09B
:1048B0001F2C27D83E42F6D0164B9E6563089946BA
:1048C0000123634001221A4090464B465D00454457
:1048D0006D01114BED18280000F0AAFA0028E1D074
:1048E0004B465B0043445B010B4AD3189A8A997884
:1048F000012300930023002000F012FE280000F0A6
:1049000007FACFE703B00CBC90469946F0BDC0460D
:104910000000115000301150640B002070B52A4A7D
:104920009823D458E3030BD40025E30616D4E304FC
:1049300019D4630429D4230433D4A5423ED170BDD5
:10494000FFF7F6FE01222149002000F0CFFD204BA9
:10495000802292021A6580256D02E6E710231D432E
:10496000FFF796FFE3E780235B011D43164B002210
:104970001A60FFF76DFF01220021002000F0A0FD6A
:10498000134B802212031A65D3E78023DB011D43FA
:1049900001220421002000F07FFD0D4B10221A653A
:1049A000C9E780231B021D4301220521002000F0DE
:1049B00073FD074B802212011A65BEE72900614092
:1049C0000448FCF76BFFC046000011500000105077
:1049D00000301150BC80001070B50C001500FFF7BE
:1049E0009BFE2A00210000F0FFF970BD10B50028E1
:1049F00004D101210520FDF7D1F810BDB921034BE9
:104A0000034A49000348FCF7AFFEC046B0800010DF
:104A1000B47F00102480001010B5002805D10022BA
:104A200000218020FFF7D8FF10BDBF21024B034AB1
:104A300049000348FCF798FEB0800010C47F0010C6
:104A400024800010024B80225202DA647047C04674
:104A50000020115070B5051E25D100F033F9154C1A
:104A60000C23A36714490520FDF7B0F8402200216C
:104A70001248FFF729FB002240210020FFF7A4FE87
:104A8000002240218020FFF79FFEFFF7E1FE012377
:104A9000236480239B05E3649023094AE2502800A5
:104AA000FFF7D0FF70BD4E21064B074AFF31074884
:104AB000FCF75AFE000011501D490010640B002045
:104AC00010D00100B0800010A87F001024800010DA
:104AD0000B785B0602D14B78052B00D070478A78A3
:104AE000014B1A60FAE7C0460000115010B50C00E7
:104AF00000280DD109796279072313401B0219435D
:104B0000E2789207920FA078FFF75EFE012010BDB9
:104B1000D621034B034A49000348FCF725FEC04653
:104B2000B0800010D47F00102480001010B5FFF773
:104B30008FFE10BD10B50C001100002805D11A0021
:104B40002000FFF749FF012010BDBC21024B034AA2
:104B5000FF310348FCF708FEB0800010E47F00102E
:104B60002480001010B54B0605D1CB09012B0BD0CA
:104B70000222064B9A660800FFF7CEFD8022120142
:104B8000002100F0CBF810BD0122F2E70020115007
:104B900010B54B0600D110BD0800FFF7BDFD002386
:104BA000C3700022014900F0B9F8F4E7FFF7FFFFF6
:104BB000F8B504000F00438A828B1E1C934200D973
:104BC000161CB6B29B1B63828025ED003543E3784B
:104BD000002B13D080229201154301225340E37031
:104BE0006378002B0CD0638A002B02D18023DB0179
:104BF0001D43002F00D02D042800F8BD0022EBE754
:104C0000B801E3689C4660443200A169FFF762FA8C
:104C1000A3699C466644A66180231B021D43E2E70C
:104C200070B5040083681B68002900D01B0C9D052B
:104C3000AD0D6278002A11D11B0409D4A38A5B1937
:104C4000A382A38BAB4201D900236382280070BDED
:104C50000E4B0F4AD7210F48FCF786FD1B040ED5DB
:104C60008901E3689C4661442A00A069FFF732FA93
:104C7000A38A5B19A382A3695B19A361E1E7064BD1
:104C8000034ADE210348FCF76FFDC0466C8100102B
:104C9000D08000108C810010E481001010B5040059
:104CA00083681B680021FFF7BBFF63681B685B001C
:104CB00002D5A38B834200D010BD01212000FFF755
:104CC000AFFFF9E710B580235B040C4A13600C4A70
:104CD00013600C4B9A6880235B049343F9D10A4C10
:104CE0009C2200212000FFF7EFF9802252010021D1
:104CF0000648FFF7E9F90923636710BD00E00040AB
:104D000000F0004000C000400000115000001050B2
:104D100000230374438283828361704710B50029A6
:104D200002D083681B681940002A0FD01143530535
:104D30000CD5826813685B050BD40B4B0B401360DA
:104D4000FFE7FFE7FFE7FFE7FFE7FFE7836819609B
:104D500010BD83787F211940DB099B00034A9A58D4
:104D60000348FCF79BFDC046FFFBFFFFB404002097
:104D7000E080001070B5040043681E680021FFF752
:104D800017FF80256D010543144B1B6C9B0704D452
:104D9000A378DB0914D1013300E00023628A002AE2
:104DA00001D0002B0ED00E4B1E4080239B053343B9
:104DB000626813602A0000212000FFF7AFFF70BD7A
:104DC0000023EBE701212000FFF7F2FE0543054B2E
:104DD0001E40A023DB053343EAE7C0460000115024
:104DE000FFFFFFAFFFFFFFDF70B504000D001600EF
:104DF000037C002B09D166820023A3820133237434
:104E0000A5612000FFF7B6FF70BD83787F211940B0
:104E1000DB099B00044A9A580448FFF7A3FA2000D4
:104E2000FFF776FFE7E7C046B40400202C810010AE
:104E300070B50400057C002D06D0FFF72FFF638AB4
:104E4000002B08D1280070BD81787F231940044AC7
:104E50000448FCF723FD2000FFF78CFF0025F1E755
:104E6000B40400200081001070B50500002411E09A
:104E7000E31ADBB2002B07D15A00D318DA00174B24
:104E80009B1802E02300F5E700235B6828009847A1
:104E90000134E4B2124B1B785A1C94420BDA114ACB
:104EA000002AEFD0A342E3D962001219D1000E4BC1
:104EB0001B685B18E9E70D4C532200212000FFF727
:104EC00003F9E01C1022FF21FFF7FEF82000133049
:104ED0002022FF21FFF7F8F870BDC04624830010A0
:104EE000B50F002039440010240600205C09002082
:104EF00010B5FFF7B9FF01F031F810BD70B505002E
:104F00000C001600C86801F033F8E3683200002195
:104F10002800984770BD0000F0B5DE46474680B5D2
:104F200085B003900139C8B2FFF7BEFB002802D05C
:104F30004378022B0AD0574A57495848FFF712FACC
:104F4000002005B00CBC90469B46F0BDC5796B11A6
:104F50000122534C1340190123781026B343AD119D
:104F60002A4052010B4320218B4313432370070037
:104F700009378278C3781B0213438046984467E060
:104F8000FB789B463B78FF1869E0464A4249434814
:104F9000FFF7E8F90020D4E7E31ADBB2002B07D1D2
:104FA0005A00D318DB00404EF61802E02300F5E764
:104FB0000026019A39000398B568A847050008281B
:104FC00002D9019B834213D20134E4B20294374BDD
:104FD0001B785A1C944235DA354A002AE6D0A3429F
:104FE000DAD963001B19DB00324A1668F618E0E7CD
:104FF0005B46012B01D000220BE0B2682E4B9A4297
:10500000F9D102239B46F6E72549CB18DC70013223
:10501000D2B293450ED9BB789B18DBB22049C91890
:10502000C978FF29F0D0254A1B491C48FFF79AF997
:10503000002086E71A4823002A003900133001F0C7
:10504000BFFB7F19194B1B780133029A9A420FDA82
:10505000474515D27B780B2B92D001239B467B785A
:10506000042B92D14346DE1BB3B201930024ADE77B
:10507000F322920008490948FFF774F9002060E71D
:105080000F4B002B03D000E000BF012059E70120A7
:1050900057E7C0467B030000C48200103C83001029
:1050A0005C0900209603000024830010B50F002047
:1050B000394400102406002085630010BD03000061
:1050C0000000000070B504000D008B78C878000265
:1050D0001843020AC0B20F2A55D893003049CB5862
:1050E0009F46FFF7DDFA020012232900200000F09E
:1050F000E3FE70BD2B4B002B47D000E000BF020049
:105100008178C3781B020B432900200000F0D4FEF5
:10511000EFE7022A10D0244B002B38D000E000BF6C
:1051200000280CD08278C3781B02134302002900A8
:10513000200000F0C1FEDCE7FFF7B6FAF0E71B4AFB
:105140001B491C48FFF70EF90020D2E72B7969793B
:1051500009021943FFF7ACFA00281AD003780200BD
:105160002900200000F0A8FEC3E7134B002B12D04B
:1051700000E000BF002810D00378020029002000C2
:1051800000F09AFEB5E70020B3E70020B1E7002069
:10519000AFE70020ADE70020ABE70020A9E7C0465D
:1051A0000482001000000000000000001404000051
:1051B000D88200103C83001000000000024B587899
:1051C000431E9841C0B270475C090020024B18781A
:1051D0004007C00F7047C0465C090020014B18789B
:1051E0007047C046B60F002070B50500284B1878F0
:1051F000002800D070BD532200212648FEF764FF2E
:10520000254C2000FCF76AF8244B1C60244C20003D
:105210001C30FCF789F8200001F0D4FD214B1C6004
:10522000214B002B04D02148FFF706F9204B1860D2
:10523000002410E0E31ADBB2002B07D15A00D31888
:10524000DA001C4B9B1802E02300F5E700231B68E3
:1052500098470134E4B2154B1B785A1C94420BDA80
:10526000114A002AF0D0A342E4D962001219D100F9
:105270000F4B1B685B18EAE72800FFF7EBFB2800E1
:10528000FFF7B4FB024B01221A700120B2E7C046BF
:10529000B60F00205C09002014090020B00900208E
:1052A000BC040020B409002039440010B50F0020D0
:1052B000240600202483001030B585B00400437814
:1052C000032B00D18BE02DD9042B5DD0052B00D012
:1052D000B8E06D4B1B78DB075AD56B4A1378042175
:1052E0008B431370694B1D68EA69EFF3108172B646
:1052F0001368002BFCD0BFF35F8F296221002800C8
:1053000001F025FDEA692B6ABFF35F8F0021116070
:1053100083F3108800283BD1A8225D495D48FFF740
:1053200021F835E0022B00D08CE0574B1A78012190
:105330008A431A701A7801318A431A7000225A700F
:105340001A7802318A431A70504B1D68EA69EFF3EC
:10535000108172B61368002BFCD0BFF35F8F2962F7
:105360002100280001F0F3FCEA692B6ABFF35F8F8C
:105370000021116083F31088002809D1A822444934
:105380004448FEF7EFFF03E03F4B1B78DB0701D4F7
:1053900005B030BD3C4A137804210B4313703B4BDE
:1053A0001D68EA69EFF3108172B61368002BFCD018
:1053B000BFF35F8F29622100280001F0C8FCEA6971
:1053C0002B6ABFF35F8F0021116083F310880028E0
:1053D000DED1A8222E492F48FEF7C4FFD8E72A4B7A
:1053E0001B785B07D4D5284A137804218B431370AC
:1053F00001AD0C2200212800FEF766FE23782B70F9
:1054000005236B70214B1C68E269EFF3108172B6C3
:105410001368002BFCD0BFF35F8F216201A920002D
:1054200001F095FCE269236ABFF35F8F00211160F0
:1054300083F310880028ABD1A82215491548FEF740
:1054400091FFA5E7114B1D68EA69EFF3108172B671
:105450001368002BFCD0BFF35F8F29622100280066
:1054600001F075FCEA692B6ABFF35F8F00211160C0
:1054700083F31088002800D08AE7A8220449054851
:10548000FEF770FF84E7C0465C090020B4090020E5
:10549000908200103C830010F0B585B007000E002C
:1054A000150001AC0A2200216B46981DFEF70CFE88
:1054B0002770667029002000FFF7FEFE05B0F0BDE2
:1054C000F0B585B007000E00150001AC0A220021DE
:1054D0006B46981DFEF7F8FD277001236370267157
:1054E00029002000FFF7E8FE05B0F0BDF0B585B05B
:1054F00007000E00150001AC0A2200216B46981D22
:10550000FEF7E2FD2770062363700822310002A82F
:10551000FEF7E0FD29002000FFF7CEFE05B0F0BD4C
:10552000F0B5CE46474680B585B08146884617001F
:105530001E000CAB1D7801AC062200216B46981DA5
:10554000FEF7C2FD4B462370072363704346237169
:10555000A760667129002000FFF7AEFE05B00CBC05
:1055600090469946F0BD000070B506000D008A789F
:105570007F2313400F2B0CD80D4B9978280001F096
:10558000CBF8041E0DD029003000FFF7AFFA04005D
:1055900005E0084A08490948FEF7E4FE0024200017
:1055A00070BD074A04490548FEF7DCFEF7E7C04630
:1055B0005C090020C2040000048300103C8300103A
:1055C000C3040000F0B5CE4600B582B001900C00D7
:1055D00091461E00002515E0174A18491848FEF7A5
:1055E000C1FE0027380002B004BC9146F0BD154A48
:1055F00012491348FEF7B6FEF4E7099A13702378B0
:10560000E4180135A94514DD6378052BE4D1E3786E
:105610009B079B0FB342DFD121000198FFF7A4FF46
:10562000071EE4D0A378DA09012AE6D0089A13709D
:10563000E5E70127D6E7C0469C040000F082001091
:105640003C8300109D04000070B57F260E40CD09FC
:1056500072001D4B9B185B193033DC78E407E40FB4
:105660002ED1194B9B185B193033DB785B0728D49C
:10567000164B18680121494201F09EFC7200124B42
:105680009B185B193033DB78DB0708D40E4B9B1873
:105690005B193033DB785B0702D4012400E000247F
:1056A000002C08D0760008498E1975193035EB7832
:1056B00004221343EB70054B186801F05DFC00E019
:1056C0000024200070BDC0465C090020B009002005
:1056D00070B57F240C40CD09154B18680121494253
:1056E00001F06AFC6200134B9B185B193033DB78C6
:1056F000DB0708D40F4B9B185B193033DB785B0753
:1057000013D4002600E00026002E08D064000949CA
:105710000C1965193035EB7804229343EB70044B78
:10572000186801F029FC300070BD0126ECE7C04686
:10573000B00900205C090020F0B5C64600B582B073
:1057400001937F250D40CE096F00174CE419A41971
:105750003034E478E4071DD46F00134CE419A41925
:105760003034E3780127BC4667463B43E370019B36
:10577000FFF7E0F9002813D16D000B4B5D19AE194E
:105780003036F37801229343F370F3780332934376
:10579000F37005E0054A06490648FEF7E3FD0020E0
:1057A00002B004BC9046F0BD5C0900200A05000070
:1057B000148300103C83001070B57F240C40CD0989
:1057C00062000C4B9B185B193033DB789B0700D5CC
:1057D00070BDFFF7C7F96300064CE4186419303454
:1057E000E37802221343E370E37801221343E3706A
:1057F000EEE7C0465C09002070B57F240C40CD095F
:1058000062000C4B9B185B193033DB789B0700D48C
:1058100070BDFFF7BDF96300064CE418641930341D
:10582000E37802229343E370E378013A9343E37011
:10583000EEE7C0465C0900207F230B40CA095B00ED
:105840000349C91889183031C8788007C00F7047DC
:105850005C090020F0B5C64600B582B004000D001A
:10586000002000F085FB2B7860221340602B0ED0C7
:10587000402B17D02A78D206D20E012A00D1D9E0C7
:10588000002A1DD0022A00D11FE1002605E0C64AE9
:10589000C649C748FEF766FD0026300002B004BCCA
:1058A0009046F0BDC34B002B00D199E1180000F0E9
:1058B0005FFB2A000021200000E000BF0600ECE7AB
:1058C000202B0AD0002B00D092E16B78092B00D955
:1058D00090E19B00B84AD3589F462B790F2B00D9F3
:1058E00080E1B64AD318DB78B54A002A14D0B54A0D
:1058F000127893420ED25A00D318DA00B24B1968CC
:105900008918002900D171E12A002000FFF7F6FA7A
:105910000600C2E79B1ADBB2002B00D064E15A00FC
:10592000D318DA00A9498918EBE7280000F026FB14
:10593000A9782000FFF770F8A04A137802210B43E2
:1059400013700126A9E79D4B5B786A4606321370F7
:1059500001232900200000F0AFFA01269DE7AF786F
:10596000964B5B78DBB2BB4205D0944B5B78002B47
:1059700009D1002F13D1914B5F702900200000F056
:105980007FFA012689E72000FFF7D0F88B4EB37825
:1059900098462000FFF768FA4346B370E9E73900FC
:1059A0002000FFF7B9FA061EE5D1894A7F498048F1
:1059B000FEF7D8FC71E729002000FFF783FB060003
:1059C0006BE7AA78EB781B021343012B01D000266A
:1059D00063E77A4A137808210B43137029002000EB
:1059E00000F04EFA012658E7AA78EB781B02134321
:1059F000012B01D0002650E7704A137808218B4311
:105A000013702900200000F03BFA012645E76B4B9C
:105A10001A78510992080223134001220A401343C5
:105A20006A460632138002232900200000F044FA5F
:105A3000012632E72B790F2B00D9DDE05F4AD3181E
:105A4000DB785F4A002A0CD05E4A1278934206D275
:105A50005A00D318DA005C4B1968891809E09B1AC0
:105A6000DBB2002B00D0C9E05A00D318DA00574946
:105A70008918002900D1C3E02A002000FFF73EFA70
:105A8000061E00D009E72B7860221A4200D004E7F6
:105A90006B780A3BDBB2012B00D9FEE6002000F058
:105AA00067FA6B780A2B05D02900200000F0E8F98E
:105AB0000126F2E66B469A1D00231370013329007C
:105AC000200000F0F9F90136E7E629797F220A4043
:105AD000CE090F2A1DD85200384882189219D27C5C
