:020000040800F2
:1000000000040020390200083B0200083B020008FF
:100010003B0200083B0200083B0200083B020008CC
:100020003B0200083B0200083B020008D128000800
:100030003B0200083B0200083B0200083B020008AC
:100040003B0200083B0200083B0200083B0200089C
:100050003B0200083B0200083B0200083B0200088C
:100060003B0200083B0200083B0200081136000872
:10007000F1350008D1350008B13500089135000888
:1000800071350008513500083B0200083B020008AA
:10009000212D00083B0200083B0200083B0200083B
:1000A0003B0200083B0200083B0200083B0200083C
:1000B000A13200083B0200083B020008413400085E
:1000C000613300083B0200083B0200083B020008C5
:1000D0003B020008E13000083B0200083B02000838
:1000E0003B0200083B0200083B0200083B020008FC
:1000F0003B0200083B0200083B0200083B020008EC
:100100003B0200083B0200083B0200083B020008DB
:100110003B0200083B0200083B0200083B020008CB
:100120003B0200083B0200083B0200083B020008BB
:100130003B0200083B0200083B0200083B020008AB
:100140003B0200083B0200083B0200083B0200089B
:100150003B0200083B0200083B0200083B0200088B
:1001600072B6274880F30888264880F30988264815
:100170004EF60851CEF200010860022080F3148888
:10018000BFF36F8F03F09CFA02F08AFD4FF05530F9
:100190001E491B4A91423CBF41F8040BFAE71C4937
:1001A000184A91423CBF41F8040BFAE719491A4A30
:1001B0001A4B9A423EBF51F8040B42F8040BF8E781
:1001C00000201749174A91423CBF41F8040BFAE757
:1001D00003F02EFA03F06CFA134C144DAC4203DA20
:1001E00054F8041B8847F9E702F04AF8104C114D07
:1001F000AC4203DA54F8041B8847F9E703F050BA1D
:10020000000400200008002000000008000000207A
:10021000000400209C46000800080020240800205C
:1002200028080020F0140020600100086001000888
:10023000600100086001000892E700F000F8FEE7A6
:100240002DE9F04FC1F80CD0C3689D46BDE8F08F92
:10025000002383F311882846A047002002F048FBC2
:10026000FEE702F06DFB00DFFEE7000080F00040DB
:1002700002E000BF81F0004142001FBF5FEA41037E
:1002800092EA030F7FEA226C7FEA236C6AD04FEA7E
:100290001262D2EB1363C1BFD218414048404140C3
:1002A000B8BF5B42192B88BF704710F0004F40F475
:1002B000000020F07F4018BF404211F0004F41F491
:1002C000000121F07F4118BF494292EA030F3FD05D
:1002D000A2F1010241FA03FC10EB0C00C3F1200370
:1002E00001FA03F100F0004302D5494260EB4000FF
:1002F000B0F5000F13D3B0F1807F06D340084FEA6A
:10030000310102F10102FE2A51D2B1F1004F40EB5E
:10031000C25008BF20F0010040EA030070474900C6
:1003200040EB000010F4000FA2F10102EDD1B0FA91
:1003300080FCACF1080CB2EB0C0200FA0CF0AABF86
:1003400000EBC25052421843BCBFD0401843704724
:1003500092F0000F81F4000106BF80F4000001322A
:10036000013BB5E74FEA41037FEA226C18BF7FEA01
:10037000236C21D092EA030F04D092F0000F08BF43
:100380000846704790EA010F1CBF0020704712F02A
:100390007F4F04D1400028BF40F00040704712F169
:1003A00000723CBF00F50000704700F0004343F0CE
:1003B000FE4040F4000070477FEA226216BF084604
:1003C0007FEA23630146420206BF5FEA412390EAC7
:1003D000010F40F4800070474FF0000304E000BFBD
:1003E00010F0004348BF40425FEA000C08BF70476E
:1003F00043F0964301464FF000001CE050EA010232
:1004000008BF70474FF000030AE000BF50EA010246
:1004100008BF704711F0004302D5404261EB410133
:100420005FEA010C02BF84460146002043F0B64358
:1004300008BFA3F18053A3F50003BCFA8CF2083A7D
:10044000A3EBC25310DB01FA02FC634400FA02FC86
:10045000C2F12002BCF1004F20FA02F243EB02008D
:1004600008BF20F00100704702F1200201FA02FCEF
:10047000C2F1200250EA4C0021FA02F243EB0200E2
:1004800008BF20EADC70704742000ED2B2F1FE4F86
:100490000BD34FF09E03B3EB126209D44FEA002353
:1004A00043F0004323FA02F070474FF0000070471A
:1004B00012F1610F01D1420202D14FF0FF307047BB
:1004C0004FF00000704700BF844641EA000313F07C
:1004D000030349D1403A23D30B6803604B68436060
:1004E0008B688360CB68C3600B6903614B694361B0
:1004F0008B698361CB69C3610B6A03624B6A436298
:100500008B6A8362CB6AC3620B6B03634B6B43637F
:100510008B6B8363CB6BC36340304031403ADBD29B
:1005200030320BD30B6803604B6843608B68836089
:10053000CB68C36010301031103AF3D20C3205D3BF
:1005400051F8043B40F8043B043AF9D2043208D095
:10055000D2071CBF11F8013B00F8013B01D30B8807
:1005600003806046704700BF082A13D38B07B1D0C1
:1005700010F00303AED0C3F10403D21ADB071CBF93
:1005800011F8013B00F8013BA4D331F8023B20F8FD
:10059000023B9FE7043AD9D3013A11F8013B00F836
:1005A000013BF9D20B7803704B7843708B788370E2
:1005B00060467047F0B4860743D0541E002A3ED0F0
:1005C000CAB2034602E014F1FF3438D303F8012B1A
:1005D0009D07F8D1032C2BD9CDB245EA05250F2C68
:1005E00045EA054516D9A4F110073F0903F1200695
:1005F00006EB071603F1100242E9045542E90255E1
:100600001032B242F8D104F00F040137032C03EB8F
:1006100007130DD91E462246043A032A46F8045B06
:10062000FAD8221F22F003020432134404F0030418
:100630002CB1C9B21C4403F8011B9C42FBD1F0BC95
:10064000704714460346C5E70000000000000000A4
:100650001B4A70B41369146B1878D16828B101294A
:1006600094BF44F0200444F024045D88D06A01FB68
:1006700005F140689568926AC5604160046005684C
:10068000D3E9034145F0010511F4841F056044F4EA
:10069000807414BF41F4807041F48170546040F064
:1006A0000100DC690143D3E905659160D660D3E9B7
:1006B00008131561D462116370BC53639060704776
:1006C00028080020000000000000000000000000DA
:1006D000C26810B45369118A1A68174C914228BF36
:1006E0001146D9609868236D03F1804303F5C04338
:1006F0001A68596089B102F1005202F54052520065
:1007000001394908131D03EB810100E0043330F87F
:10071000024B994214601A46F8D1074A10BC13687C
:1007200023F4F04323F0400383F0300343F4004309
:1007300043F0800313607047005C0040000000003D
:10074000C1688A6913689BB1498A0B44013BB3FBBA
:10075000F1F39381084A136823F4904323F0700364
:1007600083F4405343F4004343F080031360704725
:1007700001239381EEE700BF005C00400000000011
:1007800001734273704700BF0000000000000000CA
:1007900080291DD8402A1BD830B4847B14B1B3FA09
:1007A00083F35B090125D40804EBC41421442944D4
:1007B000014402F0070291F90F0005FA02F252B269
:1007C000AB420CBF024320EA0202CA7330BC70473E
:1007D000704700BF000000000000000000000000A3
:1007E0002DE9F04F90F80CC092F800E083B00CEBCC
:1007F0000E077F2F3CDC5478457B25443F2D37DCAA
:1008000098460191164605466CB34FF0000A7346B0
:10081000A1F1200B0BFB04A2716831F81270DBB15F
:1008200000245FFA8AF907FA04F31B0458BFB8FAE8
:1008300088F36A7B0CEB04014A444CBF43465B09D6
:10084000C9B2D2B22846FFF7A3FF337801349C42E5
:1008500095F80CC0E7D374780AF1010AA245D9D300
:100860009E460CEB030701982F7303B0BDE8F08F91
:10087000002003B0BDE8F08F000000000000000081
:10088000F8B50C46097881B1074616461D4602E0C8
:1008900014F8011F49B12B4632463846FFF7A0FF36
:1008A00023789842F4D01846F8BD00231846F8BDC6
:1008B000837B00F11001B3FA83F35B098373002299
:1008C00009480BE0A0FB02C3DB0803EBC313D31AF8
:1008D0009BB213B10B78DB430B700131013292B242
:1008E000B2F5816FEED17047813FE00F000000004C
:1008F00030B4202383F311880B4B4942D3E90045E0
:10090000281A0840821AA24207D3954205D35A609A
:10091000002383F3118830BC70470020002383F349
:10092000118830BC704700BF500F0020000000004D
:10093000024AD36843F0C003D360704700380140D7
:10094000704700BF00000000000000000000000031
:10095000034B10B51888FFF73FFD024C206010BD17
:10096000DC0F0020B00D002000000000000000009F
:10097000202383F311880D4B5B6813F4006302D1CD
:1009800083F311887047EFF309834FF08072203BA7
:10099000DA6183F30988064A116892698968926866
:1009A00091428CBF034A044A9A61704700ED00E00F
:1009B000B40D002063020008660200080000000079
:1009C000084B10B4D3E900424942101A0840A04233
:1009D00004D3824202D3586010BC7047002010BC80
:1009E000704700BF500F0020000000000000000012
:1009F0000F4B104A5B688168526F5B1A9B1AC26882
:100A00002DE93008D0E904454168013214EB030BAD
:100A1000C0E90232026845F1000C8B4288BF436096
:100A20009342C0E904BCBDE8300838BF036070479A
:100A3000001000E0B40D00200000000000000000E5
:100A4000014B5B6883607047001000E0000000000D
:100A5000202383F3118890F82030072B0ED8DFE88D
:100A600003F0280D0D2408040D08426A9368013331
:100A70009360D0E900231A600268536010B400222A
:100A80004FF0FF3481680D4B446280F820201B68D2
:100A90009A688A42FBD25A680021C0E9003210608D
:100AA000586081F3118810BC70470022436A1A60B5
:100AB000E4E7002383F31188704700BFB40D0020E2
:100AC00001460022074B806881F820201B689A6845
:100AD0008242FBD25A680846C1E90032116059606F
:100AE000704700BFB40D00200000000000000000AF
:100AF000F8B5164F57F8044FBC4220D005460026E3
:100B000004E00B2A1CD02468BC4218D0E3682B43B5
:100B1000E36015B123691D42F5D0D4E90103416BAF
:100B200090F820200B430A2A4363EAD1426A134219
:100B3000E9D04662FFF7C4FF2468BC42E6D1F8BDA5
:100B4000426A32EA0303DED1F3E700BF94080020D3
:100B5000036843B110B40246002418461460596279
:100B600010BCFFF7ADBF70470000000000000000A0
:100B70002DE9F0410D07044625D50E230021C26A58
:100B800007695668356825F00F053560567B15688E
:100B9000B340BA686B60836A9960002A44D0052329
:100BA000037090472378052B3ED0202383F31188D0
:100BB0004FF0FF3104F11400FFF7CAFF002383F365
:100BC0001188BDE8F0818A0725D503691A785B682A
:100BD000002A2ED10E21C56A6F683E6826F00F06E6
:100BE0003E606F7B2E68856AB9407160AA605BB316
:100BF0000422027098472378042B25D0202383F306
:100C00001188002104F11400FFF7A2FF002383F3F1
:100C10001188BDE8F0814B07D3D503695B68002BD1
:100C2000CFD0BDE8F0411847022200232270236193
:100C3000BBE7002BC5D00422027098472378042B11
:100C4000BFD103232370BCE702220023227023615B
:100C5000D4E700BF0000000000000000000000001A
:100C6000FEE700BF000000000000000000000000E0
:100C700070B511F0080421D10E22C16A436B4E6891
:100C8000356825F00F0535604D7B0968AA404A603C
:100C90005A68202122F480525A601A6822F4806235
:100CA0001A601A6842F400721A6081F311881C30CD
:100CB0002146FFF74DFF84F3118870BD72B6024BD9
:100CC000024ADA62FEE700BFB40D00208C4500083E
:100CD0000B0712D4D0E90C200E2330B4D2E9005413
:100CE000216821F00F012160527B93406B604368C3
:100CF00030BC43F400734360704772B6014B024A44
:100D0000DA62FEE7B40D00208C4500080000000008
:100D10000023F0B41D461C461E460827DFF848C0D5
:100D20001CF8022011F0800F4FEA04144FEA03135D
:100D30004FEA06164FEA05150CBF44F00F041343A3
:100D400011F4004F0CBF46F00F061543013F4FEA68
:100D50004101E7D1426816403543456002681440BE
:100D600023430360F0BC70472845000800000000E2
:100D70002DE9F0430127284C07FA00F625682E429A
:100D800002D00020BDE8F083DFF890C03543256035
:100D9000DCF81490DFF888E0451C4FEA001844F8AE
:100DA000352049F0010004EBC5050EEB08096B6026
:100DB0006268D9F80830CCF814001A42DCF8140044
:100DC00012D00E2100250EEB080043681643666022
:100DD000427B1C685EF8087024F00F0401FA02F2EE
:100DE0001C607A601D60CDE799F80F000901430986
:100DF0009B0000F1604503F1604300F01F0003F524
:100E000061438740C9B205F5614585F80013C3F811
:100E100080711F60D5E700BF740F002000100240F2
:100E20006444000800000000000000000000000012
:100E3000F8B506780546012E446B3DD02346D5E92A
:100E40000B704FF410614FF4004C00224FF6C07647
:100E5000D7F804E0476804F11000CEF80800B86045
:100E6000C4F800C02260616059686D6831406868EC
:100E70002F7A59605968464E41F02401B0425960BA
:100E80005CDD4449884207DC022F69D0032F72D011
:100E900048F6FF720B211962DA6129781A68022973
:100EA00092B257D0032952D0012943D01A60236847
:100EB00043F001032360F8BD9A218A22364BC0E932
:100EC00009219842BAD1354F03463969344A41F471
:100ED000001139613869052120F4001038610620BD
:100EE000D7F810C0FFF744FF0521E8622B460846FB
:100EF0002C4AFFF73DFF50214FF0004CFA692A4B76
:100F000042F400122863FA61FA6983F81F13C3F8E8
:100F100080C1C3F800C083F82013C3F884615E6009
:100F2000D5E9092343F4405342F44052C5E909236B
:100F30006B6B84E722F00A0292B2B7E71B4A4000CB
:100F400092FBF0F22521C2F30B021962A4E742F0F2
:100F50000A02ABE722F0080292B242F00202A5E7D1
:100F6000124900EB400291FBF2F26FEA42426FEA53
:100F7000524292B28EE700EB80000C4A00EB8000F8
:100F800092FBF0F26FEA82426FEA924292B281E7FC
:100F9000A0860100801A06005C08002000100240B4
:100FA000710C0008D10C000800E100E0005125029E
:100FB00030B40468437B21684268D940126801F06C
:100FC0000E010A420ED0827B0748013250F832509F
:100FD00001FA03F363602DB100EBC2022B4630BC73
:100FE0005068184730BC7047740F002000000000A4
:100FF00090F86420152A15D8012340F641619340EA
:101000000B4270B5044624D113F480150BD0C3688D
:101010009B695B682BB9036F03B19847002384F881
:10102000643070BD70479B02FBD50B22202380F8F3
:10103000642083F31188C36802895B6942F001026E
:1010400002819D60C3E90055FFF742FB85F31188DB
:1010500070BD48F280060E4943680A681D6822F494
:10106000F04222F0400282F0100232430A600B6824
:1010700023F4904323F0700383F4805333430B60D5
:101080000DB10621A847062384F8643070BD00BF67
:10109000005C0040000000000000000000000000B4
:1010A00038B590F864300446152B2AD8DFE803F0F1
:1010B0000B29292929290B29292A3A5029292929A3
:1010C000292929290B0B48F280002F4963680A68F7
:1010D0001D6822F4F04222F0400282F01002024326
:1010E0000A600B6823F4904323F0700383F4805369
:1010F00003430B6015B106212046A847062384F858
:10110000643038BD90F87B1090F87A30C26E43EAB4
:1011100001239A4206D2C3681B8AB2FBF3F503FB94
:101120001525E5B11422202384F8642083F3118867
:101130000025E36862899B6942F0010262812046D2
:101140009D60C3E90055FFF7FBFA85F3118838BDB0
:10115000036F03B19847002384F8643038BD20231F
:1011600083F31188C36802895B6942F0010202813E
:101170009D60C3E90055FFF7ABFA85F311880A2398
:1011800084F8643038BD00BF005C004000000000FF
:1011900070B590F86430044613B1002380F86430D1
:1011A000BB4B04F174021B6D03F1804303F5C04394
:1011B00003EB01139B6803F1005303F540535B00FD
:1011C00003F1100019680433834222F8021BF9D19D
:1011D00063689B685BB32046984740B3E26E94F81F
:1011E000743094F87B0094F87A1041EA002191421F
:1011F0002CBF1146E1661A0600F1A180002972D0C9
:101200001522202384F8642083F311880025D4E973
:101210001A61E36862899B6942F00102628120469B
:1012200083E86200FFF78CFA85F3118870BD94F8AB
:10123000743013F0600518461ED048F280009449BF
:1012400063680A681D6822F4F04222F0400282F0CE
:10125000100202430A600B6823F4904323F07003EA
:1012600083F4805303430B6015B106212046A84741
:10127000062384F8643070BD40F2023194F8756042
:1012800003F07F0242EA06228A4200F01F8140D822
:10129000022A00F0038140F2C080B2F5817F00F0A5
:1012A000C580B2F5407F00F09080B2F5807FC4D158
:1012B00094F87630012BC0D1B4F87C30A56623F0C9
:1012C0000203C4E91B55A4F87C300AE0B2F5C06FF4
:1012D00080F08A80B2F5A06FAFD16E4BC4E91A5589
:1012E0002367030643D40B22202384F8642083F36E
:1012F00011880025E36822895B6942F0010222819E
:1013000020469D60C3E90055FFF7E2F985F3118897
:1013100070BD40F201618A42D8D9B2F5106F3CD05D
:1013200040F602418A4200F0AC80B2F5006F84D1F1
:10133000012204F17F01C4E91B25A16651E7B1B187
:101340000922202384F8642083F311880025D4E93E
:101350001A61E36822895B6942F00102228120461A
:1013600083E86200FFF7B4F985F3118870BD142299
:10137000202384F8642083F311880025E3686289C0
:101380009B6942F00102628120469D60C3E90055DD
:10139000FFF7D6F985F3118870BD2378042B00F090
:1013A000C18094F876304BB10421626884F87F30B4
:1013B0002170136813B1022120469847002394F846
:1013C0007400C4E91A3323678BE794F87630012B55
:1013D0007FF433AFB4F87C30A56643F00203C4E970
:1013E0001B55A4F87C307CE794F87910626894F877
:1013F0007830566843EA012394F8762094F8771001
:101400002046B04700283FF418AFD0E900232567F5
:10141000C4E91A3294F87430E3E67ABB022104F18D
:101420007C00C4E91B12A0660A46DAE694F876301E
:10143000002B7FF402AF94F8782012F00F0318D03D
:101440009B0003F1804303F5B84312F0800F1A6844
:1014500040F0998002F44052B2F5405F09D01A681A
:1014600022F4F04222F0400242F4204242F0800294
:101470001A600023C4E91A33236732E7012A7FF494
:10148000DCAE022200200449C4E91B20A166A8E6C4
:10149000005C0040D11500089846000894F87810C8
:1014A00001F00F0011F0800F464951F820102CD1A7
:1014B00011F440513FF4C1AEB1F5805F2BD102254C
:1014C00000204149C4E91B50A1668AE694F87630B1
:1014D000002B7FF4B2AE94F8782012F00F03C8D03E
:1014E0009B0003F1804303F5B84312F0800F1A68A4
:1014F0005BD122F4904222F0700282F4805242F4D6
:10150000004242F080021A60B3E711F030013FF46C
:1015100094AE1029D3D0022500202C49C4E91B50D9
:10152000A1665EE6202383F311880122402648F25B
:10153000800021896389C4E90455C4E90655C4E9DA
:10154000085511401340A56221816381C4F884606D
:10155000930003F1804303F5B84319680132014356
:10156000082A19601860F3D1002383F3118803213E
:10157000626884F87F3021701368002B3FF411AF4C
:10158000204698470DE702F03002302A3FF471AF51
:101590001A6822F4F04222F0400282F0200242F463
:1015A000004242F080021A6063E722F4F04222F027
:1015B000400282F0100242F4004242F080021A60BF
:1015C00057E700BF005C004088450008D44400088D
:1015D00090F87630426880F87E300649126843F011
:1015E000800310B50446CB640AB101219047032360
:1015F000237010BD005C00400000000000000000EF
:101600000020704700000000000000000000000003
:1016100070B404460026144B8068996966628D6830
:10162000A8420CD884F820601B689A689042FBD9C5
:101630005A68C4E9003214605C6070BC70471A4696
:1016400081F82060126890688542FBD301255068BC
:10165000C1E900200160516084F8205020469C615F
:1016600070BCFEF7EDBD00BFB40D0020000000000F
:10167000F8B5202484F31188002502270126483973
:101680004418144944F8243CA260E263A4F1240302
:10169000114A2161E360114B44F8042C4A69E0616E
:1016A000A36104F1280004F12C03626144F8205C7A
:1016B000278484F82260C4E90D551461C4E90A0343
:1016C000236320464C61FFF7A3FF85F31188204672
:1016D000F8BD00BFB40D0020510200083C450008D1
:1016E00030B40125074B99691A6881F82000146805
:1016F0001046636082F820501C6030BC9A61FEF78F
:101700009FBD00BFB40D00200000000000000000DD
:10171000F0B54B1C87B04AD04FF08043524C5B6A07
:10172000A26907465148012905929BB2E2690490DB
:1017300004F11C0637D9B24261D0258D90685B1B3D
:101740009BB259183AD31268091A9068814204D999
:101750001268091A90688842FAD34FF0FF30536834
:1017600001ADCDE901231D60556003919368591ABD
:10177000916060623846FFF7B3FF049B7BB1E2697A
:10178000019BAA4249D00021029A1360019BB342F7
:101790005A60049103D09A6803990A449A60A36935
:1017A000586A07B0F0BDB24215D00221C5E7FFF775
:1017B00097FF2D4CA369586A07B0F0BD8142C5D28E
:1017C0004FF6FF73994294BF6D18ED184FF08043A8
:1017D000ADB25D63BAE7022201ADCDE90166C4E9AD
:1017E0000755238503924FF080414FF0000C0220F3
:1017F00013449BB24B63C1F810C0C860BAE74FF600
:10180000FF728A4228BF0A4601AD2385CDE90166F1
:10181000039192B2C4E90755E5E70022B342E361C0
:101820005E60049219D04FF080409A68039D218D2C
:101830002A449A60436A5B1A9BB29A42AFD9D01A83
:1018400001280ED94FF6FF739A4228BF1A464FF06F
:1018500080400A4492B24263A1E74FF08043DA60CD
:101860009DE79A1CF3E700BFB40D0020510A000861
:1018700061B10246074B10B49B6944680420C3E978
:1018800000242360536010BCFFF742BF4FF0FF30CD
:10189000704700BFB40D00200000000000000000F1
:1018A000F8B504460F461646202383F3118805E059
:1018B00031462046FFF7DCFF002817DBA568002D26
:1018C000F6D06269A368511C013B6161A360177087
:1018D000D4E904329A4224BFE3686361E3690BB13F
:1018E00020469847002080F31188F8BD85F31188C1
:1018F000F8BD00BF00000000000000000000000074
:101900003030FFF7CDBF00BF000000000000000036
:1019100030304FF0FF32FFF7C3BF00BF00000000C0
:1019200070B5202304460E4683F3118805E0314646
:101930002046FFF79DFF002818DBA568002DF6D094
:10194000A169A36820694A1C013B8242A36028BFA9
:10195000E368A2610D7828BFA361E3690BB120465B
:101960009847002383F31188284670BD85F31188BA
:1019700070BD00BF0000000000000000000000007B
:101980000C30FFF7CDBF00BF0000000000000000DA
:101990000C304FF0FF31FFF7C3BF00BF0000000065
:1019A00008B50146202383F311880820FFF7B0FE15
:1019B000002383F3118808BD000000000000000030
:1019C0002DE9F8430027490001849946416B87605F
:1019D00087F311884FF08048036B3E46D3F804E04C
:1019E000D0E90A3CCEF80030DCF804C0436ACEF8F7
:1019F0000C20CEF80490CCF80030CCF80C70CCF869
:101A00000470D8F824204546202492B201E086F3E1
:101A1000118884F311888B699F0702D40B689B059A
:101A20001ED56B6A9B1A9BB2632BF0D90E23D0E9AB
:101A30000B21D1E90054206820F00F002060497B81
:101A4000506803FA01F169600168146821F00F0120
:101A500001604FF0FF30527B93406360BDE8F88334
:101A600003464A68154D42F400724A600A6804460B
:101A7000A86942F480720A6043F81C0F4362032095
:101A8000FFF72EFEAB69586A0028E7D0D4E90B2592
:101A90000E236C68216821F00F012160697B2D689D
:101AA000546803FA01F169602168156821F00F019B
:101AB0002160527B93406B60BDE8F883B40D002039
:101AC000F8B5384A83689569002B40D0A9689A68B0
:101AD0000446914207D993F820209960062A3BD00A
:101AE000072A15D042B32646234603E09968AA6820
:101AF00091422AD31B689C42F8D173680620C5E93D
:101B000000631D6075606C62BDE8F840FFF7E8BDDA
:101B10001F6858685E6A07601F683246786002E096
:101B20009068884234D312689642F9D17268C3E94A
:101B3000006213607360D6E7D3E9001211601846A3
:101B40001B685A60FEF7BCFFCDE71E46D5E7AB6BBE
:101B5000C0E90253A863F8BD1F6858685E6A076051
:101B60001F68B4463246786002E09068884216D317
:101B700012689642F9D1DCF80420A968C3E900C2D2
:101B80001360CCF80430B3689A688A42A3D3AAE7FA
:101B900016467268C3E9006213607360A3E7944657
:101BA000E9E700BFB40D00200000000000000000C5
:101BB0000029F8B50CBF0027FF27402600F11004CC
:101BC00000F5836504F8016C204680223946813493
:101BD000FEF7F0FCAC42F5D1F8BD00BF00000000FC
:101BE0000EB42DE9F04F86B00FAB53F8044B054609
:101BF00002939B46002705E02B682846DB680137E7
:101C0000144698472178621C00297FD02529F3D1FA
:101C100063782D2B03BFA378A21C012100212B2B5D
:101C200005BF4FF0010C53784FF0000C6244302B8D
:101C300003BF53784FF0300801324FF020082A2BB1
:101C40004DD1DBF8006053780BF10400941C2E2B6F
:101C500004F1010E00F09F80002203F0DF09B9F1CA
:101C60004C0F59D0A3F1440EBEF1340F00F2B781EE
:101C7000DFE81EF06901B501B501B501B5016901E3
:101C8000B501B501B501B501B5015401B500B50106
:101C9000B501B501B5015801B501B501B500B501F2
:101CA000B501B501B501B501B501B501B501B50184
:101CB000B5015C016901B501B501B501B501690165
:101CC000B501B501B501B501B5015401B500B501C6
:101CD000B5012701B5015801B501B501B500541C86
:101CE000A3B1A3F13002D2B2092A98BF002602D9CB
:101CF0008EE1092A5BD814F8013B06EB8606A3F1B6
:101D0000300002EB4606C2B2002BF2D1384606B0D4
:101D1000BDE8F04F03B070472378002BF6D0A3F155
:101D20004404342C00F25A81DFE814F053015801C6
:101D300058015801580153015801580158015801E0
:101D40005801F70058005801580158015801FB008C
:101D500058015801580058015801580158015801BC
:101D600058015801580158015801FF00530158010A
:101D700058015801580153015801580158015801A0
:101D80005801F700580058015801CA005801FB00DB
:101D90005801580158002378002BB7D02A2B08D1BE
:101DA0000268637804F1030E0430023455E75846A4
:101DB0004DE7002206E019F8013C04EB4A02CE464A
:101DC000002BA3D0A3F13004E4B2092C0EF10109D9
:101DD00002EB820AEFD97446CE463EE774464FF0D6
:101DE000100E83460DF117005BF8042B00E05046FF
:101DF000B2FBFEFC0EFB1C2202F13003392BC8BFE4
:101E000002F137036246DBB200F8013C00F1FF3A11
:101E1000002AECD102460DF117000DF10C09A0EBE0
:101E20000A0ECC460AEB0E0001E012F8013B82429A
:101E30000CF8013BF9D10EF1FF33A6EB0E0600932F
:101E4000002E64DB002940F0D4807342002E00F0A5
:101E5000CF8099F800102A682D29D26800F0A78059
:101E60009A4601E02B68DA684146284690471AF105
:101E7000010AF7D1009A5346002A3744FFF6C2AE52
:101E80001E46DDF800A02B680AF1FF3ADB6819F85E
:101E9000011B28469847BAF1FF3FF4D1009B013758
:101EA0003B441F46002E3FF4ADAEB1462B68414681
:101EB000DB6828469847B9F10109F7D13744A1E614
:101EC0007446D0F8009000F1040BB9F1000F00F057
:101ED000AF8099F80030CA46002A40F08F80002B6E
:101EE00000F0908047F6FE724B4601E0501C04D093
:101EF00013F8010F013A0028F8D1A3EB0A03F61AF0
:101F0000002E03F1FF3300934FF020089ADA009B74
:101F1000002BFFF677AE0026B3E774464FF0080EAD
:101F20005FE774464FF00A0E5BE7744603680DF1F5
:101F3000180909F80C3D0023013E00F1040B009341
:101F40004FF020087CE783465BF8042B002A62DB15
:101F5000BCF1000F68D02B230DF10D0C8DF80C3067
:101F60000DF10C090CF10B0A5046354BA3FB02E3B3
:101F7000DB089E4603EB8303A2EB43037246303338
:101F8000DBB200F8013D002AEFD1AAEB0002624467
:101F900001E010F8013F0CF8013B9445F9D1ACEB9E
:101FA000090C0CF1FF33A6EB0C06009348E7B8F1DF
:101FB000300F7FF455AF284601939047009B2A6865
:101FC000013B0093019B0137D26809F101099A4650
:101FD0004AE7834674465BF8042BB7E774460DF175
:101FE000180909F80C3D0023013E8346009327E7BA
:101FF0001E46009B002BBFF644AF53E713B1013AD6
:102000007FF572AF4FF0FF334FF02008009317E7D2
:10201000584600261BE62D2352428DF80C300DF158
:102020000D0C0DF10C099DE70DF10C09CC4699E75B
:10203000DFF810A0D146002A3FF454AFDFE700BF1D
:10204000CDCCCCCC5C4500080000000000000000B6
:10205000042580B52F460B4B0B4A9B690B4E0C4C4D
:102060009A616761C820FFF79BFC2561C820FFF7D4
:1020700097FC3068FEF708FA064982B20648FFF777
:10208000AFFDEEE7B40D002048440008B00D00207D
:10209000000801405044000894080020000000009F
:1020A0002DE9F04F85B0CDE90232D0F81C904FF009
:1020B000200A8AF3118842B304460F4616464FF0B1
:1020C000000BA268964298BF3546D4E9042088BF29
:1020D000A568A2EB0008A84540D82BD32A4639466C
:1020E000FEF7F2F9E2686261A268521BA2609DB13C
:1020F000B9F1000F01D02046C8478BF31188761B39
:102100002F448AF31188002EDBD10398002383F338
:10211000118805B0BDE8F08F02992046FFF7A8FBB3
:102120000028CED0039B981B002383F3118805B0B1
:10213000BDE8F08FA5EB0803424639460193FEF750
:10214000C3F907EB0801DDF80480E0684246FEF7BA
:10215000BBF94346E268D3186361C5E72A463946AE
:10216000FEF7B2F962692A446261BDE7000000002F
:102170003030FFF795BF00BF0000000000000000F6
:1021800030304FF0FF33FFF78BBF00BF000000007F
:102190002DE9F04F85B0CDE90232D0F81C904FF018
:1021A000200A8AF3118842B304460F4616464FF0C0
:1021B000000BA268A169964298BF3546226988BF84
:1021C000A568A2EB0108A84540D82BD32A4638467B
:1021D000FEF77AF9E268A261A268521BA2609DB183
:1021E000B9F1000F01D02046C8478BF31188761B48
:1021F0002F448AF31188002EDBD10398002383F348
:10220000118805B0BDE8F08F02992046FFF730FB3A
:102210000028CED0039B981B002383F3118805B0C0
:10222000BDE8F08FA5EB0803424638460193FEF760
:102230004BF907EB0800DDF80480E1684246FEF741
:1022400043F94346E268D318A361C5E72A463846F6
:10225000FEF73AF9A2692A44A261BDE70000000036
:102260000C30FFF795BF00BF000000000000000029
:102270000C304FF0FF33FFF78BBF00BF00000000B2
:1022800000214FF0FF341348134B2DE98048416083
:102290001D691C611D6919611D69DD68DC60DC68F0
:1022A000D960DC68DC690D4D44F08054DC61DC6988
:1022B000DC690A4644F00064DC61DB692C68084B89
:1022C00044F480742C6087B001600646054C03F12D
:1022D00070010BE0740F00200010024000700040FD
:1022E000784400080800024053F8104C103399421B
:1022F000226046F8082FF7D14FF0FF3060214FF4ED
:1023000080764FF400794FF480684FF4000E4FF060
:10231000400B4FF0800A4FF088354FF0010CC24B54
:10232000C24C5860C24B274683F80613C3F880B1ED
:10233000C3F800B083F80713C3F880A1C3F800A066
:1023400083F80813C3F880611E6083F80913C3F88B
:102350008091C3F8009083F80A13C3F88081C3F812
:10236000008083F81713C3F880E1C3F800E083F816
:102370002813B049C3F884615E608E6903F1C043DD
:1023800046F07D068E61AC4E03F51C53D1F818E083
:10239000D8605E60A6F58246303E1E6006F589462E
:1023A0003036C3F80C04C3F80464C3F80064A34EC9
:1023B000F06075603560A24EC3F80C0CC3F8045C85
:1023C000C3F8006C4344C3F80C0CC3F8045CC3F8B6
:1023D000005C9C4D85F800C08B696A6043EA090384
:1023E0008B61C5E90222C5E904228B692A62EA628F
:1023F000AC62626042F28A52C4F808C02A630922C1
:1024000005F11803A260C5E90633BB681B07FCD4BD
:102410000523DFF818C2BB60DCF8082012F00402C4
:10242000FAD1894E012034464FF0100E8149CCF884
:1024300008208F69B26227F400778F618969834928
:1024400006F1740744F8041B74608149814C4A60AA
:102450004C6301F10C044A61CA61C1E90B22C1E974
:102460000344087006F10C01C6E9031106F154019A
:10247000B161C6E9081106F16401F161F163C6E9D1
:10248000111106F130013764C6E90C11724F73491E
:10249000734C726130721346F662C6F838E0F76426
:1024A00008704A603665746701F12C0201F148003A
:1024B00042F8043B90429361FAD14FF001084FF08B
:1024C000804248F69F4B4FF6FF7A4FF0805E4FF008
:1024D00080094FF0FF3C574C8B60E169042041EAD2
:1024E0000801E1615F49E4694C68074644F400640F
:1024F0004C605D4CC2F828B04D49C2F82CA09361E5
:1025000064605363A360D360246153606461C2F864
:1025100014802385C2F80080544ADFF86881536034
:1025200081F81C93C1F880E19360C1F800E004F1E8
:102530001C0E4F49C4E907EEDFF84CE1C2F80080F9
:10254000C1F800E0DFF844E102F10C08C1F804E052
:102550004849C2F80C80C4F824C02460C2F8108036
:1025600053616367CDE9013303938B604B61CB62A9
:1025700001F110030B6114234FF000084FF0000924
:102580008B6101F128038B621C23CDF800C001F19F
:10259000240CC1F824C001F13C0E01F1400C364A74
:1025A000CDE90489C1E90011C1E90FEC0B6301F128
:1025B00044034B64C86148630A628A636846FEF755
:1025C0003FFA6846FEF714FA013FF7D14FF0800A50
:1025D0004FF00108294B009A6169DFF8B4C06267C7
:1025E00003F1280003F12C0284F85170C4E9197733
:1025F0002464C4F838A0C4F86CA084F85280C4E9FC
:10260000111C4FF020090B61C4E9053384F8508098
:10261000E764C4E91602226689F3118862B64FF6B0
:10262000FF0C1021164B35E0000002400024014051
:1026300000E100E000100240B884888800100140EA
:102640004488888828080020940800205046000804
:102650005C0800200054004031090008280D0020CB
:1026600000380140002004E0B40D0020580F002085
:10267000500F00202C0E0020C1090008E40D00209E
:1026800000ED00E0F1080008F014002000500020E8
:1026900044450008744AD86800EA0C0002430CF173
:1026A000604CDA60ACF60F3CDCF80C206F4842F06E
:1026B0008072CCF80C20026842EA08020260D977E6
:1026C00083F8229087F3118862B689F31188022279
:1026D000674B616903F16C00C3F89C006548A3F87F
:1026E000B020654AD8666548C3F88C2003F1900293
:1026F000C3F8A410C3F8A8001F67C3F89880C3E903
:102700003278C3F8C47083F8B280C3F8A040C3F82D
:10271000AC3010460A6103F1B801626103F1BC02FA
:10272000C3E92E12C3F8C020FEF772FF87F31188A9
:10273000052241465248FEF7EBFA1122402151484A
:10274000FEF7E6FA514611224E48FEF7E1FA142050
:10275000FFF726F989F311882B786F60434561D024
:1027600002234FF000082B7088F31188202787F38D
:10277000118808234FF00309434AEB60434BAA60DA
:102780002B6185F80090FDF763FFA369404A484636
:102790005A626B61FEF7A4FF88F31188C820FFF727
:1027A000FFF887F3118810223A493B4B85F80090D7
:1027B000C5E902122B61FDF74BFF88F3118887F3FF
:1027C0001188337A012B41D040F2A93C40270125E2
:1027D00042F22C140022FF200221736FC3F808C0BC
:1027E0001F615D61DC601A601C685B6886F87800B8
:1027F000317282F31188294B81224FF4A471284849
:10280000FEF736FF27492848FFF7EAF9274B8022D1
:102810004FF432712648FEF72BFF4FF47A70FFF722
:10282000BFF8FAE7234B244A06213846FEF7A0FA00
:1028300022494268224BE86291609A69A96A42F48F
:1028400000729A619B694F608F6089E7C0201C4AC3
:102850001C4B916941F480419161926983F8250391
:10286000C3F884715F60AFE70003FA05001000E071
:10287000780E0020610C000851020008A4450008F1
:1028800000100140000C0140CC0F0020D84400088B
:102890003C080020DC0F0020004500085120000803
:1028A000A8130020AC45000894080020712B0008F4
:1028B000E010002028080020710B00084C24014083
:1028C0000010024000E100E00000000000000000F5
:1028D000EFF30983203383F30988002383F31188FE
:1028E000704700BF00000000000000000000000072
:1028F00038B52022034682F31188104A9469A06AF1
:1029000004F12805A842636206D00368A362FEF7BB
:10291000D7F8A06AA842F8D194F8223043B994F8C5
:1029200021309B0704D1D4E904231A612269536141
:102930000F20BDE83840FEF7D3BE00BFB40D002025
:10294000012130B400250D4A1068946903685A606B
:1029500080F82010A1681360906184F8205000E096
:102960001B689A689142FBD35A682146C4E9003239
:1029700014605C6030BCFDF763BC00BFB40D002088
:1029800070B51C4D2023AE6983F311880468C368B9
:102990008442B36327D0F16B4BB11A68934203D0E2
:1029A0009268914238BF1146DB68002BF5D103468F
:1029B0002268B160A16B02605060C3E90241204609
:1029C000A363FEF77DF82A68AB6992689B689A4218
:1029D00003D8002383F3118870BDFFF7B1FF0023F4
:1029E00083F3118870BD0023A360002383F3118853
:1029F00070BD00BFB40D002000000000000000000A
:102A00002DE9F041002682B083688DF805108DF81D
:102A100004600446186820270C3087F31188FFF7FC
:102A20004FF886F31188A368D3E9005387F3118820
:102A30004FF002086B602846FEF7FAF985F800802F
:102A400086F31188A3681D68197A87F31188032318
:102A5000AE602B7001AA43462846FEF7B1FF06463A
:102A600001300ABF052385F800802B70002383F313
:102A70001188A36818680C30FFF782FF304602B057
:102A8000BDE8F08100000000000000000000000030
:102A900038B50D4604468D21FFF7B2FF002D14BF57
:102AA000142110212046FFF7ABFF2046BDE8384037
:102AB000AE21FFF7A5BF00BF00000000000000002E
:102AC0002DE9F84F0446B0254FF000084FF02009DB
:102AD00000F10F0700F2174B29462046FFF790FF41
:102AE00000212046FFF78CFF10212046FFF788FFCA
:102AF000A36818680C3089F31188FEF7E1FF88F3AA
:102B00001188A368D3E9006389F311884FF0020AA2
:102B100073603046FEF78CF986F800A088F31188C0
:102B2000A3681E68197A89F311880323C6F8088000
:102B300033703A4681233046FEF742FF01300ABF28
:102B4000052386F800A0337088F31188A3688137C5
:102B5000186801350C30FFF713FFBB45EDB2BBD150
:102B6000BDE8F88F00000000000000000000000039
:102B700080B501273D4B88B09B693D4A3D4C01AD76
:102B80009A610FCC0FC594E807003B4E3B4C3C4B81
:102B900085E80700C82027712660A3602746FEF756
:102BA000FFFE0DF103050DF11F0615F8011F384654
:102BB000FFF726FFB542F8D14027324D05F5816673
:102BC00005F8017C28468022FF218135FDF7F2FCC3
:102BD000B542F5D12948FFF773FF0021022223688F
:102BE000A1819B68227125489847244D264EDFF825
:102BF000A4802368284600221B6908219847226880
:102C000041469769012332462846B847236828463B
:102C10001B689847C820FEF7C3FE23682846152284
:102C20001B69002198472268184997690123324699
:102C30002846B847236828461B689847C820FEF7EF
:102C4000AFFE236828462A221B6900219847226884
:102C50000F499769002332462846B847236828461B
:102C60001B689847C820FEF79BFEC2E7B40D002002
:102C70003C440008C43600087846000810090020CB
:102C800044460008200900203C4600080C080020AB
:102C900018080020000800200000000000000000CC
:102CA0001B4B1A46196841F0010119601368980717
:102CB000FCD500201368164903F0F9031360506037
:102CC0004B6813F00C0FFBD10B68114A43F48033AF
:102CD0000B6013689903FCD553680D4943F4E8135E
:102CE0005360136843F0807313600B689B01FCD53D
:102CF0001222084B084848601A604B68044A43F0A7
:102D000002034B60536803F00C03082BFAD17047A1
:102D1000001002400020024000641D00000000007E
:102D20002DE9F04F9E4B85B05C6C620500F1AD80E3
:102D3000260500F11981E50408D5994B9A6C100419
:102D400040F1A0816FF48052954B5A64A1050BD5D8
:102D5000DFF850A2DAF80430DB680BB15046984730
:102D60006FF400728E4B5A6423047AD5DFF834A2D4
:102D7000DFF82CB204F00F04A50005F1804505F53D
:102D8000B845D5F80080A61C0AEB860318F0800F22
:102D90005F684CD0D7F814C02A68DCF80430DCF83F
:102DA0000C10DCF8000022F478420B4422F0F00210
:102DB00042F40042C01A2A60CCF8043056D03B8A54
:102DC0004FEA0419984228BF1846CCF80C00DBF8EB
:102DD0005020DCF8083002F1804E0EF5C04E5EF84F
:102DE0000920194402F10052CE4402F54052CCF8B9
:102DF00008105200CEF8040068B101384008131DD5
:102E000003EB8000844600E0043331F8020B9C455C
:102E100010601A46F8D12B6823F4F04323F04003E6
:102E200083F0300343F4004343F080032B6018F435
:102E3000004F12D02B6818F4006F23F4784323F06E
:102E4000F00343F08003E1B22B6000F0AF800AEBA7
:102E50008606736853485B689847DBF84440220451
:102E600088D405B0BDE8F04FFDF782BD0121BAF866
:102E70000830A140BA6823EA0103AAF80830002A02
:102E8000D5D0214647489047D1E700226FF48061B2
:102E9000DFF810A15964DAF80450CAF87C208AF8E7
:102EA0006420E9684020914214BF4FF41E4C4FF457
:102EB0001C4C4FF002084FF0800E4FF4084746F2CA
:102EC000202142F22026CAE90422CAE90622CAE9E0
:102ED0000822CAF82820CAF808208AF800801A6553
:102EE0005A64C3F84CE0C3F840C0CAF88400186DB7
:102EF000DFF8B4C000F1804000F5C040CAF80CC053
:102F00004260DAF8842002F1400CCAF884C0026002
:102F1000C760DAF8842002F14007CAF88470826042
:102F200018681A6810F4804F18BF0B4648F28021C9
:102F300008BF334647F670005706194A48BF43F0AA
:102F400040031160116803404B402D6843F4004377
:102F500043F080031360002D3FF4EAAE00211148D6
:102F6000A84726057FF5E7AE6FF4006005210C4BFE
:102F7000DFF830A01A6C42F008021A6458649AF81C
:102F80000020DAF804308AF880208AF800101B68E4
:102F900013B10421504698470023CAF80830CAE606
:102FA000005C0040280D002064450008DBF850302C
:102FB000D7F818E003F1804303F5C04303EB041393
:102FC0009A68D86802F10053C0F30909029003F52A
:102FD0004053DEF808005B00B9F1010F1A46009378
:102FE000019072D9A9F102035B0802F1040803936E
:102FF00008EB8308831C106804324FEA102C9045BC
:1030000003F8020C03F801CC03F10203F3D1039B94
:10301000009A013302EB83020092019A02EB430310
:103020000193029B03F001031BB1009B019A1B68F3
:103030001370BEF80C30B7F812C05F1EDEF8003017
:10304000DEE90102BFB24A444844A3EB0903CC4580
:10305000AEF80C70CEE90102CEF8003026D901227C
:103060000AEB86067068BAF80A3002FA04F4C568FA
:1030700023EA0404AAF80A40002D3FF4EEAE1548F6
:10308000A847EAE61A6CDFF84CA022F008021A649E
:103090009AF88020DAF804308AF800201B68002BA8
:1030A0003FF450AE5046052198474BE6002FD6D04E
:1030B0002B6823F4904323F0700383F4405343F4CC
:1030C000004343F080032B60C7E64B46002BACD196
:1030D000AFE700BF280D0020000000000000000046
:1030E0002DE9F047684D6E6FD6F80C803368DA052D
:1030F0009CB27DD4202383F3118814F02F0F4DD080
:103100004FF00009614F08E0A106D6F804A01DD4D5
:103110003468A4B214F02F0F40D02307F4D014F079
:10312000080F0CBF00208020E10748BF40F02000BE
:10313000A20748BF40F04000630748BF40F48070DA
:10314000FDF7D6FCA106D6F804A0E1D56B6995F889
:103150007840002B3DD0D5E90832934240D06A69CF
:10316000591C013204EA0A0A6A61296283F800A044
:10317000D5E907329A4201D3AB692B62EB68BB42B7
:10318000C6D01A681846EA605760C3F82490FDF765
:1031900097FC3468A4B214F02F0FBED1002383F340
:1031A000118818F0800F01D022062FD418F0400F9C
:1031B0000BD0630609D5202383F31188D5E91123A9
:1031C0009A4248D0002383F31188BDE8F047FDF709
:1031D000CFBB0420FDF78CFCD5E908329342BED169
:1031E0006A69002ABBD04FF48060FDF781FC8FE74D
:1031F000202383F311884FF40070FDF779FC6FF4FE
:1032000080733360002383F3118873E7202383F3F3
:103210001188D5E911239A4229D0AA6B286C591C30
:103220000132AA63A96481421F7801D3EB6BAB64BE
:103230002B6B174A934209D04FF0000C19681846BF
:1032400029634A60C3F824C0FDF73AFC7760002385
:1032500083F31188AAE7AB6B002BB3D01020FDF7E6
:1032600047FC4FF6BF7308EA0303F360AAE7AA6BB3
:10327000002AD2D00820FDF73BFC4FF67F7308EA06
:103280000303F360E3E700BF94080020A0080020D8
:10329000C408002000000000000000000000000042
:1032A0002DE9F8434FF080463369F2681340DAB2F3
:1032B000D2439B07326103D4BDE8F843FDF758BB06
:1032C000202383F31188224C4FF00008A14659F8BF
:1032D0001C3F9A68706A218D80B2471ABFB297422C
:1032E0001BD320251868114448452185A7EB020708
:1032F000C0F80490DA68E061C3F80C8008BFC6F833
:103300000C8088F311881869904785F31188E36968
:103310009A689742DED3218DE4E7E2694A450FD0EF
:103320004FF6FF7591682085CF1B97609B68AB4275
:1033300028BF2B46022B2CBFC018023080B270630E
:10334000002383F31188BDE8F843FDF711BB00BFEC
:10335000B40D00200000000000000000000000008C
:103360003449F8B5D1E90C6460690E2300F45F427A
:10337000D243776862613D68CA6A25F00F053D60F7
:10338000757B376803FA05F556687D603568176800
:1033900025F00F053560557B82B2AB407B6012F49F
:1033A000807333D18B60970544BF43F002038B6079
:1033B00056050AD5656843F0040325F40075656079
:1033C000256845F4007525608B60150544BF43F002
:1033D00008038B60540444BF43F020038B60D20485
:1033E00000B21BD543F0100300288B601EDB2023A6
:1033F00083F311886FF001010F48FDF7A9FB00234B
:1034000083F31188BDE8F840FDF7B2BA012665697B
:10341000334625F480758E606561C4E7002805DBBE
:10342000002BE4D1BDE8F840FDF7A2BA43F0400319
:103430008B60DCE75C0800207808002000000000BA
:103440003F4870B5446B3F4AA369656945EA034349
:1034500023F07F4393424AD016D93B4A934225D06A
:103460000232934232D0394A93422AD015F00A0FE1
:1034700018BFA369EB0503D5636923F48073636107
:10348000BDE87040FDF774BAB3F1011F02D0013AF4
:103490009342EBD1038C1A0A16D003F0010343F0D8
:1034A000F00302F0060213432361DFE76368026B57
:1034B00023F4007352686360136843F001031360E0
:1034C000D4E7038CC3F347032361CFE7C36A2269C0
:1034D0005B685E680EB32368028C43F4A06342F01D
:1034E000010202842360BDE87040FDF741BA6268C2
:1034F000C36A22F400725B6862601A6842F00102DB
:103500001A60626842F4805262605B68012BADD839
:10351000236823F480632360A8E76368202223F4F0
:1035200000736360236843F40073236082F311889F
:103530001C303146FDF70CFB86F3118896E700BF7F
:103540005C0800200200030082000700080003005E
:1035500008B50348FDF72CFDBDE80840FDF708BAA3
:10356000C44400080000000000000000000000004B
:1035700008B50348FDF71CFDBDE80840FDF7F8B9A4
:10358000B44400080000000000000000000000003B
:1035900008B50348FDF70CFDBDE80840FDF7E8B9A4
:1035A000A44400080000000000000000000000002B
:1035B00008B50348FDF7FCFCBDE80840FDF7D8B9A5
:1035C000944400080000000000000000000000001B
:1035D00008B50348FDF7ECFCBDE80840FDF7C8B9A5
:1035E000844400080000000000000000000000000B
:1035F00008B50348FDF7DCFCBDE80840FDF7B8B9A5
:1036000074440008000000000000000000000000FA
:1036100008B50348FDF7CCFCBDE80840FDF7A8B9A4
:1036200064440008000000000000000000000000EA
:10363000F0B40027134E144D144C154B154906F1E8
:10364000700C9C4211D91A46043951F8040F42F803
:10365000040B9442F9D8DA43144424F003040434EC
:1036600023449D4203D943F8047B9D42FBD8664521
:1036700005D0D6E90413D6E906451036E1E7F0BCDB
:10368000704700BFBC450008F0140020F014002073
:10369000F0140020C04600080000000000000000F8
:1036A000FEE700BF00000000000000000000000076
:1036B000704700BF00000000000000000000000094
:0436C000704700BF90
:1036C400AE2010B0C800104081FFA1A6A83FA4D32B
:1036D40000D5F0D922DA12DB208D14AF00000000EF
:1036E40000000000000000000000000000000000D6
:1036F40000000000000000000000000000000000C6
:103704000000000C000C000C000C000C000C000C61
:10371400000C000C000C000C0000000C000C00005D
:10372400000000000000001B001B001B001B001B0E
:103734000000000000000000000000000000000085
:1037440000000000000000000000801980198019AA
:103754008019C07FC07F80190033C07FC07F0033D1
:103764000033003300330000000000000000001E9E
:10377400003F807580650074003C001E00078005D2
:10378400806580658075003F001E00040004000011
:103794000000007000D840D8C0D880D9007300065B
:1037A400000C801BC036C066C046C0068003000003
:1037B400000000000000001E003F0033003300330F
:1037C400001E000CC03CC066806380618063C03E04
:1037D400801C0000000000000000000C000C000C25
:1037E400000C000C000000000000000000000000BD
:1037F4000000000000000000000000008000000144
:103804000003000600060004000C000C000C000C71
:10381400000C000C000400060006000300018000F8
:10382400002000100018000C000C00040006000624
:1038340000060006000600060004000C000C001838
:10384400001000200000000C002D003F001E00337B
:103854000000000000000000000000000000000064
:103864000000000000000000000000000000000C48
:10387400000C000C000CC0FFC0FF000C000C000C7E
:10388400000C000000000000000000000000000028
:103894000000000000000000000000000000000024
:1038A400000000000000000C000C000400040008EC
:1038B4000000000000000000000000000000000004
:1038C4000000001E001E00000000000000000000B8
:1038D40000000000000000000000000000000000E4
:1038E4000000000000000000000000000000000CC8
:1038F400000C0000000000000000000300030003AF
:103904000006000600060006000C000C000C000C6B
:103914000018001800180000000000000000001E3D
:10392400003F0033806180618061806D806D8061C3
:10393400806180610033003F001E00000000000031
:1039440000000006000E001E0036002600060006D9
:103954000006000600060006000600060006000039
:10396400000000000000001E003F80738061806141
:10397400800100030006000C001800300060807F06
:10398400807F0000000000000000001C003E006377
:1039940000630003000E000E0003800180018061BB
:1039A4008073003F001E00000000000000000006BD
:1039B400000E000E001E001E0016003600360066C3
:1039C400807F807F000600060006000000000000E3
:1039D4000000007F007F006000600060006E007FD8
:1039E40080638001800180618073003F001E0000BD
:1039F400000000000000001E003F80338061006072
:103A0400006E007F80738061806180618033003F3D
:103A1400001E0000000000000000807F807F800105
:103A24000003000300060006000C000C000C000854
:103A34000018001800180000000000000000001E1C
:103A4400003F8063806180610021001E003F80612F
:103A5400806180618061003F001E00000000000062
:103A64000000001E003F00738061806180618073EC
:103A7400803F801D800180610073003F001E0000B4
:103A84000000000000000000000000000000000C26
:103A9400000C000000000000000000000000000C0A
:103AA400000C000000000000000000000000000006
:103AB40000000000000C000C0000000000000000EA
:103AC4000000000C000C00040004000800000000CA
:103AD4000000000080008003000E00380060003801
:103AE400000E8003800000000000000000000000C1
:103AF40000000000000000000000807F807F0000C4
:103B04000000807F807F00000000000000000000B3
:103B140000000000000000000000000000400070F1
:103B2400001C000780010007001C0070004000001A
:103B340000000000000000000000001F803FC07172
:103B4400C060C000C00180030007000E000C000C20
:103B54000000000C000C0000000000000000001E2B
:103B6400003F803180718063806F806D806D806FD5
:103B7400806700600032003E001C0000000000006E
:103B84000000000E000E001B001B001B001B8031F8
:103B94008031803F803F8031C060C060C0600000E1
:103BA400000000000000007C007E006300630063EE
:103BB4000063007E007E0063806180618063007F1B
:103BC400007E0000000000000000001E003F803165
:103BD40080610060006000600060006000608061DF
:103BE4008031003F001E0000000000000000007C47
:103BF400007F006380638061806180618061806197
:103C0400806100630063007E007C0000000000000F
:103C14000000807F807F0060006000600060007FA3
:103C2400007F0060006000600060807F807F000093
:103C3400000000000000807F807F00600060006062
:103C44000060007F007F0060006000600060006032
:103C540000600000000000000000001E003F8031F2
:103C640080610060006000608063806380618061C7
:103C74008031803F001E00000000000000008061D1
:103C840080618061806180618061807F807F8061EC
:103C940080618061806180618061000000000000BB
:103CA4000000003F003F000C000C000C000C000C56
:103CB400000C000C000C000C000C003F003F000046
:103CC400000000000000800180018001800180016B
:103CD4008001800180018001806180618073003FE8
:103CE400001E0000000000000000C060806100634E
:103CF40000660066006C0078007C00660066006365
:103D040080618061C060000000000000000000606D
:103D1400006000600060006000600060006000609F
:103D2400006000600060807F807F00000000000071
:103D34000000C071C071C07BC07AC06AC06AC06E26
:103D4400C064C060C060C060C060C060C06000008B
:103D54000000000000008071807180798079807992
:103D6400806D806D806D806580678067806780630B
:103D740080630000000000000000001E003F0033CC
:103D84008061806180618061806180618061806127
:103D94000033003F001E0000000000000000007E11
:103DA400007F80638061806180618063007F007E2A
:103DB400006000600060006000600000000000001F
:103DC4000000001E003F00338061806180618061DB
:103DD40080618061806580670033803F401E000001
:103DE400000000000000007E007F8063806180612D
:103DF4008063007F007E00660063006380618061F1
:103E0400C0600000000000000000000E001F8031B0
:103E1400803100300038001E00078003806180611B
:103E24008031003F001E0000000000000000C0FFC1
:103E3400C0FF000C000C000C000C000C000C000C6B
:103E4400000C000C000C000C000C00000000000032
:103E54000000806180618061806180618061806137
:103E640080618061806180618073003F001E00007A
:103E7400000000000000C060C060C060803180317C
:103E84008031001B001B001B001B000E000E000EE7
:103E940000040000000000000000C0C0C0C0C0C09A
:103EA400C0C0C0C0C0CC804C804C805E8052805268
:103EB4008073806180610000000000000000C0C0C9
:103EC400806080610033003B001E000C000C001E6B
:103ED400001F003B80718061C0C000000000000032
:103EE4000000C0C08061806100330033001E001EEA
:103EF400000C000C000C000C000C000C000C00006A
:103F0400000000000000803F803F800100030003A8
:103F14000006000C000C0018001800300060807FC0
:103F2400807F000000000000000F000F000C000C58
:103F3400000C000C000C000C000C000C000C000C1D
:103F4400000C000C000C000C000F000F0000001807
:103F540000180018000C000C000C000C00060006F1
:103F64000006000600030003000300000000000038
:103F7400001E001E000600060006000600060006DD
:103F840000060006000600060006000600060006FD
:103F9400001E001E0000000C000C001E0012003366
:103FA4000033806180610000000000000000000018
:103FB40000000000000000000000000000000000FD
:103FC40000000000000000000000000000000000ED
:103FD4000000000000000000E0FF000000000038C6
:103FE4000018000C000000000000000000000000A9
:103FF40000000000000000000000000000000000BD
:1040040000000000000000000000001F803F8061ED
:104014008001801F803F80618063807FC038000002
:104024000000000000000060006000600060006E9E
:10403400007F807380618061806180618073007F14
:10404400006E0000000000000000000000000000FE
:104054000000001E003F807380610060006080618A
:104064008073003F001E000000000000000080017B
:10407400800180018001801D803F807380618061A8
:10408400806180618073803F801D0000000000001B
:1040940000000000000000000000001E003F00734C
:1040A4008061807F807F00608071003F001E00007F
:1040B400000000000000C007C00F000C000C807F4F
:1040C400807F000C000C000C000C000C000C000C99
:1040D400000C0000000000000000000000000000D0
:1040E400801D803F80738061806180618061807306
:1040F400803F801D80018063007F003E00000060DF
:10410400006000600060006F807F8071806180616A
:104114008061806180618061806100000000000036
:1041240000000006000600000000003E003E0006FD
:104134000006000600060006000600060006000051
:10414400000000000006000600000000003E003EE3
:10415400000600060006000600060006000600062B
:1041640000060046007E003C000000600060006025
:104174000060806100630066006C007C0076006370
:1041840000638061C0600000000000000000003E89
:10419400003E0006000600060006000600060006B3
:1041A40000060006000600060006000000000000ED
:1041B4000000000000000000000080DDC0FFC0CE51
:1041C400C0CCC0CCC0CCC0CCC0CCC0CCC0CC000017
:1041D4000000000000000000000000000000006F6C
:1041E400807F807180618061806180618061806195
:1041F40080610000000000000000000000000000DA
:104204000000001E003F80738061806180618061D6
:104214008073003F001E000000000000000000004A
:1042240000000000006E007F807380618061806107
:1042340080618073007F006E006000600060006039
:104244000000000000000000801D803F807380613A
:104254008061806180618073803F801D8001800166
:1042640080018001000000000000000000000067E1
:10427400803F003900300030003000300030003022
:1042840000300000000000000000000000000000FA
:104294000000001E803F80610060007F803F80013D
:1042A4008061007F001E000000000000000000008C
:1042B400000800180018007F007F0018001800187C
:1042C400001800180018801F800F00000000000074
:1042D4000000000000000000000080618061806137
:1042E40080618061806180618063807F803D0000A7
:1042F4000000000000000000000000000000C0609A
:10430400803180318031001B001B001B000E000E29
:104314000006000000000000000000000000000093
:10432400000080DD80DD80DD0055005500550077FC
:1043340000770022002200000000000000000000BE
:10434400000000000000806100330033001E000CF8
:10435400000C001E003300338061000000000000E8
:1043640000000000000000008061806180310033A3
:104374000033001B001B001B000E000E000E001C6F
:10438400007C007000000000000000000000C07FFE
:10439400C07F800100030006000C00180030C07FBD
:1043A400C07F0000000000008003800700060006B4
:1043B400000600060006000E001C001C000E00068D
:1043C40000060006000600068007800300060006BB
:1043D40000060006000600060006000600060006A9
:1043E4000006000600060006000600060006000699
:1043F4000038003C000C000C000C000C000C000EFB
:1044040000070007000E000C000C000C000C000C50
:10441400003C003800000000000000000000000024
:1044240000008038807F004700000000000000008A
:1044340000000000000000004F6C65644469737064
:104444006C617900626C696E6B6572004144432053
:104454002D2D2D20494E203D2025640A0D000000FD
:104464000000024008000240010000000000000BB0
:10447400000002401C000240020000000004010C85
:104484000000024030000240040000000008020D59
:10449400000002404400024008000000000C030E2B
:1044A4000000024058000240100000000010040FF9
:1044B400000002406C0002402000000000140510BF
:1044C4000000024080000240400000000018061175
:1044D4000000000000000100000000004109000885
:1044E40000000000000000000000000000000000C8
:1044F40000000000000000000600000001000800A9
:104504005109000841090008000000000000800073
:104514002400FC00000000000000700011020000F4
:10452400E6A8A516040204080800030708080808FA
:10453400080808080B0F00006E6F6E616D650000BF
:104544006D61696E00164130040244080C101418A1
:104554001C20212200000000286E756C6C290000CC
:104564000000000091110008A1100008F10F0008DC
:1045740040004000B40F0020B40F002001000000F0
:10458400C40F002001000000444D41206661696CA5
:104594007572650001000000801A06000200000028
:1045A40069646C650000000048656C6C6F20776F6F
:1045B400726C640A0D000000C0460008F01400206C
:1045C400F0140020F0140020C04600080000000091
:1045D4000000000000000000C046000800000000C9
:1045E4000000000000000000C046000800000000B9
:1045F4000000000000000000C046000800000000A9
:104604000000000000000000C04600080000000098
:104614000000000000000000C04600080000000088
:104624000000000000000000C04600080000000078
:1046340000000000000000000B120000E03600083B
:104644005C080020984500083C00000000000000C1
:10465400812100087122000811190008911900082D
:10466400011900088119000871210008612200085D
:1046740001160008C12A0008B1080008B11B00088F
:104684009107000881070008E10700088108000875
:08469400912A0008000000005B
:10469C00412030313233343536580000432030312C
:1046AC00323334353659000045203031323334350D
:0446BC00365A00006A
:0400000508000239B4
:00000001FF
