:020000040800F2
:1000000000040020390200083B0200083B020008FF
:100010003B0200083B0200083B0200083B020008CC
:100020003B0200083B0200083B0200086123000875
:100030003B0200083B0200083B0200083B020008AC
:100040003B0200083B0200083B0200083B0200089C
:100050003B0200083B0200083B0200083B0200088C
:100060003B0200083B0200083B020008B1300008D8
:10007000913000087130000851300008313000081C
:1000800011300008F12F00083B0200083B02000875
:10009000B12700083B0200083B0200083B020008B1
:1000A0003B0200083B0200083B0200083B0200083C
:1000B000312D00083B0200083B020008D12E000849
:1000C000F12D00083B0200083B0200083B0200083B
:1000D0003B020008712B00083B0200083B020008AD
:1000E0003B0200083B0200083B0200083B020008FC
:1000F0003B0200083B0200083B0200083B020008EC
:100100003B0200083B0200083B0200083B020008DB
:100110003B0200083B0200083B0200083B020008CB
:100120003B0200083B0200083B0200083B020008BB
:100130003B0200083B0200083B0200083B020008AB
:100140003B0200083B0200083B0200083B0200089B
:100150003B0200083B0200083B0200083B0200088B
:1001600072B6274880F30888264880F30988264815
:100170004EF60851CEF200010860022080F3148888
:10018000BFF36F8F02F0ECFF02F0D2FA4FF0553060
:100190001E491B4A91423CBF41F8040BFAE71C4937
:1001A000184A91423CBF41F8040BFAE719491A4A30
:1001B0001A4B9A423EBF51F8040B42F8040BF8E781
:1001C00000201749174A91423CBF41F8040BFAE757
:1001D00002F07EFF02F0BCFF134C144DAC4203DA78
:1001E00054F8041B8847F9E701F0DAFD104C114D73
:1001F000AC4203DA54F8041B8847F9E702F0A0BFC9
:10020000000400200008002000000008000000207A
:1002100000040020C440000800080020240800203A
:1002200028080020D81300206001000860010008A1
:10023000600100086001000892E700F000F8FEE7A6
:100240002DE9F04FC1F80CD0C3689D46BDE8F08F92
:10025000002383F311882846A047002002F090F87D
:10026000FEE702F0B5F800DFFEE70000844641EA51
:10027000000313F0030349D1403A23D30B68036012
:100280004B6843608B688360CB68C3600B69036114
:100290004B6943618B698361CB69C3610B6A0362FC
:1002A0004B6A43628B6A8362CB6AC3620B6B0363E4
:1002B0004B6B43638B6B8363CB6BC36340304031C9
:1002C000403ADBD230320BD30B6803604B6843609B
:1002D0008B688360CB68C36010301031103AF3D262
:1002E0000C3205D351F8043B40F8043B043AF9D2F0
:1002F000043208D0D2071CBF11F8013B00F8013BC3
:1003000001D30B8803806046704700BF082A13D3CF
:100310008B07B1D010F00303AED0C3F10403D21A9F
:10032000DB071CBF11F8013B00F8013BA4D331F8F7
:10033000023B20F8023B9FE7043AD9D3013A11F877
:10034000013B00F8013BF9D20B7803704B78437006
:100350008B78837060467047F0B4860743D0541E94
:10036000002A3ED0CAB2034602E014F1FF3438D36B
:1003700003F8012B9D07F8D1032C2BD9CDB245EA08
:1003800005250F2C45EA054516D9A4F110073F09AC
:1003900003F1200606EB071603F1100242E90455AB
:1003A00042E902551032B242F8D104F00F0401378D
:1003B000032C03EB07130DD91E462246043A032AE9
:1003C00046F8045BFAD8221F22F0030204321344D9
:1003D00004F003042CB1C9B21C4403F8011B9C4275
:1003E000FBD1F0BC704714460346C5E7000000008F
:1003F000F0B50125254A05FA00F413681C4201D026
:100400000020F0BD224F23431360D7F814C0461CD0
:1004100042F83610DFF880E01E49030102EBC60601
:100420004CF0010071600EEB030C7861DCF80810F1
:10043000566878690E4212D00E2100250EEB03009B
:100440005EF803704368344354601C68427B24F0B8
:100450000F0401FA02F21C607A601D60F0BD5027A3
:100460009CF80F004109890000F1604C01F16041E6
:1004700000F01F0001F5614185400CF5614C8CF8DE
:100480000073C1F880510D60D6E700BF6C0F0020EB
:10049000001002405C080020F03E00080000000050
:1004A000C26810B45369118A1A68174C914228BF68
:1004B0001146D9609868236D03F1804303F5C0436A
:1004C0001A68596089B102F1005202F54052520097
:1004D00001394908131D03EB810100E0043330F8B2
:1004E000024B994214601A46F8D1074A10BC1368AF
:1004F00023F4F04323F0400383F0300343F400433C
:1005000043F0800313607047005C0040000000006F
:10051000C1688A6913689BB1498A0B44013BB3FBEC
:10052000F1F39381084A136823F4904323F0700396
:1005300083F4405343F4004343F080031360704757
:1005400001239381EEE700BF005C00400000000043
:1005500001734273704700BF0000000000000000FC
:1005600080291DD8402A1BD830B4847B14B1B3FA3B
:1005700083F35B090125D40804EBC4142144294406
:10058000014402F0070291F90F0005FA02F252B29B
:10059000AB420CBF024320EA0202CA7330BC704770
:1005A000704700BF000000000000000000000000D5
:1005B0002DE9F04F90F80CC092F800E083B00CEBFE
:1005C0000E077F2F3CDC5478457B25443F2D37DCDC
:1005D00098460191164605466CB34FF0000A7346E3
:1005E000A1F1200B0BFB04A2716831F81270DBB192
:1005F00000245FFA8AF907FA04F31B0458BFB8FA1B
:1006000088F36A7B0CEB04014A444CBF43465B0908
:10061000C9B2D2B22846FFF7A3FF337801349C4217
:1006200095F80CC0E7D374780AF1010AA245D9D332
:100630009E460CEB030701982F7303B0BDE8F08FC3
:10064000002003B0BDE8F08F0000000000000000B3
:10065000F8B50C46097881B1074616461D4602E0FA
:1006600014F8011F49B12B4632463846FFF7A0FF68
:1006700023789842F4D01846F8BD00231846F8BDF8
:10068000837B00F11001B3FA83F35B0983730022CB
:1006900009480BE0A0FB02C3DB0803EBC313D31A2A
:1006A0009BB213B10B78DB430B700131013292B274
:1006B000B2F5816FEED17047813FE00F000000007E
:1006C00030B4202383F311880B4B4942D3E9004512
:1006D000281A0840821AA24207D3954205D35A60CD
:1006E000002383F3118830BC70470020002383F37C
:1006F000118830BC704700BF480F00200000000088
:10070000024AD36843F0C003D36070470038014009
:10071000202383F311880D4B5B6813F4006302D12F
:1007200083F311887047EFF309834FF08072203B09
:10073000DA6183F30988064A1168926989689268C8
:1007400091428CBF034A044A9A61704700ED00E071
:10075000B00D0020630200086602000800000000DF
:10076000084B10B4D3E900424942101A0840A04295
:1007700004D3824202D3586010BC7047002010BCE2
:10078000704700BF480F002000000000000000007C
:100790000F4B104A5B688168526F5B1A9B1AC268E4
:1007A0002DE93008D0E904454168013214EB030B10
:1007B000C0E90232026845F1000C8B4288BF4360F9
:1007C0009342C0E904BCBDE8300838BF03607047FD
:1007D000001000E0B00D002000000000000000004C
:1007E000014B5B6883607047001000E00000000070
:1007F000202383F3118890F82030072B0ED8DFE8F0
:1008000003F0280D0D2408040D08426A9368013393
:100810009360D0E900231A600268536010B400228C
:100820004FF0FF3481680D4B446280F820201B6834
:100830009A688A42FBD25A680021C0E900321060EF
:10084000586081F3118810BC70470022436A1A6017
:10085000E4E7002383F31188704700BFB00D002048
:1008600001460022074B806881F820201B689A68A7
:100870008242FBD25A680846C1E9003211605960D1
:10088000704700BFB00D0020000000000000000015
:10089000F8B5164F57F8044FBC4220D00546002645
:1008A00004E00B2A1CD02468BC4218D0E3682B4318
:1008B000E36015B123691D42F5D0D4E90103416B12
:1008C00090F820200B430A2A4363EAD1426A13427C
:1008D000E9D04662FFF7C4FF2468BC42E6D1F8BD08
:1008E000426A32EA0303DED1F3E700BF9408002036
:1008F000FEE700BF00000000000000000000000054
:10090000F8B506780546012E446B3DD02346D5E95F
:100910000B704FF410614FF4004C00224FF6C0767C
:10092000D7F804E0476804F11000CEF80800B8607A
:10093000C4F800C02260616059686D683140686821
:100940002F7A59605968434E41F02401B0425960F2
:1009500056DD4149884207DC022F63D0032F6CD05B
:1009600048F6FF720B211962DA6129781A680229A8
:1009700092B251D003294CD001293DD01A6023688E
:1009800043F001032360F8BD9A218A22334BC0E96A
:1009900009219842BAD1324F32493B69062043F4CB
:1009A00000133B613B6923F400133B613B69FFF794
:1009B0001FFD2D49E8620520FFF71AFD50224FF078
:1009C0000041FB69286343F40013FB61274BF8697E
:1009D00083F81F23C3F88011196083F82023C3F81C
:1009E00084615E60D5E9092343F4405342F44052E8
:1009F000C5E909236B6B8AE722F00A0292B2BDE7D0
:100A00001B4A400092FBF0F22521C2F30B0219624F
:100A1000AAE742F00A02B1E722F0080292B242F0DD
:100A20000202ABE7124900EB400291FBF2F26FEADF
:100A300042426FEA524292B294E700EB80000C4AC5
:100A400000EB800092FBF0F26FEA82426FEA924282
:100A500092B287E7A0860100801A06005C08002099
:100A600000100240C10A0008810A000800E100E00D
:100A700000512502000000000000000000000000FE
:100A80000B0712D4D0E90C200E2330B4D2E9005465
:100A9000216821F00F012160527B93406B60436815
:100AA00030BC43F400734360704772B6014B024A96
:100AB000DA62FEE7B00D0020C43F0008000000002D
:100AC00011F0080126D10E2270B5C46A436B666826
:100AD000356825F00F053560657B2468AA406260A3
:100AE0005A68202422F480525A601A6822F48062E4
:100AF0001A601A6842F400721A6084F31188C3699C
:100B000023B1C16118465962FFF7AAFE002383F39F
:100B1000118870BD72B6024B024ADA62FEE700BF6E
:100B2000B00D0020C43F00080000000000000000DD
:100B300030B40468437B21684268D940126801F0F0
:100B40000E010A420ED0827B0748013250F8325023
:100B500001FA03F363602DB100EBC2022B4630BCF7
:100B60005068184730BC70476C0F00200000000030
:100B700090F86420152A15D8012340F6416193406E
:100B80000B4270B5044624D113F480150BD0C36812
:100B90009B695B682BB9036F03B19847002384F806
:100BA000643070BD70479B02FBD50B22202380F878
:100BB000642083F31188C36802895B6942F00102F3
:100BC00002819D60C3E90055FFF76AFC85F3118837
:100BD00070BD48F280060E4943680A681D6822F419
:100BE000F04222F0400282F0100232430A600B68A9
:100BF00023F4904323F0700383F4805333430B605A
:100C00000DB10621A847062384F8643070BD00BFEB
:100C1000005C004000000000000000000000000038
:100C200038B590F864300446152B2AD8DFE803F075
:100C30000B29292929290B29292A3A502929292927
:100C4000292929290B0B48F280002F4963680A687B
:100C50001D6822F4F04222F0400282F010020243AA
:100C60000A600B6823F4904323F0700383F48053ED
:100C700003430B6015B106212046A847062384F8DC
:100C8000643038BD90F87B1090F87A30C26E43EA39
:100C900001239A4206D2C3681B8AB2FBF3F503FB19
:100CA0001525E5B11422202384F8642083F31188EC
:100CB0000025E36862899B6942F001026281204657
:100CC0009D60C3E90055FFF723FC85F3118838BD0B
:100CD000036F03B19847002384F8643038BD2023A4
:100CE00083F31188C36802895B6942F001020281C3
:100CF0009D60C3E90055FFF7D3FB85F311880A23F4
:100D000084F8643038BD00BF005C00400000000083
:100D100070B590F86430044613B1002380F8643055
:100D2000BB4B04F174021B6D03F1804303F5C04318
:100D300003EB01139B6803F1005303F540535B0081
:100D400003F1100019680433834222F8021BF9D121
:100D500063689B685BB32046984740B3E26E94F8A3
:100D6000743094F87B0094F87A1041EA00219142A3
:100D70002CBF1146E1661A0600F1A180002972D04D
:100D80001522202384F8642083F311880025D4E9F8
:100D90001A61E36862899B6942F001026281204620
:100DA00083E86200FFF7B4FB85F3118870BD94F807
:100DB000743013F0600518461ED048F28000944944
:100DC00063680A681D6822F4F04222F0400282F053
:100DD000100202430A600B6823F4904323F070036F
:100DE00083F4805303430B6015B106212046A847C6
:100DF000062384F8643070BD40F2023194F87560C7
:100E000003F07F0242EA06228A4200F01F8140D8A6
:100E1000022A00F0038140F2C080B2F5817F00F029
:100E2000C580B2F5407F00F09080B2F5807FC4D1DC
:100E300094F87630012BC0D1B4F87C30A56623F04D
:100E40000203C4E91B55A4F87C300AE0B2F5C06F78
:100E500080F08A80B2F5A06FAFD16E4BC4E91A550D
:100E60002367030643D40B22202384F8642083F3F2
:100E700011880025E36822895B6942F00102228122
:100E800020469D60C3E90055FFF70AFB85F31188F2
:100E900070BD40F201618A42D8D9B2F5106F3CD0E2
:100EA00040F602418A4200F0AC80B2F5006F84D176
:100EB000012204F17F01C4E91B25A16651E7B1B10C
:100EC0000922202384F8642083F311880025D4E9C3
:100ED0001A61E36822895B6942F00102228120469F
:100EE00083E86200FFF7DCFA85F3118870BD1422F5
:100EF000202384F8642083F311880025E368628945
:100F00009B6942F00102628120469D60C3E9005561
:100F1000FFF7FEFA85F3118870BD2378042B00F0EB
:100F2000C18094F876304BB10421626884F87F3038
:100F30002170136813B1022120469847002394F8CA
:100F40007400C4E91A3323678BE794F87630012BD9
:100F50007FF433AFB4F87C30A56643F00203C4E9F4
:100F60001B55A4F87C307CE794F87910626894F8FB
:100F70007830566843EA012394F8762094F8771085
:100F80002046B04700283FF418AFD0E9002325677A
:100F9000C4E91A3294F87430E3E67ABB022104F112
:100FA0007C00C4E91B12A0660A46DAE694F87630A3
:100FB000002B7FF402AF94F8782012F00F0318D0C2
:100FC0009B0003F1804303F5B84312F0800F1A68C9
:100FD00040F0998002F44052B2F5405F09D01A689F
:100FE00022F4F04222F0400242F4204242F0800219
:100FF0001A600023C4E91A33236732E7012A7FF419
:10100000DCAE022200200449C4E91B20A166A8E648
:10101000005C004051110008C040000894F87810AE
:1010200001F00F0011F0800F464951F820102CD12B
:1010300011F440513FF4C1AEB1F5805F2BD10225D0
:1010400000204149C4E91B50A1668AE694F8763035
:10105000002B7FF4B2AE94F8782012F00F03C8D0C2
:101060009B0003F1804303F5B84312F0800F1A6828
:101070005BD122F4904222F0700282F4805242F45A
:10108000004242F080021A60B3E711F030013FF4F1
:1010900094AE1029D3D0022500202C49C4E91B505E
:1010A000A1665EE6202383F311880122402648F2E0
:1010B000800021896389C4E90455C4E90655C4E95F
:1010C000085511401340A56221816381C4F88460F2
:1010D000930003F1804303F5B843196801320143DB
:1010E000082A19601860F3D1002383F311880321C3
:1010F000626884F87F3021701368002B3FF411AFD1
:10110000204698470DE702F03002302A3FF471AFD5
:101110001A6822F4F04222F0400282F0200242F4E7
:10112000004242F080021A6063E722F4F04222F0AB
:10113000400282F0100242F4004242F080021A6043
:1011400057E700BF005C0040C03F0008603F000858
:1011500090F87630426880F87E300649126843F095
:10116000800310B50446CB640AB1012190470323E4
:10117000237010BD005C0040000000000000000073
:101180000020704700000000000000000000000088
:1011900070B404460026144B8068996966628D68B5
:1011A000A8420CD884F820601B689A689042FBD94A
:1011B0005A68C4E9003214605C6070BC70471A461B
:1011C00081F82060126890688542FBD30125506841
:1011D000C1E900200160516084F8205020469C61E4
:1011E00070BCFFF72DB800BFB00D0020000000005C
:1011F000F8B5202484F311880025022701264839F8
:101200004418144944F8243CA260E263A4F1240386
:10121000114A2161E360114B44F8042C4A69E061F2
:10122000A36104F1280004F12C03626144F8205CFE
:10123000278484F82260C4E90D551461C4E90A03C7
:10124000236320464C61FFF7A3FF85F311882046F6
:10125000F8BD00BFB00D002051020008643F000837
:1012600030B40125074B99691A6881F82000146889
:101270001046636082F820501C6030BC9A61FEF713
:10128000DFBF00BFB00D0020000000000000000024
:10129000F0B54B1C87B04AD04FF08043524C5B6A8C
:1012A000A26907465148012905929BB2E269049060
:1012B00004F11C0637D9B24261D0258D90685B1BC2
:1012C0009BB259183AD31268091A9068814204D91E
:1012D0001268091A90688842FAD34FF0FF305368B9
:1012E00001ADCDE901231D60556003919368591A42
:1012F000916060623846FFF7B3FF049B7BB1E269FF
:10130000019BAA4249D00021029A1360019BB3427B
:101310005A60049103D09A6803990A449A60A369B9
:10132000586A07B0F0BDB24215D00221C5E7FFF7F9
:1013300097FF2D4CA369586A07B0F0BD8142C5D212
:101340004FF6FF73994294BF6D18ED184FF080432C
:10135000ADB25D63BAE7022201ADCDE90166C4E931
:101360000755238503924FF080414FF0000C022077
:1013700013449BB24B63C1F810C0C860BAE74FF684
:10138000FF728A4228BF0A4601AD2385CDE9016676
:10139000039192B2C4E90755E5E70022B342E36145
:1013A0005E60049219D04FF080409A68039D218DB1
:1013B0002A449A60436A5B1A9BB29A42AFD9D01A08
:1013C00001280ED94FF6FF739A4228BF1A464FF0F4
:1013D00080400A4492B24263A1E74FF08043DA6052
:1013E0009DE79A1CF3E700BFB00D0020F10700084D
:1013F00061B10246074B10B49B6944680420C3E9FD
:1014000000242360536010BCFFF742BF4FF0FF3051
:10141000704700BFB00D0020000000000000000079
:10142000F8B504460F461646202383F3118805E0DD
:1014300031462046FFF7DCFF002817DBA568002DAA
:10144000F6D06269A368511C013B6161A36017700B
:10145000D4E904329A4224BFE3686361E3690BB1C3
:1014600020469847002080F31188F8BD85F3118845
:10147000F8BD00BF000000000000000000000000F8
:101480003030FFF7CDBF00BF0000000000000000BB
:1014900030304FF0FF32FFF7C3BF00BF0000000045
:1014A00070B5202304460E4683F3118805E03146CB
:1014B0002046FFF79DFF002818DBA568002DF6D019
:1014C000A169A36820694A1C013B8242A36028BF2E
:1014D000E368A2610D7828BFA361E3690BB12046E0
:1014E0009847002383F31188284670BD85F311883F
:1014F00070BD00BF00000000000000000000000000
:101500000C30FFF7CDBF00BF00000000000000005E
:101510000C304FF0FF31FFF7C3BF00BF00000000E9
:1015200008B50146202383F311880820FFF7B0FE99
:10153000002383F3118808BD0000000000000000B4
:1015400004252E4608B5084B084A9B69084C9A6149
:1015500066614FF47A70FFF7E3FF25614FF47A700C
:10156000FFF7DEFFF4E700BFB00D0020E83E000803
:101570000008014000000000000000000000000022
:101580002DE9F8430027490001849946416B8760A3
:1015900087F311884FF08048036B3E46D3F804E090
:1015A000D0E90A3CCEF80030DCF804C0436ACEF83B
:1015B0000C20CEF80490CCF80030CCF80C70CCF8AD
:1015C0000470D8F824204546202492B201E086F326
:1015D000118884F311888B699F0702D40B689B05DF
:1015E0001ED56B6A9B1A9BB2632BF0D90E23D0E9F0
:1015F0000B21D1E90054206820F00F002060497BC6
:10160000506803FA01F169600168146821F00F0164
:1016100001604FF0FF30527B93406360BDE8F88378
:1016200003464A68154D42F400724A600A6804464F
:10163000A86942F480720A6043F81C0F43620320D9
:10164000FFF70EFEAB69586A0028E7D0D4E90B25F6
:101650000E236C68216821F00F012160697B2D68E1
:10166000546803FA01F169602168156821F00F01DF
:101670002160527B93406B60BDE8F883B00D002081
:10168000F8B5384A83689569002B40D0A9689A68F4
:101690000446914207D993F820209960062A3BD04E
:1016A000072A15D042B32646234603E09968AA6864
:1016B00091422AD31B689C42F8D173680620C5E981
:1016C00000631D6075606C62BDE8F840FFF7C8BD3F
:1016D0001F6858685E6A07601F683246786002E0DB
:1016E0009068884234D312689642F9D17268C3E98F
:1016F000006213607360D6E7D3E9001211601846E8
:101700001B685A60FFF7ACF8CDE71E46D5E7AB6B18
:10171000C0E90253A863F8BD1F6858685E6A076095
:101720001F68B4463246786002E09068884216D35B
:1017300012689642F9D1DCF80420A968C3E900C216
:101740001360CCF80430B3689A688A42A3D3AAE73E
:1017500016467268C3E9006213607360A3E794469B
:10176000E9E700BFB00D002000000000000000000D
:101770000EB448212DE9F04F8346002686B010AA0A
:10178000C04D02920192DBF800205846D268013623
:101790002C4690472178651C002975D02529F2D167
:1017A00063782D2B03BFA378A51C012000202B2BD1
:1017B00005BF4FF0010C6B784FF0000C6544302BE7
:1017C00003BF6B783027013520272A2B45D1019B99
:1017D000AC1C03F104091A686B782E2B04F1010884
:1017E000217800F082804FF0000E03F0DF054C2DD1
:1017F00050D0A3F14101632BC9B200F0E4805ED95F
:10180000702B00F0258140F2A780752B00F0378106
:10181000782B00F01D81732B5ED1D9F8005009F1AF
:1018200004030193002D00F098812B78BEF1000F86
:1018300040F07E81002B00F0A281A84647F6FE7E94
:10184000454602E0BEF1FF3F05D015F8013F0EF11D
:10185000FF3E002BF6D12027C1E06C1CA3B1A3F101
:101860003001C9B2092998BF002202D967E10929CC
:1018700049D814F8013B02EB8202A3F1300501EBD9
:101880004202E9B2002BF2D1304606B0BDE8F04F7B
:1018900003B070470029F7D0632900F093804DD939
:1018A000702900F0D48040F28580752900F0E68030
:1018B000782900F0CC8073294BD14446ADE74F2BFB
:1018C00050D040F2EE80552B00F0D980582B00F01C
:1018D000BF80502B00F0BC800DF11808CDF80490AB
:1018E00008F80C3D0DF10D0579E00029CCD02A292E
:1018F0000CD1D9F800E0637804F10308A17809F16C
:101900000409023471E7DDF8049066E74FF0000E39
:1019100005E0514603EB440EA8460029B4D04546E5
:10192000A1F13003DBB2092B15F801AB0EEB8E04ED
:10193000EFD90B4644465146A84656E74F293FD0BB
:1019400040F2EA80552900F0998058297FD050292B
:101950007DD044460B46BFE7692B00F0A7806F2B74
:1019600040F003814FF008084B4653F804CB0DF1CB
:101970001705019329466346B3FBF8FE08FB1E33A7
:1019800003F1300CBCF1390FC8BF03F1370C7346BB
:1019900001F801CD002BEFD16D1A03AB01EB050E61
:1019A00011F801CB714503F801CBF9D103AB1D440C
:1019B000984614E0692900F0B4806F2940F0D9807E
:1019C0004446CFE744462027D9F800300DF11808E7
:1019D00009F10401019108F80C3D0DF10D05A5EB8D
:1019E000080505F1FF39551B3AD4A0BBC5F1000A23
:1019F00095B398F800102D2946D0DBF80030394611
:101A0000DB68584698471AF1010AF6D1B9F1000F80
:101A10002E44FFF6BFAE4D46DBF80030013DDB68DB
:101A200018F8011B584698476B1CF5D101364E44F7
:101A3000BAF1000F3FF4AEAE5546DBF80030394640
:101A4000DB6858469847013DF7D15644A2E6444624
:101A50004FF0100888E7AA46B9F1000FDBDAE7E794
:101A600028B9B9F1000FFFF695AE8246D3E7B9F178
:101A7000000FFFF68FAE4FF0000ACCE744464FF060
:101A80000A0871E7853F0008302FB6D1DBF8003037
:101A90005846DB689847013608F1010809F1FF391B
:101AA000ABE7442B02D0492B7FF416AF4B4653F8DB
:101AB00004EB1929019337D9BEF1000F43DBBCF1C8
:101AC000000F48D02B230DF10D058DF80C30734617
:101AD00005F10B0C964661461A462A4BA3FB02837E
:101AE000DB08984603EB8303A2EB43034246303303
:101AF00001F8013D002AF0D17246ACEB010C01EB7C
:101B00000C086B1E11F801EB414503F801EFF9D108
:101B100065440DF10C0862E7442902D049297FF49D
:101B200018AF444609F104030193D9F800E0C3E774
:101B30002BB3BEF1010EA8467FF582AE8BE6DDF831
:101B40000490002249E62D23CEF1000E8DF80C30D2
:101B50000DF10D05BBE703ADB9E7BEF1000F0CD1E8
:101B600047F6FE7EDFF820806AE6642B7FF4B4AE91
:101B70009CE764297FF4EDAED3E7034DD9E7A8468F
:101B800020272CE7CDCCCCCC943F000800000000EF
:101B90000029F8B50CBF0027FF27402600F11004EC
:101BA00000F5836504F8016C2046802239468134B3
:101BB000FEF7D2FBAC42F5D1F8BD00BF000000003B
:101BC0002DE9F04F85B0CDE90232D0F81C904FF0EE
:101BD000200A8AF3118842B304460F4616464FF096
:101BE000000BA268964298BF3546D4E9042088BF0E
:101BF000A568A2EB0008A84540D82BD32A46394651
:101C0000FEF734FBE2686261A268521BA2609DB1DC
:101C1000B9F1000F01D02046C8478BF31188761B1D
:101C20002F448AF31188002EDBD10398002383F31D
:101C3000118805B0BDE8F08F02992046FFF7D8FB68
:101C40000028CED0039B981B002383F3118805B096
:101C5000BDE8F08FA5EB0803424639460193FEF735
:101C600005FB07EB0801DDF80480E0684246FEF75B
:101C7000FDFA4346E268D3186361C5E72A46394650
:101C8000FEF7F4FA62692A446261BDE700000000D1
:101C90003030FFF795BF00BF0000000000000000DB
:101CA00030304FF0FF33FFF78BBF00BF0000000064
:101CB0002DE9F04F85B0CDE90232D0F81C904FF0FD
:101CC000200A8AF3118842B304460F4616464FF0A5
:101CD000000BA268A169964298BF3546226988BF69
:101CE000A568A2EB0108A84540D82BD32A46384660
:101CF000FEF7BCFAE268A261A268521BA2609DB125
:101D0000B9F1000F01D02046C8478BF31188761B2C
:101D10002F448AF31188002EDBD10398002383F32C
:101D2000118805B0BDE8F08F02992046FFF760FBEF
:101D30000028CED0039B981B002383F3118805B0A5
:101D4000BDE8F08FA5EB0803424638460193FEF745
:101D50008DFA07EB0800DDF80480E1684246FEF7E3
:101D600085FA4346E268D318A361C5E72A46384698
:101D7000FEF77CFAA2692A44A261BDE700000000D8
:101D80000C30FFF795BF00BF00000000000000000E
:101D90000C304FF0FF33FFF78BBF00BF0000000097
:101DA00000214FF0FF341348134B2DE98048416068
:101DB0001D691C611D6919611D69DD68DC60DC68D5
:101DC000D960DC68DC690D4D44F08054DC61DC696D
:101DD000DC690A4644F00064DC61DB692C68084B6E
:101DE00044F480742C6087B001600646054C03F112
:101DF00070010BE06C0F00200010024000700040EA
:101E0000043F00080800024053F8104C1033994278
:101E1000226046F8082FF7D14FF0FF3060214FF4D1
:101E200080764FF400794FF480684FF4000E4FF045
:101E3000400B4FF0800A4FF088354FF0010CC14B3A
:101E4000C14C5860C14B274683F80613C3F880B1D4
:101E5000C3F800B083F80713C3F880A1C3F800A04B
:101E600083F80813C3F880611E6083F80913C3F870
:101E70008091C3F8009083F80A13C3F88081C3F8F7
:101E8000008083F81713C3F880E1C3F800E083F8FB
:101E90002813AF49C3F884615E608E6903F1C043C3
:101EA00046F07D068E61AB4E03F51C53D1F818E069
:101EB000D8605E60A6F58246303E1E6006F5894613
:101EC0003036C3F80C04C3F8046406F1EE46C3F8D8
:101ED0000064A14EF06075603560A04EC3F80C0C34
:101EE000C3F8045CC3F8006C4344C3F80C0CC3F89B
:101EF000045CC3F8005C9A4B83F800C088695A60A0
:101F000040EA09008861C3E90222896942F28A51E4
:101F1000C3E904221A62DA629C626260C4F808C0F3
:101F20001963092103F11802A160C3E90622BB6805
:101F30001D07FCD40523844EBB60B26812F0040276
:101F4000FBD1884D01202C4610278149B2608E6953
:101F5000AA6226F400768E618969834905F17406C8
:101F600044F8041B6C608149814C4A604C6301F168
:101F70000C044A61CA61C1E90B22C1E9034408703B
:101F800005F10C01C5E9031105F15401A961C5E989
:101F9000081105F16401E961E963C5E9111105F171
:101FA00030012E64C5E90C11724E7349734C6A619D
:101FB00028721346ED62AF63EE6408704A602D65C7
:101FC0006C6701F12C0201F1480042F8043B904299
:101FD0009361FAD14FF0010E4FF0804248F69F49CD
:101FE0004FF6FF744FF0805C4FF080084FF0FF37E2
:101FF000DFF85CB18B60DBF81C10DFF8A4A141EACC
:102000000E01CBF81C10DBF81C10DAF804100420C9
:1020100041F40061CAF80410C2F82890D462584C08
:102020009361584964605363A360D3602461536033
:102030006461C2F814E02385C2F800E0434A4B60B3
:1020400082F81C83C2F880C18B60C2F800C004F122
:102050001C0C4D4AC4E907CCDFF848C1DFF848E161
:10206000C2F800C0DFF844C1C1F800E0C2F804C003
:10207000464A01F10C0EC1F80CE067622460C1F819
:1020800010E04B616367CDE90133039393605361C3
:10209000D36202F11003136114234FF000084FF0D4
:1020A0000009936102F1280393621C2306460097FE
:1020B00002F12407576202F13C0C02F14007344957
:1020C000CDE90489C2E90022C2E90FC7136302F116
:1020D00044035364D0615063116291636846FEF714
:1020E0007FFB6846FEF754FB013EF7D180200122BA
:1020F000284BA063E06600986169DFF8B4E0606790
:1021000003F1280703F12C00C4E9111E84F8516083
:10211000C4E91966246484F852200B612021C4E9C3
:10212000053384F85020E664C4E91670206681F314
:10213000118862B64FF6FF0E4FF0100C164B174881
:10214000DF6837E0000002400024014000E100E0C9
:1021500000100240B88488880010014044888888B4
:102160002808002094080020784000085C0800201F
:102170000054004001070008280D002000380140ED
:10218000B00D0020500F0020480F0020280E002026
:1021900061070008E00D002000ED00E00003FA05F3
:1021A000002004E0D8130020C106000800500020E1
:1021B0006C3F000807EA0E0738430EF1604ED86006
:1021C000AEF60F3EDEF80C00544F40F08070CEF8B3
:1021D0000C0038681043386083F81FC083F8221061
:1021E00086F3118862B681F3118802274C4B61692E
:1021F000C3F89820C3E9326283F8B220DFF84CE1DB
:1022000003F16C02DFF848C14648C3F89C2003F193
:102210009002C3F8A410A3F8B070C3F8A8001E671A
:10222000C3F8C460C3F8A040C3F8AC30C3F86CE096
:10223000C3F88CC003F1B8070A6103F1BC01104672
:10224000C3E92E71C3F8C0106261FEF7A1FF86F3E7
:1022500011880820314633464FF4005214044FEAE7
:1022600001114FEA06164FEA031354BF41F00F0164
:1022700046F00306013843F00F034FEA4202EDD166
:10228000294C142062680A40164366602268134095
:102290002360FFF745F9202282F311882B7A012B66
:1022A0002DD040F2A93C4027012642F22C140022F6
:1022B000FF2002216B6FC3F808C01F615E61DC6004
:1022C0001A601C685B6885F87800297282F31188AF
:1022D000164B81224FF4A4711548FEF789FF15496A
:1022E0001548FFF745FA154B80224FF43271144818
:1022F000FEF77EFF4FF47A70FFF712F9FAE7C02479
:102300001049114B886940F480408861896983F8DD
:102310002543C3F884215A60C3E700BF001000E0E2
:10232000700E0020DC3F000800100140411500083D
:1023300090120020843F0008940800200126000825
:10234000C80F00200010024000E100E0F108000882
:102350005102000800000000000000000000000022
:10236000EFF30983203383F30988002383F3118873
:10237000704700BF000000000000000000000000E7
:1023800038B52022034682F31188104A9469A06A66
:1023900004F12805A842636206D00368A362FEF731
:1023A0005FFAA06AA842F8D194F8223043B994F8B1
:1023B00021309B0704D1D4E904231A6122695361B7
:1023C0000F20BDE83840FEF74BBF00BFB00D002026
:1023D000012130B400250D4A1068946903685A60E1
:1023E00080F82010A1681360906184F8205000E00C
:1023F0001B689A689142FBD35A682146C4E90032AF
:1024000014605C6030BCFDF71BBF00BFB00D002046
:1024100070B51C4D2023AE6983F311880468C3682E
:102420008442B36327D0F16B4BB11A68934203D057
:102430009268914238BF1146DB68002BF5D1034604
:102440002268B160A16B02605060C3E9024120467E
:10245000A363FEF705FA2A68AB6992689B689A4203
:1024600003D8002383F3118870BDFFF7B1FF002369
:1024700083F3118870BD0023A360002383F31188C8
:1024800070BD00BFB00D0020000000000000000083
:102490002DE9F041002682B083688DF805108DF893
:1024A00004600446186820270C3087F31188FFF772
:1024B000E7F886F31188A368D3E9005387F31188FE
:1024C0004FF002086B602846FEF71AFA85F8008084
:1024D00086F31188A3681D68197A87F3118803238E
:1024E000AE602B7001AA43462846FFF749F806461E
:1024F00001300ABF052385F800802B70002383F389
:102500001188A36818680C30FFF782FF304602B0CC
:10251000BDE8F081000000000000000000000000A5
:1025200038B50D4604468D21FFF7B2FF002D14BFCC
:10253000142110212046FFF7ABFF2046BDE83840AC
:10254000AE21FFF7A5BF00BF0000000000000000A3
:102550002DE9F84F0446B0254FF000084FF0200950
:1025600000F10F0700F2174B29462046FFF790FFB6
:1025700000212046FFF78CFF10212046FFF788FF3F
:10258000A36818680C3089F31188FFF779F888F38D
:102590001188A368D3E9006389F311884FF0020A18
:1025A00073603046FEF7ACF986F800A088F3118816
:1025B000A3681E68197A89F311880323C6F8088076
:1025C00033703A4681233046FEF7DAFF01300ABF06
:1025D000052386F800A0337088F31188A36881373B
:1025E000186801350C30FFF713FFBB45EDB2BBD1C6
:1025F000BDE8F88F000000000000000000000000AF
:1026000080B501273D4B88B09B693D4A3D4C01ADEB
:102610009A610FCC0FC594E807003B4E3B4C3C4BF6
:1026200085E80700C82027712660A3602746FEF7CB
:1026300077FF0DF103050DF11F0615F8011F384650
:10264000FFF726FFB542F8D14027324D05F58166E8
:1026500005F8017C28468022FF218135FDF77CFEAC
:10266000B542F5D12948FFF773FF00210222236804
:10267000A1819B68227125489847244D264EDFF89A
:10268000A4802368284601221B69002198472268FC
:1026900041469769012332462846B84723682846B1
:1026A0001B689847C820FEF73BFF23682846132283
:1026B0001B6900219847226818499769012332460F
:1026C0002846B847236828461B689847C820FEF765
:1026D00027FF2368284627221B6900219847226884
:1026E0000F499769012332462846B8472368284690
:1026F0001B689847C820FEF713FFC2E7B00D002003
:10270000DC3E000864310008A040000810090020E9
:102710006C40000820090020644000080C080020DC
:102720001808002000080020000000000000000041
:102730001B4B1A46196841F001011960136898078C
:10274000FCD500201368164903F0F90313605060AC
:102750004B6813F00C0FFBD10B68114A43F4803324
:102760000B6013689903FCD553680D4943F4E813D3
:102770005360136843F0807313600B689B01FCD5B2
:102780001222084B084848601A604B68044A43F01C
:1027900002034B60536803F00C03082BFAD1704717
:1027A000001002400020024000641D0000000000F4
:1027B0002DE9F04F9E4B85B05C6C620500F1AD8059
:1027C000260500F11981E50408D5994B9A6C10048F
:1027D00040F1A0816FF48052954B5A64A1050BD54E
:1027E000DFF850A2DAF80430DB680BB150469847A6
:1027F0006FF400728E4B5A6423047AD5DFF834A24A
:10280000DFF82CB204F00F04A50005F1804505F5B2
:10281000B845D5F80080A61C0AEB860318F0800F97
:102820005F684CD0D7F814C02A68DCF80430DCF8B4
:102830000C10DCF8000022F478420B4422F0F00285
:1028400042F40042C01A2A60CCF8043056D03B8AC9
:102850004FEA0419984228BF1846CCF80C00DBF860
:102860005020DCF8083002F1804E0EF5C04E5EF8C4
:102870000920194402F10052CE4402F54052CCF82E
:1028800008105200CEF8040068B101384008131D4A
:1028900003EB8000844600E0043331F8020B9C45D2
:1028A00010601A46F8D12B6823F4F04323F040035C
:1028B00083F0300343F4004343F080032B6018F4AB
:1028C000004F12D02B6818F4006F23F4784323F0E4
:1028D000F00343F08003E1B22B6000F0AF800AEB1D
:1028E0008606736853485B689847DBF844402204C7
:1028F00088D405B0BDE8F04FFDF70ABF0121BAF852
:102900000830A140BA6823EA0103AAF80830002A77
:10291000D5D0214647489047D1E700226FF4806127
:10292000DFF810A15964DAF80450CAF87C208AF85C
:102930006420E9684020914214BF4FF41E4C4FF4CC
:102940001C4C4FF002084FF0800E4FF4084746F23F
:10295000202142F22026CAE90422CAE90622CAE955
:102960000822CAF82820CAF808208AF800801A65C8
:102970005A64C3F84CE0C3F840C0CAF88400186D2C
:10298000DFF8B4C000F1804000F5C040CAF80CC0C8
:102990004260DAF8842002F1400CCAF884C0026078
:1029A000C760DAF8842002F14007CAF884708260B8
:1029B00018681A6810F4804F18BF0B4648F280213F
:1029C00008BF334647F670005706194A48BF43F020
:1029D00040031160116803404B402D6843F40043ED
:1029E00043F080031360002D3FF4EAAE002111484C
:1029F000A84726057FF5E7AE6FF4006005210C4B74
:102A0000DFF830A01A6C42F008021A6458649AF891
:102A10000020DAF804308AF880208AF800101B6859
:102A200013B10421504698470023CAF80830CAE67B
:102A3000005C0040280D00209C3F0008DBF850306F
:102A4000D7F818E003F1804303F5C04303EB041308
:102A50009A68D86802F10053C0F30909029003F59F
:102A60004053DEF808005B00B9F1010F1A460093ED
:102A7000019072D9A9F102035B0802F104080393E3
:102A800008EB8308831C106804324FEA102C904531
:102A900003F8020C03F801CC03F10203F3D1039B0A
:102AA000009A013302EB83020092019A02EB430386
:102AB0000193029B03F001031BB1009B019A1B6869
:102AC0001370BEF80C30B7F812C05F1EDEF800308D
:102AD000DEE90102BFB24A444844A3EB0903CC45F6
:102AE000AEF80C70CEE90102CEF8003026D90122F2
:102AF0000AEB86067068BAF80A3002FA04F4C56870
:102B000023EA0404AAF80A40002D3FF4EEAE15486B
:102B1000A847EAE61A6CDFF84CA022F008021A6413
:102B20009AF88020DAF804308AF800201B68002B1D
:102B30003FF450AE5046052198474BE6002FD6D0C3
:102B40002B6823F4904323F0700383F4405343F441
:102B5000004343F080032B60C7E64B46002BACD10B
:102B6000AFE700BF280D00200000000000000000BB
:102B70002DE9F047684D6E6FD6F80C803368DA05A2
:102B80009CB27DD4202383F3118814F02F0F4DD0F5
:102B90004FF00009614F08E0A106D6F804A01DD44B
:102BA0003468A4B214F02F0F40D02307F4D014F0EF
:102BB000080F0CBF00208020E10748BF40F0200034
:102BC000A20748BF40F04000630748BF40F4807050
:102BD000FDF75EFEA106D6F804A0E1D56B6995F875
:102BE0007840002B3DD0D5E90832934240D06A6945
:102BF000591C013204EA0A0A6A61296283F800A0BA
:102C0000D5E907329A4201D3AB692B62EB68BB422C
:102C1000C6D01A681846EA605760C3F82490FDF7DA
:102C20001FFE3468A4B214F02F0FBED1002383F32B
:102C3000118818F0800F01D022062FD418F0400F11
:102C40000BD0630609D5202383F31188D5E911231E
:102C50009A4248D0002383F31188BDE8F047FDF77E
:102C600057BD0420FDF714FED5E908329342BED1CA
:102C70006A69002ABBD04FF48060FDF709FE8FE738
:102C8000202383F311884FF40070FDF701FE6FF4E9
:102C900080733360002383F3118873E7202383F369
:102CA0001188D5E911239A4229D0AA6B286C591CA6
:102CB0000132AA63A96481421F7801D3EB6BAB6434
:102CC0002B6B174A934209D04FF0000C1968184635
:102CD00029634A60C3F824C0FDF7C2FD7760002372
:102CE00083F31188AAE7AB6B002BB3D01020FDF75C
:102CF000CFFD4FF6BF7308EA0303F360AAE7AA6BA0
:102D0000002AD2D00820FDF7C3FD4FF67F7308EAF2
:102D10000303F360E3E700BF94080020A00800204D
:102D2000C4080020000000000000000000000000B7
:102D30002DE9F8434FF080463369F2681340DAB268
:102D4000D2439B07326103D4BDE8F843FDF7E0BCF2
:102D5000202383F31188224C4FF00008A14659F834
:102D60001C3F9A68706A218D80B2471ABFB29742A1
:102D70001BD320251868114448452185A7EB02077D
:102D8000C0F80490DA68E061C3F80C8008BFC6F8A8
:102D90000C8088F311881869904785F31188E369DE
:102DA0009A689742DED3218DE4E7E2694A450FD065
:102DB0004FF6FF7591682085CF1B97609B68AB42EB
:102DC00028BF2B46022B2CBFC018023080B2706384
:102DD000002383F31188BDE8F843FDF799BC00BFD9
:102DE000B00D002000000000000000000000000006
:102DF000364AF8B5D2E90C6460690E2300F45F41ED
:102E0000C943776861613D68D16A25F00F053D606F
:102E1000757B376803FA05F54E687D6035680F6885
:102E200025F00F0535604D7B81B2AB407B6011F41E
:102E3000807337D193608F0544BF43F002039360E2
:102E40004E050AD5656843F0040325F400756560F6
:102E5000256845F40075256093600D0544BF43F077
:102E6000080393604C0444BF43F020039360C904FB
:102E700000B21FD543F010030028936022DB20230B
:102E800083F31188D06930B16FF0010100234162F2
:102E9000D361FDF7E5FC002383F31188BDE8F8401A
:102EA000FDF736BC01266569334625F480759660CA
:102EB0006561C0E7002805DB002BE0D1BDE8F840E4
:102EC000FDF726BC43F040039360D8E75C08002080
:102ED000404A38B5546B4049A369656945EA0343E4
:102EE00023F07F438B424AD016D93C498B4225D0F0
:102EF00002318B4232D03A498B422AD015F00A0F68
:102F000018BFA369EB0503D5636923F4807363617C
:102F1000BDE83840FDF7FCBBB3F1011F02D0013919
:102F20008B42EBD1138C1A0A16D003F0010343F045
:102F3000F00302F0060213432361DFE76368126BBC
:102F400023F4007352686360136843F00103136055
:102F5000D4E7138CC3F347032361CFE7D36A216916
:102F60005B685B680BB32368118C43F4A06341F08A
:102F7000010111842360BDE83840FDF7C9BBD36A65
:102F800062685B6822F4007262601A6842F00102B3
:102F90001A60626842F4805262605B68012BADD8AF
:102FA000236823F480632360A8E76168202021F46C
:102FB00000716160216841F40071216080F3118823
:102FC000D06918B14362D361FDF74AFC002383F353
:102FD000118893E75C0800200200030082000700CC
:102FE00008000300000000000000000000000000D6
:102FF00008B50348FDF79CFDBDE80840FDF788BB18
:10300000503F000800000000000000000000000029
:1030100008B50348FDF78CFDBDE80840FDF778BB17
:10302000403F000800000000000000000000000019
:1030300008B50348FDF77CFDBDE80840FDF768BB17
:10304000303F000800000000000000000000000009
:1030500008B50348FDF76CFDBDE80840FDF758BB17
:10306000203F0008000000000000000000000000F9
:1030700008B50348FDF75CFDBDE80840FDF748BB17
:10308000103F0008000000000000000000000000E9
:1030900008B50348FDF74CFDBDE80840FDF738BB17
:1030A000003F0008000000000000000000000000D9
:1030B00008B50348FDF73CFDBDE80840FDF728BB17
:1030C000F03E0008000000000000000000000000CA
:1030D000F0B40027134E144D144C154B154906F14E
:1030E000700C9C4211D91A46043951F8040F42F869
:1030F000040B9442F9D8DA43144424F00304043452
:1031000023449D4203D943F8047B9D42FBD8664586
:1031100005D0D6E90413D6E906451036E1E7F0BC40
:10312000704700BFE43F0008D8130020D8130020E8
:10313000D8130020E8400008000000000000000054
:10314000FEE700BF000000000000000000000000DB
:10315000704700BF000000000000000000000000F9
:04316000704700BFF5
:10316400AE2010B0C800104081FFA1A6A83FA4D390
:1031740000D5F0D922DA12DB208D14AF0000000054
:10318400000000000000000000000000000000003B
:10319400000000000000000000000000000000002B
:1031A4000000000C000C000C000C000C000C000CC7
:1031B400000C000C000C000C0000000C000C0000C3
:1031C400000000000000001B001B001B001B001B74
:1031D40000000000000000000000000000000000EB
:1031E4000000000000000000000080198019801910
:1031F4008019C07FC07F80190033C07FC07F003337
:103204000033003300330000000000000000001E03
:10321400003F807580650074003C001E0007800537
:10322400806580658075003F001E00040004000076
:103234000000007000D840D8C0D880D900730006C0
:10324400000C801BC036C066C046C0068003000068
:10325400000000000000001E003F00330033003374
:10326400001E000CC03CC066806380618063C03E69
:10327400801C0000000000000000000C000C000C8A
:10328400000C000C00000000000000000000000022
:1032940000000000000000000000000080000001A9
:1032A4000003000600060004000C000C000C000CD7
:1032B400000C000C0004000600060003000180005E
:1032C400002000100018000C000C0004000600068A
:1032D40000060006000600060004000C000C00189E
:1032E400001000200000000C002D003F001E0033E1
:1032F40000000000000000000000000000000000CA
:103304000000000000000000000000000000000CAD
:10331400000C000C000CC0FFC0FF000C000C000CE3
:10332400000C00000000000000000000000000008D
:103334000000000000000000000000000000000089
:10334400000000000000000C000C00040004000851
:103354000000000000000000000000000000000069
:103364000000001E001E000000000000000000001D
:103374000000000000000000000000000000000049
:103384000000000000000000000000000000000C2D
:10339400000C000000000000000000030003000314
:1033A4000006000600060006000C000C000C000CD1
:1033B4000018001800180000000000000000001EA3
:1033C400003F0033806180618061806D806D806129
:1033D400806180610033003F001E00000000000097
:1033E40000000006000E001E00360026000600063F
:1033F400000600060006000600060006000600009F
:10340400000000000000001E003F807380618061A6
:10341400800100030006000C001800300060807F6B
:10342400807F0000000000000000001C003E0063DC
:1034340000630003000E000E000380018001806120
:103444008073003F001E0000000000000000000622
:10345400000E000E001E001E001600360036006628
:10346400807F807F00060006000600000000000048
:103474000000007F007F006000600060006E007F3D
:1034840080638001800180618073003F001E000022
:10349400000000000000001E003F803380610060D7
:1034A400006E007F80738061806180618033003FA3
:1034B400001E0000000000000000807F807F80016B
:1034C4000003000300060006000C000C000C0008BA
:1034D4000018001800180000000000000000001E82
:1034E400003F8063806180610021001E003F806195
:1034F400806180618061003F001E000000000000C8
:103504000000001E003F0073806180618061807351
:10351400803F801D800180610073003F001E000019
:103524000000000000000000000000000000000C8B
:10353400000C000000000000000000000000000C6F
:10354400000C00000000000000000000000000006B
:1035540000000000000C000C00000000000000004F
:103564000000000C000C000400040008000000002F
:103574000000000080008003000E00380060003866
:10358400000E800380000000000000000000000026
:1035940000000000000000000000807F807F000029
:1035A4000000807F807F0000000000000000000019
:1035B4000000000000000000000000000040007057
:1035C400001C000780010007001C00700040000080
:1035D40000000000000000000000001F803FC071D8
:1035E400C060C000C00180030007000E000C000C86
:1035F4000000000C000C0000000000000000001E91
:10360400003F803180718063806F806D806D806F3A
:10361400806700600032003E001C000000000000D3
:103624000000000E000E001B001B001B001B80315D
:103634008031803F803F8031C060C060C060000046
:10364400000000000000007C007E00630063006353
:103654000063007E007E0063806180618063007F80
:10366400007E0000000000000000001E003F8031CA
:103674008061006000600060006000600060806144
:103684008031003F001E0000000000000000007CAC
:10369400007F0063806380618061806180618061FC
:1036A400806100630063007E007C00000000000075
:1036B4000000807F807F0060006000600060007F09
:1036C400007F0060006000600060807F807F0000F9
:1036D400000000000000807F807F006000600060C8
:1036E4000060007F007F0060006000600060006098
:1036F40000600000000000000000001E003F803158
:10370400806100600060006080638063806180612C
:103714008031803F001E0000000000000000806136
:1037240080618061806180618061807F807F806151
:103734008061806180618061806100000000000020
:103744000000003F003F000C000C000C000C000CBB
:10375400000C000C000C000C000C003F003F0000AB
:1037640000000000000080018001800180018001D0
:103774008001800180018001806180618073003F4D
:10378400001E0000000000000000C06080610063B3
:1037940000660066006C0078007C006600660063CA
:1037A40080618061C06000000000000000000060D3
:1037B4000060006000600060006000600060006005
:1037C400006000600060807F807F000000000000D7
:1037D4000000C071C071C07BC07AC06AC06AC06E8C
:1037E400C064C060C060C060C060C060C0600000F1
:1037F40000000000000080718071807980798079F8
:10380400806D806D806D8065806780678067806370
:1038140080630000000000000000001E003F003331
:10382400806180618061806180618061806180618C
:103834000033003F001E0000000000000000007E76
:10384400007F80638061806180618063007F007E8F
:103854000060006000600060006000000000000084
:103864000000001E003F0033806180618061806140
:1038740080618061806580670033803F401E000066
:10388400000000000000007E007F80638061806192
:103894008063007F007E0066006300638061806156
:1038A400C0600000000000000000000E001F803116
:1038B400803100300038001E000780038061806181
:1038C4008031003F001E0000000000000000C0FF27
:1038D400C0FF000C000C000C000C000C000C000CD1
:1038E400000C000C000C000C000C00000000000098
:1038F400000080618061806180618061806180619D
:1039040080618061806180618073003F001E0000DF
:10391400000000000000C060C060C06080318031E1
:103924008031001B001B001B001B000E000E000E4C
:1039340000040000000000000000C0C0C0C0C0C0FF
:10394400C0C0C0C0C0CC804C804C805E80528052CD
:103954008073806180610000000000000000C0C02E
:10396400806080610033003B001E000C000C001ED0
:10397400001F003B80718061C0C000000000000097
:103984000000C0C08061806100330033001E001E4F
:10399400000C000C000C000C000C000C000C0000CF
:1039A400000000000000803F803F8001000300030E
:1039B4000006000C000C0018001800300060807F26
:1039C400807F000000000000000F000F000C000CBE
:1039D400000C000C000C000C000C000C000C000C83
:1039E400000C000C000C000C000F000F000000186D
:1039F40000180018000C000C000C000C0006000657
:103A0400000600060003000300030000000000009D
:103A1400001E001E00060006000600060006000642
:103A24000006000600060006000600060006000662
:103A3400001E001E0000000C000C001E00120033CB
:103A4400003380618061000000000000000000007D
:103A54000000000000000000000000000000000062
:103A64000000000000000000000000000000000052
:103A74000000000000000000E0FF0000000000382B
:103A84000018000C0000000000000000000000000E
:103A94000000000000000000000000000000000022
:103AA40000000000000000000000001F803F806153
:103AB4008001801F803F80618063807FC038000068
:103AC4000000000000000060006000600060006E04
:103AD400007F807380618061806180618073007F7A
:103AE400006E000000000000000000000000000064
:103AF4000000001E003F80738061006000608061F0
:103B04008073003F001E00000000000000008001E0
:103B1400800180018001801D803F8073806180610D
:103B2400806180618073803F801D00000000000080
:103B340000000000000000000000001E003F0073B1
:103B44008061807F807F00608071003F001E0000E4
:103B5400000000000000C007C00F000C000C807FB4
:103B6400807F000C000C000C000C000C000C000CFE
:103B7400000C000000000000000000000000000035
:103B8400801D803F8073806180618061806180736B
:103B9400803F801D80018063007F003E0000006044
:103BA400006000600060006F807F807180618061D0
:103BB400806180618061806180610000000000009C
:103BC40000000006000600000000003E003E000663
:103BD40000060006000600060006000600060000B7
:103BE400000000000006000600000000003E003E49
:103BF4000006000600060006000600060006000691
:103C040000060046007E003C00000060006000608A
:103C14000060806100630066006C007C00760063D5
:103C240000638061C0600000000000000000003EEE
:103C3400003E000600060006000600060006000618
:103C44000006000600060006000600000000000052
:103C54000000000000000000000080DDC0FFC0CEB6
:103C6400C0CCC0CCC0CCC0CCC0CCC0CCC0CC00007C
:103C74000000000000000000000000000000006FD1
:103C8400807F8071806180618061806180618061FA
:103C9400806100000000000000000000000000003F
:103CA4000000001E003F807380618061806180613C
:103CB4008073003F001E00000000000000000000B0
:103CC40000000000006E007F80738061806180616D
:103CD40080618073007F006E00600060006000609F
:103CE4000000000000000000801D803F80738061A0
:103CF4008061806180618073803F801D80018001CC
:103D04008001800100000000000000000000006746
:103D1400803F003900300030003000300030003087
:103D2400003000000000000000000000000000005F
:103D34000000001E803F80610060007F803F8001A2
:103D44008061007F001E00000000000000000000F1
:103D5400000800180018007F007F001800180018E1
:103D6400001800180018801F800F000000000000D9
:103D7400000000000000000000008061806180619C
:103D840080618061806180618063807F803D00000C
:103D94000000000000000000000000000000C060FF
:103DA400803180318031001B001B001B000E000E8F
:103DB40000060000000000000000000000000000F9
:103DC400000080DD80DD80DD005500550055007762
:103DD4000077002200220000000000000000000024
:103DE400000000000000806100330033001E000C5E
:103DF400000C001E0033003380610000000000004E
:103E04000000000000000000806180618031003308
:103E14000033001B001B001B000E000E000E001CD4
:103E2400007C007000000000000000000000C07F63
:103E3400C07F800100030006000C00180030C07F22
:103E4400C07F000000000000800380070006000619
:103E5400000600060006000E001C001C000E0006F2
:103E64000006000600060006800780030006000620
:103E7400000600060006000600060006000600060E
:103E840000060006000600060006000600060006FE
:103E94000038003C000C000C000C000C000C000E60
:103EA40000070007000E000C000C000C000C000CB6
:103EB400003C00380000000000000000000000008A
:103EC40000008038807F00470000000000000000F0
:103ED40000000000000000004F6C656444697370CA
:103EE4006C617900626C696E6B657200000002405F
:103EF40008000240010000000000000B0000024026
:103F04001C000240020000000004010C00000240FA
:103F140030000240040000000008020D00000240CE
:103F24004400024008000000000C030E00000240A0
:103F340058000240100000000010040F000002406E
:103F44006C00024020000000001405100000024034
:103F5400800002404000000000180611000000002C
:103F64006E6F6E616D6500006D61696E00164130A3
:103F7400040244080C1014181C2021220000000024
:103F840048656C6C6F20776F726C640A0D000000DA
:103F9400286E756C6C29000000000000110D0008EB
:103FA400210C0008710B000840004000AC0F0020F9
:103FB400AC0F002001000000BC0F00200100000035
:103FC400444D41206661696C757265000100000012
:103FD400801A06000200000069646C65000000009D
:103FE400E8400008D8130020D8130020D81300207C
:103FF400E84000080000000000000000000000008D
:10400400E84000080000000000000000000000007C
:10401400E84000080000000000000000000000006C
:10402400E84000080000000000000000000000005C
:10403400E84000080000000000000000000000004C
:10404400E84000080000000000000000000000003C
:10405400E84000080000000000000000000000002C
:104064000B120000803100085C080020D03F0008DB
:104074003C00000000000000A11C0008911D000885
:104084009114000811150008811400080115000896
:10409400911C0008811D00088111000851250008A9
:1040A40081060008911B00086105000851050008FD
:1040B400B105000851060008212500080000000091
:1040C400412030313233343536580000432030310A
:1040D40032333435365900004520303132333435EB
:0440E400365A000048
:0400000508000239B4
:00000001FF
