:020000040800F2
:100000000050002025040008810200088502000835
:10001000890200088D02000891020008000000001B
:100020000000000000000000000000009502000831
:1000300099020008000000009D020008A1020008CB
:100040006D0400086D0400086D0400086D040008CC
:100050006D0400086D0400086D0400086D040008BC
:100060006D0400086D0400086D0400086D040008AC
:100070006D0400086D0400086D0400086D0400089C
:100080006D0400086D0400086D0400086D0400088C
:100090006D0400086D0400086D0400086D0400087C
:1000A0006D0400086D0400086D0400086D0400086C
:1000B0006D0400086D0400086D0400086D0400085C
:1000C0006D0400086D0400086D0400086D0400084C
:1000D0006D0400086D0400086D0400086D0400083C
:1000E0006D0400086D0400086D04000800000000A5
:1000F0000000000000000000000000000000000000
:0C01000000000000000000005FF808F1A3
:10010C000348044B834202D0034B03B1184770479A
:10011C004404002044040020000000000548064967
:10012C00091A891001EBD171491002D0034B03B1AC
:10013C0018477047440400204404002000000000CD
:10014C0010B5064C237843B9FFF7DAFF044B13B113
:10015C000448AFF300800123237010BD4404002039
:10016C00000000007004000808B5044B1BB10449E2
:10017C000448AFF30080BDE80840CFE70000000062
:10018C004804002070040008002301461A46184653
:10019C0000F03EB838B50A4C0A4D641BA4100AD0C6
:1001AC0004F18043013B05EB8305013C55F8043910
:1001BC009847002CF9D1BDE8384000F059B900BF80
:1001CC00980400089404000870B50D4E0D4D761B74
:1001DC00B61006D00024013455F8043B9847A642CB
:1001EC00F9D1094E094D00F03DF9761BB61006D039
:1001FC000024013455F8043B9847A642F9D170BD50
:10020C008C0400088C040008940400088C0400087A
:10021C00F0B4174C2568D5F848410CB365681F2D10
:10022C0023DC38B900206B1C0235636044F82510C0
:10023C00F0BC7047012604EB850CCCF88820D4F870
:10024C00887106FA05F217430228C4F88871CCF8B5
:10025C000831E7D1D4F88C311A43C4F88C21E1E78A
:10026C0005F5A674C5F84841D8E74FF0FF30DFE735
:10027C0088040008704700BFFEE700BFFEE700BF20
:10028C00FEE700BFFEE700BF704700BF704700BF2E
:10029C00704700BF704700BF30B400244FF41F05F7
:1002AC003A4B3B49186882B040F00100186058681E
:1002BC001A4601405960196821F0847121F480318B
:1002CC001960196821F480211960596821F4FE0124
:1002DC0059609D6000940194196841F48031196053
:1002EC0003E0009BB3F5A06F09D0136803F400334F
:1002FC000193009B01330093019B002BF1D0234B06
:10030C001B6813F4003318BF01230193019B012BCD
:10031C0006D04FF000621F4B9A6002B030BC7047A1
:10032C001D491A4B08681A4640F01000086008680E
:10033C0020F003000860086840F00200086059686B
:10034C00596059685960596841F48061596059681D
:10035C0021F47C115960596841F4E811596019680D
:10036C0041F08071196013689B01FCD553680749F3
:10037C0023F003035360536843F0020353604B684C
:10038C0003F00C03082BFAD1C3E700BF00100240A6
:10039C000000FFF800ED00E000200240114A536815
:1003AC0003F00C03082B0ED153685168C3F383433D
:1003BC00C90303F1020310D5526892030DD40A4A03
:1003CC0002FB03F300E0084B064A08495268C2F3EB
:1003DC0003128A5CD3400B617047054A02FB03F39E
:1003EC00F2E700BF0010024000127A003004002037
:1003FC0000093D00024B13B10248FFF7C5BE704720
:10040C0000000000A1010008024B0020DA68DA604D
:10041C00704700BF00080140002103E00B4B5B5804
:10042C00435004310A480B4B42189A42F6D30A4AFD
:10043C0002E0002342F8043B084B9A42F9D3FFF741
:10044C002BFFFFF7C1FEFFF7DFFF70479804000892
:10045C00000000204404002044040020600400201C
:10046C00FEE70000F8B500BFF8BC08BC9E4670471C
:0C047C00F8B500BFF8BC08BC9E467047F5
:040488000800002048
:08048C000104000875010008DD
:040494004D0100080E
:10049800080000200000000000000000F402002016
:1004A8005C030020C40300200000000000000000DE
:1004B8000000000000000000000000000000000034
:1004C8000000000000000000000000000000000024
:1004D8000000000000000000000000000000000014
:1004E8000000000000000000000000000000000004
:1004F80000000000000000000000000000000000F4
:1005080000000000000000000000000000000000E3
:1005180000000000000000000000000000000000D3
:1005280000000000000000000000000000000000C3
:1005380000000000000000000000000000000000B3
:1005480001000000000000000E33CDAB34126DE650
:10055800ECDE05000B0000000000000000000000B9
:100568000000000000000000000000000000000083
:100578000000000000000000000000000000000073
:100588000000000000000000000000000000000063
:100598000000000000000000000000000000000053
:1008C80000000000000000000102030406070809F8
:0408D80000A24A042C
:0400000508000425C6
:00000001FF
